:020000040800F2
:1000000070E50020DD030008D7820008CD700008ED
:10001000D58200084F2C00081FC80008000000000F
:100020000000000000000000000000001D030008A8
:100030000533000800000000790300080BA4000845
:10004000F7030008F7030008F7030008F7030008A8
:10005000F7030008F703000807330008F703000858
:10006000F70300080D33000813330008F7030008F6
:10007000F7030008F7030008F7030008F703000878
:10008000F7030008F7030008F7030008F703000868
:10009000512C0008F7030008F70300081933000883
:1000A000F7030008F7030008F7030008F703000848
:1000B000F7030008F7030008F7030008F703000838
:1000C000F7030008F7030008F7030008F703000828
:1000D000F703000871AC0008F703000831AD000811
:1000E000F7030008F7030008F7030008F703000808
:1000F000F7030008F7030008F7030008192D0008AC
:10010000F7030008F7030008F7030008F7030008E7
:10011000F7030008F7030008F7030008F7030008D7
:10012000F7030008712D00087D2D0008F703000873
:10013000F7030008F7030008F7030008F7030008B7
:100140005D2C0008F7030008F7030008FD82000893
:10015000F7030008493200085532000811AE0008C4
:10016000F7030008F7030008F7030008F703000887
:10017000F7030008F7030008F70300080000000079
:10018000F7030008F703000800F002F800F0B6F8E3
:100190000AA090E8000C82448344AAF10107DA45E2
:1001A00001D100F0ABF8AFF2090EBAE80F0013F07E
:1001B000010F18BFFB1A43F001031847E863010061
:1001C000086401000A444FF0000C10F8013B13F0E2
:1001D000070408BF10F8014B1D1108BF10F8015BA0
:1001E000641E05D010F8016B641E01F8016BF9D193
:1001F00013F0080F1EBF10F8014BAD1C0C1B09D1EA
:100200006D1E58BF01F801CBFAD505E014F8016B5B
:1002100001F8016B6D1EF9D59142D6D370470000ED
:100220000023002400250026103A28BF78C1FBD8FF
:10023000520728BF30C148BF0B6070476E2900F0DD
:100240002984702900F06B85662915F06380652983
:1002500015F06080672915F05D80612915F05C80DC
:1002600003681B0A28BF41F08001692900F0D6838A
:10027000642900F0D383752900F0D0836F2900F042
:10028000F884782900F03785E92900F09384E4297F
:1002900000F09084F52900F08D84EF2900F0F584BA
:1002A000F82900F036850368DB0928BF41F080019A
:1002B000632901F07382732901F07882E32901F048
:1002C0008382F32901F08882002070471FB514F063
:1002D00069FF9DE8030000F0FDFA01F0D7FA040081
:1002E0000020002113F064FB401C6060002000210E
:1002F00013F048FBE0601FBD10B510BD01F098FA87
:100300001146FFF7E3FF10F0A4FA01F075FB03B408
:10031000FFF7F2FF03BC01F0ADFB00002C4B1968A6
:100320000868B0E8F04F80F30988BFF36F8F4FF093
:10033000000080F311887047000000000848006842
:10034000006880F308884FF0000080F3148862B6DC
:1003500061B6BFF34F8FBFF36F8F00DF00BF00BFE9
:1003600008ED00E0DFF80C00016841F47001016065
:10037000704700BF88ED00E0EFF30980BFF36F8F97
:10038000134B1A681EF0100F08BF20ED108A20E9E9
:10039000F04F106009B44FF0500080F31188BFF3A4
:1003A0004F8FBFF36F8F12F019FA4FF0000080F3F8
:1003B000118809BC19680868B0E8F04F1EF0100FEA
:1003C00008BFB0EC108A80F30988BFF36F8F7047C5
:1003D000A0000020EFF30580704700000948804727
:1003E00009480047FEE7FEE7FEE7FEE7FEE7FEE717
:1003F000FEE7FEE7FEE7FEE704480549054A064B2F
:1004000070470000CDA400088901000870A50020F5
:1004100070E5002070C5002070C500209FED1A1AFD
:10042000F5EE000A40EE010ABDEEE00AF5EEC00A64
:1004300010EE100AF1EE10FA38BF401E00EE100A5E
:100440001349F7EE001AB8EEC00A30EEC00ADFED2D
:100450000F0A20EE200AFCEEC00A10EE900AC0F34C
:10046000080000EE900A01EB8000F8EE600A90EDC3
:10047000011A70EE600A90ED000A71EEE01A21EEAA
:10048000800A00EE810A704783F9223E0000004492
:10049000005A0108DFED190AB5EEC00A60EE200A25
:1004A000BDEEE01A11EE100AF1EE10FA38BF401E50
:1004B00000EE100A1349F7EE001AB8EEC00A30EE4B
:1004C000C00ADFED0F0A60EE200ABCEEE00A10EE73
:1004D000100AC0F3080000EE100A01EB8000B8EE2D
:1004E000400A90ED011A70EEC00A90ED000A71EE1C
:1004F000E01A21EE800A00EE810A704783F9223E5D
:1005000000000044005A010870B5064600F0C6F924
:10051000056806F10B0020F00704B4429CBF0020E0
:1005200070BD2B466A68BAB11068A04210D304F1BE
:10053000080188423CBF5068586007D351681019C1
:1005400041601168091B016058601460101D70BD86
:1005500013465268002AE7D12146284600F0A6F942
:100560000028DED170BD70B50446051F00F096F975
:100570000068002C14BF446870BD002C18BFAC424A
:100580003CBF20466468F8D301680A18AA4218BF25
:10059000456003D12A680546114401602868411965
:1005A000A1421CBF6C6070BD61686960216808442D
:1005B000286070BD53EA020C00F069802DE9F04B11
:1005C0004FF00006002B1FBFB3FA83F503FA05F4C2
:1005D00024FA05F65E4012BF1643B2FA82F502FA1B
:1005E00005F4C5F120051EBF22FA05FC44EA0C04FF
:1005F000203556EA044C4FEA144418BF641C4FF0EF
:1006000000084FF00009904271EB030C39D3002928
:1006100019BFB1FA81F701FA07F6B0FA80F700FACC
:1006200007F6C7F120071EBF20FA07FC46EA0C06B2
:100630002037B6FBF4FCA7EB0507103F07F01F0BB4
:10064000CBF120060CFA0BFB2CFA06F644BFB3469E
:100650000026202FA4BF5E464FF0000B5BEA060C7D
:1006600008BF4FF0010B19EB0B09ABFB027C48EB09
:100670000608C01B06FB02CC0BFB03CC71EB0C0184
:10068000C1E70B46024641464846BDE8F08B13B52C
:100690004FF000004FF00001AFF30080BDE81C40B8
:1006A000704700001CB50C46064B7B446946009021
:1006B000204600F008FA04460020694600F016FAC9
:1006C00020461CBD3F04000010B5431C02E010F89A
:1006D000011B71B18107FAD14FF0013202C88C1AA7
:1006E0008C4314EAC211F9D0C01A0A0603D0C01E06
:1006F00010BDC01A10BD0A0401D0801E10BD090231
:10070000FCD0401E10BD032A40F2308010F0030CD4
:1007100000F0158011F8013BBCF1020F624498BF54
:1007200011F801CB00F8013B38BF11F8013BA2F1F1
:10073000040298BF00F801CB38BF00F8013B11F06C
:10074000030300F02580083AC0F0088051F8043B0C
:10075000083A51F804CBA0E80810F5E7121D5CBF79
:1007600051F8043B40F8043BAFF30080D20724BFAC
:1007700011F8013B11F801CB48BF11F8012B24BF40
:1007800000F8013B00F801CB48BF00F8012B70478F
:1007900010B5203AC0F00B80B1E81850203AA0E81C
:1007A0001850B1E81850A0E81850BFF4F5AF5FEA50
:1007B000027C24BFB1E81850A0E8185044BF18C903
:1007C00018C0BDE810405FEA827C24BF51F8043BAA
:1007D00040F8043B08BF7047D20728BF31F8023BFE
:1007E00048BF11F8012B28BF20F8023B48BF00F892
:1007F000012B704702F0FF0343EA032242EA024260
:1008000000F002B84FF000020429C0F0128010F08E
:10081000030C00F01B80CCF1040CBCF1020F18BFDC
:1008200000F8012BA8BF20F8022BA1EB0C0100F06F
:100830000DB85FEAC17C24BF00F8012B00F8012B42
:1008400048BF00F8012B70474FF0000200B5134677
:1008500094469646203922BFA0E80C50A0E80C50E0
:10086000B1F12001BFF4F7AF090728BFA0E80C5091
:1008700048BF0CC05DF804EB890028BF40F8042B8A
:1008800008BF704748BF20F8022B11F0804F18BFF7
:1008900000F8012B70477047704770470048704759
:1008A00018A50020704770477047704738B5044658
:1008B0000A4600206946AFF30080002808BF38BD13
:1008C00002460099204600F001FB012038BD0120BE
:1008D00000F0A6BFF8B5AFF30080054600200C4637
:1008E000102000BF0646A819A0420DD9324669461D
:1008F0000020AFF30080070008BF00F091FF0098D0
:10090000A04218BF0546C419FFF7C8FF0560074697
:10091000F01D20F007004619284600F00AF8B442FE
:1009200008BFF8BDA21B31463868BDE8F84000F0AA
:10093000CDBA00210160C0E9011070471020704756
:1009400010B500F0BFFA006810BD10B5044600F005
:10095000B9FA046010BD70B5044685690068C10627
:1009600001D5302600E02026C00707D070BDD4E9AD
:10097000012130469047206A401C20626D1EF6D54A
:1009800070BD70B5044685690078C00707D170BD99
:10099000D4E9012120209047206A401C20626D1E6E
:1009A000F6D570BD09684A0501D540B27047C90542
:1009B000FCD500B2704709684A0501D5C0B270473E
:1009C000C905FCD580B2704770B50C460546012AB2
:1009D00005D02878800600D5EA69002302E00123CB
:1009E00005E05B1C934202D2E05C0028F9D1A869C3
:1009F000E618C01AA861286A184428622846FFF73A
:100A0000AAFF04E0D5E9012114F8010B9047B44294
:100A1000F8D32846FFF7B5FF70BD00002DE9F0417F
:100A20000646002410687529314616A510D0FFF738
:100A3000B9FF002802DA404213A507E031688A07AF
:100A400001D512A502E0490704D511A5012401E052
:100A5000FFF7B1FF00210A2206F1240709E0B0FBED
:100A6000F2FCB0FBF2F302FB1C0030307854184665
:100A7000491C0028F3D123462A463046BDE8F04100
:100A800000F09CBA000000002D0000002B000000C8
:100A90002000000011680268006A530501D5087043
:100AA0000AE0D30501D5088006E0130603D5C21776
:100AB000C1E9000200E008600120704701694A1C9A
:100AC00002610878704700B58FB0CDE9013100218F
:100AD000059105497944CDE903101146684600F0B7
:100AE00029F90FB000BD0000E5FFFFFF0A6802F81A
:100AF000010B0A60704700002DE9FF5F15468A462A
:100B00000446DFF8AC80F8440027D8E900103E46E0
:100B1000CDE9001010E03AF816106A4602A800F07D
:100B20005FFE411C07D02178890603D5E269391898
:100B300091420DD80744761C2078800602D5E069E2
:100B4000B84205DDAE42E6DB3AF816000028E2D1F5
:100B5000A069C01BA0612046FFF7FDFED8E9001088
:100B6000CDE90010002017E03AF818106A4602A8F4
:100B700000F036FEB0F1FF3F81460BD000250DF1AD
:100B8000080B05E0D4E901211BF8050090476D1C16
:100B90004D45F7D308F10100B0428046E4DB206AFE
:100BA000384420622046FFF7ECFEBDE8FF9F0000BE
:100BB0001E5801002DE9F0418046D21D22F00702A7
:100BC0000025D2E90002F52915A614D0011E72F104
:100BD000000106DA0023D0EB030063EB020211A64A
:100BE00008E0D8F800108B0701D50FA602E04907EE
:100BF00001D50EA601251146002408F1240704E0C2
:100C000000F07EF930323A55641C50EA0102F7D107
:100C10002B46324621464046BDE8F04100F0CEB9B1
:100C2000000000002D0000002B000000200000004C
:100C300030B4002100F1240408E002F00705D208D6
:100C4000303542EA4372DB086554491C52EA030519
:100C5000F3D10468002310A2250707D5A40600D409
:100C600021B1C46901230DA2641EC46130BC00F02F
:100C7000A5B910B5044621461068FFF79CFE024650
:100C80002046BDE810400023D2E7D21D22F0070124
:100C9000D1E90023CCE70000000000003000000094
:100CA000F0B40D460188090502D5214C7C4402E0D0
:100CB0001F4C7C440E34002100F1240608E002F0B1
:100CC0000F071209E75D42EA03721B097754491CBA
:100CD00052EA0307F3D102780023120704D5702DDE
:100CE00006D009B1022311342246F0BC00F066B9E7
:100CF00001231034F8E770B504460D46214610680C
:100D0000FFF759FE024629462046BDE87040002301
:100D1000C6E7D21D22F00703D3E90023C0E703682A
:100D2000126843F0200303600823C3610023B7E780
:100D3000805601002DE9F05F894604464FF0000A15
:100D4000DFF874B1FB44C0F820A02046E168884772
:100D5000002874D0252806D0D4E901219047206AC4
:100D6000401C2062F1E700265F462046E168884784
:100D70002028054607DB312D05D2781910F8200C04
:100D800008B10643F1E7B00701D526F00406C4F820
:100D90001CA00027C4F818A02A2D09D028460DF061
:100DA00051F838B304EB8708303DC8F8185019E003
:100DB00059F8041B204604EB87029161E1688847DB
:100DC000012F054618D1E069002820DA26F0200618
:100DD0001DE0D8F8180000EB800005EB400030382B
:100DE000C8F818002046E168884705460DF02AF843
:100DF0000028EED1012F0AD02E2D08D12046E1681F
:100E000088477F1C0546022F46F02006C4DBA069F8
:100E1000002803DA404246F00106A061F00701D045
:100E200026F010066C2D0BD0682D09D04C2D39D032
:100E30006A2D35D0742D35D07A2D33D016E038E0B8
:100E4000E1682F4620468847B842054609D16C2FF5
:100E500026D04FF48060E168064320468847054667
:100E600004E06C2F1AD04FF4807006430DB3A5F147
:100E70004100192802D8203546F400664A46294622
:100E8000204626604E46FFF7D9F980B101280BD0E5
:100E9000F61D26F0070000F1080956E74020E4E7B8
:100EA0008020D8E70020D6E706F104094DE7284660
:100EB00052E7206ABDE8F09F1056010000487047D5
:100EC00010A500200048704710A500200346406888
:100ED0008C46002818BF88423CBF03464068F8D3C0
:100EE00018681844884207D00CF1030020F007006E
:100EF000001D411A521A0146081D0A60FFF733BB54
:100F000030B5B0F10A024FEA900E71F100034EEADB
:100F1000817EB0EB0E0061EB91014FEA101E4EEAAC
:100F2000017E10EB0E0041EB11114FEA102E4EEA3C
:100F3000016E10EB0E0041EB11214FEA104E4EEA0C
:100F4000014E10EB0E0041EB1141401841F1000140
:100F50004FEAD00040EA41704FEAD10110EB800522
:100F60004FEA810444EA907444EB01046D1944EBA8
:100F70000404521BA3414FF0000348BF0A3200D5BE
:100F800030BD401C41F1000130BD00001FB584B0F0
:100F900000200A9C06AB04AA02A90094AFF30080CB
:100FA00018B1DDE9020108B010BD0348204000F08F
:100FB00031FD00200146F6E70000207C2DE9F047D6
:100FC0000D4699469246044600F1240801688806B9
:100FD00004D5E06921F01001216000E00120A84261
:100FE00001DD471B00E00027A1697A1902EB090027
:100FF000081AA0612078C00602D42046FFF7ABFC97
:10100000002608E0D4E901211AF806009047206A7A
:10101000401C761C20624E45F4DB2078C0060AD5C1
:101020002046FFF798FC06E0D4E9012130209047E4
:10103000206A401C2062381EA7F10107F4DC07E09B
:10104000D4E9012118F805009047206A401C20626D
:10105000281EA5F10105F3DC2046FFF792FC20785D
:10106000000602D50220BDE8F0870120FBE77047AB
:101070002DE9FF4F0C461E464FF0FF378BB0D2E9EB
:101080000001DDF860800A908A46C1F30A5505B96F
:101090003D460021084614F02DF9BAF1000F00F486
:1010A000400005DA00EB80004FF4400101EA5000F7
:1010B0004FEA9059B9F1010F00DDB9460A9850EA9C
:1010C0004A000ED044F61050A5F2FF3545432F14C8
:1010D000B8F1000F1ED07542291E1EDDC9F10002B5
:1010E0001CE0B8F1010F4FF0000001D0302103E007
:1010F000F24305E02154401CB042FBDB30460022A5
:10110000002121540B99C1F80880C1E900200FB0DB
:10111000BDE8F08FBD1B6D1CDEE74A4600DA694270
:1011200006A800F0F7FB06AB93E8070003AB83E8E3
:10113000070050460A9900F05AFD8DE80700A0F517
:1011400000501F3800900398002D0ADD42F21F0165
:101150004A460844002303A90390684600F0C3FFF1
:1011600009E0A0F500504A461F38002303A9039068
:10117000684600F0CDFF8DE807000004000C03D0A6
:101180004FF0FF30410800E01046B8F1000F03D0E7
:101190000022009215461EE0751E05D4FFF7B0FE32
:1011A000303262556D1EF9D5B3460122084302D094
:1011B00000227F1C04E02078302801D100227F1E0D
:1011C000002A099784D01DE0112D07DAFFF798FE59
:1011D000303262556D1C50EA0102F5D1084302D04D
:1011E0000098C8B10EE00021681E05E0235C625C37
:1011F00063542254401E491C8142F7DBAB46A81BB6
:10120000401E0990002004F80B000B98099AC0F8C2
:101210000880C0E9002B7AE711264FF0000857E755
:101220002DE9F04F88460446D21D22F0070191B007
:10123000D1E90001CDE90A010BF0F2FA02460B9860
:10124000C00F01D02D2007E02068810701D52B2099
:1012500002E0202101EAC000032A099001D0072AF8
:1012600005DB03464146204600F014FB0BE12078E5
:10127000800601D5E06900E00620B8F1650F8146DF
:1012800006D0B8F1660F18D0B8F1670F70D131E011
:101290000020B9F1110F009001DB112301E009F1E9
:1012A00001030AAA01A90CA8FFF7E2FEDDE90C7010
:1012B000002609F10105834647E001204B460090D6
:1012C0004FF000470AAA01A90CA8FFF7D1FEDDE9FB
:1012D0000DB00C995D46002610B909F101000D18FA
:1012E000B9EB050003D4C0F1FF3609F10105A5EB08
:1012F00009002BE0B9F1010F01DA4FF001090020DC
:10130000B9F1110F0090484601DD112300E00346BA
:101310000AAA01A90CA8FFF7ABFEDDE90C704D4647
:1013200000268346207800070AD4AB4500DA5D46E4
:1013300001A8012D04DD411911F8011C302907D045
:101340004F4502DA17F1040F04DA012082460FE05C
:101350006D1EEEE7002F02DCED1B3E4403E0781C1F
:10136000A84200DD7D1CB81B00F1010A4FF00047C8
:101370002078000703D4AA4501DB4FF0FF3A002193
:10138000B7F1004F0DF143088DF8431024D002202F
:101390002B23002F01DA7F422D230A21021EA0F108
:1013A000010000DC5FB197FBF1FC97FBF1F201FB60
:1013B0001C7C17460CF1300C08F801CDEEE7A8F1C3
:1013C000010003702188090501D5452100E0652150
:1013D000A0F1010800F8011C09980FA9A1EB08076A
:1013E000FF1D00B10120411901EBEA70A1693844E9
:1013F000081A401EA0612078C00602D42046FFF7DC
:10140000AAFA099828B1D4E901219047206A401C22
:1014100020622078C00622D52046FFF79CFA1EE005
:10142000002E04DBB34502DD01A8805D00E0302022
:10143000D4E901219047206A401C2062761CAAF161
:1014400001005FEA000A0AD100F020FAC0680168D2
:10145000405CD4E901219047206A401C2062281E8C
:10146000A5F10105DCDC07E0D4E9012118F8010B46
:101470009047206A401C2062381EA7F10107F3DC68
:101480002046FFF77EFA032011B041E62DE9F04F28
:1014900004460D46D21D22F0070089B0D0E900971E
:1014A000484639460BF0BCF90246F80F01D02D230F
:1014B00007E02068810701D52B2302E0202101EA03
:1014C000C0038DF820300BB1012000E00020032A7A
:1014D000824601D0072A04DB2946204600F0DAF9CB
:1014E0003FE12078800601D40D2500E0E569C7F3CF
:1014F0000A560D2D49DA00214FEA175B084613F012
:10150000F9FE002F00F4400007DA00EB80004FF4F2
:10151000400100EBD07001EA60008115012901DD76
:101520004FF0FF3100224FEA850CBCF1180F06D3B3
:101530001346ACF118004FF08052C24003E04FF464
:10154000801323FA0CF30CF10C0CBCF1200F04D324
:10155000ACF1200C09FA0CF001E007FA0CF00029BC
:101560004FF0004801DD18B90FE00ED140450CD313
:1015700019EB02095F4121B9404502D19F4329EA95
:101580000209BBEB175F00D0761C2088000502D54E
:101590007B48784402E07A487844193808AA302316
:1015A00002F80A30037C0AF10101002E0AF1020A56
:1015B00053546A4602DC4FF0300101E04FF0310134
:1015C0004FF001088DF8001002D0A6F2FF3603E0BC
:1015D00059EA470100D06B4E002D02DC2178090743
:1015E00004D54FF002082E218DF80110C4460021C9
:1015F0000BE0C7F303433F01C35C491C6D1E02F8B7
:101600000830052908F1010801DA002DF1DC00217C
:101610000CE000EB1973491C1B786D1E082902F8B9
:1016200008304FEA091908F1010801DA002DF0DC51
:1016300021688B0602D516E0A8F10108E04505DD1A
:1016400002EB080313F8013C302BF5D0B8F1000F82
:1016500009DD02EB080313F8013C2E2B03D1090727
:1016600001D4A8F10108002D05DD3E2102F8081083
:101670006D1E08F10108407C002E02F8080008F1F8
:10168000010804DA2D20764202F8080002E02B203F
:1016900002F808000A214FF47A70864208F1010826
:1016A0000BDB96FBF0F3303302F8083096FBF0F3D7
:1016B00008F1010800FB136601E0642E0CDB6420D6
:1016C00096FBF0F3303302F8083096FBF0F308F1A4
:1016D000010800FB136601E00A2E06DB96FBF1F021
:1016E000303002F8080008F1010896FBF1F001FB28
:1016F0001060303002F80800A16908F1010808EB19
:10170000050202EB0A00081AA0612078C00602D484
:101710002046FFF720F9216A08AE01EB0A0020629B
:1017200004E0D4E9012116F8010B9047BAF1010A4F
:10173000F7D22078C00602D52046FFF70CF96E4696
:1017400009E016F8010B3E280FD0D4E9012190479B
:10175000206A401C2062B8F10108F2D22046FFF74F
:1017600010F909B00320BDE8F08F206A28442062F8
:1017700003E0D4E90121302090476D1EEBD3F8E758
:10178000F54D010002FCFFFF10B5436913B1AFF343
:10179000008001E0FFF718F9012010BD127800F178
:1017A00024010A7000224A700122EDE711684FF00F
:1017B000FF32E9E710B5436913B1AFF3008001E0F0
:1017C000FFF79AF9012010BD128800F124018284EC
:1017D0000022C2840122EDE711684FF0FF32E9E7F1
:1017E00070B516460C46054600F048F8036893F8B5
:1017F0000101012806D0FF2C0FD8185D68B1012027
:101800002C7070BDD3F807013246214603F207134E
:1018100003442846BDE8704018474FF0FF3070BDC4
:1018200010B500F0FFF8BDE8104000F0EEB87047CA
:101830007546FFF743FBAE4605006946534620F068
:101840000700854618B020B5FEF7D6FDBDE820405C
:101850004FF000064FF000074FF000084FF0000B6C
:1018600021F00701AC46ACE8C009ACE8C009ACE81F
:10187000C009ACE8C0098D467047000010B500F003
:1018800005F8001D10BD00BF292101000048704768
:1018900030A500202DE9F0411F46044603260168CB
:1018A000072A01F4006004DB08B116A505E016A5BF
:1018B00003E008B115A500E015A521F01000206097
:1018C000A069C01EA0610FB1401EA0612046FFF7B5
:1018D00042F84FB1D4E9012138469047206A401CB4
:1018E0002062C01C206206E0206AFAE7D4E90121E8
:1018F00015F8010B9047761EF8D22046FFF741F805
:10190000BDE8F0814E414E006E616E00494E4600CA
:10191000696E66002DE9F047814616468AB0354863
:1019200078440DC88DE80D0032487844801C03AC23
:101930000DC884E80D0041F69B300844372190FB28
:10194000F1F290FBF1F5A5F1800501FB12041B3CBF
:1019500002D56442012000E00020DFF898A0804614
:101960000027FA44AAF1BE0A0EE0E0070AD0324688
:10197000684607EB470101230AEB810100F0C8FB31
:101980008DE8070064107F1C002CEED1194F7F44B6
:10199000AE3F19E0E80715D007EB04100DF1180A67
:1019A00090E80E008AE80E00C068F04201D1981954
:1019B00008903246012306A903A800F0A9FB03AB57
:1019C00083E807006D10641C002DE3D14FF0010384
:1019D00032466946B8F1000F03A802D000F083FB3D
:1019E00001E000F095FBC9E90001C9F808200AB040
:1019F000BDE8F087F84A010010B50446AFF3008057
:101A00002046BDE81040FEF782BC002801D000F05F
:101A100031B8704710B500F04DF8BDE81040FFF741
:101A2000F4BF000010B5012805D0002103A000F08C
:101A300027F8012010BD09A1F8E7000053494752DB
:101A4000544D454D3A204F7574206F66206865618E
:101A500070206D656D6F7279000000003A20486556
:101A60006170206D656D6F727920636F7272757031
:101A70007465640001491820ABBEFEE72600020031
:101A800070B505460C460A2000E06D1C00F0A8F871
:101A900035B128780028F8D102E0641C00F0A0F8E5
:101AA00014B120780028F8D1BDE870400A2000F079
:101AB00097B8000010B5022803D0410103D50DA14D
:101AC00012E0002010BD010101D50FA10CE0C10002
:101AD00001D511A108E0810001D512A104E0400068
:101AE00001D513A100E0002115A0FFF7C9FF0120D7
:101AF00010BD0000496E76616C6964204F7065729C
:101B00006174696F6E000000446976696465204203
:101B100079205A65726F00004F766572666C6F7738
:101B200000000000556E646572666C6F77000000FF
:101B3000496E657861637420526573756C7400003A
:101B40005349474650453A2041726974686D65743F
:101B5000696320657863657074696F6E3A20000070
:101B60004FF0013C50F8042B51F8043B9A4221D12C
:101B7000A2EB0C03934313EACC1317D150F8042BB8
:101B800051F8043B9A4215D1A2EB0C03934313EA9C
:101B9000CC130BD150F8042B51F8043B9A4209D1D5
:101BA000A2EB0C03934313EACC13DBD04FF00000FD
:101BB000704700BFD01A01BAB1FA81F101F01801E3
:101BC00022FA01F0CB40C1F12001DBB2C0B2C01A51
:101BD0002CFA01F3D11A914311EAC311E6D17047EF
:101BE00008B569468DF800000320ABBE08BD5FEA6A
:101BF000400C08BF91F0000F4FEA8C234FEAC1223E
:101C000043EA51514FEA1C5018BF00F5F0404FEA2B
:101C1000300018BF41F000415FEA6C5C00F02980A1
:101C2000BCF1FF3F08BF40F080407047130C06BF77
:101C300012044FF0100C4FF0000C130E04BF1202F0
:101C40000CF1080C130F04BF12010CF1040C930FDC
:101C500004BF92000CF1020CD30F04BF52000CF130
:101C6000010C11464FF00002A0F11F00A0EB0C0088
:101C7000704711F0004F08BF704731F000413FF44A
:101C8000D5AF0B0C06BF09044FF0100C4FF0000C41
:101C90000B0E04BF09020CF1080C0B0F04BF090165
:101CA0000CF1040C8B0F04BF89000CF1020CCB0F5C
:101CB00004BF49000CF1010CCCF12003A0EB0C0097
:101CC00022FA03F302FA0CF241EA030100F10100E7
:101CD000704720F07F4C80EA030023F07F47ACEB95
:101CE000070303F57C5300F0004003F1FF032DE9E7
:101CF00080494FEA154B09B44FEA144325EA0B4ECD
:101D000024EA03480FF2042606EB132749083E781D
:101D10005FEA320203FB0667C7F5000707FB06F61A
:101D20004FEA54374FEAD64606F1020607FB066C27
:101D3000CCF1005C4FEA1C472CEA074C07FB06F489
:101D40000CFB06F504EB15464FEA961634BF00204F
:101D50004FF000404FEAD13706FB07FC4FEA1C4C1E
:101D60000CFB0BF7D21B03FB0CF761EB07010CFB21
:101D70000EF7B0EB074072EB17420CFB08F734BFCD
:101D8000A2EB0742B2EB074261EB17414FEA0C446A
:101D90004FEA910706FB07FC4FEA1C4C0CFB0BF7C4
:101DA000B0EBC74072EB573203FB0CF734BFA2EB2A
:101DB000C742B2EBC74261EB57310CFB0EF7B0EBF9
:101DC000C70072EB57720CFB08F734BFA2EBC702D7
:101DD000B2EBC70261EB5771039F4FEA816141EAA1
:101DE000921104EBCC044FEAD1374FEA826206FB32
:101DF00007FC42EA90124FEA80604FEA1C4C0CFB51
:101E00000BF7D21B03FB0CF761EB07010CFB0EF782
:101E1000B0EB074072EB17420CFB08F734BFA2EBA4
:101E20000742B2EB074261EB17414FEA8C554FEA8C
:101E3000910704EB9C2406FB07FC4FEA1C4C0CFBAF
:101E40000BF7B0EBC74072EB573203FB0CF734BF14
:101E5000A2EBC742B2EBC74261EB57310CFB0EF766
:101E6000B0EBC70072EB57720CFB08F734BFA2EB64
:101E7000C702B2EBC70261EB577115EB4C254FEA75
:101E8000816141EA92114FEA82624FEAD13742EA18
:101E9000901206FB07FC44F100044FEA80604FEA11
:101EA0001C4C0CFB0BF7D21B03FB0CF761EB07017F
:101EB0000CFB0EF7B0EB074072EB17420CFB08F778
:101EC00034BFA2EB0742B2EB074261EB174115EBBF
:101ED0001C154FEA813141EA92414FEA823242EACF
:101EE00090424FEA80304FEA0C7644F1000448EA11
:101EF00003434EEA0B484FF0000EB2EB080C71EBB7
:101F0000030724BF624639464EEB0E0E4FF0000B1E
:101F10000018524149414BEB0B0BB2EB080C71EB33
:101F200003077BF1000B24BF624639464EEB0E0ED1
:101F30004FF0000B0018524149414BEB0B0BB2EB39
:101F4000080C71EB03077BF1000B24BF6246394696
:101F50004EEB0E0E51EA020718BF46F0010616EBD3
:101F60000E7655F1000254F1000103D5BDE8890158
:101F7000BDE80088BDE88901BDE80048B6195241B6
:101F800041EB0101A3F10103704780807F7E7D7CDE
:101F90007B7A7978777676757473727171706F6EFB
:101FA0006E6D6C6C6B6A6A696868676666656464A6
:101FB000636362616160605F5F5E5E5D5D5C5C5B30
:101FC0005B5A5A595958585757565655555554549F
:101FD000535352525251515050504F4F4F4E4E4DFD
:101FE0004D4D4C4C4C4B4B4B4A4A4A494949484849
:101FF0004847474747464646454545444444444389
:1020000043434342424242414141002B9C4630D42B
:1020100077002BD01CB54FEA370703B44FF0100000
:102020004FF01001BAF1000F06D0BCF1000FDCBF79
:1020300040F0080040F0080113F05CF90FBCBDE867
:1020400010400BF1010BBBF1010F08BF5FEA17074E
:1020500022BF12F1010211F101014FF0004143F1E1
:10206000000300F0004043EA00007047F9D357082E
:10207000D0E746EA064613F1400F4FEA16461FDD49
:1020800013F1200FDFBF16430A46002120335B42C5
:10209000BED0C3F1200746EA064602FA07F74FEA28
:1020A000164646EA0706C3F1200722FA03F201FAB0
:1020B00007F721FA03F14FF0000342EA0702A7E70E
:1020C00046EA020646EA06464FEA164646EA010690
:1020D000BCBF46EA0646360C4FF000034FF0000244
:1020E0004FF0000194E72DE9804C9A46934670B476
:1020F00091E8380007C831EA400C48BF34EA430C85
:1021000003D5FFF7E6FDFFF780FFF0BCBDE8008CCC
:102110002DE9804C9A46934670B491E8380007C880
:1021200010F0804F08BF13F0804F03D100F005F886
:10213000FFF76BFFF0BCBDE8008C20F07F4780EA22
:10214000030023F07F4C07EB0C03A3F57C5300F056
:102150000040A3F1FE0392F0000F00F0B38095F071
:10216000000F00F077802DE901494FEA11404FEA56
:10217000144621EA004800FB06FC24EA064708FB57
:1021800006F607FB08F800FB07F718EB06484CEBD0
:10219000164C4FEA124B18EB07484FEA15464CEB2A
:1021A000174022EA0B4E0BFB06FC25EA06470EFB06
:1021B00006F607FB0EFE0BFB07F71EEB064E4CEB7D
:1021C000164C4FF000061EEB074E4CEB174B18EB6E
:1021D0000B0840F1000018EB0E0B58EB000840F123
:1021E00000008F1A4FF000013CBFC943661B14BFAB
:1021F000B5EB040C00213CBFC943F61B4FEA174462
:102200004EEA8E0E27EA04454FEA1C4704FB07629C
:102210002CEA074C05FB07F70CFB05F604FB0CFC4E
:1022200016EB074642EB174216EB0C4642EB1C42FC
:102230001BEB060658EB0202414146EA9E0601D519
:10224000BDE80189B619524141EB0101A3F1010337
:10225000BDE801894FEA14454FEA114724EA0546D3
:1022600021EA074C05FB07F406FB07F70CFB06F118
:1022700005FB0CFC11EB074144EB17444FEA1247F6
:1022800011EB0C4144EB1C4422EA074C05FB07F21E
:1022900006FB07F70CFB06F605FB0CFC16EB0746E6
:1022A00042EB174216EB0C4642EB1C456A1854F100
:1022B000000148BF7047B619524141EB0101A3F13B
:1022C0000103704795F0000F37D04FEA11424FEAF3
:1022D000144721EA024624EA074C02FB07F106FBF9
:1022E00007F70CFB06F402FB0CFC14EB074441EB74
:1022F00017414FEA154714EB0C4441EB1C4125EA0A
:10230000074C02FB07F506FB07F70CFB06F602FB82
:102310000CFC16EB074645EB174516EB0C4645EB58
:102320001C42121951F1000148BF7047B6195241C1
:1023300041EB0101A3F1010370474FEA14454FEA55
:10234000114724EA054621EA074C05FB07F106FB85
:1023500007F70CFB06F24FF0000605FB0CFC12EB36
:10236000074241EB174112EB0C4251EB1C4148BFB5
:102370007047921841EB0101A3F10103704700007F
:102380004A494A6822F440324A604A6843681A431C
:102390004A6001684A6822F480724A6001684A68AB
:1023A000036942EA03224A6001684A6822F04072E7
:1023B0004A6001684A6883681A434A6001688A680B
:1023C00022F400628A6001688A68C3681A438A60DE
:1023D000816A6FF07062D14214D001688A6822F07D
:1023E00070628A6001688A68836A1A438A60016839
:1023F0008A6822F040528A6001688A68C36A1A4378
:102400008A6009E001688A6822F070628A60016867
:102410008A6822F040528A6001688A6822F00202CB
:102420008A6001688A68037E42EA43028A6090F803
:10243000201089B101684A6842F400624A6001686C
:102440004A6822F460424A6001684B68426A521E40
:1024500043EA42324A6004E001684A6822F40062BA
:102460004A600168CA6A22F47002CA620168CB6AD3
:10247000828B521E43EA0252CA6201688A6822F4C1
:1024800000728A6001688A6890F8303042EA43221C
:102490008A6001688A6822F480628A6001688A68BA
:1024A000406942EA802088607047000000230140B4
:1024B0000AF0F2B90AF0F4BBFDF7B0BFF0EE400A43
:1024C000F5EEC00AF1EE10FA02DDB0EE600A7047D8
:1024D000B1EE600AFBE70000002803D09FED020A7E
:1024E00080ED000A7047000000000000002803D0C3
:1024F000B3EE060A80ED000A7047000070B52DEDBE
:102500000C8B84B006460C4615469FED990AF0EEFA
:10251000408A9FED970AB0EE409A9FED950AF0EE43
:1025200040BA9FED930AF0EE409A9FED910AB0EE0B
:1025300040AA0EB104B11DB904B0BDEC0C8B70BD46
:102540008C48FFF7C9FF8C48FFF7D0FF8A48D0EDD1
:10255000000A9FED8A1A60EE810AB0EE600A00F070
:1025600025F9F0EE408A28EEA80AF0EE408A82486B
:10257000D0ED000AB0EE001A60EE810A9FED7F1ADE
:1025800060EE810AB0EE600A00F010F9B0EE409AF9
:1025900029EE090AB0EE409ADFED790AB7EE000A9B
:1025A00000EEA80ADFED770A00EEC90ADFED760A31
:1025B00020EE200A754880ED000A6E4890ED000A72
:1025C000DFED730A80EE201AB7EE000A31EE000A42
:1025D00020EE000A6D48D0ED000A80EE801A6D48AA
:1025E00080ED001A94ED000AB5EEC00AF1EE10FA83
:1025F0000DD194ED010AB5EEC00AF1EE10FA06D144
:1026000094ED020AB5EEC00AF1EE10FA46D09FED45
:10261000580AB0EE408A0020019002900390D4ED59
:10262000000A60EEA00A94ED011AD4ED011A41EE01
:10263000210A94ED021AD4ED021A41EE210AB0EEFD
:10264000600A00F0A9F8B0EE408A94ED000A20EE8E
:10265000080A8DED010A94ED010A20EE080A8DEDBD
:10266000020A94ED020A20EE080A8DED030ADDED60
:10267000010AF1EE600AB0EE600AFFF719FFF0EE12
:10268000409A9DED031AF0EE410A9DED021AB0EE5C
:10269000410AFFF70FFFB0EE40AA07E09FED340AB2
:1026A000F0EE409A9FED320AB0EE40AA95ED000A96
:1026B000B5EEC00AF1EE10FA0DD195ED010AB5EEB6
:1026C000C00AF1EE10FA06D195ED020AB5EEC00A85
:1026D000F1EE10FA3CD0B0EE690A00F067F8B0EE07
:1026E000408AB0EE690AFFF7E7FEB0EE40DAB0EEDE
:1026F0004A0A00F05BF8F0EE40AAB0EE4A0AFFF793
:10270000DBFEB0EE40BA28EE2A0AD5ED010A20EE33
:10271000200AD5ED000A0DEE200A68EE0B0A95EDB1
:10272000021A00EE810AB0EE40CA95ED010A20EED1
:102730000B0AD5ED020A0AEEE00AF0EE40CAF0EE0E
:102740006C0AB0EE4C0AFFF7B5FEF0EE40BA03E0BB
:102750009FED070AF0EE40BAB0EE4A1AF0EE690AB1
:10276000B0EE6B0A30460BF05FFD00BFE4E6000000
:1027700000000000740400207804002035FA8E3C2C
:10278000C1BFAD3B9DF8C5362F7C1C417C040020A9
:10279000506CC24A8004002010B50BF046FAB7EE28
:1027A000001AC1EE000AB0EE600A10BDFDF772BE5D
:1027B0002DE9F0412DED028B9AB00546B0EE408A2E
:1027C0000E461746984600201790189019901490BE
:1027D000159016904DB146B13FB1B8F1000F04D03D
:1027E000B5EEC08AF1EE10FA05D100201AB0BDECAA
:1027F000028BBDE8F08196ED000A8DED170A96ED8B
:10280000010A8DED180A96ED020A8DED190A97ED71
:10281000000A8DED140A97ED010A8DED150A97ED6A
:10282000020A8DED160A17AA14A928460BF030FBF0
:10283000402104A8FEF708F80020009001900290C3
:102840000390002417A904A80FF0ECFB00BF30E0B0
:1028500004A800EB041090ED000AD5ED000A20EE6C
:10286000200A04A800EB0410D0ED010A95ED011A2E
:1028700000EE810A04A800EB0410D0ED020A95EDE9
:10288000021A00EE810A04A800EB0410D0ED030A3E
:1028900095ED031A00EE810A20EE080AF0EE000A18
:1028A00080EE201A684600EB840080ED001A601C60
:1028B000C4B2042CCCDB002410E005EB840090EDC6
:1028C000000A684600EB8400D0ED000A30EE200AD2
:1028D00005EB840080ED000A601CC4B2042CECDB24
:1028E00028460EF00FFD012080E700000122102194
:1028F000014802F059B800000000024000221021F7
:10290000014802F051B8000000000240704700008A
:1029100001221146014802F047B8000000040240BD
:1029200000220121014802F03FB8000000040240EB
:1029300030B5437804781B021BB2234300EE103AF3
:102940001B4CB8EEC00AD4ED000A20EE200A81ED3F
:10295000000AC37885781B021BB22B4300EE103AA5
:10296000F8EEC00A94ED000A60EE800AC1ED010A9B
:10297000437904791B021BB2234300EE903AF8EE30
:10298000E00A20EE800A81ED020A017AC379090487
:10299000807941EA0321014300EE101ADFED050AB8
:1029A000B8EE400A20EE200A82ED000A30BD000099
:1029B0004404002000401C4270470DF0ABBF0CF0F7
:1029C00089BA000010B542780378120212B21A4395
:1029D00000EE102A124BB8EEC00AD3ED010A20EE29
:1029E000200A81ED000AC2788478120212B22243D2
:1029F00000EE102AF8EEC00A93ED010A60EE800A9C
:102A0000C1ED010A42790079120212B2024300EECE
:102A1000902AF8EEE00A20EE800A81ED020A10BD4D
:102A20004404002010B5FFF771FFFFF7C5FF0BF05E
:102A300055FD08B1802402E00BF0C2FC04460BF007
:102A400013FF10B144F0400010BD0BF09FFE204377
:102A500010BD00002DE9FC4104460D46164600203D
:102A600000900190FFF74AFF922000F0BFF8062285
:102A70006946122000F09CF8FFF738FF9DF801002E
:102A80009DF80010000200B2084300EE100A474F04
:102A9000B8EEC00AD7ED000A20EE200A85ED000A44
:102AA0009DF803009DF80210000200B2084300EEFA
:102AB000100AF8EEC00A97ED000A60EE800AC5ED34
:102AC000010A9DF805009DF80410000200B20843B9
:102AD00000EE900AF8EEE00A20EE800A85ED020A88
:102AE000FFF71EFF08226946002000F061F8FFF79B
:102AF0000FFF9DF800000F2830D19DF803009DF8CE
:102B00000210000200B2084300EE100AD7ED010ADD
:102B1000B8EEC00A20EE200A84ED000A9DF80500F8
:102B20009DF80410000200B2084300EE100AF8EE0F
:102B3000C00A97ED010A60EE800AC4ED010A9DF813
:102B400007009DF80610000200B2084300EE900A4C
:102B5000F8EEE00A20EE800A84ED020AFFF7CEFECE
:102B6000A22000F043F802226946222000F020F85B
:102B7000FFF7BCFE9DF800009DF80110C00040EA80
:102B80005110B0F5806F02DBA0F5006000B200EEDE
:102B9000100AB4EE001AF8EEC00AB3EE070A00EE0F
:102BA000810A86ED000ABDE8FC8100004404002093
:102BB00070B50D46144640F0800000F017F806E0AE
:102BC000552000F013F805F8010B641EE4B2002C48
:102BD000F6D170BD10B50C4640F0800000F006F84C
:102BE000552000F003F8207010BD000001B582B040
:102BF0004FF47A700090012301AA02A9024803F061
:102C000061FC9DF804000EBDD80E002002784078CB
:102C1000D20042EA5010B0F5806F02DBA0F50060F0
:102C200000B200EE100AB4EE001AF8EEC00AB3EEDD
:102C3000070A00EE810A81ED000A704710B50C46C4
:102C4000FFF7D4FF2046BDE81040FFF7CFBFFEE7F7
:102C5000014801F036B8000054060020014801F098
:102C600030B800007C06002008B50B4A4FF4007312
:102C7000136000239360D36008231361074A030A9B
:102C800013705070080A9070D1706B460249044866
:102C900000F092FE08BD0000689100205D02002057
:102CA0005406002004284FF00000704700207047B1
:102CB00010B500220449054808F018FA04490348F1
:102CC00008F00EFA002010BD8C230020E81200202E
:102CD0008C1B002010B50146034808F001FA024899
:102CE00008F0DDF9002010BDE812002010B50A46FA
:102CF0000849D1F89012D1F81412002901D001200E
:102D000010BD0146034808F0F1F9BDE81040014844
:102D100008F066BAE812002010B5124A50680001A7
:102D20001FD5114B114C4FF00061586B0068A04249
:102D300003D90E484C3801600EE00A4CB834A0426A
:102D400003D90A485038016006E0064C5834A042C6
:102D500001D9D16000E091601868016841F4007108
:102D6000016010BD00600240A00D002058640240C8
:102D7000014801F0CDBA0000281200202DE9F05FD3
:102D8000FA48FB4AFA4DC06CFA4EF94F0068DFF87A
:102D9000E4C3DFF8DC83DFF8DC93DFF8D4A3DFF8EB
:102DA000D4B3DFF8CCE3F34C483D60361837D11488
:102DB0000CF1180CA8F1300809F178090AF1300A71
:102DC0000BF1300BAEF1180E90423ED9E84A543A5E
:102DD0001368A04201D1202235E0A84201D120226F
:102DE00031E0B04201D120222DE0B84201D12022B1
:102DF00029E0604501D10A4625E0404501D10A4657
:102E000021E0484501D10A461DE0504501D10A465E
:102E100019E0584502D14FF4001214E0704502D178
:102E20004FF400120FE0D34A9032904202D14FF497
:102E3000001208E0CE4A4832904202D14FF400120C
:102E400001E04FF000621340C3E0CA4AA83290424A
:102E50003ED9C74A583A1368A04201D1202235E032
:102E6000A84201D1202231E0B04201D120222DE040
:102E7000B84201D1202229E0604501D10A4625E06F
:102E8000404501D10A4621E0484501D10A461DE0EE
:102E9000504501D10A4619E0584502D14FF40012BD
:102EA00014E0704502D14FF400120FE0B14A9032A5
:102EB000904202D14FF4001208E0AD4A48329042ED
:102EC00002D14FF4001201E04FF00062134080E0A5
:102ED000A84A483290423ED9A64A103A5368A042C6
:102EE00001D1202235E0A84201D1202231E0B042B8
:102EF00001D120222DE0B84201D1202229E06045F5
:102F000001D10A4625E0404501D10A4621E0484565
:102F100001D10A461DE0504501D10A4619E0584545
:102F200002D14FF4001214E0704502D14FF40012A8
:102F30000FE0904A9032904202D14FF4001208E024
:102F40008B4A4832904202D14FF4001201E04FF018
:102F5000006213403DE0874A103A1368A04201D155
:102F6000202235E0A84201D1202231E0B04201D137
:102F700020222DE0B84201D1202229E0604501D174
:102F80000A4625E0404501D10A4621E0484501D1E5
:102F90000A461DE0504501D10A4619E0584502D1C4
:102FA0004FF4001214E0704502D14FF400120FE00C
:102FB000704A9032904202D14FF4001208E06C4AFD
:102FC0004832904202D14FF4001201E04FF000620B
:102FD0001340002B72D0664A904235D9A04201D1ED
:102FE00020212DE0A84201D1202129E0B04201D1C9
:102FF000202125E0B84201D1202121E060451FD0E9
:1030000040451DD048451BD0504519D0584502D1E8
:103010004FF4001114E0704502D14FF400110FE09D
:1030200054499031884202D14FF4001108E05049D0
:103030004831884202D14FF4001101E04FF00061A5
:103040004B484C380160ADE04A4AA832904236D92C
:10305000A04201D120212DE0A84201D1202129E068
:10306000B04201D1202125E0B84201D1202121E048
:1030700060451FD040451DD048451BD0504519D054
:10308000584502D14FF4001114E0704502D14FF4BD
:1030900000110FE037499031884202D14FF40011FE
:1030A00008E033494831884202D14FF4001101E071
:1030B0004FF000612E485038016073E0B6E02D4AB1
:1030C0004832904235D9A04201D120212DE0A842BA
:1030D00001D1202129E0B04201D1202125E0B842D0
:1030E00001D1202121E060451FD040451DD0484539
:1030F0001BD0504519D0584502D14FF4001114E0AF
:10310000704502D14FF400110FE01A499031884206
:1031100002D14FF4001108E015494831884202D12C
:103120004FF4001101E04FF0006112481038C16007
:1031300038E0A04201D1202131E0A84201D1202174
:103140002DE0B04201D1202129E0B84201D1202157
:1031500025E0604523D0404521D048451FD050454B
:103160001DD0584508D14FF4001118E0D80E0020AA
:103170005864024010600240704502D14FF40011C3
:103180000DE02B49884202D14FF4001107E0294994
:10319000884202D14FF4001101E04FF00061244851
:1031A000A0388160244C207880070CD5207820F04E
:1031B00002002070207840F00400207001221146A7
:1031C0001E4801F0F1FB60781D4D80070CD560783A
:1031D00020F002006070607840F00400607001220E
:1031E0001021284601F0E0FBA07880070CD5A078DC
:1031F00020F00200A070A07840F00400A07001222E
:103200001021284601F0D0FB0CF0B6FA20784007D8
:103210000CD5207820F004002070207840F00800C1
:1032200020700848016841F001010160BDE8F09F8D
:10323000A0600240A0640240F002002000040240AE
:1032400000000240103C0140014801F061B800005C
:1032500088120020014801F05BB80000081100202E
:103260000168CAB2103A1823B2FBF3F2064B9B5C1A
:10327000C3656FF30901032A02D9091D816500E0C6
:103280008165806D704700004456010810B5014605
:1032900000208A6A8B694FF0C074002B0ED0B3F502
:1032A000005F1AD062B3012A2AD0022A28D0032A4A
:1032B00003D1C96AC90100D5012010BD1AB1012A84
:1032C00006D0022AF9D1C96AC901F6D5012010BD7C
:1032D000C96AA142FBD1012010BD52B1012A0AD016
:1032E000022A06D0032AF7D1C96AA142F4D10120EB
:1032F00010BD012010BDC96AC901FBD5012010BD58
:10330000012010BD7047012001F060BA082001F0D3
:103310005DBA102001F05ABA202001F057BA704768
:103320000022002905D001291AD002291BD04FF410
:1033300040720E490B6823F440730B600B68134313
:103340000B600A6822F0F8020A600A68022303EBA5
:10335000C00002430A60086840F48030086070478B
:103360004FF48072E5E74FF40072E2E7103C024050
:103370001348016889050FD5016821F400710160C7
:10338000016841F400610160016821F4006101609D
:10339000016841F400710160016849050FD50168B9
:1033A00021F480610160016841F48051016001688D
:1033B00021F480510160016841F48061016070472F
:1033C000003C024008490A6822F440720A600A6818
:1033D00042F004020A600A684FF4803343EA002096
:1033E00002430A6070470000103C0240064A13681E
:1033F00023F44073136013681360136843F00103F0
:103400001360017070470000103C024010B508497D
:103410000C6824F440740C600C6844F440740C6034
:103420000C6844F001040C600260436010BD0000B1
:10343000103C0240074A136823F44073136013687A
:1034400043F480731360136843F001031360018039
:1034500070470000103C0240074A136823F4407391
:103460001360136843F400731360136843F001039F
:103470001360016070470000103C02401749086863
:10348000C206174805D5C26942F01002C261102277
:103490000A600A68920605D5C26942F00802C26154
:1034A00020220A600A68520605D5C26942F0040269
:1034B000C26140220A600A68120605D5C26942F05C
:1034C0000202C26180220A600A68920705D5C269B9
:1034D00042F02002C2610220086070470C3C0240AA
:1034E0008C2B002070B5044611490020C86101F002
:1034F00063FA05460F4E09E0601C07D024B101F0C5
:103500005BFA401BA04201D9032070BD3068C003A4
:10351000F2D43068C00701D001203060306810F06C
:10352000F20F03D0FFF7AAFF012070BD002070BD8D
:103530008C2B00200C3C0240DFED0F0A0F4981ED7F
:103540000C0A00200E4A431C01EB830393ED000A92
:1035500001EB800383ED000A02EB800393ED001A78
:1035600040EE010A401C0C28EDDB0548203890EDA8
:10357000001A80EE810A704700000000F4A10020CC
:103580000C04002010B50B480168001D0468001DE4
:103590000068084400280BD00822074904F022F9EB
:1035A000054920460422BDE81040103104F01AB944
:1035B00010BD0000107AFF1F6200002078B50024C3
:1035C000009490F83C20012A19D0012280F83C2078
:1035D0000A680725092A14D90368DE680A3A02EB4B
:1035E00042029540AE43DE600A788B680A3A02EBED
:1035F000420293400268D5682B43D36011E0022059
:1036000078BD03681E6902EB42029540AE431E611D
:103610000A788B6802EB42029340026815692B43DB
:1036200013614A681F25072A13D203685E6B521E76
:1036300002EB82029540AE435E630A8893B20A7938
:10364000521E02EB820293400268556B2B43536378
:1036500028E00D2A13D203681E6BD21F02EB8202F0
:103660009540AE431E630A8893B20A79D21F02EBDB
:10367000820293400268156B2B43136312E00368C8
:10368000DE6A0D3A02EB82029540AE43DE620A88A2
:1036900093B20A790D3A02EB820293400268D56A2E
:1036A0002B43D362174A184B05689D4206D10D681B
:1036B000122D03D1556845F48005556005689D427B
:1036C0001BD10B68102B01D0112B16D1536843F47A
:1036D00000035360096810290FD10C490C4A09688E
:1036E000B1FBF2F101EB81014900009102E0009988
:1036F000491E009100990029F9D180F83C40002032
:1037000078BD000000230140002001409C00002003
:1037100040420F000068C06C704770B50446002638
:10372000002C03D0206C002510B107E0012070BDF3
:10373000204600F01DF8656484F83C50206CC006FB
:1037400010D4206C20F4885040F002002064204601
:10375000FEF716FE6564206C20F0020040F00100C8
:10376000206400E0012684F83C50304670BD000023
:1037700010B586B00446142101A8FDF765F8174B73
:10378000206800221649984209D1086840F48070E8
:103790000860086800F48070009006B010BD114BFE
:1037A0009842FAD1086840F480600860086800F424
:1037B000806000900A481438016841F020010160DF
:1037C000006800F02000009018150190032002907E
:1037D000039201A9044801F005F8DEE7002001404A
:1037E0004438024000220140001402402DE9F0411B
:1037F00004460D46206881684FF0000749050BD547
:103800008068C00508D5206C40F02000206484F852
:103810003C700120BDE8F08101F0CEF806460FE0D3
:10382000681C0DD025B101F0C7F8801BA84207D94C
:10383000206C40F00400206484F83C700320E9E729
:10384000206800688007EBD521686FF012000860DF
:10385000206C40F4007020642068816811F0405FA3
:1038600013D1217E89B9C16A11F4700F02D080682A
:1038700040050AD4206C20F480702064206CC004C1
:1038800003D4206C40F0010020640020C2E7000057
:1038900018B50022009290F83C10012907D00121B0
:1038A00080F83C1001688B68DB0702D014E002202E
:1038B00018BD8B6843F001038B603049304B0968B9
:1038C000B1FBF3F101EB4101009102E00099491EC7
:1038D000009100990029F9D101688B68DB074AD073
:1038E000036C40F20164A34343F4807303644B68A8
:1038F0005B0505D5036C23F4005343F48053036444
:10390000036CDB0404D5436C23F00603436400E03E
:10391000426480F83C201B4A6FF022030B60516820
:10392000CA06194907D00068884224D1816811F07D
:10393000405F1CD01FE0006888420FD0134A9042BD
:1039400003D1D1F80423D20608D0114A904212D1F3
:10395000D1F8041301F01F0110290CD2816811F075
:10396000405F08D1816841F08041816003E0816857
:1039700041F080418160002018BD00009C000020C3
:1039800040420F000023014000200140002101407F
:103990000022014090F82020012A07D0022A05D0F9
:1039A000416A41F480214162012070470068426908
:1039B0000A43426100207047F0B590F82050046837
:1039C000A468012D07D0022D05D0416A41F4802161
:1039D00041620120F0BD04F0806504F000663543CB
:1039E00001D1E5005BD5C4F30164022C05D9416A1D
:1039F00041F4000141620120F0BD0125A5401D6098
:103A00008B684FF4C0759BB1CE6805EB0417334348
:103A10004E6843EAC6030668F3514FF4C273076861
:103A200003EB04130E69FE50097D012909D00DE056
:103A30000E88CB6805EB041743EA46530668F3513A
:103A4000EBE70168CE5846F48076CE501179D379F1
:103A5000567941EA036193791B0443EA062319432B
:103A60004FF4C676036806EB041699511178D378A3
:103A700041EA0361937852781B0443EA022211431E
:103A80004FF4C473026803EB0413D150006805EBD4
:103A90000411425842F0010242500020F0BD416A38
:103AA00041F4001141620120F0BD000010B590F812
:103AB0002020012A07D0022A05D0416A41F4802142
:103AC0004162012010BD3C4800F50070026842F0E0
:103AD00001020260026822F47C52026002684B6AB2
:103AE00042EA032202600A7D02F01F0301229A408B
:103AF000C3699343C361A0F50070CB69B3B9D0F833
:103B00000C329343C0F80C328C894B6864F31F432A
:103B10004C6900EBC404C4F840320C890B6864F3B0
:103B20001F434C6900EBC404C4F84432CB69012B39
:103B300016D1D0F80C321343C0F80C320C884B6805
:103B400064F31F434C6900EBC404C4F840320C8991
:103B5000CB6864F31F434C6900EBC404C4F84432DF
:103B60008B697BB1D0F804321343C0F804320B697F
:103B700073B1D0F814321343C0F81432096A012922
:103B80000CD010E0D0F804329343C0F80432EEE7D2
:103B9000D0F814329343C0F81432EFE7D0F81C1277
:103BA0001143C0F81C12D0F8001221F00101C0F836
:103BB0000012002010BD000000640040704730B5C6
:103BC00090F82040012C07D0022C05D0416A41F426
:103BD00080214162012030BD21B104682469A4071D
:103BE0005ED003E00468E468A40753D04FF4D874AF
:103BF000056804EB01142D5905F004059560002DAE
:103C000054D005682D59ED08556005682C59C4F34A
:103C10004004D4604FF4DA74056804EB01142D59A4
:103C200005F00F05156105682D59C5F30725956148
:103C300005682C59240C54614FF4DC72046802EBC3
:103C40000112A4581C700468A458240A5C7004680B
:103C5000A458240C9C700468A258120EDA704FF419
:103C6000DE72046802EB0112A4581C710468A458A7
:103C7000240A5C710468A458240C9C710468A2583E
:103C8000120EDA71B9B10068016941F020010161D9
:103C9000002030BD416A41F400114162012030BD75
:103CA000416A41F400114162012030BD05682D597F
:103CB0006D0D1560A9E70068C16841F02001C16081
:103CC000E6E72DE9F05F0546002428684669D0F84C
:103CD00004908768D0F80CA0D0F810B0D0F8188005
:103CE000F10748D0F90714D001218160B80703D546
:103CF000284600F0CDFA0CE0780702D54FF40064B6
:103D000007E0380702D54FF4805402E0284600F05F
:103D1000BEFAF80516D529684FF480708860B8059A
:103D200003D5284600F0B6FA0CE0780502D544F435
:103D3000005407E0380502D544F4804402E02846E8
:103D400000F0A7FAF80316D529684FF48030886090
:103D5000B80303D5284600F09FFA0CE0780302D59B
:103D600044F4004407E0380302D544F4803402E010
:103D7000284600F090FA300707D55FEACA6004D5FC
:103D800044F4007429681020C86070074FF00807D9
:103D900007D55FEA0A7004D52868C760284600F096
:103DA000B7F9B00706D52868C068800702D0284652
:103DB00000F0B0F9700607D55FEACB6004D544F493
:103DC0008064296810200861B00607D55FEA0B708F
:103DD00004D528680761284600F02AFAF00606D5BF
:103DE00028680069800702D0284600F022FAB00354
:103DF00008D55FEAC96005D52968102048602846C3
:103E000000F018FAF00307D55FEA097004D52868B6
:103E10004760284600F041FA300446D55FEA497011
:103E200040D5F00504D55FEAC87001D044F0010424
:103E3000B00504D55FEA887001D544F0020470052E
:103E400004D55FEA487001D544F00404300529D553
:103E500018F0700F26D008F07000402815D006DC4E
:103E6000102809D020280AD0302816D10AE050287E
:103E70000ED0602811D10EE044F008040DE044F0AB
:103E800010040AE044F0200407E044F0400404E099
:103E900044F0800401E044F480742868816921F0D2
:103EA00070018161296804204860002C05D0686A8F
:103EB000204368622846FFF781FEBDE8F09F70B599
:103EC0000446002C03D094F8200010B104E0012037
:103ED00070BD204600F09CF82068016821F00201C6
:103EE000016000F069FD054605260CE000F064FD68
:103EF000401B0A2807D9606A40F40030606284F8E9
:103F00002060012070BD206840688007EED42068E2
:103F1000016841F00101016000F04EFD05460CE032
:103F200000F04AFD401B0A2807D9606A40F40030BF
:103F3000606284F82060012070BD20684068C0077E
:103F4000EED0207E01283FD02068016821F080015A
:103F50000160607E01283DD02068016821F04001A9
:103F60000160A07E01283BD02068016821F020017B
:103F70000160E07E012839D02068016841F010011D
:103F80000160207F012837D02068016821F00801F6
:103F90000160607F012835D02068016821F00401AC
:103FA0000160D4E902010843D4E904121143084333
:103FB0006168491E08432168C861002060620120D1
:103FC00084F82000002070BD2068016841F0800165
:103FD0000160BEE72068016841F040010160C0E770
:103FE0002068016841F020010160C2E72068016893
:103FF00021F010010160C4E72068016841F0080168
:104000000160C6E72068016841F004010160C8E76B
:104010002DE9F04186B00446142101A8FCF714FCF8
:10402000364B374ADFF8D08018682168344C0326B5
:104030000227401C103200254FF0090C414527D1C2
:104040001860012807D1106840F0007010601068F7
:1040500000F000700090206840F0080020602068A8
:1040600000F0080000900196029703950496CDF8A1
:1040700014C001A9234800F0B5FB0022062114203A
:1040800001F07AF8142001F069F806B0BDE8F0817B
:10409000DFF874804145F8D1116841F0806111600A
:1040A000116801F0806100911860012807D1106843
:1040B00040F000701060106800F000700090206800
:1040C00040F002002060206800F0020000906020B4
:1040D0000190029703950496CDF814C001A90B48EE
:1040E00000F080FB00220621402001F045F840202E
:1040F00001F034F8C9E7000000640040000000202F
:1041000030380240000C02400068004000040240C9
:104110007047000030B589B004466B4602AA002102
:104120002046FFF74CFD3E483E49844231D102987B
:104130000246A0F50070013801D0012827D13A4885
:10414000521ED2B2027002EB820301EB430031F83F
:10415000134004819DF801409DF8005044EA052475
:1041600021F813409DF803109DF8023041EA032125
:1041700041809DF805109DF8043041EA03218180BB
:104180009DF806108171521CD0B20AF0BFFE09B032
:1041900030BD26488442FAD10298A0F5007001385B
:1041A00020D00328F3D1C88BC8849DF801009DF866
:1041B000002040EA0220C8839DF803009DF80220F9
:1041C00040EA022008849DF805009DF8042040EA9A
:1041D000022048849DF8060081F8240004200AF09B
:1041E00095FED4E7888A88839DF801009DF8002019
:1041F00040EA022088829DF803009DF8022040EAF0
:104200000220C8829DF805009DF8042040EA0220A3
:1042100008839DF80600887603200AF077FEB6E74B
:1042200054060020049100205C0200207C0600203F
:1042300070477047704770B5044694F82000012815
:1042400005D0606A40F400206062012070BD022049
:1042500084F820002068016821F00101016000F06D
:10426000ABFB05460DE000F0A7FB401B0A2808D970
:10427000606A40F400306062052084F8200001206C
:1042800070BD20684068C007EDD1606270BD7047A6
:1042900070477047704770477047704710B50446C5
:1042A000002C02D0607910B106E0012010BD002082
:1042B0002071204600F006F8022060710120607134
:1042C000002010BD08B500680649884208D106489C
:1042D000016841F480510160006800F48050009052
:1042E00008BD0000003002403038024090F8351020
:1042F000022903D08021416501207047052180F803
:1043000035100068016821F001010160002070474C
:104310002DE9F84304464FF00009CDF800906F48AE
:104320004FF416510068B0FBF1F7A56D2E6894F8B4
:104330005C00082202FA00F1314210D020680168C6
:1043400049070CD5016821F00401016094F85C0074
:1043500002FA00F1A960606D40F00100606594F818
:104360005C104FF0010808FA01F0304208D02168D3
:104370004969090604D5A860606D40F002006065D7
:1043800094F85C1004208840304208D02168096805
:10439000890704D5A860606D40F00400606594F85A
:1043A0005C1010208840304220D02168096809073D
:1043B0001CD5A8602068016849030CD5006800037B
:1043C00004D4216C91B1204688470FE0A16C69B1FB
:1043D000204688470AE00168C90503D4016821F036
:1043E00008010160216C09B12046884794F85C10EF
:1043F0002020884030424CD021680968C90648D541
:10440000A86094F8350005280BD02068016849039E
:1044100030D50068000328D4616C51B3204688472A
:1044200037E02068016821F01601016020684169C9
:1044300021F080014161206C08B9A06C20B1206896
:10444000016821F00801016094F85C103F20884069
:10445000A86084F8349084F83580216D00293BD021
:1044600001B02046BDE8F0430847E16B09B12046A2
:1044700088470EE00168C90507D4016821F01001E2
:10448000016084F8349084F83580E16B09B12046EE
:104490008847606D00281FD0606DC00714D00520CC
:1044A00084F835002068016821F00101016000985E
:1044B000401C0090B84203D820680068C007F6D1BD
:1044C00084F8349084F83580E16C002904D001B080
:1044D0002046BDE8F0430847BDE8F8839C00002073
:1044E0002DE9F041044600F067FA05465CB100266C
:1044F00084F83460022084F835002068016821F0D7
:10450000010101600DE00120BDE8F08100F054FAE6
:10451000401B052805D920206065032084F835005C
:10452000F2E720680068C007F0D121680A682048D7
:104530000240D4E901031843D4E903352B4318435F
:1045400063691843A3691843E3691843236A18434E
:104550001043626A042A03D1D4E90B231A4310439F
:1045600008602068406920F00700656A2946054315
:10457000012704290DD1A06A0543E06A48B120460D
:10458000FEF784FE28B14020606584F83570012074
:10459000BAE7206845612046FEF762FE94F85C2089
:1045A0003F2191408160666584F835700020ABE75B
:1045B0003F8010F070B5044600F0FEF90546601C1F
:1045C00002D004480078044400F0F6F9401BA042F1
:1045D000FAD370BD900000202DE9F04704460E4646
:1045E000DFF88C8098F8180001280BD0012088F89B
:1045F00018004CF250394846FEF774FF024610008E
:1046000003D02FE00220BDE8F0874FF0FF3030608C
:104610002068184F012801D0A5681CE0207C616843
:10462000FEF7D0FE4846FEF75DFF0246386820F0F0
:104630000400386014E0217C2846FEF771FE4846ED
:10464000FEF750FF0246386820F0FA0038600AB1E1
:10465000356005E06D1CD4E902100844A842EAD890
:10466000FEF786FE002088F818001046CBE7000011
:104670008C2B0020103C02400348016841F00041AF
:104680000160002070470000103C02402DE9F04717
:104690000646894614461D46194F387E012808D023
:1046A000012038764CF250384046FEF71BFF18B117
:1046B00014E00220BDE8F0879EB1012E16D0022E34
:1046C00019D022462B464846FEF7A0FE4046FEF78C
:1046D00009FF0C490A6822F001020A6000213976BC
:1046E000E8E7E1B24846FEF781FEEFE7A1B24846AF
:1046F000FEF7A0FEEAE721464846FEF7ADFEE5E7F5
:104700008C2B0020103C0240002007490A68002A38
:1047100009DA054A054B0C3A1360054B136009682A
:10472000002900DA01207047103C02402301674550
:10473000AB89EFCD10B5234C10281AD020282AD0F1
:10474000082836D0012813D10EF048FF01280FD0D9
:1047500004F10C0120690DF05BFFE068002807D030
:1047600019494FF080500860BFF34F8FBFF36F8F30
:1047700010BD07200AF0CAFB607840F001006070AD
:10478000A07840F00100A07020790028F0D0BDE8AA
:1047900010400AF0F1BF06200AF0B8FB207840F084
:1047A0000100207020790028E2D0BDE810400AF016
:1047B000E3BF08200AF0AAFBE07840F00100E070B7
:1047C00010BD0000F002002004ED00E010B5044927
:1047D0000A68024202D00860FFF7ACFF10BD00007B
:1047E000143C01402DE9F84F0022DFF89091DFF8EA
:1047F0008C8109F108094FF0010E4FF00F0C09F1FF
:10480000040A0EFA02F60B683340B34271D14C68C9
:10481000022C01D0122C11D1D40800EB84073D6A80
:104820005407E40E0CFA04FB25EA0B05D1F810B08E
:104830000BFA04FB4BEA050BC7F820B007685400DD
:104840000325A540AF4391F804B00BF0030B0BFA1E
:1048500004FB4BEA070BC0F800B04F68012F05D0EE
:10486000022F03D0112F01D0122F11D18768AF432F
:10487000D1F80CB00BFA04FB4BEA070BC0F808B0F8
:104880004768B7430E79C6F3001696403E4346602C
:10489000C668AE438D68A5403543C5604C68E400EA
:1048A00065D5374C256845F480452560246804F4B7
:1048B00080440094334C22F003052544D5F8087851
:1048C0009407260F0CFA06F4A7432F4CA04201D1FF
:1048D000002424E02D4CA04201D101241FE02C4CE7
:1048E000A04201D102241AE02A4CA04202D10324A2
:1048F00015E03CE0284CA04201D104240FE0274CF5
:10490000A04201D105240AE0254CA04201D1062491
:1049100005E0244CA04201D1072400E00824B44063
:104920003C43C5F80848D8F800409C434D68ED0367
:1049300000D51C43C8F80040104D2D1D2C689C4329
:104940004E68B60300D51C432C60D9F800409C4348
:104950004D68ED0200D51C43C9F80040DAF800406C
:104960009C434D68AD0200D51C43CAF80040521C60
:10497000102AFFF446AFBDE8F88F0000003C01406C
:104980004438024000300140000002400004024070
:1049900000080240000C02400010024000140240D7
:1049A00000180240001C0240002A01D081617047BB
:1049B0000904816170470000014880687047000069
:1049C0009000002070B50446002C04D094F83D00FF
:1049D000002510B106E0012070BD84F83C5020464F
:1049E00000F09AFA242084F83D002068016821F044
:1049F0000101016001F0A8F94F4B6168994203D8A9
:104A00004E49884203D304E04D49884201D2012037
:104A100070BD4C49B0FBF1F12268566826F03F06A4
:104A20000E43566062689A4201D8491C07E04FF471
:104A3000967251434FF47A72B1FBF2F1491C22682D
:104A4000166A26F03F06314311626168994210D818
:104A50004900401EB0FBF1F2521CC2F30B02042AC3
:104A600001D2042022E0B0FBF1F0401CC0F30B00A7
:104A70001CE0A268F2B301EBC10303EB0116431E75
:104A8000B3FBF6F35B1C43F480431B0549D092B3A0
:104A900001EBC10202EB0111401EB0FBF1F0401C22
:104AA000C0F30B0040F4804040F400402168CA6924
:104AB0004CF6FF739A431043C861D4E907100143D1
:104AC0002068026822F0C00211430160D4E90301AA
:104AD00001432068826848F2FF339A4311438160A2
:104AE000D4E9051001432068C26822F0FF02114397
:104AF000C16001E00EE016E02068016841F00101AC
:104B000001602564202084F83D00256384F83E5030
:104B1000002070BD01EB4106431EB3FBF6F35B1CA6
:104B2000B3E70120C2E701EB4101401EB0FBF1F009
:104B3000401CC0F30B00B7E7A086010080841E0074
:104B400000093D0040420F002DE9FF4F83B00446AD
:104B5000DDE911988A469346109FFFF72DFF054621
:104B600094F83D00202803D0022007B0BDE8F08F64
:104B70001923012294492046009502F0D4FB08B184
:104B80000220F2E794F83C00012807D0012084F8C5
:104B90003C0020680168C90702D005E00220E4E774
:104BA000016841F0010101602068016821F40061A1
:104BB0000160222084F83D00402084F83E00002659
:104BC00026646762A4F82A90608D20857F48E062A1
:104BD000CDE900855A4651462046069B02F08EFAE2
:104BE00008B10120C1E7208D48B1012810D002286A
:104BF0001CD02068416980690290754FD8E0206818
:104C0000416981690291016841F400710160F4E732
:104C10002068016821F48061016020684169816930
:104C20000291016841F400710160E6E720680168C3
:104C300021F4806101602068016841F40061016035
:104C40002068416980690290D7E703287ED801284F
:104C50000BD002281FD0434600223946204600953B
:104C600002F061FBF0B301207FE72A46414620466F
:104C700002F0EAFB08B1012077E720680069616A69
:104C80000870606A401C6062208D401E2085608D27
:104C9000401E60858CE04346002239462046009540
:104CA00002F041FB08B101205FE72068016841F490
:104CB0000071016020680069616A0870606A401CC8
:104CC0006062218D491E2185618D491E61852168A3
:104CD00009690170606A401C6062208D401E208559
:104CE000608D00E002E0401E608561E020680168A0
:104CF00021F48061016020680069616A0870606A5F
:104D0000401C6062208D401E2085608D401E6085A5
:104D10004346002239462046009502F004FB08B1C4
:104D2000012022E72068016841F4007101602068D9
:104D30000069616A0870606A401C6062218D491ECA
:104D40002185618D491E6185216800E00BE00969BC
:104D50000170606A401C6062208D401E2085608D5D
:104D6000401E608524E02A464146204602F06CFB46
:104D700008B10120F9E620680069616A0870606A7C
:104D8000401C6062218D491E2185618D491E61850F
:104D900021684A69D24352070AD409690170606ADE
:104DA000401C6062208D401E2085608D401E608505
:104DB000208D00287FF449AF20203C346070A6701D
:104DC00026700020D1E60000020010000000FFFF66
:104DD000040001002DE9FF4F83B00446DDE911987E
:104DE0008A469346109DFFF7E7FD064694F83D007E
:104DF000202803D0022007B0BDE8F08F192301223C
:104E000043492046009602F08EFA08B10220F2E7EC
:104E100094F83C00012807D0012084F83C00206869
:104E20000168C90702D005E00220E4E7016841F00B
:104E3000010101602068016821F400610160212006
:104E400084F83D00402084F83E0000272764656216
:104E5000A4F82A90608D20852E48E062CDE9008676
:104E60005A4651462046069B02F0DAF980B30120EB
:104E7000C1E732464146204602F01CFB48B1206C97
:104E8000042804D12068016841F400710160012008
:104E9000B1E7606A216800780861656A6D1C656227
:104EA000208D401E80B22085618D491E618523685A
:104EB0005969C94349070BD450B128781861606A11
:104EC000401C6062208D401E2085608D401E6085E4
:104ED000208D0028CDD132464146204602F0FCF913
:104EE00048B1206C042804D12068016841F40071A5
:104EF000016001207FE71F3454F81F0C016841F462
:104F0000007101602020A077E7776777002072E7C3
:104F1000020010000000FFFF2DE9F04786B00646B2
:104F2000142101A8FBF790FC534C524A306800252D
:104F30005149032710344FF012084FF001094FF088
:104F4000040A90421FD1086840F002000860086817
:104F500000F00200009038020190CDF80880CDF8F2
:104F60000C900497CDF814A001A94448FFF73AFC2F
:104F7000206840F400102060206800F400100090C9
:104F800006B0BDE8F0873E4A90423CD1086840F048
:104F900020000860086800F0200000900197CDF81C
:104FA0000880CDF80C900497CDF814A001A93548DD
:104FB000FFF718FC206840F480002060206800F4AF
:104FC00080000090314C304820604FF0606060609D
:104FD0004020A060E560000120616561A561E56198
:104FE000C001206265622046FFF77AFA08B1FEF739
:104FF00096F97463A6632548A8380068416841F4AF
:1050000000614160BCE7224A9042B9D1086840F093
:1050100004000860086800F004000090086840F090
:1050200001000860086800F0010000905015019030
:10503000CDF80880CDF80C900497CDF814A001A904
:105040001448FFF7CFFB4FF480700190CDF8088033
:10505000CDF80C900497CDF814A001A90E48FFF7E5
:10506000C1FB206840F400002060206800F40000CC
:10507000009085E7005400403038024000040240B0
:105080000058004000140240B8600240480E002062
:10509000005C0040000802400000024002488168B5
:1050A00002781144816070479000002010B50B48D1
:1050B000016841F400710160016841F480610160A0
:1050C000016841F480710160032000F075F80F2041
:1050D00000F006F800F026F8002010BD003C024069
:1050E00070B504460D4D4FF47A712878B1FBF0F09D
:1050F0000B490968B1FBF0F001F0D6FA08B10120C4
:1051000070BD102C07D200222146501E00F034F84A
:105110006C60002070BD012070BD00009000002078
:105120009C00002082B00C48016841F4804101607D
:10513000006800F4804001900748001F016841F0BA
:1051400080510160006800F08050019000220F2122
:10515000901E02B000F010B844380240002809DB6D
:1051600000F01F02012191404009800000F1E02081
:10517000C0F8001170470000F0B40D460D4B1B68DD
:10518000C3F30223C3F10704042C00D90424191D1E
:10519000072901D2002300E0DB1E012606FA04F1F4
:1051A000491E294099409E40761E16403143F0BC6E
:1051B00007F061BB0CED00E000F00701054A106844
:1051C0004FF6FF03184040EA0120034908431060EE
:1051D000704700000CED00E00000FA057047006821
:1051E00041620020704770B50368586A002907D0F3
:1051F0009C6A00EB144400204FF48275491E0AE0BB
:1052000040EA024098620DE005EB80069E5904EBEF
:105210001644401CC0B28842F6D305EB810144EA33
:1052200002405850002070BDD0F8040406F0BBBA0C
:10523000C1EBC10200EB8202D0F80404926C06F0CC
:1052400004BAC1EBC10200EB8202D0F80404D2F828
:10525000082206F065BAD0F8040406F0A6BA70B5C4
:1052600004460B0601F00F00C0EBC00104EB810106
:105270004FF001024FF0000502D53C314A7002E0C8
:1052800001F5FE714D70087094F8BC03012808D038
:1052900084F8BC23206806F067FE84F8BC53002025
:1052A00070BD022070BD70B5044601F00F00626849
:1052B000904201D9012070BD0B0601F00F01C1EB36
:1052C000C10104EB81014FF001024FF0000502D54E
:1052D0003C314A7002E001F5FE714D708D7008702E
:1052E00094F8BC03012808D084F8BC23206807F098
:1052F00011F884F8BC53002070BD022070BD01F08D
:105300000F01C1EBC10100EB8100D0F8140270471E
:105310002DE9F04104460F0601F00F00C0EBC0017B
:1053200004EB81014FF001064FF0000502D53C313E
:105330004E7002E001F5FE714D7008708A60CB700E
:105340004A7802B1C880022B00D10D7194F8BC03D9
:10535000012809D084F8BC63206806F04DFD28467A
:1053600084F8BC53BDE8F0810220FBE770B50D4620
:1053700005F00F04C4EBC40100EB810101F5FE71DF
:10538000CA604B6100238B614B700C700369012B69
:1053900000D10A612A0705D0027C006807F012F8E4
:1053A000002070BD027C006806F000FFF8E770B5D1
:1053B00004460D46616805F00F00884201D90120BE
:1053C00070BD29064FF000064FF0010206D5C0EB74
:1053D000C00104EB81013C314A7006E0C5EBC50118
:1053E00004EB810101F5FE714E708A70087094F82B
:1053F000BC03012807D084F8BC23206806F0B6FF60
:10540000280702D007E0022070BD217C04F57172EC
:10541000206806F055FF84F8BC63002070BD70B5AD
:105420000D4605F00F04C4EBC40100EB81013C31D3
:10543000CA604B6100238B6101234B700C700369C0
:10544000012B00D10A612A0705D0027C006806F012
:10545000B9FF002070BD027C006806F0A7FEF8E7E7
:105460002DE9F84F04462568284607F0DDF80028A6
:105470007ED1206807F004F9002879D0206807F071
:10548000FFF8800704D52068416901F002014161FD
:10549000206807F0F5F8010304F571704FF001087A
:1054A0004FF008094FF0100B009044D500262068FB
:1054B00007F0C5F882463BE05FEACA7035D0F1B22A
:1054C000206807F0D5F80746F80707D005EB461027
:1054D000C0F8088B3146204602F048FF380707D550
:1054E0003146204602F010FF05EB4610C0F8089B3D
:1054F000F80603D505EB4610C0F808BBB8060CD576
:105500002069012804D120680121009A06F0D8FE04
:1055100005EB46102021C0F8081BB80405D505EBA3
:1055200046104FF40051C0F8081B761C4FEA5A0A87
:10553000BAF1000FC0D1206807F0A2F840035ED591
:10554000206807F075F88246002655E05FEACA70C9
:105550004FD0F1B2206807F079F80746F80728D055
:1055600006F00F0108FA01F0D5F83418814300E085
:105570006BE1C5F8341805EB4610C0F808892069BE
:10558000012807D1C6EBC60004EB8000D0E9112149
:1055900011448164F1B22046FFF74AFE20690128D8
:1055A00007D136B9206D20B920680121009A06F094
:1055B00087FE380703D505EB4610C0F80899F806B2
:1055C00003D505EB4610C0F808B9780604D505EBFD
:1055D00046104021C0F80819B80704D505EB46105D
:1055E0000221C0F80819380603D53146204602F0DA
:1055F00031FF761C4FEA5A0ABAF1000FA6D1206893
:1056000007F03EF8002811DAD5F8040820F001016F
:10561000C5F8041894F8F40301282BD0204600F0B4
:10562000EAF92068416901F000414161206807F012
:1056300027F800050BD5D5F80808C00702D020468A
:1056400000F01EFA2068416901F4006141612068A0
:1056500007F016F8C0045CD5D5F8040820F0010165
:10566000C5F804181021206806F0BCFF00214FF691
:105670007F3219E0002084F8F40300212046FFF770
:10568000ADFDCEE705EB411000F5106082600368C8
:1056900023F400130360C0F80822D0F8003223F48A
:1056A0000013C0F80032491C60688842EAD8D5F877
:1056B0001C0840F00111C5F81C18206B60B1D5F82A
:1056C000840840F00B01C5F88418D5F8440840F070
:1056D0000B01C5F844180CE0D5F8140842F22B0170
:1056E0000843C5F81408D5F8100840F00B01C5F8B8
:1056F0001018D5F8000820F4FE61C5F80018217CC8
:105700002068009A06F0DCFD2068416901F48051B0
:105710004161206806F0B4FF800415D5206806F0CA
:10572000ADFB206806F070FFE06000F007FB01466B
:10573000227B206806F0E6FF204600F045F920684D
:10574000416901F400514161206806F099FFC006EB
:1057500035D52068816921F0100181612F6A07F039
:105760000F00C0EBC00004EB800606F5FE76C7F321
:105770004340022802D0062812D01BE047F6F07002
:10578000074217D0C7F30A1217462846F16806F0F9
:105790007BFFF0683844F060B0693844B06109E0DC
:1057A00008222846009906F06FFFB069C7F30A1176
:1057B0000844B0612068816941F01001816120686E
:1057C00006F05EFF000707D5204600F018F92068B4
:1057D000416901F008014161206806F051FFC002F3
:1057E00008D50021204600F032F82068416901F414
:1057F00080114161206806F043FF800208D5002136
:10580000204600F028F82068416901F40011416148
:10581000206806F035FF400007D52046FFF704FD5D
:105820002068416901F080414161206806F028FF4D
:1058300040070AD520684568680702D52046FFF76B
:105840000AFD2068416829434160BDE8F88FD0F81F
:10585000040405F0F9BFD0F8040405F0F7BF2DE902
:10586000F0418AB00446002C05D0266894F8BD03A8
:10587000002520B108E001200AB0BDE8F08184F8DD
:10588000BC53204600F05EF8032084F8BD03F06BA3
:10589000C00500D42561206806F082FC04F11001E7
:1058A000282288466846FAF773FF94E80F0006F04E
:1058B000FFFA022718B184F8BD730120DCE700214C
:1058C000206806F0F0FE002101260DE0C1EBC100CA
:1058D00004EB80003C3046700170C180C57085606B
:1058E000C5604561491CC9B260688842EED8002194
:1058F0000DE0C1EBC10004EB800000F5FE704570C7
:105900000170C5708560C5604561491CC9B2606899
:105910008842EED8282241466846FAF739FF94E8D3
:105920000F0006F07BFB18B184F8BD730120A3E7DC
:1059300084F8385084F8BD63206806F063FB0020CB
:105940009AE7000010B586B00446142101A8FAF7C2
:105950007BFF2068B0F1A04F2FD1002118480268CA
:1059600042F001020260006800F0010000904FF474
:10597000C0500190022002900391032004900A205D
:10598000059001A90F48FEF72DFF0D48001D016885
:1059900041F0800101600A481430016841F48041FF
:1059A0000160006800F4804000900022052143203F
:1059B000FFF7E2FB4320FFF7D1FB06B010BD00006C
:1059C000303802400000024070B504460125E0680E
:1059D00000280ED0022801D0FDF7A1FC2946D4F8FA
:1059E000040405F085FFD4F80404BDE8704005F018
:1059F00044BF0025F2E7D0F8040405F067BFD0F8F3
:105A0000040405F069BF10B5044694F8BC030128EE
:105A10000BD0012084F8BC0384F83810206806F00D
:105A20005AFE002084F8BC0310BD022010BDD0F83F
:105A3000042400F57171104605F066BF10B50446E8
:105A4000206894F8BC13012906D0012184F8BC1306
:105A5000A16A012902D008E0022010BDA169012934
:105A600003D0816B41F480318163206806F0BEFA77
:105A7000206806F0A1FD002084F8BC0310BD0000E2
:105A800010B50446D4F8040405F07DFF2068D0F872
:105A9000001E41F00101C0F8001E206A002804D059
:105AA0000248016841F00601016010BD10ED00E000
:105AB0002DE9F84304464FF0010820684FF0000735
:105AC000C10701D140072BD5DFF81891C9F86870DC
:105AD000FEF772FF0646444D07E0FEF76DFF801BA0
