:020000040800F2
:10000000B8E00020DD0300082F6400085159000803
:100010002D64000869230008BF8C00080000000060
:100020000000000000000000000000001D030008A8
:10003000912500080000000079030008A968000865
:10004000F7030008F7030008F7030008F7030008A8
:10005000F7030008F703000893250008F7030008DA
:10006000F7030008992500089F250008F7030008FA
:10007000F7030008F7030008F7030008F703000878
:10008000F7030008F7030008F7030008F703000868
:100090006D230008F7030008F7030008A5250008F2
:1000A000F7030008F7030008F7030008F703000848
:1000B000F7030008F7030008F7030008F703000838
:1000C000F7030008F7030008F7030008F703000828
:1000D000F703000811710008F7030008D171000848
:1000E000F7030008F7030008F7030008F703000808
:1000F000F7030008F7030008F7030008712400085D
:10010000F7030008F7030008F7030008F7030008E7
:10011000F7030008F7030008F7030008F7030008D7
:10012000F7030008C9240008F7030008F7030008D4
:10013000F7030008F7030008F7030008F7030008B7
:1001400079230008F7030008F70300085564000846
:10015000F7030008D5240008E1240008B172000864
:10016000F7030008F7030008F7030008F703000887
:10017000F7030008F7030008F70300080000000079
:10018000F7030008F703000800F002F800F0B6F8E3
:100190000AA090E8000C82448344AAF10107DA45E2
:1001A00001D100F0ABF8AFF2090EBAE80F0013F07E
:1001B000010F18BFFB1A43F00103184740DF00008E
:1001C00060DF00000A444FF0000C10F8013B13F010
:1001D000070408BF10F8014B1D1108BF10F8015BA0
:1001E000641E05D010F8016B641E01F8016BF9D193
:1001F00013F0080F1EBF10F8014BAD1C0C1B09D1EA
:100200006D1E58BF01F801CBFAD505E014F8016B5B
:1002100001F8016B6D1EF9D59142D6D370470000ED
:100220000023002400250026103A28BF78C1FBD8FF
:10023000520728BF30C148BF0B6070476E2900F0DD
:100240008983702900F0CB8466290DF061836529CC
:100250000DF05E8367290DF05B8361290DF05A83F1
:1002600003681B0A28BF41F08001692900F036832A
:10027000642900F03383752900F030836F2900F082
:100280005884782900F09784E92900F0F383E42961
:1002900000F0F083F52900F0ED83EF2900F055849C
:1002A000F82900F096840368DB0928BF41F080013B
:1002B000632901F0B781732901F0BC81E32901F0C2
:1002C000C781F32901F0CC81002070471FB50DF0E4
:1002D0006BFA9DE8030000F069FA01F01BFA0400D4
:1002E000002000210CF024F9401C60600020002157
:1002F0000CF008F9E0601FBD10B510BD01F0DCF98D
:100300001146FFF7E3FF09F0CDFB01F0D1FA03B48A
:10031000FFF7F2FF03BC01F009FB00002C4B19684A
:100320000868B0E8F04F80F30988BFF36F8F4FF093
:10033000000080F311887047000000000848006842
:10034000006880F308884FF0000080F3148862B6DC
:1003500061B6BFF34F8FBFF36F8F00DF00BF00BFE9
:1003600008ED00E0DFF80C00016841F47001016065
:10037000704700BF88ED00E0EFF30980BFF36F8F97
:10038000134B1A681EF0100F08BF20ED108A20E9E9
:10039000F04F106009B44FF0500080F31188BFF3A4
:1003A0004F8FBFF36F8F0BF067FA4FF0000080F3B1
:1003B000118809BC19680868B0E8F04F1EF0100FEA
:1003C00008BFB0EC108A80F30988BFF36F8F7047C5
:1003D00098000020EFF3058070470000094880472F
:1003E00009480047FEE7FEE7FEE7FEE7FEE7FEE717
:1003F000FEE7FEE7FEE7FEE704480549054A064B2F
:10040000704700006D69000889010008B8A000204D
:10041000B8E00020B8C00020B8C0002070B5064683
:1004200000F0A8F9056806F10B0020F00704B442BB
:100430009CBF002070BD2B466A68BAB11068A0420C
:1004400010D304F1080188423CBF5068586007D3BC
:100450005168101941601168091B016058601460EF
:10046000101D70BD13465268002AE7D12146284668
:1004700000F088F90028DED170BD70B50446051F74
:1004800000F078F90068002C14BF446870BD002C9F
:1004900018BFAC423CBF20466468F8D301680A1814
:1004A000AA4218BF456003D12A680546114401607D
:1004B00028684119A1421CBF6C6070BD6168696009
:1004C00021680844286070BD53EA020C00F069807E
:1004D0002DE9F04B4FF00006002B1FBFB3FA83F558
:1004E00003FA05F424FA05F65E4012BF1643B2FA89
:1004F00082F502FA05F4C5F120051EBF22FA05FCBB
:1005000044EA0C04203556EA044C4FEA144418BF60
:10051000641C4FF000084FF00009904271EB030C8F
:1005200039D3002919BFB1FA81F701FA07F6B0FAF9
:1005300080F700FA07F6C7F120071EBF20FA07FC74
:1005400046EA0C062037B6FBF4FCA7EB0507103F84
:1005500007F01F0BCBF120060CFA0BFB2CFA06F66A
:1005600044BFB3460026202FA4BF5E464FF0000BC9
:100570005BEA060C08BF4FF0010B19EB0B09ABFB54
:10058000027C48EB0608C01B06FB02CC0BFB03CC2D
:1005900071EB0C01C1E70B46024641464846BDE8F7
:1005A000F08B13B54FF000004FF00001AFF3008067
:1005B000BDE81C40704700001CB50C46064B7B4450
:1005C00069460090204600F0DEF9044600206946A6
:1005D00000F0ECF920461CBDEB030000032A40F2BA
:1005E000308010F0030C00F0158011F8013BBCF1D5
:1005F000020F624498BF11F801CB00F8013B38BFED
:1006000011F8013BA2F1040298BF00F801CB38BFFA
:1006100000F8013B11F0030300F02580083AC0F018
:10062000088051F8043B083A51F804CBA0E80810C0
:10063000F5E7121D5CBF51F8043B40F8043BAFF3F3
:100640000080D20724BF11F8013B11F801CB48BF4D
:1006500011F8012B24BF00F8013B00F801CB48BF83
:1006600000F8012B704710B5203AC0F00B80B1E8BC
:100670001850203AA0E81850B1E81850A0E81850D7
:10068000BFF4F5AF5FEA027C24BFB1E81850A0E8E0
:10069000185044BF18C918C0BDE810405FEA827CFA
:1006A00024BF51F8043B40F8043B08BF7047D20711
:1006B00028BF31F8023B48BF11F8012B28BF20F8B2
:1006C000023B48BF00F8012B704702F0FF0343EAEA
:1006D000032242EA024200F002B84FF0000204296D
:1006E000C0F0128010F0030C00F01B80CCF1040C61
:1006F000BCF1020F18BF00F8012BA8BF20F8022B95
:10070000A1EB0C0100F00DB85FEAC17C24BF00F83A
:10071000012B00F8012B48BF00F8012B70474FF068
:10072000000200B5134694469646203922BFA0E841
:100730000C50A0E80C50B1F12001BFF4F7AF09074D
:1007400028BFA0E80C5048BF0CC05DF804EB89003E
:1007500028BF40F8042B08BF704748BF20F8022B81
:1007600011F0804F18BF00F8012B70477047704799
:10077000704700000048704760A000207047704735
:100780007047704738B504460A4600206946AFF303
:100790000080002808BF38BD02460099204600F0BE
:1007A000F1FA012038BD012000F07EBFF8B5AFF3AB
:1007B0000080054600200C46102000BF0646A81900
:1007C000A0420DD9324669460020AFF300800700F1
:1007D00008BF00F069FF0098A04218BF0546C41981
:1007E000FFF7C8FF05600746F01D20F00700461917
:1007F000284600F00AF8B44208BFF8BDA21B3146F3
:100800003868BDE8F84000F0BDBA00210160C0E9D9
:10081000011070471020704770B504468569006864
:10082000C10601D5302600E02026C00707D070BDE4
:10083000D4E9012130469047206A401C20626D1E99
:10084000F6D570BD70B5044685690078C00707D13C
:1008500070BDD4E9012120209047206A401C20620D
:100860006D1EF6D570BD09684A0501D540B27047C6
:10087000C905FCD500B2704709684A0501D5C0B268
:100880007047C905FCD580B2704770B50C46054667
:10089000012A05D02878800600D5EA69002302E005
:1008A000012305E05B1C934202D2E05C0028F9D1F1
:1008B000A869E618C01AA861286A18442862284660
:1008C000FFF7AAFF04E0D5E9012114F8010B9047D6
:1008D000B442F8D32846FFF7B5FF70BD2DE9F041CB
:1008E0000646002410687529314616A510D0FFF77A
:1008F000BAFF002802DA404213A507E031688A07F0
:1009000001D512A502E0490704D511A5012401E093
:10091000FFF7B2FF00210A2206F1240709E0B0FB2D
:10092000F2FCB0FBF2F302FB1C00303078541846A6
:10093000491C0028F3D123462A463046BDE8F04141
:1009400000F07FBA000000002D0000002B00000026
:100950002000000011680268006A530501D5087084
:100960000AE0D30501D5088006E0130603D5C217B7
:10097000C1E9000200E008600120704701694A1CDB
:1009800002610878704700B58FB0CDE901310021D0
:10099000059105497944CDE903101146684600F0F8
:1009A00029F90FB000BD0000E5FFFFFF0A6802F85B
:1009B000010B0A60704700002DE9FF5F15468A466B
:1009C0000446DFF8AC80F8440027D8E900103E4622
:1009D000CDE9001010E03AF816106A4602A800F0BF
:1009E00043FE411C07D02178890603D5E2693918F6
:1009F00091420DD80744761C2078800602D5E06924
:100A0000B84205DDAE42E6DB3AF816000028E2D136
:100A1000A069C01BA0612046FFF7FEFED8E90010C8
:100A2000CDE90010002017E03AF818106A4602A835
:100A300000F01AFEB0F1FF3F81460BD000250DF10A
:100A4000080B05E0D4E901211BF8050090476D1C57
:100A50004D45F7D308F10100B0428046E4DB206A3F
:100A6000384420622046FFF7EDFEBDE8FF9F0000FE
:100A7000CAD400002DE9F0418046D21D22F00702C1
:100A80000025D2E90002F52915A614D0011E72F145
:100A9000000106DA0023D0EB030063EB020211A68B
:100AA00008E0D8F800108B0701D50FA602E049072F
:100AB00001D50EA601251146002408F1240704E003
:100AC00000F07AF930323A55641C50EA0102F7D14D
:100AD0002B46324621464046BDE8F04100F0B1B910
:100AE000000000002D0000002B000000200000008E
:100AF00030B4002100F1240408E002F00705D20818
:100B0000303542EA4372DB086554491C52EA03055A
:100B1000F3D10468002310A2250707D5A40600D44A
:100B200021B1C46901230DA2641EC46130BC00F070
:100B300088B910B5044621461068FFF79DFE0246AD
:100B40002046BDE810400023D2E7D21D22F0070165
:100B5000D1E90023CCE700000000000030000000D5
:100B6000F0B40D460188090502D5214C7C4402E011
:100B70001F4C7C440E34002100F1240608E002F0F2
:100B80000F071209E75D42EA03721B097754491CFB
:100B900052EA0307F3D102780023120704D5702D1F
:100BA00006D009B1022311342246F0BC00F049B945
:100BB00001231034F8E770B504460D46214610684D
:100BC000FFF75AFE024629462046BDE87040002342
:100BD000C6E7D21D22F00703D3E90023C0E703686C
:100BE000126843F0200303600823C3610023B7E7C2
:100BF0002CD300002DE9F05F894604464FF0000A2F
:100C0000DFF874B1FB44C0F820A02046E1688847B3
:100C1000002874D0252806D0D4E901219047206A05
:100C2000401C2062F1E700265F462046E1688847C5
:100C30002028054607DB312D05D2781910F8200C45
:100C400008B10643F1E7B00701D526F00406C4F861
:100C50001CA00027C4F818A02A2D09D0284608F0A7
:100C600061F838B304EB8708303DC8F8185019E034
:100C700059F8041B204604EB87029161E16888471C
:100C8000012F054618D1E069002820DA26F0200659
:100C90001DE0D8F8180000EB800005EB400030386C
:100CA000C8F818002046E1688847054608F03AF879
:100CB0000028EED1012F0AD02E2D08D12046E16860
:100CC00088477F1C0546022F46F02006C4DBA0693A
:100CD000002803DA404246F00106A061F00701D087
:100CE00026F010066C2D0BD0682D09D04C2D39D074
:100CF0006A2D35D0742D35D07A2D33D016E038E0FA
:100D0000E1682F4620468847B842054609D16C2F36
:100D100026D04FF48060E1680643204688470546A8
:100D200004E06C2F1AD04FF4807006430DB3A5F188
:100D30004100192802D8203546F400664A46294663
:100D4000204626604E46FFF779FA80B101280BD085
:100D5000F61D26F0070000F1080956E74020E4E7F9
:100D60008020D8E70020D6E706F104094DE72846A1
:100D700052E7206ABDE8F09FBCD2000000487047EF
:100D800058A00020034640688C46002818BF8842BF
:100D90003CBF03464068F8D318681844884207D01F
:100DA0000CF1030020F00700001D411A521A014601
:100DB000081D0A60FFF761BB30B5B0F10A024FEAC7
:100DC000900E71F100034EEA817EB0EB0E0061EBF4
:100DD00091014FEA101E4EEA017E10EB0E0041EB2E
:100DE00011114FEA102E4EEA016E10EB0E0041EB8E
:100DF00011214FEA104E4EEA014E10EB0E0041EB6E
:100E00001141401841F100014FEAD00040EA417021
:100E10004FEAD10110EB80054FEA810444EA907457
:100E200044EB01046D1944EB0404521BA3414FF041
:100E3000000348BF0A3200D530BD401C41F100011B
:100E400030BD2DE9F0470D4699469246044600F123
:100E500024080168880604D5E06921F010012160AA
:100E600000E00120A84201DD471B00E00027A16946
:100E70007A1902EB0900081AA0612078C00602D492
:100E80002046FFF7C9FC002608E0D4E901211AF842
:100E900006009047206A401C761C20624E45F4DB19
:100EA0002078C0060AD52046FFF7B6FC06E0D4E954
:100EB000012130209047206A401C2062381EA7F193
:100EC0000107F4DC07E0D4E9012118F80500904798
:100ED000206A401C2062281EA5F10105F3DC204693
:100EE000FFF7B0FC2078000602D50220BDE8F087AD
:100EF0000120FBE770472DE9FF4F0C461E464FF0DF
:100F0000FF378BB0D2E90001DDF860800A908A4695
:100F1000C1F30A5505B93D46002108460CF0E8FC2E
:100F2000BAF1000F00F4400005DA00EB80004FF446
:100F3000400101EA50004FEA9059B9F1010F00DD7C
:100F4000B9460A9850EA4A000ED044F61050A5F26D
:100F5000FF3545432F14B8F1000F1ED07542291EEE
:100F60001EDDC9F100021CE0B8F1010F4FF00000D6
:100F700001D0302103E0F24305E02154401CB0428F
:100F8000FBDB30460022002121540B99C1F8088078
:100F9000C1E900200FB0BDE8F08FBD1B6D1CDEE77E
:100FA0004A4600DA694206A800F010FC06AB93E856
:100FB000070003AB83E8070050460A9900F073FD71
:100FC0008DE80700A0F500501F3800900398002D11
:100FD0000ADD42F21F014A460844002303A9039098
:100FE000684600F0DCFF09E0A0F500504A461F38D3
:100FF000002303A90390684600F0E6FF8DE8070090
:101000000004000C03D04FF0FF30410800E0104610
:10101000B8F1000F03D00022009215461EE0751EA5
:1010200005D4FFF7C9FE303262556D1EF9D5B346BF
:101030000122084302D000227F1C04E020783028DF
:1010400001D100227F1E002A099784D01DE0112DB6
:1010500007DAFFF7B1FE303262556D1C50EA01022B
:10106000F5D1084302D00098C8B10EE00021681EF7
:1010700005E0235C625C63542254401E491C81429B
:10108000F7DBAB46A81B401E0990002004F80B00BC
:101090000B98099AC0F80880C0E9002B7AE711265E
:1010A0004FF0000857E72DE9F04F88460446D21D5F
:1010B00022F0070191B0D1E90001CDE90A0107F062
:1010C000FFFD02460B98C00F01D02D2007E02068DD
:1010D000810701D52B2002E0202101EAC000032A6C
:1010E000099001D0072A05DB03464146204600F05F
:1010F0002DFB0BE12078800601D5E06900E0062099
:10110000B8F1650F814606D0B8F1660F18D0B8F176
:10111000670F70D131E00020B9F1110F009001DBB1
:10112000112301E009F101030AAA01A90CA8FFF7A4
:10113000E2FEDDE90C70002609F10105834647E077
:1011400001204B4600904FF000470AAA01A90CA8C5
:10115000FFF7D1FEDDE90DB00C995D46002610B910
:1011600009F101000D18B9EB050003D4C0F1FF36F9
:1011700009F10105A5EB09002BE0B9F1010F01DA36
:101180004FF001090020B9F1110F0090484601DD30
:10119000112300E003460AAA01A90CA8FFF7ABFE41
:1011A000DDE90C704D4600268346207800070AD4FE
:1011B000AB4500DA5D4601A8012D04DD411911F8A7
:1011C000011C302907D04F4502DA17F1040F04DA69
:1011D000012082460FE06D1EEEE7002F02DCED1BC2
:1011E0003E4403E0781CA84200DD7D1CB81B00F1E2
:1011F000010A4FF000472078000703D4AA4501DB1D
:101200004FF0FF3A0021B7F1004F0DF143088DF880
:10121000431024D002202B23002F01DA7F422D23FC
:101220000A21021EA0F1010000DC5FB197FBF1FC76
:1012300097FBF1F201FB1C7C17460CF1300C08F80F
:1012400001CDEEE7A8F1010003702188090501D561
:10125000452100E06521A0F1010800F8011C099872
:101260000FA9A1EB0807FF1D00B10120411901EBF7
:10127000EA70A1693844081A401EA0612078C006AF
:1012800002D42046FFF7C8FA099828B1D4E9012111
:101290009047206A401C20622078C00622D5204654
:1012A000FFF7BAFA1EE0002E04DBB34502DD01A809
:1012B000805D00E03020D4E901219047206A401C85
:1012C0002062761CAAF101005FEA000A0AD100F050
:1012D00021FAC0680168405CD4E901219047206A86
:1012E000401C2062281EA5F10105DCDC07E0D4E9E2
:1012F000012118F8010B9047206A401C2062381E1B
:10130000A7F10107F3DC2046FFF79CFA032011B098
:1013100041E600002DE9F04F04460D46D21D22F0B3
:10132000070089B0D0E900974846394607F0C8FC65
:101330000246F80F01D02D2307E02068810701D570
:101340002B2302E0202101EAC0038DF820300BB1ED
:10135000012000E00020032A824601D0072A04DB96
:101360002946204600F0F2F93FE12078800601D4BA
:101370000D2500E0E569C7F30A560D2D49DA002175
:101380004FEA175B08460CF0B3FA002F00F4400058
:1013900007DA00EB80004FF4400100EBD07001EA67
:1013A00060008115012901DD4FF0FF3100224FEA75
:1013B000850CBCF1180F06D31346ACF118004FF0A2
:1013C0008052C24003E04FF4801323FA0CF30CF177
:1013D0000C0CBCF1200F04D3ACF1200C09FA0CF07A
:1013E00001E007FA0CF000294FF0004801DD18B9C0
:1013F0000FE00ED140450CD319EB02095F4121B932
:10140000404502D19F4329EA0209BBEB175F00D098
:10141000761C2088000502D57B48784402E07A4893
:101420007844193808AA302302F80A30037C0AF1FC
:101430000101002E0AF1020A53546A4602DC4FF001
:10144000300101E04FF031014FF001088DF800103C
:1014500002D0A6F2FF3603E059EA470100D06B4EF6
:10146000002D02DC2178090704D54FF002082E2157
:101470008DF80110C44600210BE0C7F303433F0180
:10148000C35C491C6D1E02F80830052908F10108EB
:1014900001DA002DF1DC00210CE000EB1973491C8E
:1014A0001B786D1E082902F808304FEA091908F167
:1014B000010801DA002DF0DC21688B0602D516E068
:1014C000A8F10108E04505DD02EB080313F8013C33
:1014D000302BF5D0B8F1000F09DD02EB080313F84B
:1014E000013C2E2B03D1090701D4A8F10108002DDE
:1014F00005DD3E2102F808106D1E08F10108407C50
:10150000002E02F8080008F1010804DA2D207642C6
:1015100002F8080002E02B2002F808000A214FF42C
:101520007A70864208F101080BDB96FBF0F330334A
:1015300002F8083096FBF0F308F1010800FB13668F
:1015400001E0642E0CDB642096FBF0F3303302F8EC
:10155000083096FBF0F308F1010800FB136601E088
:101560000A2E06DB96FBF1F0303002F8080008F195
:10157000010896FBF1F001FB1060303002F8080022
:10158000A16908F1010808EB050202EB0A00081A3C
:10159000A0612078C00602D42046FFF73DF9216AF9
:1015A00008AE01EB0A00206204E0D4E9012116F83C
:1015B000010B9047BAF1010AF7D22078C00602D594
:1015C0002046FFF729F96E4609E016F8010B3E2880
:1015D0000FD0D4E901219047206A401C2062B8F165
:1015E0000108F2D22046FFF72DF909B00320BDE82B
:1015F000F08F206A2844206203E0D4E901213020E2
:1016000090476D1EEBD3F8E7CACA000002FCFFFF4B
:1016100010B5436913B1AFF3008001E0FFF735F96E
:10162000012010BD127800F124010A7000224A70D6
:101630000122EDE711684FF0FF32E9E710B5436989
:1016400013B1AFF3008001E0FFF7B6F9012010BD40
:10165000128800F1240182840022C2840122EDE775
:1016600011684FF0FF32E9E770B516460C460546A3
:1016700000F048F8036893F80101012806D0FF2C18
:101680000FD8185D68B101202C7070BDD3F8070128
:101690003246214603F2071303442846BDE8704052
:1016A00018474FF0FF3070BD10B500F017F9BDE8D6
:1016B000104000F006B970477546FFF75FFBAE4675
:1016C00005006946534620F00700854618B020B54E
:1016D000FEF792FEBDE820404FF000064FF00007F5
:1016E0004FF000084FF0000B21F00701AC46ACE8CA
:1016F000C009ACE8C009ACE8C009ACE8C0098D4637
:101700007047000010B500F005F8001D10BD00BFC7
:1017100021AE00000048704778A000201FB584B0BB
:1017200000200A9C06AB04AA02A90094AFF3008033
:1017300018B1DDE9020108B010BD0348204000F0F7
:10174000C5F800200146F6E70000207C2DE9F041B5
:101750001F46044603260168072A01F4006004DBE3
:1017600008B116A505E016A503E008B115A500E02F
:1017700015A521F010002060A069C01EA0610FB166
:10178000401EA0612046FFF747F84FB1D4E9012180
:1017900038469047206A401C2062C01C206206E048
:1017A000206AFAE7D4E9012115F8010B9047761E6B
:1017B000F8D22046FFF746F8BDE8F0814E414E00D2
:1017C0006E616E00494E4600696E66002DE9F04775
:1017D000814616468AB0354878440DC88DE80D001C
:1017E00032487844801C03AC0DC884E80D0041F6F3
:1017F0009B300844372190FBF1F290FBF1F5A5F105
:10180000800501FB12041B3C02D56442012000E06C
:101810000020DFF898A080460027FA44AAF1BE0A0B
:101820000EE0E0070AD03246684607EB4701012385
:101830000AEB810100F0C8FB8DE8070064107F1CF3
:10184000002CEED1194F7F44AE3F19E0E80715D0C8
:1018500007EB04100DF1180A90E80E008AE80E005C
:10186000C068F04201D1981908903246012306A9B8
:1018700003A800F0A9FB03AB83E807006D10641C0C
:10188000002DE3D14FF0010332466946B8F1000F55
:1018900003A802D000F083FB01E000F095FBC9E94A
:1018A0000001C9F808200AB0BDE8F0879CC7000015
:1018B00010B50446AFF300802046BDE81040FEF7A7
:1018C00026BD002801D000F031B8704710B500F0F7
:1018D0004DF8BDE81040FFF7F4BF000010B5012837
:1018E00005D0002103A000F027F8012010BD09A1B8
:1018F000F8E7000053494752544D454D3A204F7583
:1019000074206F662068656170206D656D6F7279F7
:10191000000000003A2048656170206D656D6F72AF
:101920007920636F727275707465640001491820C4
:10193000ABBEFEE72600020070B505460C460A2045
:1019400000E06D1C00F0A8F835B128780028F8D127
:1019500002E0641C00F0A0F814B120780028F8D14F
:10196000BDE870400A2000F097B8000010B50228CA
:1019700003D0410103D50DA112E0002010BD0101EB
:1019800001D50FA10CE0C10001D511A108E0810033
:1019900001D512A104E0400001D513A100E000210F
:1019A00015A0FFF7C9FF012010BD0000496E766148
:1019B0006C6964204F7065726174696F6E0000001D
:1019C000446976696465204279205A65726F000027
:1019D0004F766572666C6F7700000000556E646527
:1019E00072666C6F77000000496E657861637420E1
:1019F000526573756C7400005349474650453A2050
:101A000041726974686D6574696320657863657097
:101A100074696F6E3A2000004FF0013C50F8042BBF
:101A200051F8043B9A4221D1A2EB0C03934313EAF1
:101A3000CC1317D150F8042B51F8043B9A4215D11E
:101A4000A2EB0C03934313EACC130BD150F8042BF5
:101A500051F8043B9A4209D1A2EB0C03934313EAD9
:101A6000CC13DBD04FF00000704700BFD01A01BA92
:101A7000B1FA81F101F0180122FA01F0CB40C1F175
:101A80002001DBB2C0B2C01A2CFA01F3D11A914383
:101A900011EAC311E6D1704708B569468DF8000018
:101AA0000320ABBE08BD5FEA400C08BF91F0000FF9
:101AB0004FEA8C234FEAC12243EA51514FEA1C50AE
:101AC00018BF00F5F0404FEA300018BF41F0004168
:101AD0005FEA6C5C00F02980BCF1FF3F08BF40F07A
:101AE00080407047130C06BF12044FF0100C4FF0EB
:101AF000000C130E04BF12020CF1080C130F04BFEC
:101B000012010CF1040C930F04BF92000CF1020CB3
:101B1000D30F04BF52000CF1010C11464FF000022C
:101B2000A0F11F00A0EB0C00704711F0004F08BFA0
:101B3000704731F000413FF4D5AF0B0C06BF0904EC
:101B40004FF0100C4FF0000C0B0E04BF09020CF10B
:101B5000080C0B0F04BF09010CF1040C8B0F04BF20
:101B600089000CF1020CCB0F04BF49000CF1010CF1
:101B7000CCF12003A0EB0C0022FA03F302FA0CF2E2
:101B800041EA030100F10100704720F07F4C80EA38
:101B9000030023F07F47ACEB070303F57C5300F011
:101BA000004003F1FF032DE980494FEA154B09B4CA
:101BB0004FEA144325EA0B4E24EA03480FF20426A9
:101BC00006EB132749083E785FEA320203FB0667FB
:101BD000C7F5000707FB06F64FEA54374FEAD6462B
:101BE00006F1020607FB066CCCF1005C4FEA1C47CD
:101BF0002CEA074C07FB06F40CFB06F504EB154634
:101C00004FEA961634BF00204FF000404FEAD1371C
:101C100006FB07FC4FEA1C4C0CFB0BF7D21B03FB2B
:101C20000CF761EB07010CFB0EF7B0EB074072EB12
:101C300017420CFB08F734BFA2EB0742B2EB074296
:101C400061EB17414FEA0C444FEA910706FB07FC92
:101C50004FEA1C4C0CFB0BF7B0EBC74072EB573252
:101C600003FB0CF734BFA2EBC742B2EBC74261EBF8
:101C700057310CFB0EF7B0EBC70072EB57720CFB41
:101C800008F734BFA2EBC702B2EBC70261EB577192
:101C9000039F4FEA816141EA921104EBCC044FEAC1
:101CA000D1374FEA826206FB07FC42EA90124FEA04
:101CB00080604FEA1C4C0CFB0BF7D21B03FB0CF7AC
:101CC00061EB07010CFB0EF7B0EB074072EB17421C
:101CD0000CFB08F734BFA2EB0742B2EB074261EB03
:101CE00017414FEA8C554FEA910704EB9C2406FB01
:101CF00007FC4FEA1C4C0CFB0BF7B0EBC74072EB38
:101D0000573203FB0CF734BFA2EBC742B2EBC7421A
:101D100061EB57310CFB0EF7B0EBC70072EB57725B
:101D20000CFB08F734BFA2EBC702B2EBC70261EBB2
:101D3000577115EB4C254FEA816141EA92114FEA48
:101D400082624FEAD13742EA901206FB07FC44F167
:101D500000044FEA80604FEA1C4C0CFB0BF7D21BCF
:101D600003FB0CF761EB07010CFB0EF7B0EB074030
:101D700072EB17420CFB08F734BFA2EB0742B2EB41
:101D8000074261EB174115EB1C154FEA813141EA1F
:101D900092414FEA823242EA90424FEA80304FEA63
:101DA0000C7644F1000448EA03434EEA0B484FF036
:101DB000000EB2EB080C71EB030724BF62463946F4
:101DC0004EEB0E0E4FF0000B0018524149414BEB09
:101DD0000B0BB2EB080C71EB03077BF1000B24BF7C
:101DE000624639464EEB0E0E4FF0000B0018524182
:101DF00049414BEB0B0BB2EB080C71EB03077BF18A
:101E0000000B24BF624639464EEB0E0E51EA020724
:101E100018BF46F0010616EB0E7655F1000254F19C
:101E2000000103D5BDE88901BDE80088BDE889014E
:101E3000BDE80048B619524141EB0101A3F101038D
:101E4000704780807F7E7D7C7B7A79787776767527
:101E50007473727171706F6E6E6D6C6C6B6A6A699F
:101E60006868676666656464636362616160605F39
:101E70005F5E5E5D5D5C5C5B5B5A5A5959585857B2
:101E8000575656555555545453535252525151501A
:101E900050504F4F4F4E4E4D4D4D4C4C4C4B4B4B6D
:101EA0004A4A4A49494948484847474747464646B3
:101EB00045454544444444434343434242424241EE
:101EC0004141002B9C4630D477002BD01CB54FEA03
:101ED000370703B44FF010004FF01001BAF1000FB4
:101EE00006D0BCF1000FDCBF40F0080040F0080154
:101EF0000BF0FEFC0FBCBDE810400BF1010BBBF179
:101F0000010F08BF5FEA170722BF12F1010211F1AA
:101F100001014FF0004143F1000300F0004043EAAB
:101F200000007047F9D35708D0E746EA064613F198
:101F3000400F4FEA16461FDD13F1200FDFBF164397
:101F40000A46002120335B42BED0C3F1200746EA97
:101F5000064602FA07F74FEA164646EA0706C3F1B5
:101F6000200722FA03F201FA07F721FA03F14FF0F2
:101F7000000342EA0702A7E746EA020646EA0646E7
:101F80004FEA164646EA0106BCBF46EA0646360C4C
:101F90004FF000034FF000024FF0000194E72DE9ED
:101FA000804C9A46934670B491E8380007C831EAED
:101FB000400C48BF34EA430C03D5FFF7E6FDFFF7BA
:101FC00080FFF0BCBDE8008C2DE9804C9A4693461A
:101FD00070B491E8380007C810F0804F08BF13F0C4
:101FE000804F03D100F005F8FFF76BFFF0BCBDE8B0
:101FF000008C20F07F4780EA030023F07F4C07EB42
:102000000C03A3F57C5300F00040A3F1FE0392F013
:10201000000F00F0B38095F0000F00F077802DE9FD
:1020200001494FEA11404FEA144621EA004800FBFB
:1020300006FC24EA064708FB06F607FB08F800FB47
:1020400007F718EB06484CEB164C4FEA124B18EB0F
:1020500007484FEA15464CEB174022EA0B4E0BFBA4
:1020600006FC25EA06470EFB06F607FB0EFE0BFBF9
:1020700007F71EEB064E4CEB164C4FF000061EEB1E
:10208000074E4CEB174B18EB0B0840F1000018EB18
:102090000E0B58EB000840F100008F1A4FF00001C2
:1020A0003CBFC943661B14BFB5EB040C00213CBF09
:1020B000C943F61B4FEA17444EEA8E0E27EA044541
:1020C0004FEA1C4704FB07622CEA074C05FB07F7A5
:1020D0000CFB05F604FB0CFC16EB074642EB174223
:1020E00016EB0C4642EB1C421BEB060658EB0202B9
:1020F000414146EA9E0601D5BDE80189B619524123
:1021000041EB0101A3F10103BDE801894FEA144548
:102110004FEA114724EA054621EA074C05FB07F47C
:1021200006FB07F70CFB06F105FB0CFC11EB074166
:1021300044EB17444FEA124711EB0C4144EB1C44AB
:1021400022EA074C05FB07F206FB07F70CFB06F635
:1021500005FB0CFC16EB074642EB174216EB0C4650
:1021600042EB1C456A1854F1000148BF7047B6198C
:10217000524141EB0101A3F10103704795F0000FBB
:1021800037D04FEA11424FEA144721EA024624EAC7
:10219000074C02FB07F106FB07F70CFB06F402FBFA
:1021A0000CFC14EB074441EB17414FEA154714EBC5
:1021B0000C4441EB1C4125EA074C02FB07F506FBEA
:1021C00007F70CFB06F602FB0CFC16EB074645EB8B
:1021D000174516EB0C4645EB1C42121951F1000154
:1021E00048BF7047B619524141EB0101A3F1010309
:1021F00070474FEA14454FEA114724EA054621EAA1
:10220000074C05FB07F106FB07F70CFB06F24FF046
:10221000000605FB0CFC12EB074241EB174112EBE9
:102220000C4251EB1C4148BF7047921841EB010131
:10223000A3F10103704700004A494A6822F4403282
:102240004A604A6843681A434A6001684A6822F44F
:1022500080724A6001684A68036942EA03224A6060
:1022600001684A6822F040724A6001684A688368DF
:102270001A434A6001688A6822F400628A60016831
:102280008A68C3681A438A60816A6FF07062D142BB
:1022900014D001688A6822F070628A6001688A68D6
:1022A000836A1A438A6001688A6822F040528A6011
:1022B00001688A68C36A1A438A6009E001688A680B
:1022C00022F070628A6001688A6822F040528A6057
:1022D00001688A6822F002028A6001688A68037EC7
:1022E00042EA43028A6090F8201089B101684A6886
:1022F00042F400624A6001684A6822F460424A601F
:1023000001684B68426A521E43EA42324A6004E066
:1023100001684A6822F400624A600168CA6A22F4CD
:102320007002CA620168CB6A828B521E43EA025273
:10233000CA6201688A6822F400728A6001688A6849
:1023400090F8303042EA43228A6001688A6822F4B9
:1023500080628A6001688A68406942EA80208860F9
:102360007047000000230140FEE70000014800F034
:10237000BCBC0000A8040020014800F0B6BC00006E
:10238000D004002008B50B4A4FF4007313600023FB
:102390009360D36008231361074A030A13705070D7
:1023A000080A9070D1706B460249044800F018FB8F
:1023B00008BD0000788F002045020020A8040020FE
:1023C00008B50B4A4FF40073136000239360D36089
:1023D00008231361074A030A13705070080A9070AB
:1023E000D1706B460249044800F0FAFA08BD0000BB
:1023F000908F00204D020020D004002004284FF0D0
:10240000000070470020704710B5002204490548BD
:1024100005F0BCF80449034805F0B2F8002010BDEF
:10242000E02100203C110020E019002010B50146F9
:10243000034805F0A5F8024805F081F8002010BD1A
:102440003C11002010B50A460849D1F89012D1F885
:102450001412002901D0012010BD0146034805F0E7
:1024600095F8BDE81040014805F00AB93C1100207C
:1024700010B5124A506800011FD5114B114C4FF096
:102480000061586B0068A04203D90E484C380160C7
:102490000EE00A4CB834A04203D90A485038016013
:1024A00006E0064C5834A04201D9D16000E09160AA
:1024B0001868016841F40071016010BD00600240BD
:1024C000F40B002058640240014800F035BF0000C2
:1024D0007C100020014800F02FBF0000DC1000201D
:1024E000014800F029BF00005C0F00200168CAB25B
:1024F000103A1823B2FBF3F2064B9B5CC3656FF3F3
:102500000901032A02D9091D816500E08165806DFA
:10251000704700000CDB000810B5014600208A6AF5
:102520008B694FF0C074002B0ED0B3F5005F1AD04A
:1025300062B3012A2AD0022A28D0032A03D1C96A09
:10254000C90100D5012010BD1AB1012A06D0022A06
:10255000F9D1C96AC901F6D5012010BDC96AA142E5
:10256000FBD1012010BD52B1012A0AD0022A06D0A7
:10257000032AF7D1C96AA142F4D1012010BD01207C
:1025800010BDC96AC901FBD5012010BD012010BDD5
:102590007047012001F036B8082001F033B8102050
:1025A00001F030B8202001F02DB8704710B50B486D
:1025B0000168001D0468001D0068084400280BD055
:1025C0000822074903F0C5F9054920460422BDE861
:1025D0001040103103F0BDB910BD0000107AFF1F8C
:1025E0005A00002078B50024009490F83C20012A7D
:1025F00019D0012280F83C200A680725092A14D93D
:102600000368DE680A3A02EB42029540AE43DE60A0
:102610000A788B680A3A02EB420293400268D56856
:102620002B43D36011E0022078BD03681E6902EBE2
:1026300042029540AE431E610A788B6802EB42026B
:102640009340026815692B4313614A681F25072AC6
:1026500013D203685E6B521E02EB82029540AE43BA
:102660005E630A8893B20A79521E02EB820293409B
:102670000268556B2B43536328E00D2A13D203687D
:102680001E6BD21F02EB82029540AE431E630A8886
:1026900093B20A79D21F02EB820293400268156B53
:1026A0002B43136312E00368DE6A0D3A02EB8202E9
:1026B0009540AE43DE620A8893B20A790D3A02EB86
:1026C000820293400268D56A2B43D362174A184BA3
:1026D00005689D4206D10D68122D03D1556845F459
:1026E0008005556005689D421BD10B68102B01D0F9
:1026F000112B16D1536843F4000353600968102965
:102700000FD10C490C4A0968B1FBF2F101EB8101D0
:102710004900009102E00099491E009100990029AA
:10272000F9D180F83C40002078BD00000023014032
:10273000002001409400002040420F000068C06C5F
:10274000704770B504460026002C03D0206C00258D
:1027500010B107E0012070BD204600F01DF865644F
:1027600084F83C50206CC00610D4206C20F48850B3
:1027700040F0020020642046FFF75EFD6564206C97
:1027800020F0020040F00100206400E0012684F8FF
:102790003C50304670BD000010B586B00446142190
:1027A00001A8FDF7BCFF174B20680022164998428C
:1027B00009D1086840F480700860086800F48070EF
:1027C000009006B010BD114B9842FAD1086840F451
:1027D00080600860086800F4806000900A4814383F
:1027E000016841F020010160006800F020000090C5
:1027F0001815019003200290039201A9044800F0EB
:102800000DFFDEE700200140443802400022014075
:10281000001402402DE9F04104460D46206881680D
:102820004FF0000749050BD58068C00508D5206C1E
:1028300040F02000206484F83C700120BDE8F08165
:1028400000F0D6FF06460FE0681C0DD025B100F061
:10285000CFFF801BA84207D9206C40F00400206401
:1028600084F83C700320E9E7206800688007EBD516
:1028700021686FF012000860206C40F40070206442
:102880002068816811F0405F13D1217E89B9C16A47
:1028900011F4700F02D0806840050AD4206C20F437
:1028A00080702064206CC00403D4206C40F00100D0
:1028B00020640020C2E7000018B50022009290F8C2
:1028C0003C10012907D0012180F83C1001688B6879
:1028D000DB0702D014E0022018BD8B6843F001032F
:1028E0008B603049304B0968B1FBF3F101EB4101DA
:1028F000009102E00099491E009100990029F9D148
:1029000001688B68DB074AD0036C40F20164A34383
:1029100043F4807303644B685B0505D5036C23F4B3
:10292000005343F480530364036CDB0404D5436C0D
:1029300023F00603436400E0426480F83C201B4A15
:102940006FF022030B605168CA06194907D000686E
:10295000884224D1816811F0405F1CD01FE00068DC
:1029600088420FD0134A904203D1D1F80423D206F3
:1029700008D0114A904212D1D1F8041301F01F017E
:1029800010290CD2816811F0405F08D1816841F0B4
:102990008041816003E0816841F0804181600020D6
:1029A00018BD00009400002040420F0000230140A9
:1029B00000200140002101400022014090F8202029
:1029C000012A07D0022A05D0416A41F480214162E0
:1029D00001207047006842690A4342610020704745
:1029E000F0B590F820500468A468012D07D0022D9E
:1029F00005D0416A41F4802141620120F0BD04F01C
:102A0000806504F00066354301D1E5005BD5C4F371
:102A10000164022C05D9416A41F4000141620120A0
:102A2000F0BD0125A5401D608B684FF4C0759BB1BA
:102A3000CE6805EB041733434E6843EAC6030668C5
:102A4000F3514FF4C273076803EB04130E69FE5091
:102A5000097D012909D00DE00E88CB6805EB04172C
:102A600043EA46530668F351EBE70168CE5846F453
:102A70008076CE501179D379567941EA0361937902
:102A80001B0443EA062319434FF4C676036806EB9A
:102A9000041699511178D37841EA036193785278FA
:102AA0001B0443EA022211434FF4C473026803EB90
:102AB0000413D150006805EB0411425842F00102A2
:102AC00042500020F0BD416A41F4001141620120F2
:102AD000F0BD000010B590F82020012A07D0022A8E
:102AE00005D0416A41F480214162012010BD3C487B
:102AF00000F50070026842F001020260026822F4F0
:102B00007C52026002684B6A42EA032202600A7D3C
:102B100002F01F0301229A40C3699343C361A0F5E9
:102B20000070CB69B3B9D0F80C329343C0F80C32C3
:102B30008C894B6864F31F434C6900EBC404C4F8F0
:102B400040320C890B6864F31F434C6900EBC404EA
:102B5000C4F84432CB69012B16D1D0F80C321343A0
:102B6000C0F80C320C884B6864F31F434C6900EBCF
:102B7000C404C4F840320C89CB6864F31F434C6929
:102B800000EBC404C4F844328B697BB1D0F8043242
:102B90001343C0F804320B6973B1D0F814321343F5
:102BA000C0F81432096A01290CD010E0D0F80432C0
:102BB0009343C0F80432EEE7D0F814329343C0F8E0
:102BC0001432EFE7D0F81C121143C0F81C12D0F8F1
:102BD000001221F00101C0F80012002010BD000019
:102BE00000640040704730B590F82040012C07D0B9
:102BF000022C05D0416A41F480214162012030BDA0
:102C000021B104682469A4075ED003E00468E46885
:102C1000A40753D04FF4D874056804EB01142D5960
:102C200005F004059560002D54D005682D59ED0878
:102C3000556005682C59C4F34004D4604FF4DA742D
:102C4000056804EB01142D5905F00F0515610568A1
:102C50002D59C5F30725956105682C59240C54613D
:102C60004FF4DC72046802EB0112A4581C70046873
:102C7000A458240A5C700468A458240C9C7004684E
:102C8000A258120EDA704FF4DE72046802EB0112E1
:102C9000A4581C710468A458240A5C710468A458E0
:102CA000240C9C710468A258120EDA71B9B1006844
:102CB000016941F020010161002030BD416A41F409
:102CC00000114162012030BD416A41F400114162AE
:102CD000012030BD05682D596D0D1560A9E700680C
:102CE000C16841F02001C160E6E72DE9F05F0546CB
:102CF000002428684669D0F804908768D0F80CA0B2
:102D0000D0F810B0D0F81880F10748D0F90714D0E7
:102D100001218160B80703D5284600F0CDFA0CE008
:102D2000780702D54FF4006407E0380702D54FF466
:102D3000805402E0284600F0BEFAF80516D529684E
:102D40004FF480708860B80503D5284600F0B6FAC5
:102D50000CE0780502D544F4005407E0380502D5AC
:102D600044F4804402E0284600F0A7FAF80316D5A0
:102D700029684FF480308860B80303D5284600F0F6
:102D80009FFA0CE0780302D544F4004407E03803CE
:102D900002D544F4803402E0284600F090FA30076F
:102DA00007D55FEACA6004D544F40074296810208E
:102DB000C86070074FF0080707D55FEA0A7004D5AE
:102DC0002868C760284600F0B7F9B00706D528681C
:102DD000C068800702D0284600F0B0F9700607D519
:102DE0005FEACB6004D544F4806429681020086150
:102DF000B00607D55FEA0B7004D52868076128463E
:102E000000F02AFAF00606D528680069800702D08B
:102E1000284600F022FAB00308D55FEAC96005D55C
:102E2000296810204860284600F018FAF00307D5FA
:102E30005FEA097004D528684760284600F041FA27
:102E4000300446D55FEA497040D5F00504D55FEA05
:102E5000C87001D044F00104B00504D55FEA887061
:102E600001D544F00204700504D55FEA487001D52D
:102E700044F00404300529D518F0700F26D008F06E
:102E80007000402815D006DC102809D020280AD070
:102E9000302816D10AE050280ED0602811D10EE05B
:102EA00044F008040DE044F010040AE044F020046B
:102EB00007E044F0400404E044F0800401E044F4FE
:102EC00080742868816921F070018161296804207B
:102ED0004860002C05D0686A204368622846FFF7E6
:102EE00081FEBDE8F09F70B50446002C03D094F835
:102EF000200010B104E0012070BD204600F09CF8D5
:102F00002068016821F00201016000F071FC0546B3
:102F100005260CE000F06CFC401B0A2807D9606A0B
:102F200040F40030606284F82060012070BD2068A9
:102F300040688007EED42068016841F0010101601B
:102F400000F056FC05460CE000F052FC401B0A283D
:102F500007D9606A40F40030606284F82060012084
:102F600070BD20684068C007EED0207E01283FD0A9
:102F70002068016821F080010160607E01283DD059
:102F80002068016821F040010160A07E01283BD04B
:102F90002068016821F020010160E07E012839D01D
:102FA0002068016841F010010160207F012837D0BE
:102FB0002068016821F008010160607F012835D098
:102FC0002068016821F004010160D4E9020108438E
:102FD000D4E90412114308436168491E084321687B
:102FE000C86100206062012084F82000002070BDCC
:102FF0002068016841F080010160BEE72068016837
:1030000041F040010160C0E72068016841F0200103
:103010000160C2E72068016821F010010160C4E787
:103020002068016841F008010160C6E72068016876
:1030300041F004010160C8E72DE9F04186B0044683
:10304000142101A8FDF76BFB364B374ADFF8D0801F
:1030500018682168344C03260227401C10320025D2
:103060004FF0090C414527D11860012807D110689D
:1030700040F000701060106800F000700090206850
:1030800040F008002060206800F0080000900196E1
:10309000029703950496CDF814C001A9234800F0C7
:1030A000BDFA00220621142000F09AFD142000F041
:1030B00089FD06B0BDE8F081DFF874804145F8D1A4
:1030C000116841F080611160116801F08061009128
:1030D0001860012807D1106840F000701060106877
:1030E00000F000700090206840F00200206020682E
:1030F00000F0020000906020019002970395049672
:10310000CDF814C001A90B4800F088FA002206216E
:10311000402000F065FD402000F054FDC9E70000AC
:10312000006400400000002030380240000C0240E3
:1031300000680040000402407047000030B589B0CC
:1031400004466B4602AA00212046FFF74CFD3E488C
:103150003E49844231D102980246A0F50070013800
:1031600001D0012827D13A48521ED2B2027002EB98
:10317000820301EB430031F8134004819DF80140C4
:103180009DF8005044EA052421F813409DF80310EF
:103190009DF8023041EA032141809DF805109DF819
:1031A000043041EA032181809DF806108171521C90
:1031B000D0B205F0DDFE09B030BD26488442FAD118
:1031C0000298A0F50070013820D00328F3D1C88BF5
:1031D000C8849DF801009DF8002040EA0220C883C1
:1031E0009DF803009DF8022040EA022008849DF823
:1031F00005009DF8042040EA022048849DF806005E
:1032000081F82400042005F0B3FED4E7888A88837F
:103210009DF801009DF8002040EA022088829DF878
:1032200003009DF8022040EA0220C8829DF80500B4
:103230009DF8042040EA022008839DF80600887665
:10324000032005F095FEB6E7A8040020148F0020A7
:1032500044020020D004002070477047704770B5CA
:10326000044694F82000012805D0606A40F400204C
:103270006062012070BD022084F82000206801688F
:1032800021F00101016000F0B3FA05460DE000F005
:10329000AFFA401B0A2808D9606A40F40030606227
:1032A000052084F82000012070BD20684068C00718
:1032B000EDD1606270BD70477047704770477047CE
:1032C0007047704710B50446002C02D0607910B1E9
:1032D00006E0012010BD00202071204600F006F815
:1032E0000220607101206071002010BD08B50068E7
:1032F0000649884208D10648016841F480510160BE
:10330000006800F48050009008BD000000300240CA
:103310003038024090F83510022903D080214165F1
:1033200001207047052180F835100068016821F000
:1033300001010160002070472DE9F84304464FF079
:103340000009CDF800906F484FF416510068B0FBAB
:10335000F1F7A56D2E6894F85C00082202FA00F1DE
:10336000314210D02068016849070CD5016821F06E
:103370000401016094F85C0002FA00F1A960606D3C
:1033800040F00100606594F85C104FF0010808FA05
:1033900001F0304208D021684969090604D5A860C7
:1033A000606D40F00200606594F85C100420884075
:1033B000304208D021680968890704D5A860606D8B
:1033C00040F00400606594F85C10102088403042A2
:1033D00020D02168096809071CD5A8602068016809
:1033E00049030CD50068000304D4216C91B1204638
:1033F00088470FE0A16C69B1204688470AE0016860
:10340000C90503D4016821F008010160216C09B1EC
:103410002046884794F85C102020884030424CD0E9
:1034200021680968C90648D5A86094F835000528C0
:103430000BD020680168490330D50068000328D408
:10344000616C51B32046884737E02068016821F05D
:10345000160101602068416921F080014161206C02
:1034600008B9A06C20B12068016821F00801016052
:1034700094F85C103F208840A86084F8349084F869
:103480003580216D00293BD001B02046BDE8F043D6
:103490000847E16B09B1204688470EE00168C9057D
:1034A00007D4016821F01001016084F8349084F899
:1034B0003580E16B09B120468847606D00281FD038
:1034C000606DC00714D0052084F8350020680168BD
:1034D00021F0010101600098401C0090B84203D81F
:1034E00020680068C007F6D184F8349084F83580ED
:1034F000E16C002904D001B02046BDE8F043084744
:10350000BDE8F883940000202DE9F041044600F066
:103510006FF905465CB1002684F83460022084F817
:1035200035002068016821F0010101600DE00120F3
:10353000BDE8F08100F05CF9401B052805D920208A
:103540006065032084F83500F2E720680068C00752
:10355000F0D121680A6820480240D4E901031843E9
:10356000D4E903352B43184363691843A36918430F
:10357000E3691843236A18431043626A042A03D19B
:10358000D4E90B231A43104308602068406920F0F7
:103590000700656A29460543012704290DD1A06A61
:1035A0000543E06A48B12046FEF7B6FF28B1402047
:1035B000606584F835700120BAE7206845612046CF
:1035C000FEF794FF94F85C203F219140816066658E
:1035D00084F835700020ABE73F8010F070B50446EA
:1035E00000F006F90546601C02D004480078044447
:1035F00000F0FEF8401BA042FAD370BD8800002006
:103600007047000010B504490A68024202D0086001
:10361000FFF7F6FF10BD0000143C01402DE9F84F04
:103620000022DFF89091DFF88C8109F108094FF052
:10363000010E4FF00F0C09F1040A0EFA02F60B68A6
:103640003340B34271D14C68022C01D0122C11D1FD
:10365000D40800EB84073D6A5407E40E0CFA04FB1F
:1036600025EA0B05D1F810B00BFA04FB4BEA050B69
:10367000C7F820B0076854000325A540AF4391F870
:1036800004B00BF0030B0BFA04FB4BEA070BC0F87A
:1036900000B04F68012F05D0022F03D0112F01D0A9
:1036A000122F11D18768AF43D1F80CB00BFA04FB8D
:1036B0004BEA070BC0F808B04768B7430E79C6F36A
:1036C000001696403E434660C668AE438D68A540EE
:1036D0003543C5604C68E40065D5374C256845F432
:1036E00080452560246804F480440094334C22F023
:1036F00003052544D5F808789407260F0CFA06F43C
:10370000A7432F4CA04201D1002424E02D4CA0421D
:1037100001D101241FE02C4CA04201D102241AE067
:103720002A4CA04202D1032415E03CE0284CA042E0
:1037300001D104240FE0274CA04201D105240AE066
:10374000254CA04201D1062405E0244CA04201D121
:10375000072400E00824B4403C43C5F80848D8F8E2
:1037600000409C434D68ED0300D51C43C8F8004061
:10377000104D2D1D2C689C434E68B60300D51C438C
:103780002C60D9F800409C434D68ED0200D51C43E5
:10379000C9F80040DAF800409C434D68AD0200D5FE
:1037A0001C43CAF80040521C102AFFF446AFBDE883
:1037B000F88F0000003C01404438024000300140D6
:1037C000000002400004024000080240000C0240D9
:1037D000001002400014024000180240001C024089
:1037E000002A01D08161704709048161704700009F
:1037F00001488068704700008800002070B50446CA
:10380000002C04D094F83D00002510B106E0012002
:1038100070BD84F83C50204600F0B2F8242084F8B3
:103820003D002068016821F00101016000F0C0FF47
:103830004F4B6168994203D84E49884203D304E054
:103840004D49884201D2012070BD4C49B0FBF1F1D5
:103850002268566826F03F060E43566062689A4218
:1038600001D8491C07E04FF4967251434FF47A7225
:10387000B1FBF2F1491C2268166A26F03F0631437B
:1038800011626168994210D84900401EB0FBF1F204
:10389000521CC2F30B02042A01D2042022E0B0FB26
:1038A000F1F0401CC0F30B001CE0A268F2B301EB86
:1038B000C10303EB0116431EB3FBF6F35B1C43F499
:1038C00080431B0549D092B301EBC10202EB011109
:1038D000401EB0FBF1F0401CC0F30B0040F48040F0
:1038E00040F400402168CA694CF6FF739A431043C4
:1038F000C861D4E9071001432068026822F0C002C1
:1039000011430160D4E9030101432068826848F251
:10391000FF339A4311438160D4E9051001432068C5
:10392000C26822F0FF021143C16001E00EE016E020
:103930002068016841F0010101602564202084F8BD
:103940003D00256384F83E50002070BD01EB410628
:10395000431EB3FBF6F35B1CB3E70120C2E701EBA8
:103960004101401EB0FBF1F0401CC0F30B00B7E773
:10397000A086010080841E0000093D0040420F0027
:103980002DE9F04786B00646142101A8FCF7C7FED2
:10399000534C524A306800255149032710344FF0E8
:1039A00012084FF001094FF0040A90421FD1086835
:1039B00040F002000860086800F002000090380241
:1039C0000190CDF80880CDF80C900497CDF814A0A4
:1039D00001A94448FFF722FE206840F4001020604F
:1039E000206800F40010009006B0BDE8F0873E4A61
:1039F00090423CD1086840F020000860086800F060
:103A0000200000900197CDF80880CDF80C90049725
:103A1000CDF814A001A93548FFF700FE206840F456
:103A200080002060206800F480000090314C304815
:103A300020604FF0606060604020A060E5600001A1
:103A400020616561A561E561C00120626562204673
:103A5000FFF75AFD08B1FEF7A8FD7463A663254879
:103A6000A8380068416841F400614160BCE7224A1F
:103A70009042B9D1086840F004000860086800F07E
:103A800004000090086840F001000860086800F039
:103A90000100009050150190CDF80880CDF80C90F1
:103AA0000497CDF814A001A91448FFF7B7FD4FF40F
:103AB00080700190CDF80880CDF80C900497CDF877
:103AC00014A001A90E48FFF7A9FD206840F40000EA
:103AD0002060206800F40000009085E7005400405A
:103AE00030380240000402400058004000140240F8
:103AF000B86002409C0C0020005C004000080240BE
:103B000000000240024881680278114481607047D9
:103B10008800002010B50B48016841F40071016075
:103B2000016841F480610160016841F480710160C5
:103B3000032000F075F80F2000F006F800F026F8DA
:103B4000002010BD003C024070B504460D4D4FF4FE
:103B50007A712878B1FBF0F00B490968B1FBF0F0FD
:103B600001F0E4F908B1012070BD102C07D2002249
:103B70002146501E00F034F86C60002070BD01201A
:103B800070BD0000880000209400002082B00C4826
:103B9000016841F480410160006800F480400190B8
:103BA0000748001F016841F080510160006800F083
:103BB0008050019000220F21901E02B000F010B83A
:103BC00044380240002809DB00F01F020121914027
:103BD0004009800000F1E020C0F8001170470000AB
:103BE000F0B40D460D4B1B68C3F30223C3F1070469
:103BF000042C00D90424191D072901D2002300E058
:103C0000DB1E012606FA04F1491E294099409E4018
:103C1000761E16403143F0BC05F06AB80CED00E0AA
:103C200000F00701054A10684FF6FF03184040EA0C
:103C30000120034908431060704700000CED00E0CC
:103C40000000FA057047006841620020704770B5B7
:103C50000368586A002907D09C6A00EB14440020CE
:103C60004FF48275491E0AE040EA024098620DE076
:103C700005EB80069E5904EB1644401CC0B28842F6
:103C8000F6D305EB810144EA02405850002070BD94
:103C9000D0F8040403F0D7BFC1EBC10200EB8202ED
:103CA000D0F80404926C03F020BFC1EBC10200EB1A
:103CB0008202D0F80404D2F8082203F081BFD0F8C1
:103CC000040403F0C2BF70B504460B0601F00F00F8
:103CD000C0EBC00104EB81014FF001024FF0000581
:103CE00002D53C314A7002E001F5FE714D7008705A
:103CF00094F8BC03012808D084F8BC23206804F0A1
:103D000083FB84F8BC53002070BD022070BD70B5E9
:103D1000044601F00F006268904201D9012070BD95
:103D20000B0601F00F01C1EBC10104EB81014FF063
:103D300001024FF0000502D53C314A7002E001F566
:103D4000FE714D708D70087094F8BC03012808D086
:103D500084F8BC23206804F02DFD84F8BC530020B7
:103D600070BD022070BD01F00F01C1EBC10100EB7D
:103D70008100D0F8140270472DE9F04104460F0687
:103D800001F00F00C0EBC00104EB81014FF0010610
:103D90004FF0000502D53C314E7002E001F5FE7196
:103DA0004D7008708A60CB704A7802B1C880022BCF
:103DB00000D10D7194F8BC03012809D084F8BC63CC
:103DC000206804F069FA284684F8BC53BDE8F08105
:103DD0000220FBE770B50D4605F00F04C4EBC401EB
:103DE00000EB810101F5FE71CA604B6100238B611C
:103DF0004B700C700369012B00D10A612A0705D0B2
:103E0000027C006804F02EFD002070BD027C00687A
:103E100004F01CFCF8E770B504460D46616805F037
:103E20000F00884201D9012070BD29064FF000061D
:103E30004FF0010206D5C0EBC00104EB81013C311B
:103E40004A7006E0C5EBC50104EB810101F5FE7186
:103E50004E708A70087094F8BC03012807D084F86B
:103E6000BC23206804F0D2FC280702D007E002201F
:103E700070BD217C04F57172206804F071FC84F837
:103E8000BC63002070BD70B50D4605F00F04C4EB97
:103E9000C40100EB81013C31CA604B6100238B619E
:103EA00001234B700C700369012B00D10A612A07B2
:103EB00005D0027C006804F0D5FC002070BD027CB7
:103EC000006804F0C3FBF8E72DE9F84F04462568C5
:103ED000284604F0F9FD00287ED1206804F020FE79
:103EE000002879D0206804F01BFE800704D52068E4
:103EF000416901F002014161206804F011FE0103F3
:103F000004F571704FF001084FF008094FF0100BE5
:103F1000009044D50026206804F0E1FD82463BE095
:103F20005FEACA7035D0F1B2206804F0F1FD0746AF
:103F3000F80707D005EB4610C0F8088B314620463D
:103F400002F0C0FA380707D53146204602F088FA59
:103F500005EB4610C0F8089BF80603D505EB4610A4
:103F6000C0F808BBB8060CD52069012804D1206828
:103F70000121009A04F0F4FB05EB46102021C0F863
:103F8000081BB80405D505EB46104FF40051C0F8E6
:103F9000081B761C4FEA5A0ABAF1000FC0D12068FC
:103FA00004F0BEFD40035ED5206804F091FD82461A
:103FB000002655E05FEACA704FD0F1B2206804F0E5
:103FC00095FD0746F80728D006F00F0108FA01F022
:103FD000D5F83418814300E06BE1C5F8341805EBDF
:103FE0004610C0F808892069012807D1C6EBC60031
:103FF00004EB8000D0E9112111448164F1B2204624
:10400000FFF74AFE2069012807D136B9206D20B993
:1040100020680121009A04F0A3FB380703D505EBC3
:104020004610C0F80899F80603D505EB4610C0F80D
:1040300008B9780604D505EB46104021C0F80819E8
:10404000B80704D505EB46100221C0F80819380658
:1040500003D53146204602F0A9FA761C4FEA5A0AE7
:10406000BAF1000FA6D1206804F05AFD002811DA39
:10407000D5F8040820F00101C5F8041894F8F403F9
:1040800001282BD0204600F0EAF92068416901F0B0
:1040900000414161206804F043FD00050BD5D5F8CF
:1040A0000808C00702D0204600F01EFA20684169C7
:1040B00001F400614161206804F032FDC0045CD568
:1040C000D5F8040820F00101C5F804181021206873
:1040D00004F0D8FC00214FF67F3219E0002084F86C
:1040E000F40300212046FFF7ADFDCEE705EB4110BC
:1040F00000F510608260036823F400130360C0F8C9
:104100000822D0F8003223F40013C0F80032491C12
:1041100060688842EAD8D5F81C0840F00111C5F85B
:104120001C18206B60B1D5F8840840F00B01C5F86D
:104130008418D5F8440840F00B01C5F844180CE089
:10414000D5F8140842F22B010843C5F81408D5F835
:10415000100840F00B01C5F81018D5F8000820F43D
:10416000FE61C5F80018217C2068009A04F0F8FA76
:104170002068416901F480514161206804F0D0FC5D
:10418000800415D5206804F0C9F8206804F08CFC80
:10419000E06000F007FB0146227B206804F002FD8E
:1041A000204600F045F92068416901F40051416161
:1041B000206804F0B5FCC00635D52068816921F07F
:1041C000100181612F6A07F00F00C0EBC00004EB03
:1041D000800606F5FE76C7F34340022802D0062883
:1041E00012D01BE047F6F070074217D0C7F30A124F
:1041F00017462846F16804F097FCF0683844F060F0
:10420000B0693844B06109E008222846009904F0FA
:104210008BFCB069C7F30A110844B061206881695A
:1042200041F010018161206804F07AFC000707D595
:10423000204600F018F92068416901F00801416149
:10424000206804F06DFCC00208D50021204600F073
:1042500032F82068416901F480114161206804F05E
:104260005FFC800208D50021204600F028F8206875
:10427000416901F400114161206804F051FC4000E3
:1042800007D52046FFF704FD2068416901F0804111
:104290004161206804F044FC40070AD52068456865
:1042A000680702D52046FFF70AFD206841682943C8
:1042B0004160BDE8F88FD0F8040403F015BDD0F8D4
:1042C000040403F013BD2DE9F0418AB00446002C2C
:1042D00005D0266894F8BD03002520B108E0012030
:1042E0000AB0BDE8F08184F8BC53204600F05EF8C7
:1042F000032084F8BD03F06BC00500D4256120685D
:1043000004F09EF904F11001282288466846FCF763
:10431000AAF994E80F0004F01BF8022718B184F8FA
:10432000BD730120DCE70021206804F00CFC0021B3
:1043300001260DE0C1EBC10004EB80003C3046706B
:104340000170C180C5708560C5604561491CC9B2F6
:1043500060688842EED800210DE0C1EBC10004EB9B
:10436000800000F5FE7045700170C5708560C56005
:104370004561491CC9B260688842EED8282241468E
:104380006846FCF770F994E80F0004F097F818B14C
:1043900084F8BD730120A3E784F8385084F8BD6326
:1043A000206804F07FF800209AE7000010B586B07E
:1043B0000446142101A8FCF7B2F92068B0F1A04F1F
:1043C0002FD100211848026842F001020260006803
:1043D00000F0010000904FF4C050019002200290C4
:1043E0000391032004900A20059001A90F48FFF7CC
:1043F00015F90D48001D016841F0800101600A486F
:104400001430016841F480410160006800F480408C
:104410000090002205214320FFF7E2FB4320FFF735
:10442000D1FB06B010BD0000303802400000024051
:1044300070B504460125E06800280ED0022801D09E
:10444000FEF7B3F82946D4F8040403F0A1FCD4F82D
:104450000404BDE8704003F060BC0025F2E7D0F82A
:10446000040403F083BCD0F8040403F085BC10B549
:10447000044694F8BC0301280BD0012084F8BC0347
:1044800084F83810206804F076FB002084F8BC0320
:1044900010BD022010BDD0F8042400F57171104643
:1044A00003F082BC10B50446206894F8BC130129BF
:1044B00006D0012184F8BC13A16A012902D008E0CA
:1044C000022010BDA169012903D0816B41F4803124
:1044D0008163206803F0DAFF206804F0BDFA002051
:1044E00084F8BC0310BD000010B50446D4F80404E1
:1044F00003F099FC2068D0F8001E41F00101C0F8DB
:10450000001E206A002804D00248016841F006011C
:10451000016010BD10ED00E02DE9F84304464FF0B6
:10452000010820684FF00007C10701D140072BD5D3
:10453000DFF81891C9F86870FFF75AF90646444D3C
:1045400007E0FFF755F9801B022802D90320BDE8D8
:10455000F88328680001F4D46068217A800140EA79
:1045600001703B4984310860C9F86880FFF740F961
:10457000064606E0FFF73CF9801B022801D903201C
:10458000E5E728680001F5D52078800753D5304845
:104590004030016841F080510160006800F08050B7
:1045A00000902C4D286840F480702860FFF720F9B7
:1045B000064606E0FFF71CF9801B022801D90320FC
:1045C000C5E72868C005F5D5214D7035286800F489
:1045D0004070F8B1A18901F4407181421AD0286875
:1045E00020F440701C49C1F800800F6028602868E2
:1045F000C0070FD0FFF7FCF8064641F2883706E007
:10460000FFF7F6F8801BB84201D903209FE728681E
:104610008007F5D5E0680E49C0F301220831032A6E
:104620000BD0086820F4F81008602868A189C1F34D
:104630000B0108432860002089E70A68074B22F431
:10464000F812184002430A60EFE7000000004742FA
:104650000038024000700040400E4742FFFCFF0F50
:104660002DE9F04704460D46002C13D0DFF82491C5
:10467000D9F80000EFB200F00F00A8420CD289F880
:104680000070D9F8000000F00F00A84204D001200B
:10469000BDE8F0870120FBE720683F4E810712D577
:1046A000400703D5306840F4E050306020780007C0
:1046B00003D5306840F4604030603068A16820F075
:1046C000F000084330602078C00731D0324960687C
:1046D0000839012808D002280BD0032809D009681E
:1046E00089070BD40120D3E70968890306D4012088
:1046F000CEE70968890101D40120C9E7316821F0BA
:10470000030101433160FFF773F8804641F2883AB4
:1047100007E0FFF76DF8A0EB0800504501D9032032
:10472000B6E73068616800F00C00B0EB810FF0D1A3
:10473000D9F8000000F00F00A84209D989F80070EC
:10474000D9F8000000F00F00A84201D001209FE737
:104750002078400705D53068E16820F4E050084330
:1047600030602078000706D53068216920F4604069
:1047700040EAC100306000F03BF83168074AC1F3FD
:104780000311515CC840064908600F20FFF7DCF9AF
:1047900000207DE7003C02400838024014DB00089E
:1047A0009400002001480068704700009400002039
:1047B00000B5FFF7F7FF04490968044AC1F38221F5
:1047C000515CC84000BD00000838024024DB0008EE
:1047D00000B5FFF7E7FF04490968044AC1F3423115
:1047E000515CC84000BD00000838024024DB0008CE
:1047F00010B51748006810F00C01164816D0164B7B
:10480000042912D0082911D1114C241F216801F06C
:104810003F02216849020AD52068C0F38810A0FB36
:1048200003010023FBF750FE09E0184610BD216884
:104830000023C1F38811A1FB0001FBF745FE2168AD
:10484000C1F30141491C4900B0FBF1F010BD00006B
:10485000083802400024F400001BB7002DE9F84F8F
:104860000446002C10D02078DC4DC00757D0DB4820
:1048700008300168C1F3810101290DD00068C0F33F
:104880008100022803D00EE00120BDE8F88FD34854
:10489000001D0068400206D5286880033FD5606887
:1048A00070BB0120F1E76068B0F5803F10D0B0F533
:1048B000A02F12D0286820F480302860286820F4C7
:1048C000802028606068E0B1FEF792FF064614E0A1
:1048D000286840F480302860F4E7286840F480209D
:1048E0002860286840F480302860EBE7FEF780FFFE
:1048F000801B642801D90320C7E728688003F5D509
:104900000DE0FEF775FF064606E0FEF771FF801B1F
:10491000642801D90320B8E728688003F5D42078FB
:10492000AF4F80074FF0000849D5AC480830016808
:1049300011F00C0F09D00068C0F38100022814D1D7
:10494000A648001D006840020FD42868800704D5DF
:10495000E068012801D0012097E72868216920F04C
:10496000F80040EAC100286029E0E068B8B1012001
:104970003860FEF73DFF064606E0FEF739FF801B74
:10498000022801D9032080E728688007F5D5286828
:10499000216920F0F80040EAC10028600FE0C7F864
:1049A0000080FEF725FF064606E0FEF721FF801B8C
:1049B000022801D9032068E728688007F5D4207809
:1049C000000729D5DFF814928648616909F1740956
:1049D00089B101210160FEF70BFF064606E0FEF7F4
:1049E00007FF801B022801D903204EE7D9F80000F9
:1049F0008007F4D510E0C0F80080FEF7F9FE064607
:104A000006E0FEF7F5FE801B022801D903203CE7F3
:104A1000D9F800008007F4D42078400772D500262A
:104A2000DFF8B8A10AF1400ADAF80000C0000BD4A0
:104A3000DAF8000040F08050CAF80000DAF8000010
:104A400000F0805000900126DFF89CB1DBF80000F8
:104A5000C00515D4DBF8000040F48070CBF80000EE
:104A6000FEF7C6FE814607E0FEF7C2FEA0EB090096
:104A7000022801D9032008E7DBF80000C005F3D5C0
:104A8000DFF858B1A0680BF1700B012813D005288E
:104A900018D0DBF8000020F00100CBF80000DBF8B4
:104AA000000020F00400CBF80000A06830B3FEF74F
:104AB0009FFE81461DE0DBF8000040F00100CBF8CE
:104AC0000000F2E7DBF8000040F00400CBF8000043
:104AD000DBF8000040F00100CBF80000E5E7FEF74E
:104AE00087FEA0EB090141F28830814201D9032001
:104AF000CBE6DBF800008007F1D512E0FEF778FE88
:104B000081460AE015E0FEF773FEA0EB090141F2D1
:104B10008830814201D90320B7E6DBF80000800726
:104B2000F1D4012E05D1DAF8000020F08050CAF847
:104B30000000A069C0B3294908310968C1F38101A7
:104B4000022949D0022805D0C7F86080FEF750FE40
:104B500004463CE0C7F86080FEF74AFE064606E0E1
:104B6000FEF746FE801B022801D903208DE6286847
:104B70008001F5D4D4E907010843616AA26A4FF0C5
:104B8000FF33890103EB520241EA0241084394F8E2
:104B90002C1040EA01611148001D016001203866B7
:104BA000FEF726FE044607E014E0FEF721FE001B98
:104BB000022801D9032068E628688001F5D509E0BC
:104BC000FEF716FE001B022801D903205DE62868C7
:104BD0008001F5D4002058E6012056E60038024056
:104BE00000004742800E47420070004070B5044606
:104BF000002C03D06079002510B105E0012070BDC4
:104C00002571204600F00CF80220607120680168D0
:104C100041F00401016001206071A560002070BDB9
:104C200008B500680649884208D10648016841F085
:104C300040010160006800F04000009008BD0000E5
:104C4000000806503438024070B50446002C02D0EB
:104C5000607F10B106E0012070BD00202077204663
:104C600000F04EF8022060772168CA20486221686F
:104C700053204862204601F0FBFDFF25042620B1A9
:104C8000206845626677012070BD206881681B4AF4
:104C9000114081602068816862681143D4E904236F
:104CA0001A43114381602168E06808612068016946
:104CB000228941EA024101612068C16821F0800136
:104CC000C16020688068800608D4204600F024F87F
:104CD00020B1206845626677012070BD2068016CB4
:104CE00021F4802101642068016CA26911430164F0
:104CF0002068456201206077002070BDBFFF8FFFF4
:104D000000680349884202D10249012008607047C7
:104D1000002800403C0E474270B505462868C1682F
:104D200021F0A001C160FEF763FD04464FF47A76DE
:104D300006E0FEF75DFD001BB04201D9032070BD07
:104D40002868C0688006F4D5002070BD70B50446A0
:104D5000002C05D00025A56294F8510010B106E0A2
:104D6000012070BD84F85050204600F031F8022038
:104D700084F851002068016821F040010160D4E905
:104D800001010843D4E90312114308436169084350
:104D9000218B01F400710843E1690843216A08434B
:104DA000A16A084321680860A069042101EA104053
:104DB000616A0843216848602068C16921F4006184
:104DC000C1616565012084F85100002070BD0000BC
:104DD0002DE9F04387B00546142102A8FBF79FFC9C
:104DE0004B4B29684B48022401274B4A00264FF0C1
:104DF00003084FF00509994267D1464914310B6801
:104E000043F480530B60096801F4805101910168FB
:104E100041F002010160016801F0020101910168A5
:104E200041F001010160006800F0010001901820CC
:104E3000029003940497CDF81480CDF8189002A93D
:104E40001046FEF7EBFB8020029003940497CDF808
:104E50001480CDF8189002A93048FEF7DFFB314CE2
:104E60002F4820604FF0C068C4F80480A660E66058
:104E7000071527616661A661E6614FF44030206244
:104E800066622046FEF740FB08B1FDF78EFBEC643E
:104E9000A5632348234C183060342060C4F8048094
:104EA0004020A060E66027616661A661E661C002FD
:104EB000206266622046FEF727FB08B1FDF775FB0E
:104EC000AC64A56307B0BDE8F083174B9942F9D1F4
:104ED000104910310B6843F480430B60096801F4FA
:104EE00080410191016841F002010160006800F019
:104EF000020001904FF46040029003940497CDF8B3
:104F00001480CDF8189002A91046FEF787FBD9E768
:104F100000300140303802400004024000000240EE
:104F200040640240DC0D00200038004010B5401EF7
:104F3000B0F1807F01D3012010BD4FF0E02460610B
:104F40000F21601703F0D4FE0020A061072020612C
:104F5000002010BD10B590F83C20012A22D001227B
:104F600080F83C20CA6800238C6822F440722243F7
:104F70004C6822F4806222430C6822F400622243CF
:104F80000C6922F4805222434C6922F400522243DD
:104F9000C96922F480420A4301684A6480F83C30BF
:104FA000002010BD022010BD70B590F83C20012AF1
:104FB00019D0012600F83C6F0222427050F83C2CB8
:104FC0005468936824F070050C682C4323F0800328
:104FD00049681943546050F83C2C91604670002198
:104FE0000170002070BD022070BD10B50446002C79
:104FF00003D094F83D0010B107E0012010BD00205F
:1050000084F83C00204600F00DF8022084F83D00B2
:10501000211D206801F0D4FC012084F83D0000200F
:1050200010BD000008B500681F4A2049904208D111
:10503000086840F002000860086800F00200009074
:1050400008BD1B4A904208D1086840F0040008607F
:10505000086800F00400009008BD164A904208D18C
:10506000086840F008000860086800F00800009038
:1050700008BD0E49104A091D904208D1086840F049
:1050800002000860086800F00200009008BD0B4AAA
:105090009042FBD1086840F400300860086800F4D2
:1050A0000030009008BD000000040040403802407D
:1050B00000080040000C0040000401400044014092
:1050C000022180F83D1001688A6802F00702062A72
:1050D00003D00A6842F001020A60012180F83D1005
:1050E0000020704770B5044694F83C00012817D0A2
:1050F000012584F83C50022084F83D002068826835
:1051000022F0770222F47F4282600868502831D072
:105110000DDC20284DD005DCB0B310284ED148E07E
:10512000022070BD302844D0402847D137E06028A5
:105130002BD0702806D0B0F5805F3FD0B0F5005F6F
:105140003CD10BE0CB68D1E90121206801F0ABFC38
:105150002068816841F0770181602FE0CB68D1E958
:105160000121206801F09FFC2068816841F48041A2
:10517000816023E0CA684968206801F077FD50210A
:10518000206801F09AFC19E013E0CA6849682068B9
:1051900001F07DFD6021206801F08FFC0EE0CA68FF
:1051A0004968206801F062FD4021206801F085FC1B
:1051B00004E022680146104601F07FFC3C34657033
:1051C0000020207070BD00002DE9F04186B004463B
:1051D000142101A8FBF7A3FA61482168614A02245F
:1051E0000125614F81421BD1106840F0040010601E
:1051F000106800F004000090881501900294039557
:105200000494059401A93846FEF708FA5748FFF7B9
:1052100057FF0821554800F047F906B0BDE8F08176
:105220005348032681421BD1106840F008001060EB
:10523000106800F008000090081401900294039593
:105240000496059401A94B48FEF7E8F94748403019
:10525000FFF736FF45480821403000F025F9DCE72C
:105260004548814226D1106840F0800010601068E7
:1052700000F0800000904FF4E050019002940395FC
:105280000494059401A93D48FEF7C8F937488030D9
:10529000FFF716FF35480021803000F005F933484C
:1052A0000421803000F000F930480821803000F0FF
:1052B000FBF8B2E732484FF04008814232D1106823
:1052C00040F480701060106800F4807000901068E6
:1052D00040F004001060106800F004000090CDF869
:1052E0000480029403950494059601A92548FEF7CD
:1052F00095F9CDF80480029403950494059601A9CC
:105300003846FEF78BF91948C030FFF7D9FE174829
:105310000021C03000F0C8F814480421C03000F06B
:10532000C3F87AE71848814299D1106840F020000C
:105330001060106800F020000090CDF80480029406
:1053400003950494059601A91048FEF767F91048E3
:10535000FFF7B6FE00210E4800F0A6F85DE700005A
:10536000000400403038024000080240D80200200B
:1053700000080040000C0240000C0040001C0240ED
:10538000000401400020024000440140001402409B
:10539000D803002070B504460D4694F83C0001285F
:1053A0000DD0012684F83C60022084F83D0042B113
:1053B000042A1AD0082A2DD00C2A53D13EE002200C
:1053C00070BD2946206801F081FB2068816941F0A9
:1053D000080181612068816921F0040181612068F0
:1053E00081692A69114381613CE02946206801F006
:1053F000A1FB2068816941F40061816120688169B5
:1054000021F480618161206881692A6941EA022171
:10541000816127E02946206801F0C6FB2068C16948
:1054200041F00801C1612068C16921F00401C16136
:105430002068C1692A691143C16113E029462068C7
:1054400001F0EAFB2068C16941F40061C161206894
:10545000C16921F48061C1612068C1692A6941EA9A
:105460000221C1613C3466700020207070BD10B50F
:105470000446002C03D094F83D0010B107E0012051
:1054800010BD002084F83C00204600F00CF80220FB
:1054900084F83D00211D206801F092FA012084F873
:1054A0003D00002010BD704710B504460122206861
:1054B00001F0ECFA0B482168814202D00A4881428F
:1054C00003D1486C40F4004048642068816801F0D2
:1054D0000701062903D0016841F0010101600020A5
:1054E00010BD0000000001400004014070470000B2
:1054F00070B5044622681068D168526900F00F0345
:10550000002B08D1850606D58D0604D52046BDE8BA
:10551000704001F0F1BB002B5ED002F0010301F4FA
:1055200090752B4358D0C30705D0CB0503D5E36B4B
:1055300043F00103E363430705D5D30703D0E36BCF
:1055400043F00203E363830705D5D30703D0E36B7E
:1055500043F00403E363030705D5D20703D0E26BEE
:1055600042F00802E263E26B002A2AD0800604D5EA
:10557000880602D5204601F0BFFB20684069C0F3D1
:105580008010E16B090700D400B3204601F099FBBD
:1055900020684169490615D5416921F04001416102
:1055A000606B58B115490165606BFDF7B3FE0028CB
:1055B00007D0606B016DBDE8704008472046FFF7DB
:1055C00095FF70BD2046FFF791FF70BD2046FFF7A5
:1055D0008DFF0020E06370BD020606D50A0604D5E3
:1055E0002046BDE8704001F05FBD4006F3D5480697
:1055F000F1D52046BDE8704001F071BBB36C0008E6
:1056000070B50446002C04D094F83900002510B180
:1056100006E0012070BD84F83850204600F022F8E2
:10562000242084F839002068C16821F40051C16049
:10563000204601F0AFFB2068016921F4904101612F
:105640002068416921F02A0141612068C16841F464
:105650000051C160E563202084F8390084F83A00E5
:10566000002070BD2DE9F04F87B00446142102A838
:10567000FBF755F8AA48DFF8A4C2143801212368C3
:10568000A74A4F04002506154FF002084FF0030902
:105690004FF0070B4FF0006A63457DD1136843F06C
:1056A00010031360126802F010020192026842F0C7
:1056B00002020260026802F002020192026842F0F5
:1056C00001020260006800F0010001908020029059
:1056D000CDF80C8001200490CDF81490CDF818B0CE
:1056E00002A99048FDF79AFF70100290CDF80C8047
:1056F00001200490CDF81490CDF818B002A98A4882
:10570000FDF78CFFDFF828828848C8F80000C8F849
:1057100004A04020C8F80800C8F80C50C8F8106071
:10572000C8F81450C8F81850C8F81C508002C8F8BF
:105730002000C8F824504046FDF7E6FE08B1FCF70B
:1057400034FFC4F83080C8F83840DFF8E481774887
:1057500008F160083038C8F80000C8F804A0C8F89C
:105760000850C8F80C50C8F81060C8F81450C8F8B1
:105770001850C8F81C50C8F82070C8F8245040468B
:10578000FDF7C2FE08B1FCF710FFC4F83480C8F87A
:1057900038400022052100E008E02520FEF720FA2D
:1057A0002520FEF70FFA07B0BDE8F08FDFF884C1BF
:1057B00063454BD15A4A121F136843F48023136088
:1057C000126802F480220192026842F00402026030
:1057D000006800F0040001904FF440600290CDF8A2
:1057E0000C800491CDF81490CDF818B002A952485D
:1057F000FDF714FFDFF83881504808F1C008C8F8F9
:105800000000C8F804A0C8F80850C8F80C50C8F840
:105810001060C8F81450C8F81850C8F81C50C8F8E0
:105820002070C8F824504046FDF76EFE08B1FCF722
:10583000BCFEC4F83480C8F8384000220421272078
:10584000FEF7CEF92720FEF7BDF9ACE7DFF8F0C090
:105850006345A8D1136843F020031360126802F077
:1058600020020192026842F040020260006800F0EB
:10587000400001904FF484400290CDF80C800491D8
:10588000CDF814900820069002A92E48FDF7C6FE18
:105890002648DFF8B4809038C8F800004FF020693F
:1058A000C8F80490C8F80850C8F80C50C8F8106040
:1058B000C8F81450C8F81850C8F81C50C8F8207020
:1058C000C8F824504046FDF71FFE08B1FCF76DFEF6
:1058D000C4F83480C8F8384014481B4F1838603773
:1058E0003860C7F804904020B860FD603E617D617B
:1058F000BD61FD61800238627D623846FDF704FEBD
:1059000008B1FCF752FE2763BC6300220521472043
:10591000FEF766F94720FEF755F944E7001001400D
:10592000443802400004024000000240B8640240D3
:105930005C0F002000480040000802402860024040
:1059400000140140001802407C100020704770478E
:10595000FEE7F0B500230A2530263727002412E0A1
:10596000B5EB107F04D906EB107C01F813C003E0FF
:1059700007EB107C01F813C0000101EB430C8CF81D
:1059800001405B1CDBB29342EAD3F0BD7FB500243B
:1059900000940194029403941348124901604FF457
:1059A0000031416084600461047680F82040C46264
:1059B0000E498162C4600125C56180F830404561AF
:1059C000FCF7BFFE08B1FCF7F0FD10200090019538
:1059D000029469460448FCF705FE002801D0FCF754
:1059E000E4FD7FBD00200140180400200100000FED
:1059F0007FB5002400940194029403941348124943
:105A000001604FF40031416084600461047680F8E5
:105A10002040C4620E498162C4600125C56180F8DE
:105A200030404561FCF78DFE08B1FCF7BEFD082053
:105A300000900195029469460448FCF7D3FD0028C4
:105A400001D0FCF7B2FD7FBD0022014060040020C0
:105A50000100000F10B50F480D490160032141609E
:105A600000218160C1604FF4102202614FF40012E6
:105A70004261017641768176C17601774177FDF703
:105A800032FA002803D0BDE81040FCF78EBD10BDEF
:105A900000640040A804002010B50F480D490160C3
:105AA0000321416000218160C1604FF41022026136
:105AB0004FF400124261017641768176C17601771A
:105AC0004177FDF710FA002803D0BDE81040FCF73D
:105AD0006CBD10BD00680040D004002010B507491F
