:020000040800F2
:1000000080070020ED01000803140008DD1100083E
:1000100001140008E3030008E514000800000000D4
:1000200000000000000000000000000007140008AD
:10003000E50300080000000005140008091400088A
:10004000070200080702000807020008070200086C
:10005000070200080702000807020008070200085C
:10006000070200080702000807020008070200084C
:10007000070200080702000807020008070200083C
:10008000070200080702000807020008070200082C
:10009000070200080702000807020008070200081C
:1000A000070200080702000807020008070200080C
:1000B00007020008070200080702000807020008FC
:1000C00007020008070200080702000807020008EC
:1000D00007020008070200080702000807020008DC
:1000E00007020008070200080702000800000000DD
:1000F0000000000000000000000000000000000000
:1001000000000000000000000702000807020008CD
:10011000070200080702000807020008070200089B
:10012000070200080702000807020008070200088B
:10013000070200080000000000000000070200089D
:10014000070200080702000807020008070200086B
:1001500000F002F800F03AF80AA090E8000C82449F
:100160008344AAF10107DA4501D100F02FF8AFF27C
:10017000090EBAE80F0013F0010F18BFFB1A43F085
:1001800001031847D8130000F8130000103A24BFE9
:1001900078C878C1FAD8520724BF30C830C144BFEC
:1001A00004680C607047000000230024002500262E
:1001B000103A28BF78C1FBD8520728BF30C148BFCA
:1001C0000B6070471FB51FBD10B510BD00F0CFF814
:1001D0001146FFF7F7FF01F096F900F0EDF803B4D0
:1001E000FFF7F2FF03BC00F0F5F800000948804774
:1001F00009480047FEE7FEE7FEE7FEE7FEE7FEE709
:10020000FEE7FEE7FEE7FEE704480549054A064B20
:1002100070470000651400085101000880010020AB
:1002200080070020800300208003002053EA020C96
:1002300000F069802DE9F04B4FF00006002B1FBF46
:10024000B3FA83F503FA05F424FA05F65E4012BF0B
:100250001643B2FA82F502FA05F4C5F120051EBF75
:1002600022FA05FC44EA0C04203556EA044C4FEA15
:10027000144418BF641C4FF000084FF0000990426E
:1002800071EB030C39D3002919BFB1FA81F701FAD8
:1002900007F6B0FA80F700FA07F6C7F120071EBF8D
:1002A00020FA07FC46EA0C062037B6FBF4FCA7EB65
:1002B0000507103F07F01F0BCBF120060CFA0BFBD4
:1002C0002CFA06F644BFB3460026202FA4BF5E4694
:1002D0004FF0000B5BEA060C08BF4FF0010B19EB67
:1002E0000B09ABFB027C48EB0608C01B06FB02CCEB
:1002F0000BFB03CC71EB0C01C1E70B4602464146F8
:100300004846BDE8F08B13B54FF000004FF00001F8
:10031000AFF30080BDE81C4070474FF0000200B50D
:10032000134694469646203922BFA0E80C50A0E818
:100330000C50B1F12001BFF4F7AF090728BFA0E8C6
:100340000C5048BF0CC05DF804EB890028BF40F892
:10035000042B08BF704748BF20F8022B11F0804FD4
:1003600018BF00F8012B70477047704770477546FB
:1003700000F02CF8AE4605006946534620F0070011
:10038000854618B020B5FFF73FFFBDE820404FF08D
:1003900000064FF000074FF000084FF0000B21F06F
:1003A0000701AC46ACE8C009ACE8C009ACE8C0093C
:1003B000ACE8C0098D46704710B50446AFF3008025
:1003C0002046BDE81040FFF70ABF00000048704714
:1003D0001C01002001491820ABBEFEE726000200E8
:1003E0007047FEE7704772B6FEE770B5040003D0B1
:1003F00094F8200010B104E0012070BD204600F008
:1004000081F82068016841F00101016000F0A6F95F
:100410000546052604E000F0A1F9401B0A2811D882
:1004200020684068C007F6D02068016821F002010A
:10043000016000F093F905460BE000F08FF9401BD6
:100440000A2806D9606A40F40030606284F82060AF
:10045000D2E7206840688007EFD4207E012820681A
:1004600001683DD021F080010160607E0128206894
:10047000016838D021F040010160A07E0128206889
:10048000016833D021F020010160E07E012820685E
:1004900001682ED041F010010160207F0128206802
:1004A000016829D021F008010160607F01282068DF
:1004B000016824D021F004010160D4E9020108435D
:1004C000D4E90412114308436168491E08432168B6
:1004D000C86100206062012084F82000002070BD07
:1004E00041F08001C0E741F04001C5E741F0200143
:1004F000CAE721F01001CFE741F00801D4E741F04D
:100500000401D9E710B586B0002100910191029154
:10051000039100681349884222D11348C16941F010
:100520000071C161C16901F000710491816941F0FC
:100530000401816180690D4C00F0040004904FF4C7
:10054000006000906946204600F012F8A014009068
:1005500002200190032003906946204600F008F82D
:1005600006B010BD006400400010024000080140C9
:100570002DE9F84FDFF8B8910024A9F1040B2346C8
:100580000F2709F1040AABF1040EC9E00125A540CB
:100590002A40AA427DD1674ED1F804C0ACEB0608D0
:1005A000B44532D014DCBCF1030F3AD009DCBCF105
:1005B000000F2AD0BCF1010F1CD0BCF1020F31D1C9
:1005C0001DE0BCF1110F17D0BCF1120F2AD119E0B8
:1005D000B8F5881F19D006DCB8F5803F15D0B8F5FE
:1005E000801F1FD111E0B8F5001F0ED0B8F5041F11
:1005F00018D10AE0CB6815E0CB681B1D12E0CB6870
:1006000008330FE0CB680C330CE08B682BB1012B67
:100610004FF0080303D0456104E0042302E00561C4
:1006200000E00023FF2A01D8064601E000F104069D
:100630004FEA840501D9A5F12005D6F8008007FA14
:1006400005FC28EA0C0803FA05F548EA0508C6F88F
:1006500000804D68ED0062D5374DAE6946F0010669
:10066000AE61AD6924F0030605F001050095334D38
:1006700006EB050CDCF80850A607360F07FA06F85B
:1006800025EA0805DFF8B880404503D14FF000089F
:1006900017E044E0DFF8AC80404502D14FF001089C
:1006A0000FE0DFF8A480404502D14FF0020808E0D7
:1006B000DFF89880404502D14FF0030801E04FF089
:1006C000040808FA06F848EA0508CCF808804D68DE
:1006D000D9F80060ED024D4601D5164300E096437F
:1006E0002E604D68DAF80060AD02554601D516431C
:1006F00000E096432E604D68DBF80060AD035D4678
:1007000001D5164300E096432E604D68DEF8006088
:10071000ED03754601D5164300E096432E60641C38
:100720000D682A46E5407FF431AFBDE8F88F000040
:1007300008040140000011100010024000000140B8
:1007400000080140000C014000100140001401406D
:100750000AB1016170470904FBE7000001488068A5
:10076000704700000000002070B5040025D094F808
:100770003D00002520B984F83C50204600F0B8F830
:10078000242084F83D002068016821F00101016007
:100790002068016841F4004101602068016821F48B
:1007A0000041016000F0F2F94D4A6168914201D8C0
:1007B0004C4900E04C49884201D2012070BD4B49B0
:1007C0002368B0FBF1F15E6826F03F060E435E60E1
:1007D0006368934206D94FF4967359434FF47A7382
:1007E000B1FBF3F12368491C1E6A26F03F06314332
:1007F00019626168914210D84900401EB0FBF1F2C5
:10080000521CC2F30B02042A01D2042022E0B0FBE6
:10081000F1F0401CC0F30B001CE0A268F2B301EB46
:10082000C10303EB0116431EB3FBF6F35B1C43F459
:1008300080431B0549D092B301EBC10202EB0111C9
:10084000401EB0FBF1F0401CC0F30B0040F48040B0
:1008500040F400402168CA694CF6FF739A43104384
:10086000C861D4E9071001432068026822F0C00281
:1008700011430160D4E9030101432068826848F212
:10088000FF339A4311438160D4E90501084321688D
:10089000CA6822F0FF021043C86001E00EE016E0D3
:1008A0002068016841F0010101602564202084F87E
:1008B0003D00256384F83E50002070BD01EB4106E9
:1008C000431EB3FBF6F35B1CB3E70120C2E701EB69
:1008D0004101401EB0FBF1F0401CC0F30B00B7E734
:1008E000A086010080841E0000093D0040420F00E8
:1008F00010B586B00021009101910291039100682A
:100900000F4988421AD10F4CA06940F00800A0613D
:10091000A069694600F008000490C02000901220F1
:100920000190032003900848FFF722FEE06940F49D
:100930000010E061E06900F40010049006B010BD02
:100940000054004000100240000C01400248816841
:10095000027811448160704700000020074810B5FC
:10096000016841F010010160032000F067F80F20DA
:1009700000F006F800F024F8002010BD002002402E
:1009800070B50D4D04464FF47A712878B1FBF0F044
:100990000A490968B1FBF0F000F040FB48B9102C9F
:1009A00007D200222146501E00F028F800206C607B
:1009B00070BD012070BD0000000000200C00002070
:1009C0000C4808B5816941F001018161816901F03C
:1009D00001010091C16941F08051C161C06900F01D
:1009E000805000900448416821F0E06141F00071BE
:1009F000416008BD0010024000000140F0B40E4B01
:100A00001B680C46C3F30223C3F10705042D00D96C
:100A10000425191D072901D2002300E0DB1E012651
:100A200006FA05F1491E214099409E40761E164067
:100A30003143F0BC00F057BD0CED00E0064900F07A
:100A4000070208684FF6FF03184040EA0220034AF5
:100A500010430860704700000CED00E00000FA054C
:100A60002DE9F0470F46050061D0434E306800F095
:100A70000700B84209D2306820F0070038433060E0
:100A8000306800F00700B84251D128683B4C81071C
:100A900012D5400703D5606840F4E06060602878B4
:100AA000000703D5606840F4605060606068A96822
:100AB00020F0F000084360602878C00728D06868FC
:100AC000012810D02168022810D0890700292EDAC9
:100AD000616821F0030101436160FFF73FFE80463A
:100AE00041F288390DE021688903EFE78901EDE7DC
:100AF000FFF734FEA0EB0801494502D90320BDE809
:100B0000F0876068696800F00C00B0EB810FEFD1EE
:100B1000306800F00700B8420BD9306820F00700B9
:100B200038433060306800F00700B84201D001203F
:100B3000E5E72878400705D56068E96820F4E060BB
:100B4000084360602878000706D56068296920F4AA
:100B5000605040EAC100606000F028F86168084A0F
:100B6000C1F30311515CC84006490860064800689B
:100B7000FFF706FF0020C2E70020024000100240FD
:100B8000421500080C00002004000020044805491C
:100B900000684968044AC1F30221515CC8407047AB
:100BA0000C00002000100240521500082DE9F04111
:100BB0001D494A681D4802F00C03042B2ED0082B57
:100BC0002CD11B48C2F38343C45CD00328D5C86A28
:100BD000174A00F00F000E32105CCA6AD20316D515
:100BE000CA6AC96AC2F30312C1F30321521C891CE9
:100BF000A2FB0023A1FB04150C4F0026A1FB070C50
:100C000005FB07C501FB0651FFF710FB03E0074991
:100C10006143B1FBF0F00D2C00D14008BDE8F0813C
:100C200004486043FAE700000010024000127A0016
:100C30002415000800093D002DE9F84F040070D08C
:100C40002078F14DC00749D06868C0F381000128C1
:100C500007D06868C0F38100022809D16868C00322
:100C600006D52868800339D5A0680028E7D035E08C
:100C7000A068B0F5803F0BD010B1B0F5A02F11D017
:100C8000286820F480302860286820F4802002E062
:100C9000286840F480302860A06890B1FFF75EFDBE
:100CA00006460AE0286840F480202860F0E700BF8C
:100CB000FFF754FD801B642876D828688003F7D599
:100CC0000CE0FFF74BFD064605E000BFFFF746FDD1
:100CD000801B6428F0D828688003F7D42078CB4E96
:100CE00080074FF001094FF000073AD5686810F00F
:100CF0000C0F07D06868C0F38100022809D168682A
:100D0000C00306D42868800715D56069012808D17A
:100D100011E06069B8B1C6F80090FFF71FFD80468A
:100D200006E042E1FFF71AFDA0EB08000228C3D855
:100D300028688007F6D52868A16920F0F80040EA05
:100D4000C10028600DE03760FFF708FD804605E030
:100D5000FFF704FDA0EB08000228ADD82868800743
:100D6000F6D4207800072ED5A948E169E9B1C0F88A
:100D70000090FFF7F3FC804606E000BFFFF7EEFCB3
:100D8000A0EB0800022897D8686A8007F6D5A1482A
:100D90004FF4FA510068B0FBF1F0009000BF0098EA
:100DA000411E0091FAD20EE0B0E00760FFF7D6FCDA
:100DB000804605E0FFF7D2FCA0EB0800022889D8A6
:100DC000686A8007F6D42078400763D5E8694FF059
:100DD0000008C00009D4E86940F08050E861E86983
:100DE0004FF0010800F0805000908B480168C90561
:100DF00012D40168834641F480710160FFF7AEFCB4
:100E0000824605E0FFF7AAFCA0EB0A0064287DD823
:100E1000DBF80000C005F5D5206901280AD008B12B
:100E2000052813D0286A20F001002862286A20F0E3
:100E3000040002E0286A40F001002862206941F2C3
:100E4000883B98B1FFF78AFC82460BE0286A40F0A5
:100E500004002862EEE700BFFFF780FCA0EB0A0168
:100E6000594553D8286A8007F6D50CE0FFF776FC81
:100E7000824605E0FFF772FCA0EB0A01594545D810
:100E8000286A8007F6D4B8F1000F03D0E86920F093
:100E90008050E861E06AD0B36968C90307D5696822
:100EA000C1F38101022902D1E96AC9037DD4022874
:100EB00008D0E86A20F48030E862B766FFF74EFC9D
:100EC00080463BE02868C00005D5E86A616B00F009
:100ED000F000884269D1B766FFF740FC804605E024
:100EE000FFF73CFCA0EB0800642874D828680001D8
:100EF000F6D4E86A616B20F0F0000843E862E86A23
:100F0000216B20F470600843E86201E063E018E0C0
:100F1000C6F86890FFF722FC804605E0FFF71EFC4C
:100F2000A0EB0800642856D828680001F6D508E030
:100F3000FFF714FCA0EB080064284CD828680001D7
:100F4000F6D4206A90B36968C1F38101022949D0BF
:100F50000228376603D0FFF701FC04463EE0FFF7A6
:100F6000FDFB074605E000BFFFF7F8FBC01B0228AA
:100F700031D828688001F7D4606AB0F5803F09D184
:100F8000E86A61680843E862E86AE16820F00F00F7
:100F90000843E862D4E909010843696821F474113F
:100FA00008436860C6F8609001E028E029E0FFF798
:100FB000D5FB044605E000BFFFF7D0FB001B02286D
:100FC00009D828688001F7D51BE000BFFFF7C6FBF2
:100FD000001B022802D90320BDE8F88F2868800191
:100FE000F4D40EE00128F7D06868626A00F480311A
:100FF000914204D1A16A00F47010884201D001200E
:10100000EAE70020E8E7000000100240000042424A
:10101000800442420C0000200070004010B5401EC9
:10102000B0F1807F01D3012010BD4FF0E02460615A
:101030000F21601700F057FA0020A06107202061FF
:10104000002010BD70B590F83C20012A29D0012461
:1010500080F83C40022280F83D2003685A689D6871
:1010600022F070060A6832435A600F4B02689A42B7
:101070000BD0B2F1804F08D00C4B9A4205D00C4BEC
:101080009A4202D00B4B9A4204D1496825F0800362
:101090001943916080F83D40002180F83C100846DB
:1010A00070BD022070BD0000002C01400004004013
:1010B00000080040000C00402DE9F0410D460400FE
:1010C00003D094F83D0018B108E00120BDE8F0819C
:1010D000002084F83C00204600F040F8022084F80C
:1010E0003D002068816844F2070291438160211D20
:1010F000206800F0B9F9226890689169166A2B6837
:10110000AF69034340F20330814341EA0721A868F5
:10111000EF6908434FF6FC418843E96840EA07203D
:10112000014328692F6A000140EA073008436968D3
:101130006D6926F0220646EA051529439360226868
:10114000906154F8460B0162012004F81F09E07514
:101150002076E0762077A0750020B7E700B585B04F
:1011600000210091019102910391026818491948E8
:10117000B2F1804F19D0184B9A4214D1CA6942F08B
:101180000202CA61CA6902F0020204928A6942F04C
:1011900004028A61896901F004010491C02100916F
:1011A0006946FFF7E5F905B000BDCA6942F00102E2
:1011B000CA61CA6902F0010204928A6942F004021B
:1011C0008A61896901F0040104910321E7E70000C5
:1011D000001002400008014000040040FEE700004B
:1011E0000E4810B50C490160022141600021816068
:1011F0004FF48012C160C0E9041201764176817615
:10120000C17601774177FFF7F0F8002803D0BDE8F9
:101210001040FFF7E8B810BD006400401000002047
:101220002DE9F04385B000242D48009401940294E8
:101230000394816941F010018161816901F010011D
:101240000491816941F020018161816901F02001EF
:101250000491816941F004018161816901F0040117
:101260000491816941F0080181618069DFF874802F
:1012700000F008004FF4707604900022314640469A
:10128000FFF766FADFF860904FF480770022394666
:101290004846FFF75DFA4FF4C04001258DE8310064
:1012A00069464046FFF764F9CDE900650226CDE9BD
:1012B000024669464046FFF75BF900970396CDE981
:1012C000015469464846FFF753F94FF440708DE8E2
:1012D000310069460548FFF74BF905B0BDE8F083DA
:1012E000001002400010014000080140000C0140C5
:1012F0000D4810B50B4901600C49416000214FF4C5
:1013000080428160C0E9031241618161C161016273
:10131000FFF72AFA002803D0BDE81040FFF763B8B2
:1013200010BD00000054004038000020A0860100DD
:1013300010B58CB024216846FEF7EFFF0024154855
:1013400009944FF080410A94C0E900144FF6FF71F0
:10135000C0E90241046184610120CDE90004CDE9C6
:1013600002040494CDE905400794694609480894AD
:10137000FFF7A2FE08B1FFF736F8099409A905485E
:101380000A94FFF75FFE002801D0FFF72CF80CB09D
:1013900010BD00008C00002010B58CB024216846E0
:1013A000FEF7BBFF00241548099413490A94C0E9CD
:1013B00000144FF6FF71C0E902410461846101200D
:1013C000CDE90004CDE902040494CDE90540079479
:1013D00069460A480894FFF76FFE08B1FFF703F863
:1013E000099409A905480A94FFF72CFE002801D0AA
:1013F000FEF7F9FF0CB010BD00040040D40000203F
:10140000FEE7FEE770477047FFF7A0BA30B593B02C
:1014100038216846FEF781FF14210EA8FEF77DFFF4
:101420000220002400900125102008940B94CDE99F
:1014300005506846FFF700FC08B172B6FEE70F20C2
:10144000CDE90E041094119400210EA81294FFF718
:1014500007FB08B172B6FEE70148056713B030BD5F
:101460000000424270470000F0B50268194B1A4C68
:101470001A4D1B4E4FF08047984207D0B84205D016
:10148000A04203D0A84201D0B04204D122F0700C97
:101490004A6842EA0C02984207D0B84205D0A042FE
:1014A00003D0A84201D0B04203D122F44074CA68EC
:1014B00022434C6922F08002224302608A68C262A1
:1014C0000A688262984201D1096901630121416180
:1014D000F0BD0000002C0140000400400008004066
:1014E000000C0040FEE70907090E002804DB00F1AC
:1014F000E02080F80014704700F00F0000F1E020B9
:1015000080F8141D7047FFF729FAFFF77FFFFFF7F8
:1015100087FEFFF765FEFFF7EBFEFFF709FFFFF71A
:101520003BFFFEE700000405060708090000000075
:10153000000D0102030405060708090A0B0C0D0E35
:101540000F10000000000000000001020304060765
:101550000809000000000102030400007C150008D7
:1015600000000020100000008C0100088C1500080D
:101570001000002070070000A80100080100000012
:0C15800010000000000000000024F40037
:04000005080001519D
:00000001FF
