:020000040800F2
:10400000E05D01208542000877660008E56200084F
:1040100075660008B5430008F96B00080000000051
:10402000000000000000000000000000C541000882
:104030009B44000800000000214200087D66000843
:104040009F420008796600089F4200089F420008CE
:104050009F4200089F4200089F4200089F420008BC
:104060009F4200089F4200089F4200089F420008AC
:104070009F4200089F4200089F4200089F4200089C
:104080009F4200089F4200089F4200089F4200088C
:10409000B94300089F4200089F4200089F42000861
:1040A0009F4200084D6700089F4200089F42000899
:1040B000596700089F4200089F4200089F4200087D
:1040C0009F4200089F4200089F4200089F4200084C
:1040D0009F4200083D6B00089F4200089F42000875
:1040E0009D4400089F4200089F4200089F4200082C
:1040F0009F4200089F4200089F4200089F4200081C
:104100009F4200089F4200089F4200089F4200080B
:104110009F4200089F4200089F4200089F420008FB
:104120009F420008D1430008DD4300089F42000879
:104130009F4200089F4200089F4200089F420008DB
:10414000C54300089F4200089F4200089F420008A4
:104150009F4200089F4200089F420008516B0008E0
:104160009F4200089F4200089F4200089F420008AB
:104170009F4200089F4200089F4200080000000084
:104180009F4200089F4200089F4200089F4200088B
:104190009F4200089F4200089F4200089F4200087B
:1041A00000000000000000009F420008DFF810D06F
:1041B00000F0EEF800480047A56D0008AFF300805E
:1041C000E05D01202C4B19680868B0E8F04F80F3DF
:1041D0000988BFF36F8F4FF0000080F3118870479C
:1041E0000000000008480068006880F308884FF06D
:1041F000000080F3148862B661B6BFF34F8FBFF33F
:104200006F8F00DF00BF00BF08ED00E0DFF80C009B
:10421000016841F470010160704700BF88ED00E063
:10422000EFF30980BFF36F8F134B1A681EF0100F66
:1042300008BF20ED108A20E9F04F106009B44FF05C
:10424000500080F31188BFF34F8FBFF36F8F03F0DF
:1042500053FF4FF0000080F3118809BC196808680B
:10426000B0E8F04F1EF0100F08BFB0EC108A80F3DA
:104270000988BFF36F8F704750000020EFF305806F
:10428000704700000648804706480047FEE7FEE703
:10429000FEE7FEE7FEE7FEE7FEE7FEE7FEE7FEE7F6
:1042A0002D670008AD4100082DE9F05F05460020AC
:1042B00092469B4688460646814640241BE0284697
:1042C00041464746224600F053F853465A46C01A24
:1042D000914110D311461846224600F03AF82D1AA3
:1042E00067EB01084F4622460120002100F031F81B
:1042F00017EB00094E41201EA4F10104DFDC484603
:1043000031462A464346BDE8F09F40EA01039B0739
:1043100003D009E008C9121F08C0042AFAD203E03A
:1043200011F8013B00F8013B521EF9D27047D2B29E
:1043300001E000F8012B491EFBD270470022F6E78E
:1043400010B513460A4604461946FFF7F0FF20460B
:1043500010BD202A04DB203A00FA02F10020704749
:104360009140C2F1200320FA03F3194390407047B3
:10437000202A04DB203A21FA02F00021704721FABA
:1043800002F3D040C2F12002914008431946704721
:10439000064C074D06E0E06840F0010394E8070092
:1043A00098471034AC42F6D3FFF704FFA48F0008FF
:1043B000C48F0008FEE70000014800F083B8000049
:1043C000D0000020014800F07DB80000F800002077
:1043D000014800F033BB0000EC020020014800F06F
:1043E0002DBB00008C02002001680A4BCAB2103AB3
:1043F000A3FB02321209084B9B5CC365032A04D954
:104400006FF30901091D816502E06FF30901816500
:10441000806D7047ABAAAAAA748F000801460020DD
:104420008A6A8B69002B0FD0B3F5005F1DD08AB369
:10443000012A30D0022A2ED0032A04D1C96A11F0F1
:10444000807F00D0012070471AB1012A07D0022ACC
:10445000F9D1C96A11F0807FF5D001207047C96A8F
:10446000B1F1C07FFAD1012070475AB1012A0BD0B7
:10447000022A07D0032AF7D1C96AB1F1C07FF3D16C
:104480000120704701207047C96A11F0807FFAD07F
:1044900001207047FFE701207047704710B54FF4C7
:1044A000005000F039FC4FF4804000F035FCBDE8CE
:1044B00010404FF4004000F02FBC72B600F042FEF6
:1044C000FEE770472DE9F05F05460024286846693D
:1044D000D0F804908768D0F80CA0D0F810B0D0F8CD
:1044E000188016F0010F54D017F0010F17D00121DA
:1044F000816017F0020F03D0284600F035FA0EE075
:1045000017F0040F02D04FF4006408E017F0080F12
:1045100002D04FF4805402E0284600F024FA17F449
:10452000807F19D029684FF48070886017F4007F6D
:1045300003D0284600F01AFA0EE017F4806F02D07C
:1045400044F4005408E017F4006F02D044F48044AF
:1045500002E0284600F009FA17F4803F19D02968D4
:104560004FF48030886017F4003F03D0284600F0F5
:10457000FFF90EE017F4802F02D044F4004408E065
:1045800017F4002F02D044F4803402E0284600F0F3
:10459000EEF916F0080F07D01AF0100F04D044F40B
:1045A000007429681020C86016F0040F4FF0080747
:1045B00007D01AF0080F04D02868C760284600F01A
:1045C000CDF916F0020F07D02868C06810F0030F6D
:1045D00002D0284600F0C3F916F0400F07D01BF0B8
:1045E000100F04D044F4806429681020086116F08C
:1045F000200F07D01BF0080F04D028680761284659
:1046000000F0AEF916F0100F07D02868006910F01E
:10461000030F02D0284600F0A4F916F4003F08D09A
:1046200019F0100F05D0296810204860284600F0C6
:1046300099F916F4803F07D019F0080F04D02868C4
:104640004760284600F095F916F4004F4AD019F05B
:10465000040F44D016F4807F04D018F0010F01D06D
:1046600044F0010416F4007F04D018F0020F01D0CA
:1046700044F0020416F4806F04D018F0040F01D047
:1046800044F0040416F4006F29D018F0700F26D0FF
:1046900008F07000402815D006DC102809D020282A
:1046A0000AD0302816D10AE050280ED0602811D147
:1046B0000EE044F008040DE044F010040AE044F079
:1046C000200407E044F0400404E044F0800401E0EA
:1046D00044F480742868816921F07001816129683F
:1046E00004204860002C05D0686A20436862284690
:1046F000FFF7E7FEBDE8F09F70B50446002C03D03D
:1047000094F8200010B104E0012070BD204600F0B4
:10471000A7F82068016841F00101016000F036FC53
:104720000546206840684FF0050610F0010F11D1D2
:1047300000F02CFC401B0A2807D9606A40F40030C6
:10474000606284F82060012070BD2068406810F02D
:10475000010FEDD02068016821F00201016000F036
:1047600015FC05462068406810F0020F11D000F0DB
:104770000DFC401B0A2807D9606A40F400306062D3
:1047800084F82060012070BD2068406810F0020F9E
:10479000EDD1207E01283FD02068016821F0800102
:1047A0000160607E01283DD02068016821F0400151
:1047B0000160A07E01283BD02068016821F0200123
:1047C0000160E07E012839D02068016841F01001C5
:1047D0000160207F012837D02068016821F008019E
:1047E0000160607F012835D02068016821F0040154
:1047F0000160E168A06862690843216911430843C8
:104800006168491E08432168C86100206062012078
:1048100084F82000002070BD2068016841F080010C
:104820000160BEE72068016841F040010160C0E717
:104830002068016841F020010160C2E7206801683A
:1048400021F010010160C4E72068016841F008010F
:104850000160C6E72068016841F004010160C8E713
:10486000F0B587B0044614216846FFF767FD364B64
:104870003648DFF8D0E01968D4F800C0334A032581
:104880000226092710300024491CF44522D1196062
:10489000012907D1016841F000710160006800F052
:1048A00000700590106840F0080010601068CDE9B5
:1048B000005600F00800CDE9047069462448CDE9AF
:1048C000024500F035FA00220521142000F0F4FB27
:1048D000142033E0DFF87CE0F44531D1D0F800C09B
:1048E0004CF0806CC0F800C0D0F800C001290CF07A
:1048F000806CCDF814C0196007D1016841F00071D7
:104900000160006800F000700590106840F002003F
:104910001060106802AB00F0020005904FF44050A8
:10492000CDE9000683E8B00069460B4800F000FAC4
:1049300000220521402000F0BFFB402000F0AEFB2C
:1049400007B0F0BD00640040040000203038024091
:10495000000C0240006800400004024070477047AD
:10496000704770477047704770477047704770478F
:10497000704770472DE9F0410446A66D00F006FB34
:10498000054694F835000027022806D0802060658F
:1049900084F834700120BDE8F0812068016821F0BE
:1049A000160101602068416921F080014161206C9D
:1049B00008B9A06C20B12068016821F008010160ED
:1049C0002068016821F0010101602068006810F092
:1049D000010F12D000F0DAFA401B052808D9202078
:1049E0006065032084F8350084F83470BDE8F081F8
:1049F0002068006810F0010FECD194F85C003F21B2
:104A000001FA00F0B060012084F8350084F83470B9
:104A10000020BDE8F08190F83510022903D08021F4
:104A2000416501207047052180F835100068016854
:104A300021F0010101600020704700002DE9F843DA
:104A400004464FF00008CDF8008076484FF4165128
:104A50000068B0FBF1F7A56D2E6894F85C000821A2
:104A600001FA00F0304211D02068026812F0040F01
:104A70000CD0026822F00402026094F85C0001FA93
:104A800000F0A860606D40F00100606594F85C0083
:104A90004FF0010909FA00F0304209D02168496954
:104AA00011F0800F04D0A860606D40F002006065D6
:104AB00094F85C1004208840304209D021680968CD
:104AC00011F0020F04D0A860606D40F00400606532
:104AD00094F85C1010208840304224D02168096886
:104AE00011F0080F1FD0A8602068016811F4802F12
:104AF0000DD0006810F4002F04D0A16C99B12046AD
:104B0000884710E0216C71B1204688470BE00168AE
:104B100011F4807F03D1016821F008010160216C4C
:104B200009B12046884794F85C1020208840304224
:104B300051D02168096811F0100F4CD0A86094F88A
:104B4000350005280DD02068016811F4802F32D07F
:104B5000006810F4002F29D0E16B59B32046884734
:104B600039E02068016821F0160101602068416980
:104B700021F080014161206C08B9A06C20B120684F
:104B8000016821F00801016094F85C003F2101FAFE
:104B900000F0A86084F8359084F83480216D0029F5
:104BA0003ED001B02046BDE8F0430847616C09B132
:104BB000204688470FE0016811F4807F07D1016823
:104BC00021F01001016084F8359084F83480E16BA5
:104BD00009B120468847606D002821D0606D10F033
:104BE000010F15D0052084F835002068016821F0F8
:104BF000010101600098401C0090B84204D8206870
:104C0000006810F0010FF5D184F8359084F83480F5
:104C1000E16C002904D001B02046BDE8F04308470C
:104C2000BDE8F8834C0000202DE9F041044600F077
:104C3000ADF90546DCB1022084F83500002684F881
:104C400034602068016821F001010160206800687B
:104C500010F0010F13D000F099F9401B052809D975
:104C600020206065032084F83500BDE8F081012034
:104C7000BDE8F0812068006810F0010FEBD12168D9
:104C80000868234A1040A3686268D4F810C01A4329
:104C9000E36843EA0C031A4363691A43A3691A439E
:104CA000E3691A43236A1A431043626A042A03D150
:104CB000236BE26A1A43104308602068406920F0C1
:104CC0000701606A40EA0105012704280ED1A06AA5
:104CD0000543E06A50B12046FFF7A0FB30B1402009
:104CE000606584F835700120BDE8F0812068456179
:104CF0002046FFF779FB94F85C103F2202FA01F19D
:104D00008160666584F835700020BDE8F0810000A0
:104D10003F8010F07047000010B504490A68024255
:104D200002D00860FFF7F6FF10BD0000143C014000
:104D30002DE9F84F0022DFF82C92DFF82CE2DFF8A3
:104D40002CA24FF0010B03274FF00F080BFA02FCC7
:104D50000B6803EA0C0363457AD10C7904F0030471
:104D6000012C01D0022C14D18568540007FA04F6F6
:104D7000B543CE6806FA04F42C438460446824EA00
:104D80000C0C0C79C4F30014944044EA0C0CC0F8E9
:104D900004C0D1F804C037EA0C0C0CD0C4684FEA48
:104DA000420C07FA0CF5AC438D6805FA0CFC4CEA92
:104DB000040CC0F80CC091F804C00CF0030CBCF15A
:104DC000020F12D14FEAD20C00EB8C04256A4FEA95
:104DD000427C4FEADC6C08FA0CF6B5430E6906FA21
:104DE0000CFC4CEA050CC4F820C004684FEA420CE5
:104DF00007FA0CF5AC430D7905F0030505FA0CFC38
:104E00004CEA040CC0F800C0D1F804C01CF4403FC8
:104E10001ED0D9F800C04CF4804CC9F800C0D9F8B5
:104E200000C00CF4804CCDF800C022F0030C0CF153
:104E3000804505F59835D5F808C89407240F08FA79
:104E400004F62CEA0606704503D14FF0000C2FE063
:104E500067E0A0F1804CBCF5013C68D0A0F1804C2B
:104E6000BCF5023C66D0A0F1804CBCF5033C64D09C
:104E7000A0F1804CBCF5043C62D0A0F1804CBCF5A4
:104E8000053C60D0A0F1804CBCF5063C5ED0A0F1A2
:104E9000804CBCF5073C5CD0A0F1804CBCF5083CD4
:104EA0005AD0A0F1804CBCF5093C58D04FF00A0C08
:104EB0000CFA04FC4CEA060CC5F808C8DAF800C085
:104EC0002CEA030C4C6814F4803F01D04CEA030C2C
:104ED000CAF800C0264CD4F800C02CEA030C4D6878
:104EE00015F4003F01D04CEA030CC4F800C0214C7B
:104EF000D4F800C02CEA030C4D6815F4801F01D0D3
:104F00004CEA030CC4F800C01B4CD4F800C02CEAD7
:104F1000030C4D6815F4001F01D04CEA030CC4F8D3
:104F200000C0521C102AFFF411AFBDE8F88F4FF0FB
:104F3000010CBDE74FF0020CBAE74FF0030CB7E7E6
:104F40004FF0040CB4E74FF0050CB1E74FF0060C3E
:104F5000AEE74FF0070CABE74FF0080CA8E74FF0B7
:104F6000090CA5E74438024000000240003C014023
:104F7000043C0140083C01400C3C0140002A01D0A7
:104F800081617047090481617047000001488068B1
:104F900070470000400000200248816802781144F8
:104FA000816070474000002010B50B48016841F453
:104FB00000710160016841F480610160016841F4A1
:104FC00080710160032000F0ABF8002000F006F8CB
:104FD00000F03EF8002010BD003C024010B5014634
:104FE00088B000221C2000F067F81C2000F056F862
:104FF00014480024016841F001010160006805A91E
:1050000000F001000690684600F0BAF900F0DCF903
:105010000D494000B0FBF1F10C484FF08042491EB1
:10502000026040F2E732C0E90324C0E9011400F055
:105030005AFD10B1012008B010BD044800F0A0FDD9
:10504000F9E700004038024040420F004C030020C6
:10505000114808B5016841F480410160006800F41E
:10506000804000900C48001F016841F080510160B1
:105070000068002200F0805000900F21901E00F088
:105080001BF800220521012000F016F8BDE80840B9
:10509000012000F003B800004438024000280ADB79
:1050A00000F01F01012202FA01F14009800000F125
:1050B000E020C0F80011704710B4184B1B68C3F310
:1050C0000223C3F1070CBCF1040F01D94FF0040C0B
:1050D0001C1D072C01D2002300E0DB1E012404FA72
:1050E0000CFCACF1010C0CEA0101994004FA03F349
:1050F0005B1E1A401143002806DB00F1E020090185
:1051000080F8001410BC704700F00F0000F1E020A0
:10511000090180F8141D10BC704700000CED00E080
:1051200000F00700064A11684FF6FF03194041EAF4
:10513000002040F0FD7040F080601060704700007B
:105140000CED00E0BFF34F8F05480168054A01F4FC
:10515000E06111430160BFF34F8F00BFFDE7000026
:105160000CED00E00400FA05F8B51B48016841F0B9
:1051700080510160006800F080500090174F0126B8
:105180003E64FFF703FF0546154C606810F4803F4E
:105190000BD1FFF7FBFE401BB0F57A7F01D903204E
:1051A000F8BD606810F4803FF3D07E64FFF7EEFE38
:1051B0000546606810F4003F0BD1FFF7E7FE401B87
:1051C000B0F57A7F01D90320F8BD606810F4003F84
:1051D000F3D00020F8BD00004038024000000E422D
:1051E000007000407047000010B5054C206810F4B6
:1051F000803F04D0FFF7F6FF4FF48030206010BDF1
:10520000143C01402DE9F04704460D46002C13D014
:10521000DFF85491D9F80000EFB200F00F00A84277
:105220000DD289F80070D9F8000000F00F00A842F4
:1052300005D00120BDE8F0870120BDE8F087206897
:105240004A4E10F0020F14D010F0040F03D0306853
:1052500040F4E0503060207810F0080F03D0306840
:1052600040F4604030603068A16820F0F0000843EE
:105270003060207810F0010F3ED060683C49012872
:1052800008D002280DD003280BD0096811F0020FB6
:1052900028D00AE0096811F4003F06D10120BDE8DA
:1052A000F087096811F0007F19D0316821F00301FF
:1052B00008433060FFF76AFE80463068616800F09E
:1052C0000C00B0EB810F17D041F2883AFFF75EFE79
:1052D000A0EB0800504508D90320BDE8F087012065
:1052E000BDE8F0870120BDE8F0873068616800F014
:1052F0000C00B0EB810FE9D1D9F8000000F00F00ED
:10530000A8420AD989F80070D9F8000000F00F000F
:10531000A84202D00120BDE8F087207810F0040FE9
:1053200005D03068E16820F4E05008433060207810
:1053300010F0080F06D03068216920F4604040EA80
:10534000C100306000F060F831680A4AC1F303110F
:10535000515CC8400849086008480068FFF73EFEF5
:105360000020BDE8F0870000003C02400838024001
:10537000003802407C8F00084C00002044000020D0
:105380000F2202600B4A136803F0030343601368A3
:1053900003F0F0038360136803F4E053C360126802
:1053A00002F46042D20802610348006800F00F0076
:1053B0000860704708380240003C0240014800681D
:1053C000704700004C00002000B5FFF7F7FF0449CC
:1053D0000968044AC1F38221515CC84000BD000045
:1053E000083802408C8F000800B5FFF7E7FF04493A
:1053F0000968044AC1F34231515CC84000BD000055
:10540000083802408C8F000810B51748006810F06B
:105410000C01164816D0164B042912D0082911D1B8
:10542000144C216801F03F02216811F4800F0AD06A
:105430002068C0F38810A0FB03010023FEF734FFAF
:1054400009E0184610BD21680023C1F38811A1FBB3
:105450000001FEF729FF2168C1F30141491C490001
:10546000B0FBF1F010BD0000083802400024F40049
:10547000001BB700043802402DE9F84F0446002C09
:1054800012D02078FB4E10F0010FA6F1040563D076
:10549000301D016801F00C0104290CD0006800F0F7
:1054A0000C00082803D010E00120BDE8F88F306818
:1054B00010F4800F09D0286810F4003F4CD06068C9
:1054C000002849D10120BDE8F88F6068B0F5803F21
:1054D00014D0B0F5A02F16D0286820F480302860B2
:1054E000286820F480202860606810B3FFF74EFD24
:1054F0000746286810F4003F0ED02DE0286840F4DD
:1055000080302860F0E7286840F480202860286810
:1055100040F480302860E7E7FFF738FDC01B6428BF
:1055200002D90320BDE8F88F286810F4003FF3D0BB
:1055300012E0FFF72BFD0746286810F4003F0BD060
:10554000FFF724FDC01B642802D90320BDE8F88FB3
:10555000286810F4003FF3D12078C74F10F0020FF5
:105560004FF0000957D0C548016811F00C0F14D056
:10557000006800F00C00082803D1306810F4800F98
:105580000BD0E06880B301203860FFF7FFFC804655
:10559000286810F0020F12D01EE0286810F0020FE9
:1055A00005D0E068012802D00120BDE8F88F286806
:1055B000216920F0F80040EAC10028602BE0FFF7E5
:1055C000E5FCA0EB0800022802D90320BDE8F88F13
:1055D000286810F0020FF2D02868216920F0F80046
:1055E00040EAC100286016E0FFE7C7F80090FFF727
:1055F000CDFC8046286810F0020F0CD0FFF7C6FCE7
:10560000A0EB0800022802D90320BDE8F88F286823
:1056100010F0020FF2D1207810F0080F35D0984822
:10562000DFF860A26169C1B101210160FFF7AEFC42
:105630008046DAF8000010F0020F26D1FFF7A6FC32
:10564000A0EB0800022802D90320BDE8F88FDAF8A1
:10565000000010F0020FF1D017E0C0F80090FFF743
:1056600095FC8046DAF8000010F0020F0DD0FFF72D
:105670008DFCA0EB0800022802D90320BDE8F88FBA
:10568000DAF8000010F0020FF1D1207810F0040FCA
:1056900071D04FF000087C48006810F0805F0AD19C
:1056A0007948016841F080510160006800F0805045
:1056B00000904FF00108DFF8D4B1DBF8000010F4DF
:1056C000807F1BD1DBF8000040F48070CBF8000035
:1056D000FFF75CFC8246DBF8000010F4807F0DD100
:1056E000FFF754FCA0EB0A00022802D90320BDE812
:1056F000F88FDBF8000010F4807FF1D0A068DFF8AD
:1057000090B1012818D005281DD0DBF8000020F04A
:105710000100CBF80000DBF8000020F00400CBF81B
:105720000000A06840B3FFF731FC8246DBF80000C0
:1057300010F0020F14D03EE0DBF8000040F0010052
:10574000CBF80000EDE7DBF8000040F00400CBF8F8
:105750000000DBF8000040F00100CBF80000E0E7BB
:10576000FFF714FCA0EB0A0141F28830814204D912
:105770000320BDE8F88F26E005E0DBF8000010F01C
:10578000020FEDD017E0FFF701FC8246DBF80000C6
:1057900010F0020F0FD0FFF7F9FBA0EB0A0141F266
:1057A0008830814202D90320BDE8F88FDBF8000081
:1057B00010F0020FEFD1B8F1010F04D132480168A7
:1057C00021F080510160A069F0B32C4909684FF0C5
:1057D000FF3801F00C01082966D0022810D0C7F864
:1057E0006090FFF7D3FB0446286810F0007F2BD0B1
:1057F000FFF7CCFB001B022851D90320BDE8F88F2E
:10580000C7F86090FFF7C2FB8146286810F0007F60
:105810000CD0FFF7BBFBA0EB0900022802D9032044
:10582000BDE8F88F286810F0007FF2D1216AE069A6
:10583000A26A0843616A08EB5202890141EA024107
:10584000084394F82C1000E055E040EA0160306015
:1058500001203866FFF79AFB0446286810F0007FA5
:1058600049D1FFF793FB001B022813D90320BDE8A1
:10587000F88F000004380240000047420838024018
:10588000800E4742743802404038024000700040A9
:1058900070380240286810F0007FE2D02BE02868C2
:1058A00010F0007FA4D126E0012822D03068E26900
:1058B00000F4800191421AD1226A00F03F01914226
:1058C00015D147F6C071626A0140B1EB821F0ED15B
:1058D000A26A00F4403108EB5202B1EB024F06D14C
:1058E00094F82C1000F07060B0EB016F03D0012031
:1058F000BDE70120BBE70020B9E770B50446002CE6
:1059000009D0606A002540B125616561A56294F8FF
:10591000510040B10CE0012070BD6068B0F5827F9D
:10592000F4D0E561F2E784F85050204600F044F8E6
:10593000022084F851002068016821F040010160D4
:10594000A088218900F4827001F404410843A189F0
:1059500001F400610843217C01F002010843217D2C
:1059600001F001010843218B01F400710843217FFC
:1059700001F03801084394F8201001F08001084339
:10598000218D01F40051084321680860A1690420B9
:1059900000EA114094F8241001F01001014320683E
:1059A00041602068C16921F40061C1616565012021
:1059B00084F85100002070BDF0B587B00446142172
:1059C0006846FEF7BBFC1C492068884232D11B4860
:1059D0000024016841F480510160006800F48050A7
:1059E000059016481438016841F002010160016811
:1059F00001F002010591016841F0010101600068B8
:105A0000022500F0010005901820CDE9000502AA4A
:105A10000326052782E8D00069460948FFF788F980
:105A20008020CDE9000502AA694682E8D000054839
:105A3000FFF77EF907B0F0BD003001404438024066
:105A400000040240000002407047704730B490F8F4
:105A50003C20012A44D0012480F83C40022280F8F6
:105A60003D200268D2F804C093682CF0700C0D68D9
:105A700045EA0C0CC2F804C00268A2F1804CBCF5E7
:105A8000803C20D0B2F1804F1DD0A2F1804CBCF5FB
:105A9000806C18D0A2F1804CBCF5006C13D0A2F140
:105AA000804CBCF5406C0ED0A2F1804CBCF5823C21
:105AB00009D0A2F1804CBCF5A03C04D0A2F1804CEE
:105AC000BCF5C05C04D123F08003496819439160A0
:105AD00080F83D40002180F83C1030BC0020704729
:105AE00030BC0220704710B50446002C03D094F857
:105AF0003D0010B107E0012010BD002084F83C00FB
:105B0000204600F01FF8022084F83D00211D206887
:105B100000F028FE012084F8460084F83E0084F856
:105B20003F0084F8400084F8410084F8420084F883
:105B3000430084F8440084F8450084F83D000020C8
:105B400010BD000008B500680B49884212D10B480F
:105B5000016841F0010101600068002200F00100CD
:105B6000009005211920FFF7A7FABDE80840192089
:105B7000FFF794BA08BD000000000140443802401D
:105B800090F83D10012901D001207047022180F8D2
:105B90003D100168CA6842F00102CA600068A0F1C5
:105BA0008041B1F5803126D0B0F1804F23D0A0F1F3
:105BB0008041B1F580611ED0A0F18041B1F5006156
:105BC00019D0A0F18041B1F5406114D0A0F180411D
:105BD000B1F582310FD0A0F18041B1F5A0310AD0EA
:105BE000A0F18041B1F5C05105D0016841F001013B
:105BF000016000207047816801F007010629F8D094
:105C0000016841F001010160F3E770B50446002529
:105C100094F83C00012818D0012684F83C6002204A
:105C200084F83D002068826822F0770222F47F42E7
:105C300082600868502839D00EDC202854D006DC59
:105C4000002851D0102811D14EE0022070BD30281C
:105C50004AD040280AD13DE0602831D070280DD0CC
:105C6000B0F5805F03D0B0F5005F13D0012584F854
:105C70003D60002084F83C00284670BDCB684A682F
:105C80008968206800F0D4FD2068816841F07701C0
:105C90008160ECE7CB684A688968206800F0C8FD3D
:105CA0002068816841F480418160E0E7CA68496802
:105CB000206800F0D0FD5021206800F0C4FDD6E738
:105CC000CA684968206800F0D9FD6021206800F0AA
:105CD000BAFDCCE7CA684968206800F0BCFD4021E5
:105CE000206800F0B0FDC2E722680146104600F0CF
:105CF000AAFDBCE7704770B50446206801694FF003
:105D0000000511F0020F17D0C16811F0020F13D077
:105D1000E91E0161012020772068806910F0030FDF
:105D200003D02046FFF7E6FF05E0204600F09DF88F
:105D3000204600F09BF825772068016911F0040FD8
:105D400018D0C16811F0040F14D06FF00401016184
:105D5000022020772068806910F4407F03D020461D
:105D6000FFF7C8FF05E0204600F07FF8204600F06E
:105D70007DF825772068016911F0080F18D0C168F7
:105D800011F0080F14D06FF0080101610420207792
:105D90002068C06910F0030F03D02046FFF7AAFF68
:105DA00005E0204600F061F8204600F05FF8257716
:105DB0002068016911F0100F18D0C16811F0100FA0
:105DC00014D06FF010010161082020772068C069AD
:105DD00010F4407F03D02046FFF78CFF05E02046FB
:105DE00000F043F8204600F041F82577206801696B
:105DF00011F0010F09D0C16811F0010F05D06FF04B
:105E000001010161204600F032F82068016911F0BB
:105E1000800F09D0C16811F0800F05D06FF08001AC
:105E200001612046FFF710FE2068016911F0400F64
:105E300009D0C16811F0400F05D06FF04001016139
:105E4000204600F01BF82068016911F0200F0BD0EC
:105E5000C16811F0200F07D06FF0200101612046CA
:105E6000BDE87040FFF7F1BD70BD70477047006836
:105E7000B0F1804F01D1FFF78FB87047704770477E
:105E800070470000F8B5044622681068D16853696D
:105E900000F00F0CBCF1000F0AD110F0200F07D05A
:105EA00011F0200F04D02046BDE8F84000F034BDCA
:105EB0000025BCF1000F75D003F0010C01F49076C1
:105EC0005CEA06066ED010F0010F06D011F4807F58
:105ED00003D0226C42F00102226410F0040F06D0BD
:105EE00013F0010F03D0226C42F00202226410F082
:105EF000020F06D013F0010F03D0226C42F004020F
:105F0000226410F0080F08D001F0200252EA0C02BF
:105F100003D0226C42F008022264226C002A35D0A1
:105F200010F0200F05D011F0200F02D0204600F015
:105F3000F3FC20684069C0F38010216C11F0080F59
:105F400000D148B3204600F0B3FC2068406910F04F
:105F5000400F1CD02068143050E8001F21F0400191
:105F600040E80012002AF5D1A06B60B15C490165E0
:105F7000A06BFEF750FD002808D0A06B016D01B0AA
:105F8000BDE8F04008472046FFF77AFFF8BD2046FD
:105F9000FFF776FFF8BD05E0FFE72046FFF770FF4B
:105FA0002564F8BD236B012B7ED110F0100F7BD040
:105FB00011F0100F7ED010685068009050694FF0BB
:105FC000200310F0400F43D0A16B0868406880B2F6
:105FD0000028E6D0A28D8242E3D9E085C869B0F5F9
:105FE000807F2DD020680C3050E8001F21F4807194
:105FF00040E80012002AF5D12068143050E8001F54
:1060000021F0010140E80012002AF5D12068143087
:1060100050E8001F21F0400140E80012002AF5D1AD
:1060200084F83E30256320680C3050E8001F21F0D2
:10603000100140E80012002AF5D1A06BFEF79AFC8F
:10604000A08DE18D401A81B22046FFF718FFF8BD00
:10605000A08DE18D401A81B2E08D0028F7D0002993
:10606000F5D020680C3050E8002F22F4907240E800
:10607000002CBCF1000FF4D12068143050E8002F40
:1060800022F0010240E8002CBCF1000FF4D184F8AA
:106090003E30256320680C3050E8002F22F01002BB
:1060A00040E80023002B00E004E0F3D12046FFF796
:1060B000E6FEF8BD10F0800F07D011F0800F04D07D
:1060C0002046BDE8F84000F009BD10F0400FF0D0C8
:1060D00011F0400FEDD02046BDE8F84000F00FBCB5
:1060E000A168000870B50446002C04D094F83D0067
:1060F000002510B106E0012070BD84F83C50204618
:1061000000F022F8242084F83D002068C16821F4C2
:106110000051C160204600F063FC2068016921F451
:10612000904101612068416921F02A0141612068A4
:10613000C16841F40051C1602564202084F83D000D
:1061400084F83E00002070BDF0B587B006461421EB
:106150006846FEF7F3F8584935680024574803228B
:1061600002234FF0080C8D422BD1544910310C689A
:1061700044F000440C60096801F000410591016899
:1061800041F010010160006802AC00F010000590C1
:106190000120CDE9002384E8051069464848FEF750
:1061A000C7FD002205215320FEF786FF5320FEF78E
:1061B00075FF44480068C16841F02001C16007B024
:1061C000F0BD3E49DFF800E114310F15754536D1B9
:1061D0000D6845F010050D60096801F0100105918A
:1061E000016841F0020101600068694600F00200A8
:1061F0000590C0208DE819000720CDE90320334821
:10620000FEF796FD2F4D3248CC3528607804C5E95D
:106210000104C5E903476C61AC61EC612C6228465E
:106220006C62FEF701FD08B1FEF747F9B563002285
:1062300004212520AE63FEF73FFF252039E0DFF87B
:1062400094E07545BBD10D6845F020050D600968E7
:1062500001F020010591016841F0400101600068F2
:10626000694600F0400005904FF484408DE8190025
:10627000CDE9032C1848FEF75BFD1548174D18387B
:1062800028608005C5E90104C5E903476C61AC617C
:10629000EC612C6228466C62FEF7C6FC08B1FEF782
:1062A0000CF9B563002205214720AE63FEF704FF19
:1062B0004720FEF7F3FE82E7007C004030380240C2
:1062C00000100240C0010020001001400004024004
:1062D000406402400014014000180240EC0200201B
:1062E00070477047FEE700000F4810B50D49016088
:1062F0000921416000214FF480328160C0E903121E
:1063000012014261017641768176C176017741774B
:10631000FEF7F2F9002803D0BDE81040FEF7CDB833
:1063200010BD000000640040D00000200F4810B5F0
:106330000D4901600921416000214FF480328160E4
:10634000C0E9031212014261017641768176C1767D
:1063500001774177FEF7D0F9002803D0BDE810405F
:10636000FEF7ABB810BD000000680040F800002048
:106370000D4808B5016841F4800101600068002201
:1063800000F48000009005213920FEF795FE3920A9
:10639000FEF784FE002205213A20FEF78DFEBDE8BF
:1063A00008403A20FEF77ABE3038024010B5044A61
:1063B0000021044800F052FD0349086010BD0000B0
:1063C000508C00086D78000800000020F0B587B000
:1063D00014216846FDF7B2FF47480024016841F0E8
:1063E00010010160016801F010010591016841F0A0
:1063F00040010160016801F040010591016841F030
:1064000002010160016801F002010591016841F09B
:1064100004010160016801F004010591016841F087
:1064200001010160016801F001010591016841F07D
:1064300008010160016801F008010591016841F45B
:1064400080710160016801F480710591016841F07B
:10645000800101600068294E00F0800042F2FE15C4
:106460000590002229463046FEF788FD244F002281
:106470003C213846FEF782FD00950125CDE9015407
:10648000694630460394FEF753FCCDE90054694653
:106490001C480295FEF74CFC3C200090CDE90154CD
:1064A000694638460394FEF743FC0420CDE9000416
:1064B000694615480294FEF73BFC4FF4C04000903B
:1064C0004FF48810CDE9010469461048FEF730FC0E
:1064D000E80300904FF44410CDE9010569460C48EB
:1064E000FEF726FC002205212820FEF7E5FD2820E6
:1064F000FEF7D4FD07B0F0BD30380240001802406E
:10650000001C02400020024000040240000C024037
:1065100000100240104810B50E4901604FF482711E
:106520004160002102228160C0E903120122426120
:106530005202C0E906210162416281620A21C16200
:10654000FFF7DBF9002803D0BDE81040FDF7B5BF29
:1065500010BD0000003001402001002010B586B0C1
:10656000002418480094019402940394049414495C
:106570000594016040F20771C0E901144FF6FF7104
:10658000C0E9031444618461FFF7ADFA08B1FDF777
:1065900094FF4FF48050009069460A48FFF735FB9E
:1065A00008B1FDF78AFF049404A906480594FFF793
:1065B0004DFA002801D0FDF780FF06B010BD0000A5
:1065C00000000140780100200C4810B50A49016024
:1065D0004FF4E1314160002181600C22C160C0E9CB
:1065E00004128161C161FFF77DFD002803D0BDE881
:1065F0001040FDF762BF10BD007C0040C0010020CC
:106600000C4810B50A4901600B49416000218160C6
:106610000C22C160C0E904128161C161FFF762FD13
:10662000002803D0BDE81040FDF747BF10BD0000B3
:106630000010014004020020A08601000C4810B5A3
:106640000A4901604FF4E1314160002181600C2270
:10665000C160C0E904128161C161FFF743FD0028F8
:1066600003D0BDE81040FDF728BF10BD0014014065
:1066700048020020FEE7FEE7FEF7B6BD10B54FF07A
:10668000E020006902F01AF9012803D0BDE81040AB
:1066900001F01CBE10BD000070B592B030216846FC
:1066A000FDF74CFE14210CA8FDF748FE1D480025FF
:1066B000016841F080510160006800F08050119045
:1066C0001948016841F4404101600068022400F467
:1066D0004040119001200090000401908001CDE91C
:1066E00006400820089009A9F0200F2681E85100F3
:1066F0006846FEF7C1FE80B9FEF736FD68B94FF473
:10670000A050CDE90E50E002CDE90C6410900521B7
:106710000CA8FEF777FD002801D0FDF7CEFE12B0E1
:1067200070BD00004038024000700040044801681D
:1067300041F470010160044902480860704700009C
:1067400088ED00E00040000808ED00E00148FFF798
:10675000D2BA0000780100200148FFF7CCBA00004F
:106760004C030020F0B402682C4B2D4C2D4D2E4EC6
:10677000DFF8B8C098420AD0B0F1804F07D0A042ED
:1067800005D0A84203D0B04201D0604503D122F029
:1067900070024F683A43984228D0B0F1804F25D01C
:1067A000A04223D0A84221D0B0421FD060451DD0C6
:1067B000A0F18044B4F5A03418D0A0F18044B4F521
:1067C000A23413D0A0F18044B4F5A4340ED0A0F1CB
:1067D0008044B4F5C05409D0A0F18044B4F5E0542D
:1067E00004D0A0F18044B4F5005403D122F44072E7
:1067F000CC6822434C6922F08002224302608A68FE
:10680000C2620A688262984201D0604501D109697A
:10681000016301214161F0BC7047000000000140AC
:106820000004004000080040000C0040000401404B
:10683000D0F808C02CF47F4C42EA0322114341EA0D
:106840000C0181607047826822F07002114341F0B0
:10685000070181607047036AD0F820C02CF0010C5A
:10686000C0F820C0D0F818C02CF0F00C4CEA02128E
:1068700023F00A031943826101627047036A23F01F
:1068800010030362D0F818C0036A2CF4704C4CEA71
:10689000023223F0A00343EA0111826101627047D2
:1068A00010B5806B0021C185C184FFF7E9FA10BDE6
:1068B00001680C3151E8002F22F4907241E8002366
:1068C000002BF5D10168143151E8002F22F00102AC
:1068D00041E80023002BF5D1016B012909D10168A2
:1068E0000C3151E8002F22F0100241E80023002B68
:1068F000F5D1202180F83E1000210163704710B5CA
:106900000168CA6822F04002CA60202180F83D1068
:10691000FFF7E7FC002010BD08B590F83E102229D3
:1069200001D0022008BD8268B2F5805F01D1016903
:1069300029B1816AB2F5805F1DD052B10BE0816A46
:1069400002685268C2F308020A80816A891C816267
:1069500009E002697AB10268526802F07F020A70A7
:10696000816A491C8162C18D491E0904090CC185D7
:1069700005D0002008BD026852680A70F0E701687F
:10698000CA6822F02002CA600168CA6822F48072D4
:10699000CA6001684A6922F001024A61202180F838
:1069A0003E10016B012903D0FFF79AFC002008BDBF
:1069B0000021016301680C3151E8002F22F0100220
:1069C00041E80023002BF5D101680A6812F0100F8E
:1069D00002D00A6849680091818DFFF750FAE5E717
:1069E0002DE9F041044620680169E26821F4405134
:1069F000114301612169A068E2690843616911439B
:106A000001432068C26822F4037222F41442114345
:106A1000C16020684169A26921F44071114341615C
:106A20002068A0F18041B1F588312ED0A0F18041DD
:106A3000B1F58A3129D0FEF7C7FC8446E169002010
:106A40001927254D3226B1F5004F22D06068830FFB
:106A50008200ACFB0701FDF727FC0146A5FB0020E7
:106A600040097A42424301EB820106EB0111A5FB8A
:106A70000121490901F0F00202EB001001F00F01C1
:106A8000084421688860BDE8F081FEF7ADFC8446CB
:106A9000D4E761684A1840EB0003ACFB0701FDF73F
:106AA00003FC0346A5FB0010410918460A016FF0DC
:106AB0001803594300EB810006EBC000A5FB001052
:106AC000400900F0F80102EB410100F00700084422
:106AD00021688860BDE8F0811F85EB5190F83D107A
:106AE000212901D0022070478168B1F5805F01D172
:106AF000016961B1016A4A1C026202680978516049
:106B0000C18C491E0904090CC1840AD013E0016A32
:106B100002680988C1F308015160016A891C016299
:106B2000EEE70168CA6822F08002CA600068C168A6
:106B300041F04001C16000207047000010B500F036
:106B4000DBFFBDE810400148FFF79CB904020020BC
:106B500010B500F007F8BDE810400148FFF792B902
:106B6000480200201F4818B40068C00637D51E48E8
:106B700001680A6849680091816B09680A681B4BC3
:106B800012030A684FF4007422F001020A60816B5C
:106B900009684A68C2F5007292B21A804C60816B33
:106BA00009680B680CD443F400230B60806B006809
:106BB000016841F0010101600D4901F580600BE0C1
:106BC00023F400230B60806B0068016841F0010131
:106BD0000160084901F5007018BC00F03EB818BC0F
:106BE00070470000001401404802002038000020D7
:106BF0006404002064060020FEE702E008C8121FBB
:106C000008C1002AFAD170477047002001E001C195
:106C1000121F002AFBD17047EFF3108172B6436850
:106C200002699A4201D90268026112F8013B0261CD
:106C30008268521C8260C268521E81F31088C26052
:106C4000184670478B185B1E0160C0E901320022B4
:106C5000C0E903214161104670472DE9F0475FEA22
:106C600001080546EFF3108672B62FD0AC686CB3FE
:106C700069686869884201D928686861944200DDC2
:106C800014460F1A7F1CA74206DB22464146FDF739
:106C90003CFB686920440DE0A4EB07093A464146F5
:106CA000FDF733FB08EB07014A462868FDF72DFB8B
:106CB000286848446861A868001BA860E868204408
:106CC000E860204686F31088BDE8F08786F31088D8
:106CD0004FF0FF30F8E7C0687047000010B558B1BA
:106CE000084C491E0BD310F8013B5340DBB234F87B
:106CF000133083EA1222F4E74FF6FF7010BD1046FE
:106D000010BD0000748D000810B5054C04E000BFF4
:106D100010F8013B5340E25C491EF9D2104610BD09
:106D2000748C000870B51D4D00241D4EC5F815402B
:106D30006C76C5F81A40AC77346074603481B472F4
:106D400005F8014B202106F10B00FDF7F7FAAC60C6
:106D5000EC60A5F80540EC71A5F803401B2106F195
:106D60002B00FDF7EBFA102106F14600FDF7E6FADD
:106D7000102106F15600FDF7E1FA2C706C70AC7032
:106D80006C622C8585F82A40C5F81E406C84C6F8D4
:106D90006640C6F86A40C6F86E4070BD0C00002020
:106DA000F2030020FEF700F9FFF776FCFFF70EFB79
:106DB000FFF7DEFAFFF798FAFFF7ACFBFFF720FCCE
:106DC000FFF702FCFFF7B2FAFFF7C8FBFFF736FC4C
:106DD00000F014F8FFF7EAFA00F024F8FEE710B527
:106DE0000146EFF3058010B16FF0050404E00024C4
:106DF00011B1084601F0C2F8204610BDEFF305803E
:106E0000002802D06FF0050070470548016811B1F5
:106E10004FF0FF30704701210160002070470000F3
:106E2000A000002010B5EFF30580002802D06FF01D
:106E3000050010BD07480168012902D04FF0FF305E
:106E400010BD054A002111700221016001F004F912
:106E5000002010BDA00000201FED00E02DE9F04350
:106E600085B00B464FF000070497EFF3058100292A
:106E70004ED100284CD080244FF0180C8946491E72
:106E800052B3166806B1B146956905B1AC46ACF18E
:106E90000105382D03D2157915F0010F03D005B087
:106EA0000020BDE8F083556905B1AC08D2F8088030
:106EB000B8F1000F07D0D6685C2E04D3166916B15E
:106EC0000DB1012109E0B8F1000F06D1D56825B94F
:106ED000156915B9002100E00021012901D061B137
:106EE00016E09168126901920291CDF800C0224625
:106EF000494601F0B3FC04900AE004A90191A2B252
:106F0000CDF800C0494601F073FC012800D0049779
:106F1000049805B0BDE8F0832DE9F04104460F4622
:106F2000134EF5683068001D00F0EAFEB4F1FF3F33
:106F300007D137B13068BDE8F041011D0D4800F0C0
:106F400032BF2C4430684460AC4206D23068011D28
:106F5000B06BBDE8F04100F00BBF3068011D706BF5
:106F600000F006FFB06A844200D2B462BDE8F0814E
:106F700050000020F811002070B5044600F020FFFA
:106F80001C4DA868401CA860286810B1686938B119
:106F90000CE02C60A868012808D100F093F905E006
:106FA0002868E16AC06A884200D82C60686A401C80
:106FB00068626064E06A2969884200D928610E49E4
:106FC00000EB800001EB8000211D00F0ECFE00F0E2
:106FD00017FF686900280CD02868E16AC06A8842F7
:106FE00007D206494FF080500860BFF34F8FBFF3C0
:106FF0006F8F70BD50000020480D002004ED00E0B0
:1070000038B500F0DDFE0F4C2068B8B90E4800F02E
:10701000A1FE0E4800F09EFE0B48E0601430206197
:1070200000200B4B009003F1500210210A2001F0C8
:1070300063F9206010B107A100F066FFBDE8384099
:1070400000F0DEBE8C000020FC1200201013002097
:107050000C120020546D72510000000070B50D4CF0
:107060006068002815D00C4E00F0AAFEF068C568D4
:10707000281D00F045FEA068401EA0606068401E0C
:10708000606000F0BDFE284600F051F860680028FE
:10709000EAD170BD50000020E41100200B46026CC4
:1070A000002A0CD0C1681144C160D0F808C0614505
:1070B00001D30168C160C1681846FDF726B9704761
:1070C0002DE9F041044616460027A56B226C002AE4
:1070D00010D0C6B1E068FDF718F9E168206C091A14
:1070E000E1602268914202D2A168081AE060022E93
:1070F00016D017E02068A8B9A06801F059FC07462F
:107100000020A0600EE06068FDF7FFF8216C606869
:1071100008446060A168884204D32068606001E090
:1071200005B16D1E681CA0633846BDE8F08110B53E
:10713000044694F8591000290BD0012911D00229D6
:1071400014D0502080F31188BFF34F8FBFF36F8F9F
:10715000FEE7206B00F06AFE2046BDE8104000F01C
:1071600065BE2046BDE8104000F060BE10BD0000C6
:107170000749CA681168002904D00021016019B1CB
:10718000002070470121F9E7D068006870470000CF
:107190008C0000204FF4A031104810F0070F06D0EB
:1071A000C01D20F007000D49411AC1F5A0310C4A5D
:1071B0001060002353600144083921F00701183A98
:1071C00011604B600B600B1A436001604068906077
:1071D00050604FF00040506170470000DC19002003
:1071E000BC000020074E4FF08054074DFFF736FFDC
:1071F00030680128FAD92C60BFF34F8FBFF36F8F2F
:10720000F4E70000480D002004ED00E070B51D46D5
:10721000049C002909D02260E063216401212046FA
:1072200001F0A2F884F84C5070BD2460F4E72DE919
:10723000F05F82460B9F0A9D0C9C0E4690469B4633
:107240004FEA8801A522206BFDF771F8206BA8F1A9
:10725000010100EB810020F007094FF0000866B142
:1072600000202218315C82F83410315C11B1401CCE
:107270001028F6D384F8438001E084F83480382D58
:1072800000D33725E562E564C4F85080201D00F086
:107290006CFD04F1180000F068FD2461C5F13800B0
:1072A000A0616462C4F8548084F858805A465146FC
:1072B000484600F0C5FA2060002F00D03C60BDE8D1
:1072C000F09F000070B500240F4D04EB840005EB27
:1072D000800000F03FFD641C382CF6D30B4800F012
:1072E00039FD0B4800F036FD0A4800F033FD0A482E
:1072F00000F030FD094800F02DFD094803494163C5
:107300001431816370BD0000480D0020A8110020D9
:10731000BC110020D0110020E4110020F811002041
:107320005000002010B4144900E011460A6882425F
:10733000FBD34B6803EB010C844503D14068184430
:10734000486008460C68D0F804C00CEB0003A34268
:107350000CD10A4B1B689A4206D0526862444260C4
:107360000A681268026002E0036000E00260814285
:1073700000D0086010BC7047BC000020A4000020B2
:1073800010B5002441600061DFF838C091420BD88D
:10739000D11A8269914201D3012410E0011DDCF869
:1073A000100000F0E5FC0AE09A4203D2994201D3B2
:1073B000012404E0011DDCF80C0000F0D9FC20469B
:1073C00010BD00008C00002010B5044600F0F8FC51
:1073D000A06B20B1002400F013FD204610BD012455
:1073E000F9E710B5044600F0EBFCA06BE16B8842B6
:1073F00001D1012400E0002400F002FD204610BD70
:10740000F8B505460E461748C068C068C468201D18
:1074100000F076FC94F8280010F0040F18D0A06952
:107420002B46411932462046FFF7AAFFA0B10020A3
:107430000346014600902A46204601F0CFFB58B98A
:10744000502080F31188BFF34F8FBFF36F8FFEE79B
:1074500020F0010084F82800216A01B02046BDE830
:10746000F04008478C00002030B587B0414D002225
:1074700002A9286801F0D8F8002875D002980028E1
:1074800003DA039A0599049890470298002864DB70
:10749000049C606910B1201D00F032FC01A800F0CE
:1074A000B3F8024602980A2857D2DFE800F0050533
:1074B000052F364D05052F3694F8280040F00100C1
:1074C00084F828000398A169034601442046FFF789
:1074D00057FF002841D0216A2046884794F82800A9
:1074E00010F0040F39D0002000900398A169002308
:1074F00042181946204601F071FB70BB502080F302
:107500001188BFF34F8FBFF36F8FFEE794F8280009
:1075100020F0010084F828001FE094F8280040F0D3
:10752000010084F828000398A06128B1811813464F
:107530002046FFF725FF10E0502080F31188BFF3AD
:107540004F8FBFF36F8FFEE794F8280010F0020F03
:107550000CD020F0010084F82800002202A928683D
:1075600001F062F8002889D107B030BD204600F054
:107570005DFCF2E78C000020F8B505460C4600F0F3
:10758000B3FD684600F040F80646009810B101F0DF
:107590008BFAF8BD44B9B54206D801F085FA3146F8
:1075A0002846FFF72DFFF8BD0C481CB1016909689A
:1075B00091B10024A91B2246006800F0B9FC01F03B
:1075C00073FA0028EFD106494FF080500860BFF3EE
:1075D0004F8FBFF36F8FF8BD0124EBE78C000020C5
:1075E00004ED00E00749486B0068002805D0486BAF
:1075F000C068C0684068886270474FF0FF3088629A
:10760000704700005000002070B5044601F064F996
:107610000546074EB068854204D200F00BF8012001
:10762000206001E000202060B560284670BD0000A9
:107630008C000020F8B51C4EF0680068002826D0A9
:107640000027F068C0680568C468201D00F058FB7A
:10765000216A2046884794F8280010F0040F12D0C1
:10766000A0692844A84206D960602461211DF06801
:1076700000F07EFB07E000232A46194620460097CB
:1076800001F0ACFA40B1F06800680028D9D1F06888
:107690003169F1603061F8BD502080F31188BFF38B
:1076A0004F8FBFF36F8FFEE78C0000200A484068C1
:1076B000B0F1FF3F07D0502080F31188BFF34F8F08
:1076C000BFF36F8FFEE7502080F31188BFF34F8F19
:1076D000BFF36F8FFEE70000C400002082B001A856
:1076E000FFF746FD0199FFF747FFFFF7BDFEF6E7FD
:1076F00070B5044600F064FB94F94550002D0CDD94
:10770000606A50B104F1240001F092F908B100F070
:1077100065FC681E45B2002DF2DC4FF0FF3684F8A0
:10772000456000F06DFB00F04BFB94F94450002DD8
:107730000CDD206950B104F1100001F079F908B1B5
:1077400000F04CFC681E45B2002DF2DC84F8446069
:10775000BDE8704000F054BB2DE9F041054600261D
:1077600000F0C2FC344F386808B9FFF713FD7869A0
:10777000054251D19DB1083515F0070F0FD005F026
:107780000700C0F10800054415F0070F07D050208E
:1077900080F31188BFF34F8FBFF36F8FFEE7002D8B
:1077A0003AD07868854237D824490846046801E011
:1077B000214604466068A84202D220680028F7D11A
:1077C0003868844228D0086800F1080620680860FC
:1077D0006068411B10290FD9601910F0070F07D0FE
:1077E000502080F31188BFF34F8FBFF36F8FFEE7F8
:1077F00041606560FFF796FD61687868401A7860BF
:10780000BA68904200D2B86078690843606000208E
:107810002060F868401CF86001F046F916F0070F88
:1078200007D0502080F31188BFF34F8FBFF36F8FC5
:10783000FEE73046BDE8F081A4000020BC00002037
:10784000001F4FF080730360001F21F001010160F1
:10785000001F0549016014380260001F6FF002012B
:107860000160203870470000AD76000800F022B9B2
:1078700078B40021ADF800104B49026840F20225AF
:10788000C1F8152002794A76B0F80520ADF800203D
:1078900092B2464CA2F20223AA4263D01BDCB2F59C
:1078A000817F51D00ADC012A33D0022A3BD0032A3F
:1078B0003CD0A2F58072013A1AD140E0A2F5807264
:1078C000033A46D0012A4AD0FE2A11D1C11D3748B9
:1078D0001B222B304FE0052B56D00BDC012B46D062
:1078E000022B4BD0032B4CD0042B01D1C079C87094
:1078F00078BC7047062B50D0072B1CD0FF2BF7D13C
:1079000050F8071F44F8661F416861608068A060F6
:10791000EEE750F8071F216041686160018921810D
:10792000807AA072E4E7C0790870E1E7C11D1F48C2
:1079300020220B301FE0D0F80720C1F81120D0F82A
:107940000700C1F80900D3E7D0F80700C1F80D001F
:10795000CEE7B0F80720CA80407A0872C8E7B0F8CE
:1079600007001FE0C11D11481022463003E0C11D71
:107970000E481022563078BCFCF7C7BCC07948705E
:10798000B6E7C0798870B3E750F8072F41F8252F84
:1079900082888A8080798871AAE750F8072F41F899
:1079A0001F2F80888880A3E70C000020F2030020AE
:1079B00070B5A5263D4C002571E03D48FFF72CF938
:1079C00094F8861006294BD2DFE801F003131D2D31
:1079D000384DB0420AD1012184F88610B4F88710DE
:1079E000A31D4A1CA4F88720C85458E0A4F8875067
:1079F00055E0A080B4F88710A31D4A1CA4F8872086
:107A0000C854022017E0A188A31D41EA0021A180EB
:107A1000B4F887104A1CA4F88720C854A088772897
:107A20001ED2032007E0B4F88710A31D4A1CA4F857
:107A30008720C854042084F8860030E0B4F887100A
:107A4000A31D4A1CA4F88720C854B4F88700052851
:107A500025D10521A01D00F0A3FB08B10520EAE710
:107A600084F88650C2E7A288B4F8871009329142A0
:107A700004D2A31D4A1CA4F88720C854A188B4F8D6
:107A80008700093188420AD384F88650A4F88750C9
:107A9000A01D00F067FB10B1A01DFFF7E9FE044830
:107AA000FFF719F9002888D170BD00007C0C002078
:107AB00064080020FFF736F90B494FF48062A1F10A
:107AC0001800FFF7BFF809494FF40072A1F50070E4
:107AD00000F0CCF8064C074DFFF76AFF20782880AD
:107AE0000A20FFF77CF9F7E77C08002064060020F5
:107AF0001D0400203C000020264818B400680168DE
:107B0000890604D501684068009018BC7047224976
:107B10000968C906F9D501684068204A00901068D4
:107B200001684FF024030C031D49046824F001048C
:107B3000046016D410684468C4F12404A4B20C8014
:107B400043601068016841F4002101601068016819
:107B500041F001010160122CD7D1124901F1160048
:107B600015E014686068C0F1240080B2088063608A
:107B70000D490B6823F400230B6011680A6842F07A
:107B800001020A601228C0D1064901F13A0018BC6E
:107B900000F00CB804020020001001408C0200200C
:107BA00008000020940300204064024000285BD0BD
:107BB000002959D00278437842EA0322C2F30A022C
:107BC0000A8042788378D20842EA4312C2F30A025A
:107BD0004A808278C378920942EA8302037942EAB2
:107BE0008322C2F30A028A8002794379520842EA68
:107BF000C312C2F30A02CA804279C2F301128A7226
:107C000042799209CA728279C37942EA03228A814F
:107C1000027A437A42EA0322CA81827AC37A42EA2A
:107C200003220A82027B8A74427BCA74827BC37BF2
:107C300042EA03228A82027C407C42EA00200881D8
:107C40000888A0F5806008804888A0F5806048809A
:107C50008888A0F580608880C888A0F58060C8808A
:107C60000889A0F58060088170470000F0B51F4CBE
:107C700023685D6945F040055D612368DC6844F078
:107C80001004DC601A4B1C68256825F0010525608E
:107C90001C682568ED07F7D1164FFD14BC4202D9C8
:107CA000144E4C3E04E0144EB44203D9114E503EE3
:107CB000356008E0104F104E603FB83EBC4201D91D
:107CC000F56000E0B5600D4DA5601C68E0601868C7
:107CD0000161186842601868016841F48021016000
:107CE0001868016841F001010160F0BD4802002000
:107CF000EC02002058640240B860024004140140C5
:107D00000169436882689A60836842685A604A6879
:107D1000824201D182684A60002202610868401EE6
:107D20000860086870470000034B036003F15C00C3
:107D3000086080201060704724130020044B03600B
:107D400003F15C0008604FF4807010607047000021
:107D50008015002000F1080141604FF0FF32826081
:107D6000C16001610021016070470021016170471D
:107D700010B4D1F800C0BCF1FF3F02D000F10802FE
:107D800002E0026904E01A4653681C686445FAD9A7
:107D900053684B6099608A60516008610168491CB2
:107DA000016010BC704742684A6093688B609368BA
:107DB0005960916008610168491C016070470000CA
:107DC000502080F31188BFF34F8FBFF36F8F0A49A4
:107DD0004868401C486001280CD10848006810F031
:107DE000FF0F07D0502080F31188BFF34F8FBFF3F0
:107DF0006F8FFEE770470000C400002004ED00E034
:107E000009494868002806D0401E4860002801D172
:107E100080F311887047502080F31188BFF34F8F93
:107E2000BFF36F8FFEE70000C400002070B500288C
:107E30002AD0A0F10804154D60686969084207D18D
:107E4000502080F31188BFF34F8FBFF36F8FFEE791
:107E500022683AB1502080F31188BFF34F8FBFF3EF
:107E60006F8FFEE78843606000F03EF960686968E4
:107E7000084468602046FFF755FA2869401C2861CD
:107E8000BDE8704000F010BE70BD0000A4000020EE
:107E90004FF0E02000210161816105494FF47A72C1
:107EA0000968B1FBF2F1491E416107210161704788
:107EB0004C00002010B5FCF7E1F9114910280ED351
:107EC00000F1E02090F8F0030A78904207D25020A9
:107ED00080F31188BFF34F8FBFF36F8FFEE7094820
:107EE0000068896800F4E060884207D9502080F378
:107EF0001188BFF34F8FBFF36F8FFEE710BD0000F7
:107F0000C40000200CED00E00022084B53F832C002
:107F1000BCF1000F03D0521C082AF7D3704743F876
:107F2000321003EBC201486070470000080D0020CA
:107F300070B504460D461646FFF742FF94F944001B
:107F4000B0F1FF3F4FF0000001D184F8440094F9F4
:107F50004510B1F1FF3F01D184F84500FFF750FF14
:107F6000A06B28B93246294604F1240000F056F8E7
:107F70002046BDE87040FFF7BBBB000010B50246CD
:107F80000020002A12D00F48006B38B1502080F337
:107F90001188BFF34F8FBFF36F8FFEE700F0A4F897
:107FA00000211046FEF7B8FF00F07EFD002807D143
:107FB00005494FF080500860BFF34F8FBFF36F8FBC
:107FC00010BD00005000002004ED00E002490A6AE4
:107FD0000260C968416070475000002001490120DB
:107FE000C86170475000002010B50C4600280BD027
:107FF000094A126802F11801FFF7BAFE2046BDE8EF
:1080000010400121FEF788BF502080F31188BFF394
:108010004F8FBFF36F8FFEE75000002070B50D4605
:10802000144600280DD00B4909681831FFF7BBFE34
:108030000CB14FF0FF3521462846BDE87040FEF7F1
:108040006BBF502080F31188BFF34F8FBFF36F8F4A
:10805000FEE700005000002030B587B000250695EF
:10806000059504AA05A906A8FFF75EFE06980599DE
:10807000019102900023009517A11948049A00F07D
:10808000EDFB184CE06208B1012000E0002001285F
:1080900001D100F06FFD01280AD0B0F1FF3F19D1E6
:1080A000502080F31188BFF34F8FBFF36F8FFEE72F
:1080B000502080F31188BFF34F8FBFF36F8F4FF0C5
:1080C000FF30A06201206061E56007B0BDE830408C
:1080D00000F07AB807B030BD49444C4500000000BC
:1080E000E5710008500000200248016B491C016343
:1080F0007047000050000020184B186B002802D079
:108100000120D86170470020D8611869144900EB3C
:10811000800251F822203AB9C0B1401E00EB800223
:1081200051F82220002AF7D000EB800201EB8201F7
:108130004A6852684A6001F1080C624501D15268F0
:108140004A604968C968196018617047502080F317
:108150001188BFF34F8FBFF36F8FFEE750000020F1
:10816000480D002030B50C46050014D0022C12D961
:108170000A48A11E02882846FEF7B0FD2919C2B29E
:1081800011F8023C9A4206D111F8011CB1EB102FF4
:1081900001D1012030BD002030BD00000A000020C8
:1081A00030B50C4605000CD0022C0AD9FF22611E06
:1081B000FEF7AAFD291911F8011C814201D1012005
:1081C00030BD002030BD000010B582B038480168D5
:1081D000384A914207D1502080F31188BFF34F8F66
:1081E000BFF36F8FFEE700683349884207D1502004
:1081F00080F31188BFF34F8FBFF36F8FFEE72F49D6
:1082000008780190FF200870087800909DF8000021
:108210009DF8002000F0F000904207D0502080F33D
:108220001188BFF34F8FBFF36F8FFEE79DF80000FB
:10823000234C00F0500020700720A0609DF8000043
:1082400010F0800F0BD0A068401EA0609DF80000C9
:10825000400000909DF8000010F0800FF3D1A0685E
:10826000032807D0502080F31188BFF34F8FBFF34E
:108270006F8FFEE74FF44070A060019808701148BE
:10828000016841F470010160016841F070410160D2
:10829000FFF7FEFD00206060FBF7B8FF0A480168A9
:1082A00041F040410160FBF79DFF02B0002010BD8E
:1082B00000ED00E071C20F4170C20F4100E400E028
:1082C000C400002020ED00E034EF00E010B55020A5
:1082D00080F31188BFF34F8FBFF36F8F00F002FB65
:1082E00018B104494FF080500860002080F31188D5
:1082F00010BD000004ED00E038B5049D002804D056
:108300005BB102B189B1C2B120E0502080F3118885
:10831000BFF34F8FBFF36F8FFEE7502080F31188BC
:10832000BFF34F8FBFF36F8FFEE7502080F31188AC
:10833000BFF34F8FBFF36F8FFEE739B1502080F34B
:108340001188BFF34F8FBFF36F8FFEE74FF0500CD4
:10835000CDF800C01C46012384F846302B4600941B
:10836000FEF754FF204638BD70B504460D46002C7C
:1083700025D0FFF725FD226CE16B206801FB020090
:10838000A0600020A06320686060E16B226C206820
:10839000491E01FB0200E0604FF0FF3084F844000A
:1083A00084F845009DB104F11000FFF7D3FC04F1FF
:1083B0002400FFF7CFFCFFF723FD012070BD502004
:1083C00080F31188BFF34F8FBFF36F8FFEE72069F3
:1083D0000028F0D004F1100000F02AFB0028EAD0B9
:1083E00004494FF080500860BFF34F8FBFF36F8F89
:1083F000E1E7000004ED00E02DE9FF4782B004460C
:108400008A461F460025002C03D0BAF1000F08D081
:1084100011E0502080F31188BFF34F8FBFF36F8FAF
:10842000FEE7206C38B1502080F31188BFF34F8FE6
:10843000BFF36F8FFEE7022F0AD1E06B012807D050
:10844000502080F31188BFF34F8FBFF36F8FFEE78B
:1084500000F034FA48B9049838B1502080F31188FC
:10846000BFF34F8FBFF36F8FFEE700264FF08058AA
:10847000DFF8F090FFF7A4FCA06BE16B884205D316
:10848000022F03D0049808B335B329E03A46514689
:108490002046FEF715FE616A59B104F1240000F090
:1084A000C7FA68B1C9F80080BFF34F8FBFF36F8F71
:1084B00006E028B1C9F80080BFF34F8FBFF36F8F7C
:1084C000FFF79EFC06B00120BDE8F087FFF798FC9F
:1084D00006B00020BDE8F0876846FFF777FD01256C
:1084E000FFF78EFCFFF700FEFFF76AFC94F94400EB
:1084F000B0F1FF3F01D184F8446094F94500B0F138
:10850000FF3F01D184F84560FFF77AFC04A9684673
:1085100000F02EF940B12046FFF7EAF800F0C4FA67
:1085200006B00020BDE8F0872046FEF75AFF90B164
:1085300004F110000499FFF757FD2046FFF7D8F823
:1085400000F0B2FA002895D1C9F80080BFF34F8F30
:10855000BFF36F8F8EE72046FFF7CAF800F0A4FA4A
:1085600088E7000004ED00E02DE9F0470446894665
:1085700017461E46002C03D0B9F1000F08D011E0B9
:10858000502080F31188BFF34F8FBFF36F8FFEE74A
:10859000206C38B1502080F31188BFF34F8FBFF3A8
:1085A0006F8FFEE7022E0AD1E06B012807D0502022
:1085B00080F31188BFF34F8FBFF36F8FFEE7FFF794
:1085C00079FC5020EFF3118880F31188BFF34F8FAF
:1085D000BFF36F8FA06BE16B884206D3022E04D0ED
:1085E000002088F31188BDE8F08794F94550A06B0E
:1085F000324649462046FEF763FDB5F1FF3F04D001
:10860000681C84F845000120EBE7606A0028FAD076
:1086100004F1240000F00CFA0028F4D0002FF2D06E
:1086200001203860EFE700002DE9F74783B00446EA
:108630008A460025002C03D0BAF1000F08D011E0C3
:10864000502080F31188BFF34F8FBFF36F8FFEE789
:10865000206C38B1502080F31188BFF34F8FBFF3E7
:108660006F8FFEE700F02AF948B9059838B150201D
:1086700080F31188BFF34F8FBFF36F8FFEE70027A2
:108680004FF08058DFF8E490FFF79AFBA66BC6B175
:1086900051462046FEF702FD701EA063206950B1CE
:1086A00004F1100000F0C4F928B1C9F80080BFF34C
:1086B0004F8FBFF36F8FFFF7A3FB06B00120BDE81C
:1086C000F087059808B135B109E0FFF799FB06B0CE
:1086D0000020BDE8F0876846FFF778FC0125FFF72A
:1086E0008FFBFFF701FDFFF76BFB94F94400B0F13E
:1086F000FF3F01D184F8447094F94500B0F1FF3F89
:1087000001D184F84570FFF77BFB05A9684600F0AE
:108710002FF868B12046FEF7EBFF00F0C5F92046C0
:10872000FEF752FE0028AFD006B00020BDE8F0876B
:108730002046FEF749FE90B104F124000599FFF7A9
:1087400053FC2046FEF7D4FF00F0AEF900289BD181
:10875000C9F80080BFF34F8FBFF36F8F94E72046B7
:10876000FEF7C6FF00F0A0F98EE7000004ED00E080
:1087700070B505460C46002D15D0E4B1FFF720FB7F
:10878000DFF868C0DCF80C006B68C11A2268B2F12F
:10879000FF3F18D02E68DCF820C0664515D0834214
:1087A00013D801241DE0502080F31188BFF34F8FB0
:1087B000BFF36F8FFEE7502080F31188BFF34F8F18
:1087C000BFF36F8FFEE700240BE08A4206D9501AF0
:1087D00020602846FFF7FAFB002402E0002020601A
:1087E0000124FFF70DFB204670BD00005000002063
:1087F0002DE9F04F85B081460F9F0E9E8A46904628
:108800009B464FEA8800FEF7A7FF054628000AD0DE
:108810005C20FEF7A1FF04460CB1256304E0284666
:10882000FFF704FB00E000249CB1002084F859000D
:1088300003905B4642465146019700960294484693
:10884000FEF7F5FC2046FEF797FB05B00120BDE8DA
:10885000F08F05B04FF0FF30BDE8F08F70B586B0F7
:108860000646DDF828C00C9C0B98002816D0ECB109
:108870005C2504952063022084F85900002005AD92
:108880000390CDF800C0019502943046FEF7CFFC6E
:108890002046FEF771FB059806B070BD502080F3AE
:1088A0001188BFF34F8FBFF36F8FFEE7502080F327
:1088B0001188BFF34F8FBFF36F8FFEE70548416903
:1088C000002903D0006B18B10020704701207047C9
:1088D00002207047500000200148C0687047000027
:1088E000500000202DE9F04100262F4F386B002862
:1088F00005D0B869401CB8613046BDE8F081F86821
:10890000451CFD609DB9786B006838B1502080F33C
:108910001188BFF34F8FBFF36F8FFEE7786BB96B92
:108920007963B863386A401C3862FEF75BFEB86A48
:10893000DFF8788085420DD3786B006838B1786BAA
:10894000C068C4686068854212D2B86202E04FF025
:10895000FF30B8623868C06A00EB800058F8200029
:10896000012800D90126F8690028C5D00126C3E7EF
:10897000201DFFF7C5F9A06A18B104F11800FFF730
:10898000BFF9E16A3869814200D9396101EB8100A0
:1089900008EB8000211DFFF706FAE06A3968C96A12
:1089A0008842C9D30126C7E750000020480D0020A7
:1089B00070B504460021002833D01B4D286884423E
:1089C00007D0502080F31188BFF34F8FBFF36F8F14
:1089D000FEE7206D38B1401E2065E36CE26A9A42E2
:1089E0001FD040B11DE0502080F31188BFF34F8F9E
:1089F000BFF36F8FFEE7201DFFF782F9E06CE062A6
:108A0000C0F13800A061E06A2969884200D9286174
:108A1000064900EB800001EB8000211DFFF7C3F940
:108A20000121084670BD000050000020480D0020C4
:108A300070B5C068C468002C14D004F11800FFF7AA
:108A40005FF9164D286BA8B104F118011448FFF71F
:108A5000AAF9E06A2968C96A88421CD90120012163
:108A6000E96170BD502080F31188BFF34F8FBFF3D1
:108A70006F8FFEE7201DFFF743F9E06A29698842FE
:108A800000D92861074900EB800001EB8000211D1F
:108A9000FFF789F9DDE7002070BD000050000020DD
:108AA000D0110020480D00202DE9F04700240027B8
:108AB0002D4D286B002807D0FFF782F9286B401E48
:108AC0002863286B40B149E0502080F31188BFF340
:108AD0004F8FBFF36F8FFEE7A86800283ED0234E6C
:108AE00030684FF0010800B3A6F59169F068C468DA
:108AF00004F11800FFF704F9201DFFF701F9E06AFF
:108B00002969884200D9286100EB800009EB8000C8
:108B1000211DFFF748F9E06A2968C96A884201D334
:108B2000C5F81C8030680028E0D10CB1FEF75AFD72
:108B3000AC694CB1FFF7D6FE08B1C5F81C80641EC5
:108B4000002CF7D10020A861E86938B10127084955
:108B500038070860BFF34F8FBFF36F8FFFF750F9EF
:108B60003846BDE8F087000050000020D0110020FA
:108B700004ED00E030B587B00024FEF741FA134D54
:108B80002868B0B100200690059004AA05A906A89F
:108B9000FFF7D4F8059906980222009201910290FD
:108BA00000230BA10C48049AFFF758FE686000B13F
:108BB000012414B107B0204630BD502080F3118845
:108BC000BFF34F8FBFF36F8FFEE700008C000020D4
:108BD000546D722053766300DD760008F0B585B0E1
:108BE00084460A9D16461F460022BCF1000F14D091
:108BF000164C206800B300910196CDF808C00629F4
:108C00001BDAFFF75BFE02280FD000231A466946E5
:108C10002068FFF7F1FB024615E0502080F3118831
:108C2000BFF34F8FBFF36F8FFEE700232A466946DD
:108C30002068FFF7E1FB024605E000233A4669465B
:108C4000FFF792FC024605B01046F0BD8C000020F4
:108C5000948F0008000000000000000000000000E9
:108C600000000000000200000800000000000000FA
:108C700000000000005EBCE2613FDD83C29C7E20FC
:108C8000A3FD1F419DC3217FFCA2401E5F01E3BDE8
:108C90003E6082DC237D9FC1421CFEA0E1BF5D03DC
:108CA00080DE3C62BEE0025CDF81633D7C22C09ED0
:108CB0001D43A1FF4618FAA427799BC584DA3866BC
:108CC000E5BB5907DB856739BAE406581947A5FBA8
:108CD0007826C49A653BD987045AB8E6A7F91B459C
:108CE000C6987A24F8A6441A99C7257B3A6486D890
:108CF0005B05E7B98CD2306EEDB3510F4E10F2AC7C
:108D00002F7193CD114FADF3702ECC92D38D6F3167
:108D1000B2EC0E50AFF1134DCE90722C6D33D18F5B
:108D20000C52B0EE326C8ED0530DEFB1F0AE4C124F
:108D300091CF2D73CA947628ABF517490856B4EA3B
:108D40006937D58B5709EBB536688AD495CB297727
:108D5000F4AA4816E9B7550B88D6346A2B7597C91B
:108D60004A14F6A8742AC896154BA9F7B6E80A540F
:108D7000D7896B350000891112239B322446AD57E9
:108D80003665BF74488CC19D5AAFD3BE6CCAE5DB53
:108D90007EE9F7F88110080193331A22A5562C4773
:108DA000B7753E64C99C408DDBBF52AEEDDA64CB33
:108DB000FFF976E802218B30100299132667AF760F
:108DC0003444BD554AADC3BC588ED19F6EEBE7FA13
:108DD0007CC8F5D983310A2091121803A7772E6633
:108DE000B5543C45CBBD42ACD99E508FEFFB66EAF3
:108DF000FDD874C904428D5316619F702004A915D3
:108E00003227BB364CCEC5DF5EEDD7FC6888E199D2
:108E10007AABF3BA85520C4397711E60A1142805F2
:108E2000B3373A26CDDE44CFDFFD56ECE9986089B2
:108E3000FBBB72AA06638F7214409D512225AB348E
:108E40003006B9174EEFC7FE5CCCD5DD6AA9E3B892
:108E5000788AF19B87730E6295501C41A3352A24B2
:108E6000B1163807CFFF46EEDDDC54CDEBB962A872
:108E7000F99A708B088481951AA793B62CC2A5D352
:108E80003EE1B7F04008C919522BDB3A644EED5F62
:108E9000766DFF7C899400859BB712A6ADD224C362
:108EA000BFF136E0C1184809D33B5A2AE55E6C4F42
:108EB000F77D7E6C0AA583B4188691972EE3A7F2FE
:108EC0003CC0B5D14229CB38500AD91B666FEF7E22
:108ED000744CFD5D8BB502A499961087AFF326E222
:108EE000BDD034C1C3394A28D11A580BE77F6E6E02
:108EF000F55C7C4D0CC685D71EE597F42880A191C2
:108F00003AA3B3B2444ACD5B5669DF78600CE91DE1
:108F1000722FFB3E8DD604C79FF516E4A9902081E1
:108F2000BBB332A2C55A4C4BD7795E68E11C680DC1
:108F3000F33F7A2E0EE787F61CC495D52AA1A3B07D
:108F40003882B193466BCF7A5448DD59622DEB3CA1
:108F5000700EF91F8FF706E69DD414C5ABB122A0A1
:108F6000B9923083C77B4E6AD5585C49E33D6A2C81
:108F7000F11E780F00061016000610160000000003
:108F800000000000010203040607080900000000B9
:108F900001020304726566657265655F5461736BF7
:108FA00000000000C48F000800000020D000000076
:108FB000FA6B000894900008D0000020105D0100BA
:108FC0000A6C000800000000000000000000FFFF25
:108FD0000000000000000000000000000000000091
:108FE0000000000000000000000000000000000081
:108FF0000000000000000000000000000000000071
:109000000900000001000000100000000000000046
:109010000024F40000000000000000000000000038
:109020000000000000000000000000000000000040
:109030000000000000000000000000000000000030
:109040000000000000000000000000000000000020
:109050000000000000000000000000000000000010
:109060000000000000000000000000000000000000
:1090700000000000000000000000000000000000F0
:10908000000000000000000000000000AAAAAAAA38
:0490900000000000DC
:04000005080041AD01
:00000001FF
