:020000040800F2
:100000001863002085020008FD40000849380008F8
:10001000093F000845090008514F00080000000092
:10002000000000000000000000000000C501000802
:100030006F0B00080000000021020008D1450008F5
:100040009F0200089F0200089F0200089F0200080C
:100050009F0200089F020008710B00089F02000821
:100060009F0200089F0200089F0200089F020008EC
:100070009F0200089F0200089F0200089F020008DC
:100080009F020008710A00089F0200087909000811
:100090004909000859090008690900089F02000879
:1000A0009F020008B94600089F0200089F0200084E
:1000B0009F0200089F0200089F0200089F0200089C
:1000C0009F0200089F0200089F0200089F0200088C
:1000D0009F0200083D4F00089F0200089F02000891
:1000E0009F0200089F0200089F0200089F0200086C
:1000F0009F0200089F0200089F0200089F0200085C
:100100009F0200089F0200089F0200089F0200084B
:100110009F0200089F0200089F0200089F0200083B
:100120009F0200089F020008810A00089F02000841
:100130009F0200089F0200089F020008B9090008FA
:100140008909000899090008A90900089F02000808
:100150009F0200089F0200089F0200089F020008FB
:100160009F0200089F0200089F0200089F020008EB
:100170009F0200089F0200089F0200080000000084
:100180009F0200089F0200089F020008F54900082E
:100190009F0200089F0200089F0200089F020008BB
:1001A00000000000000000009F020008DFF810D0EF
:1001B00000F07CFB00480047C1520008AFF300800C
:1001C000186300202C4B19680868B0E8F04F80F3E2
:1001D0000988BFF36F8F4FF0000080F311887047DC
:1001E0000000000008480068006880F308884FF0AD
:1001F000000080F3148862B661B6BFF34F8FBFF37F
:100200006F8F00DF00BF00BF08ED00E0DFF80C00DB
:10021000016841F470010160704700BF88ED00E0A3
:10022000EFF30980BFF36F8F134B1A681EF0100FA6
:1002300008BF20ED108A20E9F04F106009B44FF09C
:10024000500080F31188BFF34F8FBFF36F8F07F01B
:10025000E3F84FF0000080F3118809BC19680868C2
:10026000B0E8F04F1EF0100F08BFB0EC108A80F31A
:100270000988BFF36F8F704720000020EFF30580DF
:10028000704700000648804706480047FEE7FEE743
:10029000FEE7FEE7FEE7FEE7FEE7FEE7FEE7FEE736
:1002A000A5460008AD0100082DE9F05F05460020D5
:1002B00092469B4688460646814640241BE02846D7
:1002C00041464746224600F03AFA53465A46C01A7B
:1002D000914110D311461846224600F021FA2D1AFA
:1002E00067EB01084F4622460120002100F018FA72
:1002F00017EB00094E41201EA4F10104DFDC484643
:1003000031462A464346BDE8F09F40EA01039B0779
:1003100003D009E008C9121F08C0042AFAD203E07A
:1003200011F8013B00F8013B521EF9D27047D2B2DE
:1003300001E000F8012B491EFBD270470022F6E7CE
:1003400010B513460A4604461946FFF7F0FF20464B
:1003500010BD2DE9FE4F804681EA0300C00F0C4618
:10036000009021F0004123F00045B8EB0200A941C4
:1003700005D24046214690461C460B46024623F0D5
:100380000040104347D0270DC7F30A00C3F30A51BA
:100390000290401A019040286BDAC3F3130040F436
:1003A000801B0098924620B10023D2EB030A63EB36
:1003B0000B0B01985946C0F14002504600F0B0F9CD
:1003C00006460D4650465946019A00F0C8F910EB12
:1003D00008006141002487EA115284EAE7731A4356
:1003E00040D0009A62B3019A012A4FEA075215DC05
:1003F000001B61EB02014FF0004202EA0752CDE917
:100400000042001C41F5801132462B4600F0FFF9F6
:1004100003B0BDE8F08F40462146F9E7001B61EBD1
:100420000201001C41F5801300185B412018A2F561
:10043000001747EB030140EAD570B6196D4111E092
:100440006D084FEA360645EAC0754FEA0752001BB1
:1004500061EB0201001C41F5801149084FEA3000B0
:100460000019514132462B4603B0BDE8F04F00F071
:10047000BFB90098012240000023D0EB020263EBD9
:10048000E073009821464FEAE074B8EB000061EB9E
:100490000401E9E783F000435BE781F0004158E79E
:1004A0002DE9FE4F81EA030404F0004421F00041ED
:1004B00000944FF0000B23F0004350EA01045ED09B
:1004C00052EA03045BD0C3F30A54C1F30A552C4427
:1004D000A4F2F3340194A0FB0254C1F3130141F4DC
:1004E0008011C3F3130343F4801301FB024400FBA8
:1004F000034E840A970A44EA815447EA8357A4FBCF
:10050000076802958D0A05FB07854FEA932C04FBCB
:100510000C542705029D4FEA065847EA1637B5EBFB
:1005200008056EEB070C870E920E47EA811742EA28
:100530008312A7FB0201B6EB0B0164EB00042B0D49
:1005400043EA0C335E1844EB1C50DA465146E7FB95
:100550000201C5F313044FEA0B3343EA14534FEA85
:100560000432019C43EA0603A4F10C040294009CAB
:10057000CDE900B400F04BF903B0BDE8F08F0020E6
:100580000146F9E72DE9F04D81EA030404F0004B40
:1005900021F0004514464FF0000A23F0004150EAD4
:1005A000050220D054EA01021DD0C5F30A570246C5
:1005B000C5F31303C1F31300C1F30A5640F48015C9
:1005C00043F48013A7EB0608101BD64608F2FD384B
:1005D00073EB050002D308F1010801E092185B41BA
:1005E000B8F1000F03DA00200146BDE8F08D0020CD
:1005F0004FF48011064684460EE0171B73EB050787
:1006000005D3121B63EB050306434CEA010C4908B2
:100610004FEA300092185B4150EA0107EDD152EAEF
:10062000030012D082EA040083EA0501084305D0E2
:10063000101BAB4106D20122002306E000224FF03E
:10064000004302E06FF0010253101AEB06004CEB7E
:10065000085110EB0A0041EB0B01BDE8F04D00F032
:10066000C7B80EB5C10F80EAE0700844CA07002180
:1006700040F233438DE80E000A460B4600F0C7F8FF
:1006800003B000BD70B5C1F30A5201F0004500246B
:10069000C1F3130140F2FF3341F480119A4201DAB1
:1006A000002070BD40F233439A42A2F2334203DC91
:1006B000524200F044F800E090402C43F1D0404218
:1006C00070BD00F0004230F000400AD0C10D01F5CD
:1006D0006071C0F3160042EA0151C208400711439D
:1006E000704700200146704701F0004330B421F00C
:1006F000004150EA010206D00A0DA2F56072C1F372
:100700001301002A02DC30BC00207047440F44EA89
:10071000C104C100E01830BC00EBC25000F031B899
:10072000202A04DB203A00FA02F1002070479140B1
:10073000C2F1200320FA03F3194390407047202AA6
:1007400004DB203A21FA02F00021704721FA02F37B
:10075000D040C2F120029140084319467047202A38
:1007600006DBCB17203A41FA02F043EAE07306E0D9
:1007700041FA02F3D040C2F12002914008431946E9
:1007800070470029A8BF7047401C490008BF20F0EF
:100790000100704710B4B0FA80FC00FA0CF050EA87
:1007A000010404BF10BC704749B1CCF1200421FA08
:1007B00004F411FA0CF118BF012121430843A3EB03
:1007C0000C01CB1D4FEA00614FEA102042BF002010
:1007D00010BC704700EBC35010440029A4BF10BCEC
:1007E0007047401C490008BF20F0010010BC704752
:1007F00010B5141E73F1000408DA401C41F1000129
:1008000092185B411A4301D120F0010010BD2DE97F
:10081000F04D92469B4611B1B1FA81F202E0B0FA76
:1008200080F220329046FFF77BFF04460F4640EAF5
:100830000A0041EA0B0153465A46084313D01146B9
:1008400053EA010019D0C8F140025046FFF777FF84
:1008500005460E46504659464246FFF761FF08439B
:1008600005D0012004E020463946BDE8F08D002087
:10087000054346EAE0762C4337430A986305E40AC9
:10088000A0EB08000022FD0A44EA47540A3002D5D2
:1008900000200146E9E7010510196941DDE9084535
:1008A00000196941BDE8F04DA2E70000064C074D74
:1008B00006E0E06840F0010394E807009847103430
:1008C000AC42F6D3FFF776FC7C8600089C860008D5
:1008D00030B58C1810F8012B12F00F0301D110F86D
:1008E000013B120906D110F8012B03E010F8015B5F
:1008F00001F8015B5B1EF9D101E001F8013B521EDA
:10090000FBD1A142E6D3002030BD000010B505F0B8
:100910009BFE01222021084801F04CFA074800F014
:1009200085F8074800F082F8044800F0ECFE04481F
:1009300000F0E9FE10BD0000001C02403C01002058
:100940006401002000BFFEE710B5024800F028FB5C
:1009500010BD00003C01002010B5024800F020FB53
:1009600010BD00003C01002010B5024800F018FB4B
:1009700010BD00003C01002010B5024800F010FB43
:1009800010BD00003C01002010B5024800F008FB3B
:1009900010BD00006401002010B5024800F000FB0B
:1009A00010BD00006401002010B5024800F0F8FA04
:1009B00010BD00006401002010B5024800F0F0FAFC
:1009C00010BD0000640100202DE9F04389B081468C
:1009D0000E4614461D46DDE910780396002005906A
:1009E000069008200790200A8DF80400E0B28DF8E8
:1009F0000500280A8DF80600E8B28DF80700380ACD
:100A00008DF80800F8B28DF809004FEA18208DF82B
:100A10000A0008F0FF008DF80B006B4601AA03A93D
:100A2000484600F0C2F809B0BDE8F08310B58AB0BE
:100A30000446022005900020069007900090019047
:100A400002900390049001200890002009906946CC
:100A5000204600F055F910B101200AB010BD022166
:100A6000204600F08DF808B10120F6E70020F4E7F9
:100A700010B5024800F0E8FE10BD0000C4030020DD
:100A800010B5024800F0E0FE10BD00002404002074
:100A90000146087810381823B0FBF3F20848805C50
:100AA000C865032A05D908686FF30900001D886529
:100AB00003E008686FF309008865886D70470000DF
:100AC000D8820008014600208A6A8B69CBB932B10E
:100AD000012A0DD0022A03D0032A10D10EE000BF54
:100AE000CB6A03F08073B3F1807F00D1012007E06F
:100AF000CB6AB3F1C07F00D1012001E000E000BF6C
:100B000034E08B69B3F5005F1AD132B1012A07D006
:100B1000022A03D0032A11D10AE000BF01200EE00F
:100B2000CB6A03F08073B3F1807F00D1012006E02F
:100B3000CB6AB3F1C07F00D1012000E000BF15E017
:100B400032B1012A05D0022A04D0032A0CD103E0D5
:100B500000BF00BF012008E0CB6A03F08073B3F14F
:100B6000807F00D1012000E000BF00BF70477047C8
:100B700010B5012001F000F810BD72B600BFFEE70D
:100B800010B5024692F82030012B01D0022B06D17D
:100B900010684069084314686061002010BD506A05
:100BA00040F4802050620120F8E7F0B504460D467D
:100BB0001E4694F8207020688368A86800B900E099
:100BC00000BF012F01D0022F7CD103F0806030B92B
:100BD00003F0006018B903F08050002873D0C3F30D
:100BE0000161022905D9606A40F4000060620120B9
:100BF000F0BD012088403060A86860B9B5F800C039
:100C0000E86840EA4C5C206800F5C07000EB011019
:100C1000C0F800C00FE0D5E901C040EACC00D5F82B
:100C20000CC040EA0C00D4F800C00CF5C07C0CEB02
:100C3000011CCCF80000D5F810C0206800F5C07089
:100C400000EB0110C0F804C0287D01280ED12068F7
:100C500000F5C07000EB0110406840F4807C206813
:100C600000F5C07000EB0110C0F804C0D079000698
:100C700092F806C040EA0C4092F805C040EA0C2CFD
:100C800010794CEA000C206800F5C07000EB0110F0
:100C9000C0F80CC0D078000692F802C040EA0C40C0
:100CA00092F801C040EA0C2092F800C040EA0C0023
:100CB000D4F800C00CF5C07C0CEB011CCCF808008B
:100CC000206801E016E00FE000F5C07000EB0110B5
:100CD000006840F0010C206800F5C07000EB0110C6
:100CE000C0F800C0002083E7606A40F40010606232
:100CF00001207DE7606A40F480206062012077E790
:100D0000F0B504460A46216894F82050012D01D020
:100D1000022D7ED1424901F50071086840F00100C2
:100D20000860086820F47C5008600868566A40EA49
:100D300006200860107D00F01F06012000FA06F36F
:100D4000C8699843C861A1F50071D069C8B9D1F8E4
:100D50000C029843C1F80C02908880B2968940EA50
:100D6000064601F51070576940F83760108880B268
:100D7000168940EA064601F51070576900EBC70076
:100D80004660D069012819D1D1F80C021843C1F886
:100D90000C02908880B2168840EA064601F5107071
:100DA000576940F83760908980B2168940EA064654
:100DB00001F51070576900EBC7004660906928B9CB
:100DC000D1F804029843C1F8040204E0D1F8040207
:100DD0001843C1F80402106928B9D1F814029843E5
:100DE000C1F8140204E0D1F814021843C1F8140247
:100DF000106A012804D1D1F81C021843C1F81C0262
:100E0000D1F8000220F00100C1F800020020F0BD7E
:100E1000FFE7606A40F4802060620120F7E700008D
:100E200000640040704770B5044694F82050012DCE
:100E300001D0022D7DD151B92068C06800F00300B7
:100E400080B9606A40F400106062012070BD2068C3
:100E5000006900F0030028B9606A40F40010606285
:100E60000120F3E7206800F5D87000EB011000685E
:100E700000F004009060906840B9206800F5D870D8
:100E800000EB01100068400D106007E0206800F5DD
:100E9000D87000EB01100068C0085060206800F5B1
:100EA000D87000EB0110006800F00200D0602068EC
:100EB00000F5D87000EB0110406800F00F001061E1
:100EC000206800F5D87000EB0110406800F47F4006
:100ED000000A9061206800F5D87000EB01104068AE
:100EE000000C5061206800F5D87000EB011080689C
:100EF0001870206800F5D87000EB0110806800F4CD
:100F00007F40000A5870206800F5D87000EB01108F
:100F1000806800F47F00000C9870206800F5D8709D
:100F200000EB01108068000ED870206800F5D870C2
:100F300000E02FE000EB0110C0681871206800F598
:100F4000D87000EB0110C06800F47F40000A5871AF
:100F5000206800F5D87000EB0110C06800F47F0035
:100F6000000C9871206800F5D87000EB0110C06883
:100F7000000ED87131B92068C06840F020002668A2
:100F8000F06005E02068006940F0200026683061CC
:100F900000205BE7606A40F480206062012055E732
:100FA0002DE9F05F04460025206846692068D0F8E6
:100FB0000490206887682068D0F80CA02068D0F8DA
:100FC00010B02068D0F8188006F00100002855D035
:100FD00007F00100C0B101202168886007F002001D
:100FE00018B1204600F0BFFB0EE007F0040010B17E
:100FF00045F4006508E007F0080010B145F480559D
:1010000002E0204600F0AEFB07F48070C8B14FF458
:1010100080702168886007F4007018B1204600F0E5
:10102000A4FB0EE007F4806010B145F4005508E021
:1010300007F4006010B145F4804502E0204600F05E
:1010400093FB07F48030C8B14FF48030216888608A
:1010500007F4003018B1204600F089FB0EE007F4D9
:10106000802010B145F4004508E007F4002010B1DD
:1010700045F4803502E0204600F078FB06F00800D9
:1010800038B10AF0100020B145F400751020216835
:10109000C86006F0040040B10AF0080028B108203A
:1010A0002168C860204600F03FFA06F0020038B11F
:1010B0002068C06800F0030010B1204600F036FA46
:1010C00006F0400038B10BF0100020B145F4806507
:1010D00010202168086106F0200040B10BF00800E4
:1010E00028B1082021680861204600F009FB06F0BD
:1010F000100038B12068006900F0030010B12046EC
:1011000000F0FFFA06F4003040B109F0100028B1F9
:10111000102021684860204600F0F4FA06F4803080
:1011200040B109F0080028B1082021684860204635
:1011300000F01EFB06F4004088B309F0040078B309
:1011400006F4807020B108F0010008B145F00105F7
:1011500006F4007020B108F0020008B145F0020565
:1011600006F4806020B108F0040008B145F00405E1
:1011700006F40060A0B108F0700088B108F07000BB
:10118000402817D006DC10280BD020280CD030289F
:1011900019D10CE0502810D0602814D110E01DE0C7
:1011A00019E045F008050FE045F010050CE045F0AA
:1011B000200509E045F0400506E045F0800503E024
:1011C00045F4807500E000BF00BF2068806920F012
:1011D0007000216888610420216848602DB1606A30
:1011E000284360622046FFF71DFEBDE8F09F70B502
:1011F00004460CB9012070BD94F8200010B92046B7
:1012000000F0B0F82068006840F001002168086034
:1012100000F0D6FD05460DE000F0D2FD401B0A2887
:1012200008D9606A40F400306062052084F820002C
:101230000120E0E72068406800F001000028EBD0C2
:101240002068006820F002002168086000F0B8FD06
:1012500005460DE000F0B4FD401B0A2808D9606A7D
:1012600040F400306062052084F820000120C2E7CD
:101270002068406800F002000028EBD1207E0128A1
:1012800006D12068006840F080002168086005E011
:101290002068006820F0800021680860607E0128D6
:1012A00006D12068006840F040002168086005E031
:1012B0002068006820F0400021680860A07E0128B6
:1012C00006D12068006840F020002168086005E031
:1012D0002068006820F0200021680860E07E012876
:1012E00006D12068006820F010002168086005E041
:1012F0002068006840F0100021680860207F012805
:1013000006D12068006840F008002168086005E008
:101310002068006820F0080021680860607F0128CC
:1013200006D12068006840F004002168086005E0EC
:101330002068006820F0040021680860D4E90201F8
:10134000084321690843616908436168491E0843ED
:101350002168C86100206062012084F8200000201C
:1013600049E7000010B586B00446142101A8FEF735
:10137000E5FF67492068884259D166480068401CEB
:10138000644908600846006801280FD100BF0020AA
:1013900000906148006840F000705F4908600846AE
:1013A000006800F00070009000BF00BF00BF002088
:1013B000009059481038006840F00800564910392C
:1013C00008600846006800F00800009000BF00BFF9
:1013D000032001900220029000200390032004903B
:1013E0000920059001A94D4800F0D4FB00220521F9
:1013F000132000F095FD132000F082FD002205214E
:10140000142000F08DFD142000F07AFD002205214B
:10141000152000F085FD152000F072FD0022052149
:10142000162000F07DFD162000F06AFD6DE03C49BD
:101430002068884269D100BF0020009036480068CB
:1014400040F08060344908600846006800F0806021
:10145000009000BF00BF2F480068401C2D49086065
:101460000846006801280FD100BF002000902A48DC
:10147000006840F00070284908600846006800F0E5
:101480000070009000BF00BF00BF00200090224805
:101490001038006840F002001F4910390860084603
:1014A000006800F00200009000BF00BF4FF4405001
:1014B0000190022002900020039003200490092054
:1014C000059001A9174800F065FB002205213F2087
:1014D00000F026FD3F2000F013FD002205214020F2
:1014E00000F01EFD402000F00BFD002205214120F0
:1014F00000F016FD412000F003FD002205214220EE
:1015000000F00EFD422000F0FBFC06B010BD000014
:10151000006400400800002040380240000C0240F7
:1015200000680040000402407047000030B589B0F8
:1015300005466F49286888426AD16B4602AA002195
:101540002846FFF770FC0298A0F20120694901EBE0
:10155000001001880298A0F20120664A02EB0010F8
:1015600001819DF801009DF8001040EA01210298D8
:10157000A0F2012002EB001001809DF803009DF80D
:10158000021040EA012001B20298A0F2012002EB11
:10159000001041809DF805009DF8041040EA0120EC
:1015A00001B20298A0F2012002EB001081809DF8A8
:1015B00006100298A0F2012002EB0010817102983F
:1015C000A0F20120114601EB001001880298A0F260
:1015D000012002EB001000890C1A14F5805F02DA7A
:1015E00004F5005404E0B4F5805F01DDA4F5005477
:1015F0000298A0F201203F4901EB0010C0680119D8
:101600000298A0F201203B4A02EB0010C1606DE09D
:1016100039492868884269D16B4602AA00212846C8
:10162000FFF701FC0298A0F20120344901EB001001
:1016300001880298A0F20120304A02EB00100181DB
:101640009DF801009DF8001040EA01210298A0F2E7
:10165000012002EB001001809DF803009DF80210AC
:1016600040EA012001B20298A0F2012002EB001032
:1016700041809DF805009DF8041040EA012001B268
:101680000298A0F2012002EB001081809DF8061064
:101690000298A0F2012002EB001081710298A0F2E2
:1016A0000120114601EB001001880298A0F20120F0
:1016B00002EB001000890C1A14F5805F02DA04F5C1
:1016C000005404E0B4F5805F01DDA4F500540298F5
:1016D000A0F20120094901EB0010C068011902982D
:1016E000A0F20120054A02EB0010C16009B030BD34
:1016F00000640040584D002000680040D84D002094
:1017000070477047704770B5044694F82000012870
:1017100022D1022084F820002068006820F0010017
:101720002168086000F04CFB05460DE000F048FB26
:10173000401B0A2808D9606A40F400306062052026
:1017400084F82000012070BD2068406800F001008E
:101750000028EBD16062F6E7606A40F40020606226
:101760000120F0E770477047704770477047704737
:10177000704770B50446A56D00F022FB064694F84C
:101780003500022808D08020606500BF002084F862
:10179000340000BF012070BD2068006820F01600F2
:1017A000216808602068406920F080002168486155
:1017B000206C08B9A06C28B12068006820F00800EF
:1017C000216808602068006820F001002168086036
:1017D00010E000F0F5FA801B05280BD92020606589
:1017E000032084F8350000BF002084F8340000BFD7
:1017F0000320D0E72068006800F001000028E8D14D
:1018000094F85C103F208840A860012084F83500DF
:1018100000BF002084F8340000BF00BFBBE70146D2
:1018200091F83500022803D08020486501207047D8
:10183000052081F835000868006820F001000A687A
:1018400010600020F3E70000F8B504460020009087
:101850008C4800684FF41651B0FBF1F7A56D2E6867
:1018600094F85C1008208840304098B120680068E7
:1018700000F0040070B12068006820F004002168C6
:10188000086094F85C1008208840A860606D40F003
:101890000100606594F85C1001208840304068B118
:1018A0002068406900F0800040B194F85C1001208D
:1018B0008840A860606D40F00200606594F85C109C
:1018C00004208840304068B12068006800F00200C1
:1018D00040B194F85C1004208840A860606D40F02E
:1018E0000400606594F85C1010208840304078B3A4
:1018F0002068006800F0080050B394F85C101020D5
:101900008840A8602068006800F4802080B12068CA
:10191000006800F4002028B9206CC8B12046216C72
:10192000884715E0A06C98B12046A16C88470FE06D
:101930002068006800F4807028B92068006820F0F2
:10194000080021680860206C10B12046216C88478F
:1019500094F85C10202088403040002865D0206832
:10196000006800F0100000285FD094F85C10202080
:101970008840A86094F83500052828D120680068C0
:1019800020F01600216808602068406920F080007F
:1019900021684861206C08B9A06C28B120680068F3
:1019A00020F008002168086094F85C103F2088400F
:1019B000A860012084F8350000BF002084F83400BE
:1019C00000BF206D10B12046216D8847F8BD20680A
:1019D000006800F4802080B12068006800F40020D6
:1019E00028B9606C10B12046616C88471DE0E06B3F
:1019F000D8B12046E16B884717E02068006800F402
:101A0000807068B92068006820F0100021680860C4
:101A1000012084F8350000BF002084F8340000BFA6
:101A2000E06B10B12046E16B8847606D38B3606DA4
:101A300000F00100F0B1052084F83500206800684E
:101A400020F001002168086000BF0098401C009051
:101A5000B84200D905E02068006800F001000028C5
:101A6000F3D100BF012084F8350000BF002084F8C6
:101A7000340000BFE06C10B12046E16C884700BF25
:101A8000A4E700001C0000202DE9F04104460025D9
:101A900000F096F9074614B90120BDE8F081606AAC
:101AA00000B100BF022084F8350000BF002084F898
:101AB000340000BF2068006820F001002168086041
:101AC0000AE000F07DF9C01B052805D920206065DB
:101AD000032084F83500E0E72068006800F001008A
:101AE0000028EED12068056821480540D4E90101AD
:101AF0000843E16808432169084361690843A16913
:101B00000843E1690843216A08430543606A0428E1
:101B100003D1D4E90B010843054320680560206820
:101B2000456925F00705606A0543606A04280DD100
:101B3000A06A0543E06A48B12046FEF7C3FF28B11A
:101B400040206065012084F83500A6E720684561E3
:101B50002046FEF79DFF064694F85C103F20884023
:101B6000B06000206065012084F83500002094E713
:101B70003F8010F07047000010B50446044800682C
:101B8000204020B1024804602046FFF7F3FF10BD5B
:101B9000143C0140F8B502460B4600250024002005
:101BA0000021E0E0012606FA01F51E6806EA0504B8
:101BB000AC4274D11E7906F00306012E04D01E79C2
:101BC00006F00306022E13D190684F000326BE4094
:101BD000B0434F00DE68BE4030439060506801263D
:101BE0008E40B0431E79C6F300168E4030435060DD
:101BF0001E7906F00306032E09D0D0684F00032695
:101C0000BE40B0434F009E68BE403043D0601E7956
:101C100006F00306022E13D1CF0802F1200656F873
:101C200027004E07F70E0F26BE40B0434F07FF0EAA
:101C30001E69BE403043CF0802F1200646F8270057
:101C400010684F000326BE40B0431E7906F003061D
:101C50004F00BE40304310605E6806F44036002EF0
:101C60001DD000BF00260096414E366846F48046DF
:101C70003F4F3E603E46366806F48046009600BF01
:101C800000BF3C4E8F0856F827008E07370F0F26EF
:101C9000BE40B043384EB24202D100262EE061E091
:101CA000364EB24201D1012628E0354EB24201D172
:101CB000022623E0334EB24201D103261EE0324E0B
:101CC000B24201D1042619E0304EB24201D10526BC
:101CD00014E02F4EB24201D106260FE02D4EB24243
:101CE00001D107260AE02C4EB24201D1082605E0B8
:101CF0002A4EB24201D1092600E00A268F073F0F83
:101D0000BE4030431B4E8F0846F82700244E3068F3
:101D1000A0435E6806F4801606B12043204E306072
:101D2000361D3068A0435E6806F4001606B12043F5
:101D30001B4E361D30601A4E361F3068A0435E6859
:101D400006F4003606B12043154E361F3060361FAC
:101D50003068A0435E6806F4803606B12043104E1A
:101D6000083E3060491C1029FFF41CAFF8BD00008C
:101D7000443802400838014000000240000402409C
:101D800000080240000C0240001002400014024013
:101D900000180240001C02400020024000240240C3
:101DA000083C0140024613690B400BB1012000E0E2
:101DB000002070470AB1816101E00B048361704724
:101DC00001480068704700001000002003480068C8
:101DD0000349097808440149086070471000002051
:101DE0001800002010B50D48006840F400700B4941
:101DF00008600846006840F4806008600846006893
:101E000040F480700860032000F0C8F80F2000F054
:101E100007F800F04BF8002010BD0000003C024025
:101E200070B588B0044600250026002221461920FE
:101E300000F076F8192000F063F800BF0020019050
:101E40001648006840F00100144908600846006820
:101E500000F00100019000BF00BF02A903A800F03C
:101E6000B9F900F0EFF945000D48B5FBF0F0461E5A
:101E70000C480D49086040F2E7310B48C1604660EC
:101E800000210161816000F029FD20B9064800F0C1
:101E900035FE08B070BD0120FBE700004438024069
:101EA00040420F00000001408C01002008B500BF37
:101EB000002000901148006840F480400F490860FD
:101EC0000846006800F48040009000BF00BF00BFDB
:101ED00000200090081F006840F08050091F086033
:101EE0000846006800F08050009000BF00BF00224C
:101EF0000F21901E00F014F808BD00004438024085
:101F000001460846002809DB00F01F0301229A4021
:101F100043099B0003F1E023C3F8002100BF704791
:101F20002DE9F05F80460D461646002703F012F8B3
:101F3000074639462A46334601F00700C0F1070A32
:101F4000BAF1040F02D94FF0040A01E0C0F1070A08
:101F5000D14600F1040ABAF1070F02D24FF0000A8D
:101F600001E0A0F1030AD4464FF0010A0AFA09FA87
:101F7000AAF1010A0AEA020A0AFA0CFA4FF0010B66
:101F80000BFA0CFBABF1010B0BEA030B4AEA0B0457
:101F90002146404602F0E6FFBDE8F09F00BF00F09A
:101FA0000702064B19684FF6FF031940044B0B4319
:101FB00043EA0221014B196000BF70470CED00E0BD
:101FC0000000FA0538B5002400BF002000901D482D
:101FD000006840F080501B4908600846006800F027
:101FE0008050009000BF00BF012017490864FFF730
:101FF000E7FE044607E0FFF7E3FE001BB0F57A7F3B
:1020000001D9032038BD1148406800F48030B0F594
:10201000803FF0D101200C494864FFF7D1FE04460F
:1020200007E0FFF7CDFE001BB0F57A7F01D9032052
:10203000E8E70648406800F40030B0F5003FF0D112
:102040000020DFE74038024000000E4200700040F0
:1020500070B504460D460CB9012070BD58480068A3
:1020600000F00F00A84209D255490D7008460068DB
:1020700000F00F00A84201D00120EEE7207800F028
:10208000020002281DD1207800F00400042805D1A8
:102090004C48006840F4E0504A490860207800F05D
:1020A0000800082805D14748006840F460404549C9
:1020B00008604448006820F0F000A16808434149E6
:1020C0000860207800F00100A8B36068012807D1FB
:1020D0003C4808380068C0F34040B8B90120BCE76C
:1020E0006068022802D06068032807D135480838A4
:1020F0000068C0F3406048B90120AEE731480838B5
:102100000068C0F3400008B90120A6E72D48006828
:1021100020F00300616808432A490860FFF750FE79
:10212000064609E0FFF74CFE801B41F288318842E9
:1021300002D9032091E707E02248006800F00C0074
:102140006168B0EB810FEDD11D48006800F00F0011
:10215000A84209D91A490D700846006800F00F001E
:10216000A84201D0012078E7207800F0040004287C
:1021700007D11448006820F4E050E1680843114991
:102180000860207800F00800082808D10D48006891
:1021900020F46040216940EAC1000A49086000F06B
:1021A00061F808490968C1F30311074A515CC84046
:1021B0000649086006480068FFF732FE00204CE739
:1021C000003C024008380240E08200081C00002069
:1021D000140000200F2202600D4A126802F0030270
:1021E00042600B4A126802F0F0028260084A1268EC
:1021F00002F4E052C260064A126802F46042D20859
:102200000261044A126802F00F020A60704700007F
:1022100008380240003C0240014800687047000056
:102220001C00002000B5FFF7F7FF04490968C1F35F
:102230008221034A515CC84000BD000008380240BA
:10224000F082000800B5FFF7E7FF04490968C1F311
:102250004231034A515CC84000BD000008380240CA
:10226000F08200082DE9F047002400250026A14651
:102270002548006800F00C0020B1042805D008288B
:102280003AD105E0DFF8849039E0DFF8849036E059
:102290001D48001F006800F03F041B48001F006835
:1022A00000F4800078B11A481749091F0968C1F382
:1022B0008811A0FB01700146224600233846FDF735
:1022C000F3FF05460EE011480F49091F0968C1F3E5
:1022D0008811A0FB01700146224600233846FDF715
:1022E000E3FF05460848001F0068C0F30140401C9A
:1022F0004600B5FBF6F902E0DFF8109000BF00BF22
:102300004846BDE8F0870000083802400024F40089
:10231000001BB700F8B504460CB90120F8BD2078C1
:1023200000F00100002874D0F948006800F00C00AB
:1023300004280DD0F648006800F00C00082813D1DE
:10234000F348001F006800F48000B0F5800F0BD147
:10235000EF4808380068C0F34040002859D0606852
:10236000002856D10120D9E700BF6068B0F5803F52
:1023700008D1E7480838006840F48030E44908395B
:1023800008601EE06068B0F5A02F0DD1E048083865
:10239000006840F48020DE4908390860084600687B
:1023A00040F4803008600CE0D9480838006820F418
:1023B0008030D749083908600846006820F480203A
:1023C000086000BF606890B1FFF7FAFC054606E0C0
:1023D000FFF7F6FC401B642801D903209EE7CC4898
:1023E00008380068C0F340400028F1D011E0FFF742
:1023F000E7FC054606E0FFF7E3FC401B642801D933
:1024000003208BE7C24808380068C0F3404000282A
:10241000F1D1207800F0020002285FD1BC480068AA
:1024200000F00C0058B1BA48006800F00C00082811
:102430001CD1B748001F006800F48000B0B9B44850
:1024400008380068C0F3400020B1E068012801D0DE
:10245000012063E7AE480838006820F0F8002169E1
:1024600040EAC100AA490839086037E0E06800B3D3
:102470000120A8490860FFF7A3FC054606E0FFF726
:102480009FFC401B022801D9032047E7A0480838D9
:102490000068C0F340000028F1D09D48083800686B
:1024A00020F0F800216940EAC10099490839086024
:1024B00014E0002097490860FFF782FC054606E01B
:1024C000FFF77EFC401B022801D9032026E7904835
:1024D00008380068C0F340000028F1D1207800F0EF
:1024E000080008282CD16069A8B101208A49086039
:1024F000FFF766FC054606E0FFF762FC401B02287A
:1025000001D903200AE782486C300068C0F340001C
:102510000028F1D014E000207F490860FFF750FC4C
:10252000054606E0FFF74CFC401B022801D90320BA
:10253000F4E677486C300068C0F340000028F1D121
:10254000207800F00400042870D10027704838304B
:10255000006800F0805090B900BF002000906C48E7
:102560003830006840F080506949383108600846CA
:10257000006800F08050009000BF00BF012767484E
:10258000006800F48070B0B96448006840F480705E
:1025900062490860FFF714FC054606E0FFF710FCEF
:1025A000401B022801D90320B8E65C48006800F40B
:1025B00080700028F2D000BFA068012808D15448DC
:1025C0006830006840F001005149683108601DE042
:1025D000A06805280DD14E486830006840F004001E
:1025E0004B49683108600846006840F00100086007
:1025F0000CE047486830006820F001004449683129
:1026000008600846006820F00400086000BFA06869
:10261000A8B1FFF7D5FB054609E0FFF7D1FB401B4A
:1026200041F28831884202D9032077E626E0384813
:1026300068300068C0F340000028EED013E0FFF7D8
:10264000BFFB054608E0FFF7BBFB401B41F28831AA
:10265000884201D9032061E62D4868300068C0F344
:1026600040000028EFD1012F07D1294838300068F9
:1026700020F0805026493831086000BFA06900284A
:1026800045D02348006800F00C0008285DD0A06900
:10269000022845D100201F490866FFF791FB054637
:1026A00006E0FFF78DFB401B022801D9032035E629
:1026B000174808380068C0F340600028F1D1D4E919
:1026C00007010843616A40EA81110122A06AC2EB56
:1026D000500041EA00412C20005D41EA00600C49B5
:1026E000091F086001200B490866FFF769FB0546D2
:1026F00006E0FFF765FB401B022801D903200DE629
:10270000034808380068C0F340600028F1D049E071
:102710000838024000004742800E474200700040E7
:10272000002021490866FFF74BFB054606E0FFF74E
:1027300047FB401B022801D90320EFE51B48006836
:10274000C0F340600028F2D12CE0A069012800D13C
:10275000E4E51648001D0668A069012820D006F4AB
:102760008001E06981421BD106F03F01206A81426D
:1027700016D147F6C0703040616AB0EB811F0FD1AF
:1027800006F440310122A06AC2EB5000B1EB004FC9
:1027900006D106F070612C20005DB1EB006F01D016
:1027A0000120BBE50020B9E50000474200380240A7
:1027B0007047704710B50346002200BF93F83C00F5
:1027C000012801D1022010BD012083F83C0000BF88
:1027D00022F0FF00CC6840EA040222F440708C68CA
:1027E00040EA040222F480604C6840EA040222F4C9
:1027F00000600C6840EA040222F480500C6940EA50
:10280000040222F400504C6940EA040222F48040A1
:10281000CC6940EA04021868426400BF002083F8D3
:102820003C0000BF00BFCEE730B502460B4600BFFC
:1028300092F83C00012801D1022030BD012082F82D
:102840003C0000BF022082F83D0010684468106818
:10285000816824F070041868044310684460184DBF
:102860001068A8421BD01068B0F1804F17D0154DEA
:102870001068A84213D0144D1068A8420FD0134D11
:102880001068A8420BD0124D1068A84207D0114D15
:102890001068A84203D0104D1068A84205D121F05D
:1028A00080015868014310688160012082F83D0072
:1028B00000BF002082F83C0000BF00BFBDE7000061
:1028C000000001400004004000080040000C0040EF
:1028D00000040140004001400018004010B50446CB
:1028E0000CB9012010BD94F83D0028B9002084F8EF
:1028F0003C00204600F026F8022084F83D00211D0F
:10290000206801F0E1FE012084F8460000BF84F851
:102910003E0001213F200155402001554120015535
:1029200000BF00BF012084F842004320015544202D
:1029300001554520015500BF012084F83D000020CD
:10294000D0E7000008B53F4A016891420FD100BFAF
:10295000002100913C49096841F001013A4A1160A7
:102960001146096801F00101009100BF69E0374A92
:102970000168914211D100BF002100913249091F25
:10298000096841F00201304A121F116011460968BE
:1029900001F00201009100BF53E02D4A016891420D
:1029A00011D100BF002100912749091F096841F09A
:1029B0000401254A121F11601146096801F0040143
:1029C000009100BF3DE0234A0168914211D100BF50
:1029D000002100911C49091F096841F008011A4AA9
:1029E000121F11601146096801F00801009100BF33
:1029F00027E0194A016891420FD100BF00210091E0
:102A00001149096841F002010F4A11601146096835
:102A100001F00201009100BF13E0104A01689142E9
:102A20000FD100BF002100910749096841F400312E
:102A3000054A11601146096801F40031009100BF98
:102A400000BF08BD000001404438024000040040BF
:102A500000080040000C0040000401400044014018
:102A6000014691F83D00012801D001207047022065
:102A700081F83D001A4B086898421BD00868B0F1F5
:102A8000804F17D0174B0868984213D0164B086830
:102A900098420FD0154B086898420BD0144B086829
:102AA000984207D0134B0868984203D0124B08682D
:102AB00098420CD10868806800F00702062A0CD002
:102AC0000868006840F001000B68186005E00868BD
:102AD000006840F001000B6818600020C6E70000A5
:102AE000000001400004004000080040000C0040CD
:102AF000000401400040014000180040014691F8E8
:102B00003D00012801D001207047022081F83D00DE
:102B10000868C06840F001000B68D8601A4B08686C
:102B200098421BD00868B0F1804F17D0174B086847
:102B3000984213D0164B086898420FD0154B08687E
:102B400098420BD0144B0868984207D0134B086882
:102B5000984203D0124B086898420CD108688068EC
:102B600000F00702062A0CD00868006840F0010057
:102B70000B68186005E00868006840F001000B6809
:102B800018600020C0E70000000001400004004081
:102B900000080040000C00400004014000400140DB
:102BA000001800402DE9F04104460D46002700BF03
:102BB00094F83C00012802D10220BDE8F0810120F8
:102BC00084F83C0000BF022084F83D00206886683D
:102BD00026F0770626F47F4620688660286850280D
:102BE00033D00CDC202850D004DC00284BD0102837
:102BF00051D149E0302849D040284CD139E06028F3
:102C00002DD0702807D0B0F5805F03D0B0F5005FFD
:102C100041D10DE041E0D5E902136A68206801F076
:102C2000D0FD2068866846F077062068866034E02C
:102C3000D5E902136A68206801F0C3FD2068806846
:102C400040F480402168886027E0EA68696820686D
:102C500001F0A8FE5021206801F0BEFD1DE0EA68E9
:102C60006968206801F0B1FE6021206801F0B4FDC0
:102C700013E0EA686968206801F094FE402120684A
:102C800001F0AAFD09E000BF00BF00BF296820686D
:102C900001F0A2FD01E0012700BF00BF012084F880
:102CA0003D0000BF002084F83C0000BF384684E7A8
:102CB000704710B5044620680069C0F34000D8B1E1
:102CC0002068C068C0F34000B0B16FF00200216816
:102CD0000861012020772068806900F0030018B1A6
:102CE0002046FFF7E5FF05E0204600F0E3F9204627
:102CF00000F097FA0020207720680069C0F3800078
:102D0000D8B12068C068C0F38000B0B16FF0040093
:102D100021680861022020772068806900F44070F3
:102D200018B12046FFF7C4FF05E0204600F0C2F9C5
:102D3000204600F076FA0020207720680069C0F372
:102D4000C000D8B12068C068C0F3C000B0B16FF057
:102D5000080021680861042020772068C06900F01D
:102D6000030018B12046FFF7A3FF05E0204600F05E
:102D7000A1F9204600F055FA00202077206800696C
:102D8000C0F30010D8B12068C068C0F30010B0B123
:102D90006FF0100021680861082020772068C06962
:102DA00000F4407018B12046FFF782FF05E020468E
:102DB00000F080F9204600F034FA002020772068E7
:102DC000006900F0010058B12068C06800F00100FF
:102DD00030B16FF0010021680861204600F0A8FAC8
:102DE00020680069C0F3C01058B12068C068C0F303
:102DF000C01030B16FF08000216808612046FFF7F5
:102E0000D7FC20680069C0F3801058B12068C06802
:102E1000C0F3801030B16FF0400021680861204697
:102E200000F092FA20680069C0F3401058B12068A1
:102E3000C068C0F3401030B16FF020002168086115
:102E40002046FFF7B6FC10BD10B586B0044614212D
:102E500001A8FDF773FA85492068884232D100BF86
:102E6000002000908248006840F01000804908600F
:102E70000846006800F01000009000BF00BF4FF44B
:102E80002060019002200290012003900220049013
:102E90000120059001A97748FEF77CFE7648FFF7F0
:102EA000DFFD0021744800F0BDF90421724800F0F4
:102EB000B9F90821704800F0B5F90C216E4800F00E
:102EC000B1F9D1E06D492068884224D100BF0020CB
:102ED00000906748006840F00400654908600846B3
:102EE000006800F00400009000BF00BF881501904A
:102EF000022002900120039002200490059001A975
:102F00005F48FEF747FE5F48FFF7AAFD08215D48CE
:102F100000F088F9A8E05C49206888421FD100BF12
:102F2000002000905248006840F0080050490860B6
:102F30000846006800F00800009000BF00BF4FF492
:102F40008040019002200290012003900320049011
:102F50000220059001A94D48FEF71CFE84E04C4973
:102F6000206888422DD100BF0020009040480068B2
:102F700040F080003E4908600846006800F080008C
:102F8000009000BF00BF4FF4E0500190022002907B
:102F90000120039002200490059001A93D48FEF70E
:102FA000F9FD3D48FFF75CFD00213B4800F03AF990
:102FB0000421394800F036F90821374800F032F989
:102FC00052E036492068884225D100BF0020009099
:102FD0002748006840F4807025490860084600686A
:102FE00000F48070009000BF00BF202001900220FC
:102FF000029001200390022004900320059001A973
:103000002748FEF7C7FD2748FFF72AFD002125487E
:1030100000F008F928E024492068884224D100BF44
:10302000002000901248006840F02000104908601D
:103030000846006800F02000009000BF00BF40205C
:1030400001900220029001200390022004900320AE
:10305000059001A91548FEF79DFD1548FFF700FDF5
:103060000021134800F0DEF806B010BD000001405A
:1030700030380240001002408C0100200004004063
:1030800000080240D401002000080040000C02406B
:10309000000C0040001C02406402002000040140BB
:1030A00000200240AC020020004401400014024015
:1030B000F402002070472DE9F04104460D46164603
:1030C000002700BF94F83C00012802D10220BDE88F
:1030D000F081012084F83C0000BF36B1042E1BD0E3
:1030E000082E31D00C2E5ED145E02946206801F033
:1030F0007DFB2068806940F00800216888612068B5
:10310000806920F00400216888612068806929694D
:1031100008432168886148E02946206801F09EFB49
:103120002068806940F400602168886120688069B7
:1031300020F480602168886120688069296940EAFC
:1031400001202168886130E02946206801F0C4FB35
:103150002068C06940F008002168C8612068C06923
:1031600020F004002168C8612068C069296908430B
:103170002168C86119E02946206801F0E9FB206850
:10318000C06940F400602168C8612068C06920F40B
:1031900080602168C8612068C069296940EA01200F
:1031A0002168C86101E0012700BF00BF00BF002007
:1031B00084F83C0000BF384689E710B504460CB9D6
:1031C000012010BD94F83D0028B9002084F83C008F
:1031D000204600F025F8022084F83D00211D2068DB
:1031E00001F072FA012084F8460000BF84F83E0026
:1031F00001213F200155402001554120015500BFCC
:1032000000BF012084F842004320015544200155AD
:103210004520015500BF012084F83D000020D0E783
:103220007047704770B504460D4615B994F83E00D6
:103230000BE0042D02D13F20005D06E0082D02D1F5
:103240004020005D01E04120005D012801D0012007
:1032500070BD1DB9022084F83E000EE0042D03D19C
:1032600002213F20015508E0082D03D10221402012
:10327000015502E002214120015501222946206822
:1032800001F08EFA23492068884203D02249206841
:10329000884201D1012000E0002028B12068406C64
:1032A00040F40040216848641A49206888421BD0D5
:1032B0002068B0F1804F17D018492068884213D099
:1032C0001749206888420FD01649206888420BD0E1
:1032D00011492068884207D013492068884203D0EA
:1032E0001249206888420CD12068806800F00706E7
:1032F000062E0CD02068006840F0010021680860AC
:1033000005E02068006840F00100216808600020A6
:103310009EE700000000014000040140000400405E
:1033200000080040000C0040004001400018004030
:1033300010B5044603492068884201D1FEF746FDD6
:1033400010BD00000000014070477047704700004A
:103350002DE9F84F0446206805682068C668206893
:1033600047694FF00009CA4605F00F09B9F1000F8F
:103370000AD105F0200038B106F0200020B1204627
:1033800001F01AFCBDE8F88FB9F1000F7CD007F00E
:10339000010018B906F49070002875D005F00100FE
:1033A00030B106F4807018B1206C40F00100206448
:1033B00005F0040030B107F0010018B1206C40F0B6
:1033C0000200206405F0020030B107F0010018B1DE
:1033D000206C40F00400206405F0080048B106F0BD
:1033E000200010B907F0010018B1206C40F008006F
:1033F0002064206C002846D005F0200028B106F09B
:10340000200010B1204601F0D7FB20684069C0F3CE
:10341000801A206C00F0080010B9BAF1000F2DD00E
:10342000204601F083FB2068406900F040004028FE
:1034300020D100BF00BF2168143151E8001F21F0E6
:1034400040002168143141E80002002AF3D100BF96
:10345000A06B50B17548A16B0865A06BFEF7DFF952
:1034600088B1A06B016D88470DE02046FFF76EFF25
:1034700009E009E02046FFF769FF04E02046FFF776
:1034800065FF002020647DE7206B012876D105F0E0
:103490001000002872D006F010000028FAD000BFFB
:1034A000002000902068006800902068406800902C
:1034B00000BF00BF2068406900F0400040285ED196
:1034C000A06B006840681FFA80F8B8F1000F54D074
:1034D000A08D404551DDA4F82E80A06BC069B0F5E9
:1034E000807F43D000BF00BF21680C3151E8001F2E
:1034F00021F4807021680C3141E80002002AF3D1E8
:1035000000BF00BF00BF2168143151E8001F21F047
:1035100001002168143141E80002002AF3D100BF04
:1035200000BF00BF2168143151E8001F21F04000A6
:103530002168143141E80002002AF3D100BF2020A5
:1035400084F83E000020206300BF00BF21680C31DA
:1035500051E8001F21F0100021680C3141E8000201
:10356000002AF3D100BFA06BFEF703F9A08DE28D16
:10357000801A81B22046FFF7E8FE03E740E0A08D05
:10358000E18D401A1FFA80F8E08DC0B3B8F1000F4A
:1035900035D000BF00BF21680C3151E8001F21F475
:1035A000907021680C3141E80002002AF3D100BF7D
:1035B00000BF00BF2168143151E8001F21F0010055
:1035C0002168143141E80002002AF3D100BF202015
:1035D00084F83E000020206300BF00BF21680C314A
:1035E00051E8001F21F0100021680C3141E8000271
:1035F000002AF3D100BF41462046FFF7A6FEC1E6F0
:1036000005F0800030B106F0800018B1204601F0CE
:1036100065FCB7E605F0400030B106F0400018B197
:10362000204601F0B9FAADE600BFABE6194B000841
:1036300010B504460CB9012010BDA06900B100E02E
:1036400000BF94F83D0028B9002084F83C002046D3
:1036500000F028F8242084F83D002068C06820F499
:1036600000502168C860204601F022FB20680069F4
:1036700020F49040216808612068406920F02A0009
:10368000216848612068C06840F400502168C86023
:1036900000202064202084F83D0084F83E000020B3
:1036A000CAE7000010B586B00446142101A8FCF753
:1036B00045FE5B492068884254D100BF002000903D
:1036C0005848006840F000405649086008460068C5
:1036D00000F00040009000BF00BF00BF002000903D
:1036E00050481038006840F010004E49103908600A
:1036F0000846006800F01000009000BF00BF0320E3
:1037000001900220029000200390032004900820E2
:10371000059001A94448FEF73DFA44484449086031
:1037200000054860002142488160C1604FF480611B
:103730000161002141618161C16101624162FEF765
:10374000A3F908B1FDF719FA00BF3948A0638463F3
:1037500000BF002205215320FEF7E2FB5320FEF7B5
:10376000CFFB5AE033492068884256D100BF002081
:1037700000902C48001D006840F010002949091DE8
:1037800008600846006800F01000009000BF00BF0D
:1037900000BF0020009023481038006840F002006D
:1037A0002049103908600846006800F002000090C7
:1037B00000BF00BFC02001900220029000200390B3
:1037C000032004900720059001A91B48FEF7E2F9A9
:1037D0001A481B4908604FF00060486000211848F3
:1037E0008160C1604FF480610161002141618161AC
:1037F000C16101624162FEF747F908B1FDF7BDF909
:1038000000BF0F48A063846300BF0022052125206C
:10381000FEF786FB2520FEF773FB06B010BD000007
:10382000007C00404038024000100240A06002408E
:10383000C403002000100140000402404064024024
:10384000240400207047704700BFFEE710B50D4804
:103850000D4908600920486000210B488160C16063
:103860004FF4803101610901416100210176417607
:103870008176C17601774177FDF7B9FC08B1FDF794
:103880007CF910BD006400403C01002010B50D48DB
:103890000D4908600920486000210B488160C16023
:1038A0004FF48031016109014161002101764176C7
:1038B0008176C17601774177FDF799FC08B1FDF774
:1038C0005CF910BD006800406401002008B500BF2D
:1038D000002000901648006840F4800014490860F9
:1038E0000846006800F48000009000BF00BF00BFE1
:1038F000002000900846006840F400100860084668
:10390000006800F40010009000BF00BF00220521F5
:103910001120FEF705FB1120FEF7F2FA0022052127
:103920003A20FEF7FDFA3A20FEF7EAFA08BD000059
:103930003038024010B5074A0021074801F02EFE3A
:1039400006490860064A0021064801F027FE06499C
:10395000086010BD90820008F544000800000020B7
:10396000B4820008F16100080400002000B587B0AF
:10397000142102A8FCF7E2FC00BF00200190C84817
:10398000006840F00200C64908600846006800F080
:103990000200019000BF00BF00BF00200190084658
:1039A000006840F0400008600846006800F04000F1
:1039B000019000BF00BF00BF0020019008460068D2
:1039C00040F0010008600846006800F00100019026
:1039D00000BF00BF00BF002001900846006840F013
:1039E000080008600846006800F00800019000BF69
:1039F00000BF00BF002001900846006840F00400AE
:103A000008600846006800F00400019000BF00BF95
:103A100000BF002001900846006840F480700860F4
:103A20000846006800F48070019000BF00BF00BF2E
:103A3000002001900846006840F020000860084619
:103A4000006800F02000019000BF00BF00BF002010
:103A500001900846006840F0800008600846006851
:103A600000F08000019000BF00BF00BF0020019067
:103A70000846006840F0100008600846006800F042
:103A80001000019000BF00BF01223C218548FEF7D5
:103A900091F900224FF4FF718348FEF78BF9002261
:103AA0004FF480617F48FEF785F9012240217E486E
:103AB000FEF780F9012210217C48FEF77BF90122F4
:103AC00041F201017A48FEF775F900224FF4704186
:103AD0007848FEF76FF940F2012002900020039031
:103AE0000120049002A97448FEF754F83C2002908B
:103AF0000120039004900220059002A96948FEF776
:103B000049F84FF4FF7002900120039000200490C8
:103B1000059002A96448FEF73DF84FF480600290DA
:103B20000120039000200490059002A95D48FEF753
:103B300031F84FF47040029001200390002004906F
:103B4000059002A95B48FEF725F8012002904FF48A
:103B5000881003900120049002A95448FEF71AF837
:103B60008020029001200390049002A95248FEF7A1
:103B700011F840200290002003900120049002A937
:103B80004D48FEF707F84020029001200390049072
:103B9000059002A94448FDF7FDFF092002904FF46B
:103BA000041003900120049002A93F48FDF7F2FFA2
:103BB0000720029000200390049002A93F48FDF7DF
:103BC000E9FF01200290002003900120049002A947
:103BD0003648FDF7DFFF102002900120039004908B
:103BE0000220059002A93148FDF7D4FF3020029051
:103BF0004FF4041003900120049002A92F48FDF710
:103C0000C9FF4FF48050029001200390049005906A
:103C100002A92748FDF7BEFF0120029003900490FF
:103C20000220059002A92248FDF7B4FF022002906D
:103C300000200390012004900020059002A91B4859
:103C4000FDF7A8FF042002900120039000200490BB
:103C5000059002A91548FDF79DFF002206210846A0
:103C6000FEF75EF90620FEF74BF900220521092038
:103C7000FEF756F90920FEF743F9002205210A2034
:103C8000FEF74EF90A20FEF73BF900220521172026
:103C9000FEF746F91720FEF733F907B000BD000024
:103CA00030380240001C0240001802400000024070
:103CB00000040240000C02400020024000080240C4
:103CC00000B595B0002011901290139014900F90B1
:103CD00010901C2108A8FCF731FB20216846FCF756
:103CE0002DFB304830490860A720486000212E484D
:103CF000816044F61F61C160002101614161816101
:103D0000FEF7ECFD08B1FCF738FF4FF4805011903E
:103D100011A92548FEF746FF08B1FCF72EFF2248FF
:103D2000FFF74BFA08B1FCF728FF00200F90109026
:103D30000FA91D48FEF778FD08B1FCF71EFF6020B3
:103D400008904FF47A70099000200A900B900C9024
:103D50000D900E90002208A91348FFF7ACF908B1A6
:103D6000FCF70BFF042208A90F48FFF7A4F908B1DC
:103D7000FCF703FF00200090019002900390049054
:103D80004FF4005005900020079069460648FEF762
:103D900011FD08B1FCF7F1FE0348FFF755F815B027
:103DA00000BD0000000001408C01002000B595B06E
:103DB000002011901290139014900F9010901C21DD
:103DC00008A8FCF7BBFA20216846FCF7B7FA304890
:103DD00030490860A720486000212E48816044F6E1
:103DE0001F61C1600021016141618161FEF776FDC3
:103DF00008B1FCF7C2FE4FF48050119011A925487C
:103E0000FEF7D0FE08B1FCF7B8FE2248FFF7D5F95F
:103E100008B1FCF7B2FE00200F9010900FA91D48CA
:103E2000FEF702FD08B1FCF7A8FE602008904FF4F1
:103E30007A70099000200A900B900C900D900E90D3
:103E4000002208A91348FFF736F908B1FCF795FEE0
:103E5000042208A90F48FFF72EF908B1FCF78DFEE0
:103E60000020009001900290039004904FF40050C5
:103E700005900020079069460648FEF79BFC08B1B4
:103E8000FCF77BFE0348FEF7DFFF15B000BD000026
:103E900000040140AC02002010B50B480B4908603B
:103EA0004FF4E1304860002108488160C160016141
:103EB0000C21416100218161C161FFF7B9FB08B1AB
:103EC000FCF75BFE10BD0000007C00403C030020BE
:103ED00010B50A480A4908600A48486000210848A5
:103EE0008160C16001610C21416100218161C1617A
:103EF000FFF79EFB08B1FCF740FE10BD001001402B
:103F000080030020A086010000BFFEE710B501215C
:103F10000648FDF747FF012803D100200449086047
:103F200002E001200249086010BD000000000240CC
:103F30001401002010B52DED0A8B0446D4F8580169
:103F40000088D4F858110989401A00EE100AB8EE1A
:103F5000C00A84ED5A0A94ED5A0ADFED3E0AB4EE27
:103F6000E00AF1EE10FA08D294ED5A0ADFED3A0AAF
:103F700030EE200A84ED5A0A10E094ED5A0ADFED83
:103F8000370AB4EEE00AF1EE10FA07DD94ED5A0AB2
:103F9000DFED310A30EE600A84ED5A0A94ED620AD0
:103FA000B8EEC00AD4ED5A0A30EE200ABDEEC00ABF
:103FB00084ED620AD4F88801FCF753FB41EC1C0B3A
:103FC0009FED270B53EC102BFCF76AFA41EC1B0B0F
:103FD0009FED250B53EC102BFCF7D4FA41EC1A0B98
:103FE0009FED230B53EC102BFCF7CCFA41EC190B93
:103FF0009FED210B53EC102BFCF7C4FA41EC180B8E
:10400000FCF740FBC4F89001D4F88801FCF729FBC9
:1040100041EC1B0B9FED120B53EC102BFCF740FAFD
:1040200041EC1A0B9FED120B53EC102BFCF7AAFA84
:1040300041EC190B9FED100B53EC102BFCF7A2FA7F
:1040400041EC180BFCF71EFBC4F89401BDEC0A8B85
:1040500010BD0000000080C5000000460000804543
:1040600000000000008076400000000000003340A7
:10407000000000000000C0400000000000002440DC
:10408000B0F98C11002901DB0A4600E04A4242F2F5
:1040900010739A4205D1D0F89811491CC0F89811B4
:1040A00002E00021C0F89811D0F89811B1F52F7FE7
:1040B00003D30121A0F89C1102E00021A0F89C117B
:1040C0007047D0F858118988A0F88E117047000009
:1040D000D0F85811B1F9021000EE101AB8EEC00A6B
:1040E000DFED050A20EE200AF2EE040A20EE200A97
:1040F00080ED5C0A70470000F1A23E3B00BFFEE786
:10410000B0EE401A10B99FED790A704790ED100A91
:1041100080ED110A90ED0F0A80ED100AC0ED060A3D
:1041200080ED071A30EEC10A80ED0F0A01780029F0
:1041300075D190ED010AD0ED0F1A20EE210A80ED25
:10414000090A90ED0A0AD0ED021A90ED0F2A01EE4D
:10415000820A80ED0A0A90ED0D0A80ED0E0A90EDBC
:104160000C0A80ED0D0A90ED0F0AD0ED101A30EE1A
:10417000610A80ED0C0A90ED030AD0ED0C1A20EED6
:10418000210A80ED0B0A90ED0A0AD0ED051AB4EE73
:10419000E10AF1EE10FA04DD90ED050A80ED0A0A5D
:1041A00010E090ED0A0AD0ED051AF1EE611AB4EEB6
:1041B000E10AF1EE10FA05D290ED050AB1EE400ADF
:1041C00080ED0A0A90ED090AD0ED0A1A30EE210AB4
:1041D000D0ED0B1A30EE210A80ED080A90ED080AA6
:1041E000D0ED041AB4EEE10AF1EE10FA04DD90ED20
:1041F000040A80ED080A76E090ED080AD0ED041A72
:10420000F1EE611AB4EEE10AF1EE10FA6BD290ED24
:10421000040AB1EE400A80ED080A64E0FFE7017885
:10422000012960D190ED0F0AD0ED101A30EE610A2D
:10423000D0ED011A20EE210A80ED090A90ED020A64
:10424000D0ED0F1A20EE210A80ED0A0A90ED0D0A3A
:1042500080ED0E0A90ED0C0A80ED0D0A90ED0F0A2C
:10426000D0ED101AB0EE002A02EE610AD0ED111A5C
:1042700030EE210A80ED0C0A90ED030AD0ED0C1A05
:1042800020EE210A80ED0B0A90ED090AD0ED0A1A02
:1042900030EE210AD0ED0B1A30EE210AD0ED081ACB
:1042A00030EE210A80ED080A90ED080AD0ED041ADC
:1042B000B4EEE10AF1EE10FA04DD90ED040A80EDAF
:1042C000080A10E090ED080AD0ED041AF1EE611A28
:1042D000B4EEE10AF1EE10FA05D290ED040AB1EE67
:1042E000400A80ED080A90ED080A0EE70000000081
:1042F00000B102B97047017092ED001A80ED011A09
:1043000092ED011A80ED021A92ED021A80ED031A65
:1043100080ED040AC0ED050A9FED0C1A80ED0E1A1F
:1043200080ED0D1A80ED0C1A9FED081A80ED081A29
:1043300080ED0B1A80ED0A1A80ED091A80ED111A32
:1043400080ED101A80ED0F1A00BFD3E700000000C7
:1043500010B5234B1B685B6943F04003204C246875
:1043600063611F4B1B68DB6843F010031C4C24681F
:10437000E3601C4B1B681B6823F00103194C246885
:10438000236007E0174B1B681B6823F00103154CE3
:1043900024682360134B1B681B6803F00103002B88
:1043A000F0D1114B0F4C2468A3600E4B1B68D860F2
:1043B0000C4B1B6819610B4B1B685A60094B1B683F
:1043C0001B6843F48023074C24682360054B1B685B
:1043D0001B6843F00103034C2468236010BD0000F8
:1043E00080030020240400200410014010B52DEDAE
:1043F000048B35480078012836D134480068B0F97C
:10440000060040F21321884214DB30490968B1F9F3
:104410000600FCF726F941EC190B9FED2D0B53EC30
:10442000102BFCF73DF841EC180BFCF72BF92A494F
:10443000086003E04FF47A70274908602648006856
:1044400026490968486324480068B0F57A7F06D198
:1044500000224FF400512248FDF7ACFC04E0012299
:1044600051031F48FDF7A6FC1748007840BB1D48C4
:10447000006818B94FF4A56017490860194800682A
:10448000032803D14FF47A70134908601548006877
:10449000052810D14FF4A5600F4908601248006844
:1044A000012808D1114890ED000A114880ED000A5A
:1044B00000200D49086008480068084909684863F9
:1044C000BDEC048B10BD0000320100208C5E00208A
:1044D000666666666666FE3FF4000020AC02002059
:1044E00000100240D80000202C01002024010020F0
:1044F0002801002010B50446204602F005FD10BD3D
:1045000010B52DED048B2348FFF7E2FD2148FFF79E
:1045100011FD2048FFF7D5FD1E48FFF7B1FD1E48ED
:10452000FFF7D6FD1C48FFF705FD1B48FFF7C9FD47
:104530001948FFF7A5FD1948FFF7CAFD1748FFF70F
:10454000F9FC1648FFF7BDFD1448FFF799FD144824
:10455000FFF7BEFD1248FFF7EDFC1148FFF7B1FD74
:104560000F48FFF78DFDFFF7D1FC0E480068FCF700
:10457000A8F841EC190B9FED0C0B53EC102BFBF73B
:10458000E8FE41EC180BFCF7AFF806490860BDECFB
:10459000048B10BDCC5700202C5B00207C590020E0
:1045A000DC5C0020240100207B14AE47E17A843FCC
:1045B00010B5044802F05CFC034800780349087019
:1045C00010BD00008C5E0020300100203101002071
:1045D00010B54FF0E020006903F004FC012801D081
:1045E00003F04EF810BD000000B593B0302107A8CD
:1045F000FBF7A4FE142102A8FBF7A0FE00BF0020D9
:1046000001902648006840F0805024490860084620
:10461000006800F08050019000BF00BF00BF002084
:1046200001901F48006840F440401D49086008465A
:10463000006800F44040019000BF00BF01200790D7
:104640000004089002200D9041050E9108210F9161
:10465000F0211091022111910421129107A8FDF778
:1046600059FE08B1FCF789FAFDF7ACFC08B1FCF77C
:1046700084FA0F20029002200390002004904FF44F
:10468000A05005904FF480500690052102A8FDF738
:10469000DFFC08B1FCF771FA13B000BD40380240EE
:1046A000007000400348006840F470000149086051
:1046B0007047000088ED00E010B50248FEF7F9FAF7
:1046C00010BD00008C01002010B50268294B9842F3
:1046D0000ED0B0F1804F0BD0274B984208D0274B1B
:1046E000984205D0264B984202D0264B984203D1DF
:1046F00022F070024B681A431E4B984220D0B0F152
:10470000804F1DD01C4B98421AD01C4B984217D09A
:104710001B4B984214D01B4B984211D01A4B984215
:104720000ED01A4B98420BD0194B984208D0194B17
:10473000984205D0184B984202D0184B984203D1AA
:1047400022F44072CB681A4322F080034C6943EA9A
:10475000040202608B68C3620B688362054B984257
:1047600002D0084B984201D10B69036301234361D6
:1047700010BD00000000014000040040000800409F
:10478000000C004000040140004001400044014092
:104790000048014000180040001C0040002000407C
:1047A00030B501F01F05012404FA05F3046A9C43A7
:1047B0000462046A01F01F0502FA05F52C43046245
:1047C00030BD30B50C46816821F47F4142EA0325B3
:1047D00025432943816030BD0A46816821F070017C
:1047E00042F00703194381607047000030B5056A45
:1047F00025F001050562026A4368846924F07004AB
:1048000024F003040D682C4322F002028D682A4331
:10481000104DA84200D103E00F4DA84206D100BFC1
:1048200022F00802CD682A4322F00402094DA84272
:1048300002D0094DA84207D123F4807323F40073FA
:104840004D692B438D692B43436084614D684563FB
:10485000026230BD000001400004014030B5056A2D
:1048600025F010050562026A4368846924F4E04477
:1048700024F440740D6844EA052422F020028D6877
:1048800042EA0512124DA84200D103E0114DA842A0
:1048900007D100BF22F08002CD6842EA051222F063
:1048A00040020B4DA84202D00A4DA84209D123F480
:1048B000806323F400634D6943EA85038D6943EA0D
:1048C0008503436084614D688563026230BD0000EA
:1048D000000001400004014030B5056A25F48075F0
:1048E0000562026A4368C46924F0700424F003047A
:1048F0000D682C4322F400728D6842EA0522124DA5
:10490000A84200D103E0114DA84207D100BF22F414
:104910000062CD6842EA052222F480620A4DA84274
:1049200002D00A4DA84209D123F4805323F4005346
:104930004D6943EA05138D6943EA05134360C46179
:104940004D68C563026230BD0000014000040140B3
:1049500030B5056A25F480550562036A4468C2696A
:1049600022F4E04222F440720D6842EA052223F468
:1049700000538D6843EA0533084DA84202D0084D24
:10498000A84204D124F480444D6944EA851444606B
:10499000C2614D680564036230BD00000000014043
:1049A0000004014030B50B461446026A056A25F042
:1049B00001050562816921F0F00141EA041122F04C
:1049C0000A021A438161026230BD30B50B461446BB
:1049D000056A25F0100505628169026A21F47041BB
:1049E00041EA043122F0A00242EA0312816102622C
:1049F00030BD000008B54248006800F010000028F3
:104A000079D000BF002000903E4800680068009008
:104A10003C4800684068009000BF00BF3948806B88
:104A20000068006800F4002090BB3648806B006886
:104A3000006820F001003349896B0968086031483B
:104A4000806B00684068C0F500702F4908804FF403
:104A500000702C49896B096848602A48806B00689F
:104A6000006840F400202749896B096808602548E0
:104A7000806B0068006840F001002249896B09687A
:104A80000860214802882149214800F0BFFA32E03D
:104A9000FFE71C48806B0068006820F0010019499E
:104AA000896B096808601748806B00684068C0F52A
:104AB0000070154908804FF400701249896B09682D
:104AC00048601048806B0068006820F400200D49A1
:104AD000896B096808600B48806B0068006840F0CB
:104AE00001000849896B096808600748028809497C
:104AF000074800F08BFA0348FEF72AFC08BD0000C7
:104B0000007C00403C0300200C000020284F0020C7
:104B1000285300202851002070B50546AC6B0020BA
:104B2000E085E0842046FEF711FC70BD00BF00BFA9
:104B300002680C3252E8002F22F4907102680C32A5
:104B400042E80013002BF3D100BF00BF00BF026892
:104B5000143252E8002F22F001010268143242E8B8
:104B60000013002BF3D100BF016B01290ED100BF50
:104B700000BF02680C3252E8002F22F010010268D8
:104B80000C3242E80013002BF3D100BF202180F843
:104B90003E1000210163704710B504462068C068CC
:104BA00020F040002168C860202084F83D002046A5
:104BB000FEF749FE002010BDF8B5044694F83E000B
:104BC000222873D1A068B0F5805F0CD1206950B95C
:104BD0000025A66A20684068C0F308003080A06AFB
:104BE000801CA06215E0A56A0026A068B0F5805F71
:104BF00003D0A06828B9206918B9206840682870D7
:104C000004E02068406800F07F002870A06A401C23
:104C1000A062E08D401E80B2E085002844D120686B
:104C2000C06820F020002168C8602068C06820F4B7
:104C300080702168C8602068406920F00100216808
:104C40004861202084F83E00206B012826D10020F6
:104C5000206300BF00BF21680C3151E8001F21F024
:104C6000100021680C3141E80002002AF3D100BF96
:104C70002068006800F0100010280AD100BF002052
:104C8000009020680068009020684068009000BF95
:104C900000BFA18D2046FEF758FB02E02046FEF73C
:104CA000D1FD0020F8BD01E00020FBE70220F9E77C
:104CB0002DE9F84F04462068006920F44050E1686F
:104CC0000843216808612169A068084361690843B5
:104CD000E169084300902068C06849F20C6188438C
:104CE000009908432168C8602068406920F440703A
:104CF000A16908432168486176492068884203D049
:104D000075492068884203D1FDF79CFA814602E08C
:104D1000FDF788FA8146E069B0F5004F6CD10220BA
:104D20006168A0FB015003461920A9FB00700146F1
:104D30002A463846FBF7B8FA6421B0FBF1F04FEA97
:104D4000001A02206168A0FB01510B461920A9FB43
:104D500000712A463846FBF7A7FA834602206168AD
:104D6000A0FB015003461920A9FB00712A463846D2
:104D7000FBF79AFA6421B0FBF1F000EBC00101EB04
:104D80000010ABEB8000322101EBC0006421B0FBCE
:104D9000F1F000F0F8000AEB400A02206168A0FB85
:104DA000015003461920A9FB007001462A463846E7
:104DB000FBF77AFA834602206168A0FB01500346A4
:104DC0001920A9FB00712A463846FBF76DFA6421C9
:104DD000B0FBF1F000EBC00101EB0010ABEB800089
:104DE000322101EBC0006421B0FBF1F000F00700BC
:104DF0005044216888606AE004206168A0FB01508B
:104E000003461920A9FB007001462A463846FBF7E5
:104E10004BFA824604206168A0FB0150034619202A
:104E2000A9FB007001462A463846FBF73DFA64218B
:104E3000B0FBF1F000EBC00101EB0010AAEB800029
:104E4000322101EB00106421B0FBF1F000F0F00A18
:104E500004206168A0FB017003461920A9FB0051E2
:104E60003A462846FBF720FA6421B0FBF1F00AEB42
:104E7000001A04206168A0FB01510B461920A9FB10
:104E800000712A463846FBF70FFA83460420616812
:104E9000A0FB015003461920A9FB007001462A46D9
:104EA0003846FBF701FA6421B0FBF1F000EBC001DA
:104EB00001EB0010ABEB8000322101EB001064210C
:104EC000B0FBF1F000F00F00504421688860BDE8AD
:104ED000F88F00000010014000140140014691F8D5
:104EE0003D00212828D18868B0F5805F0BD1086982
:104EF00048B90A6A1088C0F308000B685860086A4D
:104F0000801C086205E00B6A581C086218780B6860
:104F10005860C88C401E80B2C88458B90868C06800
:104F200020F080000B68D8600868C06840F040003E
:104F30000B68D860002070470220FCE710B501F034
:104F4000F1FA0248FEF704FA10BD000080030020C9
:104F500000BFFEE702480068C0F30220704700006F
:104F60000CED00E010B5002804DB0A07130E054A1B
:104F7000135406E00A07140E034A00F00F031B1F28
:104F8000D45410BD00E400E018ED00E0EFF305801C
:104F90007047EFF31080704702E008C8121F08C185
:104FA000002AFAD170477047002001E001C1121FAA
:104FB000002AFBD1704780F31088704770B5044613
:104FC0000026FFF7E6FF054672B661682069884251
:104FD00001D920682061206906782069401C206181
:104FE000A068401CA060E068401EE0602846FFF713
:104FF000E2FF304670BD034619608818401E5860B5
:105000009A600020D8601961596170472DE9F04716
:10501000044688461546FFF7BCFF824672B6B8F1D3
:10502000000F00D13CE0A06800B939E06168606918
:10503000884201D920686061A068A84201DD284645
:1050400000E0A068054661696068401A461CAE42EF
:1050500009DB2E46324641466069FBF756F9606926
:10506000304460610FE0A5EB0609324641466069B5
:10507000FBF74BF908EB06014A462068FBF745F9B8
:10508000206848446061A068401BA060E068284434
:10509000E0602F465046FFF78EFF3846BDE8F087A8
:1050A0005046FFF788FF4FF0FF30F7E70146C8682A
:1050B0007047000030B5034613B94FF6FF7030BD9E
:1050C00009E013F8014B82EA0400C0B2054D35F83F
:1050D000100080EA2222081EA1F10101F1D1104640
:1050E000EDE70000FA83000830B5034605E013F849
:1050F000010B80EA02040448025D081EA1F10101CF
:10510000F5D1104630BD0000F98200080048704714
:10511000584E002010B5354B1B685B6943F04003C7
:10512000324C24686361314B1B68DB6843F0100329
:105130002E4C2468E3602E4B1B681B6823F0010390
:105140002B4C2468236007E0294B1B681B6823F065
:105150000103274C24682360254B1B681B6803F060
:105160000103002BF0D1224B1B68224CA34204D92F
:10517000E314204C4C3C236019E01D4B1B681E4C73
:10518000A34204D9E3141B4C503C23600FE0184B9E
:105190001B68194C603CA34204D9E314164CB83C7C
:1051A000E36004E04FF40063134CB83CA360134B7E
:1051B0000F4C2468A3600E4B1B68D8600C4B1B6817
:1051C00019610B4B1B685A60094B1B681B6843F441
:1051D0008023074C24682360054B1B681B6843F041
:1051E0000103034C2468236010BD00003C03002031
:1051F000C403002058640240B8600240047C0040B0
:1052000010B51D480021016001711C480160017149
:105210001B4801604160018181721A4801702021A0
:105220001948FBF78BF81948002101601848016004
:10523000184801808170184801801B211748FBF72E
:105240007DF810211648FBF779F810211548FBF777
:1052500075F8154800210170144801701448017058
:105260001448016081808171134801608180134876
:1052700001604160816010BDA2000020A7000020F5
:10528000B64E0020AC000020C14E0020AD00002032
:10529000B1000020B5000020B8000020E14E002041
:1052A000FC4E00200C4F0020BA000020BB00002064
:1052B000BC000020BD000020C40000201C4F0020C6
:1052C000FCF790FDFFF790F9FEF750FBFEF7FEFAB2
:1052D000FEF7BCFAFEF7DAFAFEF7F2FCFEF766FD1F
:1052E000FEF7DAFDFEF7F4FD0848FDF7B9FB0021F3
:1052F0000648FDF797FFFBF709FB00F009F9FEF7F9
:1053000019FB00F01BF900BFFEE70000AC02002013
:1053100010B504469FED1A0A84ED360A9FED190A6E
:1053200084ED370A9FED160A84ED480A9FED150AB1
:1053300084ED490A94ED611AF0EE410A94ED641A85
:10534000B8EEC11AB0EE410A04F58870FEF7D8FE37
:1053500084ED5F0A94ED5F1AF0EE410A94ED5C1A59
:10536000B0EE410A04F1C800FEF7CAFE94ED3A0A15
:10537000BDEEC00A10EE100A00B2A4F88C0110BDF8
:105380000060EA460000FA4410B504469FED1A0A90
:1053900084ED360A9FED190A84ED370A9FED160A4F
:1053A00084ED480A9FED150A84ED490A94ED611ACF
:1053B000F0EE410A94ED651AB8EEC11AB0EE410A5A
:1053C00004F58870FEF79CFE84ED5F0A94ED5F1A89
:1053D000F0EE410A94ED5C1AB0EE410A04F1C80007
:1053E000FEF78EFE94ED3A0ABDEEC00A10EE100AEA
:1053F00000B2A4F88C0110BD00401C460000FA4425
:1054000010B504469FED1A0A84ED360A9FED190A7D
:1054100084ED370A9FED160A84ED480A9FED150AC0
:1054200084ED490A94ED611AF0EE410A94ED641A94
:10543000B8EEC11AB0EE410A04F58870FEF760FEBE
:1054400084ED5F0A94ED5F1AF0EE410A94ED5C1A68
:10545000B0EE410A04F1C800FEF752FE94ED3A0A9C
:10546000BDEEC00A10EE100A00B2A4F88C0110BD07
:105470000060EA460000FA4410B504469FED1A0A9F
:1054800084ED360A9FED190A84ED370A9FED160A5E
:1054900084ED480A9FED150A84ED490A94ED611ADE
:1054A000F0EE410A94ED641AB8EEC11AB0EE410A6A
:1054B00004F58870FEF724FE84ED5F0A94ED5F1A10
:1054C000F0EE410A94ED5C1AB0EE410A04F1C80016
:1054D000FEF716FE94ED3A0ABDEEC00A10EE100A71
:1054E00000B2A4F88C0110BD0060EA460000FA4446
:1054F00070B50546FFF74AFD10B16FF0050404E0F2
:10550000002415B1284601F0A7FE204670BD00001A
:1055100010B5FFF73BFD10B16FF0050409E0064838
:10552000006820B9012004490860002401E04FF020
:10553000FF34204610BD00007000002070B5FFF75A
:1055400025FD10B16FF005041FE011480068012827
:1055500019D100BF801F0021002804DB0A07130EA9
:105560000C4A135406E00A07150E0B4A00F00F030D
:105570001B1FD55400BF00BF02200549086001F081
:10558000E7FE002401E04FF0FF34204670BD00002C
:105590007000002000E400E018ED00E02DE9FF4776
:1055A00080468946144600200390FFF7EFFC002850
:1055B0004ED1B8F1000F4BD0802618258246471EE9
:1055C00044B3206808B1D4F800A0A06900B1A5696F
:1055D0002DB1382D03D8207900F0010018B100203A
:1055E00004B0BDE8F087606908B160698608A0680A
:1055F00040B1E0685C2805D3206918B1606908B142
:10560000012708E0A06830B9E06820B9206910B926
:10561000002700E00027012F0CD12169A0684B462C
:105620003246CDE9005102905146404602F07CFBE3
:1056300003900DE067B903A8B2B24B465146CDE9DD
:105640000050404602F03EFB012801D000200390AC
:105650000398C5E72DE9F04105460E461648076850
:1056600016480068001D01F06FFC681C38B936B19F
:1056700012480168091D124801F0BCFC1AE07C19AF
:105680000E4800684460BC4207D20C480168091DFE
:105690000C48006801F094FC0CE008480168091D02
:1056A0000948006801F08CFC08480068844201D277
:1056B00006480460BDE8F08134000020200000208E
:1056C0007409002028000020240000205000002041
:1056D00010B5044601F09AFC24480068401C234998
:1056E00008602348006840B9214804600846006803
:1056F00001280DD100F0FCF90AE01E48006838B915
:105700001B480068C06AE16A884201D818480460F2
:1057100019480068401C1849086008460068606421
:105720001649E06A0968884202D91449E06A0860AB
:10573000E16A01EB8101124A02EB8100211D01F0B7
:1057400059FC01F08DFC0B48006868B108480068FE
:10575000C06AE16A884207D24FF080500949086068
:10576000BFF34F8FBFF36F8F10BD000030000020DC
:10577000200000203C0000204C00002038000020C9
:10578000C404002004ED00E008B501F03FFC12481D
:105790000068E8B9114801F003FC114801F000FC71
:1057A0000E48104908600E480F49086000200F4B52
:1057B0000F4A102100900A2001F07CFF0649086082
:1057C0000846006820B10BA10348006801F008FDFD
:1057D00001F046FC08BD000064000020880900209C
:1057E0009C0900205C00002060000020B00900201F
:1057F000000A0020546D72510000000010B516E040
:1058000001F004FC0C48C068C468201D01F09CFB3A
:105810000A480068401E0949086009480068401E9F
:105820000749086001F01CFC204600F05FF80448BE
:1058300000680028E4D110BD60090020300000207D
:105840002C00002070B504460D46206C70B1216C10
:10585000E0680144E160D4E90210884201D3216884
:10586000E1602846226CE168FAF74FFD70BD2DE932
:10587000F04104460F4615464FF00008A66B206C19
:1058800048B9206800282CD1A06802F063FB80464C
:105890000020A06025E07DB93946226C6068FAF7E7
:1058A00034FD216C606808446060D4E901018842DD
:1058B00017D32068606014E03946226CE068FAF77C
:1058C00024FD216CE068411AE1602168E0688842AB
:1058D00003D2216CA068411AE160022D01D106B10A
:1058E000761E701CA0634046BDE8F08110B50446EA
:1058F00094F8590030B9206B01F0D0FB204601F03C
:10590000CDFB1AE094F85900012803D1204601F09C
:10591000C5FB12E094F85900022801D1012000E0F3
:10592000002050B900BF502080F31188BFF34F8F83
:10593000BFF36F8F00BF00BFFEE710BD0146084AEE
:10594000126812680AB9012200E000220A600A689F
:1059500022B9034A1268D268106800E0002070473C
:105960005C00002030B54FF47053174800F0070476
:105970002CB1C01D20F00700134C041B1B1B02465A
:10598000124C22600024114D6C60D018083820F0B1
:1059900007000F4C206000240D4D2D686C600C4DED
:1059A0002D682C601146441A4C60094C24680C6028
:1059B000084D4C682C60084D4C682C604FF000443A
:1059C000064D2C6030BD00005811002074000020EE
:1059D0007C00002084000020800000209000002037
:1059E00000BFFFF70BFF064800680128F9D94FF008
:1059F000805004490860BFF34F8FBFF36F8FF0E70B
:105A0000C404002004ED00E02DE9F04106460D46F7
:105A100017469846069C0DB9246000E02760E663AF
:105A200025640121204601F0B5FE84F84C80BDE8D4
:105A3000F0812DE9F05F82460E4690469B460A9F14
:105A40000C9C4FEA8801A522206BFAF770FCA8F1A4
:105A50000100216B01EB800929F0070909F007001B
:105A600008B9012000E0002050B900BF502080F3A9
:105A70001188BFF34F8FBFF36F8F00BF00BFFEE7EA
:105A800086B1002507E0715D04F134004155705D79
:105A900000B902E06D1C102DF5D300BF002143209A
:105AA000015502E0002084F83400382F00D3372756
:105AB000E762E76400202065201D01F07EFA04F112
:105AC000180001F07AFA2461C7F13800A06164621D
:105AD0000020606584F858005A465146484600F058
