:020000040800F2
:10000000A0CC002031020008857A000809540008BD
:10001000C579000861180008519C00080000000024
:1000200000000000000000000000000051840008F3
:100030009D20000800000000C18100080185000823
:100040004B0200084B0200084B0200084B0200085C
:100050004B0200084B020008A12000084B020008D8
:100060004B020008AD200008B92000084B02000830
:100070004B0200084B0200084B0200084B0200082C
:100080004B0200084B0200084B0200084B0200081C
:10009000651800084B0200084B020008C520000844
:1000A0004B0200084B0200084B0200084B020008FC
:1000B0004B0200084B0200084B0200084B020008EC
:1000C0004B0200084B0200084B0200084B020008DC
:1000D0004B0200084B0200084B020008058C000888
:1000E0004B0200084B0200084B0200084B020008BC
:1000F0004B0200084B0200084B0200084D1D00088F
:100100004B0200084B0200084B0200084B0200089B
:100110004B0200084B0200084B0200084B0200088B
:100120004B020008B11D00084B0200084B020008FA
:100130004B0200084B0200084B0200084B0200086B
:10014000751800084B0200084B020008117D0008DA
:10015000C11D0008D11D0008E11D0008CD8C00085C
:100160004B0200084B0200084B0200084B0200083B
:100170004B0200084B0200084B0200080000000080
:100180004B0200084B02000800F002F800F040F8B3
:100190000AA090E8000C82448344AAF10107DA45E2
:1001A00001D100F035F8AFF2090EBAE80F0013F0F4
:1001B000010F18BFFB1A43F001031847D4EF0000EA
:1001C000F4EF0000103A24BF78C878C1FAD852077B
:1001D00024BF30C830C144BF04680C6070470000C1
:1001E0000023002400250026103A28BF78C1FBD840
:1001F000520728BF30C148BF0B6070471FB50EF0D3
:100200007FF89DE8030000F02BFF1FBD10B510BD67
:1002100000F0AAFF1146FFF7F1FF0AF0BFFB00F064
:10022000C8FF03B4FFF7F2FF03BC00F0FFFF0000BC
:100230000948804709480047FEE7FEE7FEE7FEE77A
:10024000FEE7FEE7FEE7FEE7FEE7FEE704480549B6
:10025000054A064B70470000C9850008890100085F
:10026000A08C0020A0CC0020A0AC0020A0AC0020DE
:100270009FED1A1AF5EE000A40EE010ABDEEE00A03
:10028000F5EEC00A10EE100AF1EE10FA38BF401E6B
:1002900000EE100A1349F7EE001AB8EEC00A30EE6D
:1002A000C00ADFED0F0A20EE200AFCEEC00A10EEB5
:1002B000900AC0F3080000EE900A01EB8000F8EE0F
:1002C000600A90ED011A70EE600A90ED000A71EE7E
:1002D000E01A21EE800A00EE810A704783F9223E7F
:1002E0000000004448E40008DFED190AB5EEC00A3A
:1002F00060EE200ABDEEE01A11EE100AF1EE10FADF
:1003000038BF401E00EE100A1349F7EE001AB8EE8F
:10031000C00A30EEC00ADFED0F0A60EE200ABCEE24
:10032000E00A10EE100AC0F3080000EE100A01EB1C
:100330008000B8EE400A90ED011A70EEC00A90ED10
:10034000000A71EEE01A21EE800A00EE810A704781
:1003500083F9223E0000004448E4000870B4058898
:100360000E884468D1F804C05368B54208D140886B
:100370004988884201BF11888D425188884203D044
:1003800070BC6FF00200704705FB00F1880827D0B1
:1003900094ED001ADCED000A94ED010ADCED011A7F
:1003A00031EE201AD4ED020A70EE211A9CED020AF9
:1003B00083ED001AC3ED011A94ED031ADCED031A64
:1003C00030EE800A401E71EE210A83ED020A04F12C
:1003D0001004C3ED030A03F110030CF1100CD7D184
:1003E00011F0030030D0B0F1004F30D200282BDDE7
:1003F000211F1B1FACF1040210F0010F0AD091ED78
:10040000010AD2ED010A091D121D30EE200A83ED0A
:10041000010A1B1D400817D091ED010AD2ED010A17
:10042000401E30EE200A83ED010A91ED020AD2ED62
:10043000020A01F1080102F1080230EE200A83ED00
:10044000020A03F10803E7D170BC00207047B4EC46
:10045000010A401EFCEC010A30EE200AA3EC010A5E
:10046000F5D1F1E701804280436070472DE9F34FF9
:1004700084B0049840680090486801900498B0F8EF
:1004800000E04588DFEDFE0A00200290B0EE600A31
:10049000AE4506D108884988884204BF7146864522
:1004A00004D06FF0020006B0BDE8F08F01985FEA5B
:1004B000010C18BFB7EE001A3DD000BFBEEB0C0117
:1004C00017D0B1F1004F80F01F82002911DD021F0B
:1004D00011F0010F1CBFC2ED010A121D4B1006D016
:1004E000C2ED010AC2ED020A08325B1EF8D100EB30
:1004F0008100BCF10102A0EC011A19D0B2F1004F49
:1005000080F00882002A13DD031F12F0010F1CBFC8
:10051000C3ED010A1B1D511008D000BFC3ED010A35
:10052000C3ED020A491E03F10803F7D100EB820074
:10053000BCF1010CC2D14FF000080395002D14BF8F
:10054000B0EE602A002000F0BF8100BF009908FBD8
:1005500005F001EB800B0199DBED002A01EB800037
:100560000346F0EE421AC64552D9AEEB0802ABEB99
:10057000850112F0010F17D001EB850191ED000A02
:10058000B5EEC00AF1EE10FA07DDB4EEE10AF1EEC5
:1005900010FA09DDF0EE401A06E0B1EE400AF4EE82
:1005A000C01AF1EE10FAF5D3521031D001EB850CE0
:1005B0009CED000AB5EEC00AF1EE10FA05DDB4EECE
:1005C000E10AF1EE10FA09DD06E0B1EE400AF4EEC0
:1005D000C01AF1EE10FA01D2F0EE401A01EBC5019B
:1005E00091ED000AB5EEC00AF1EE10FA05DDB4EEA9
:1005F000E10AF1EE10FA09DD06E0B1EE400AF4EE90
:10060000C01AF1EE10FA01D2F0EE401A521ECDD10E
:10061000F5EEC01AF1EE10FA00F07381F5EEC02A83
:100620000126F1EE10FA0099D4BFB1EE620AB0EEE5
:10063000620AB4EE610AF1EE10FA1CBFAEEB0802DA
:10064000B2F1010C47D005FB08F201EB820292EDFA
:10065000001A00BFB0EE410A05FB06F4B5EEC00A71
:1006600000EB8404F1EE10FACCBFF0EE400AF1EE9C
:10067000400AF4EE610AF1EE10FA28D1B5EB080C4D
:1006800011D0BCF1004F7DD2BCF1000F0BDD00BFDB
:1006900092ED000AD1ED000ABCF1010CE2EC010A76
:1006A000A1EC010AF4D129000ED0B1F1004F6AD2B9
:1006B000002909DD94ED000AD0ED000A491EE4ECA2
:1006C000010AA0EC010AF5D1012002900BE0761C92
:1006D000BCF1010CBED10298012804D0F5EEC02A6D
:1006E000F1EE10FA7ED09BED000AB5EB08009A46B9
:1006F0005946064622D0B0F1004F74D200281DDDC5
:10070000091F10F0010F06D0F0EE400A80EEA01A8B
:1007100081ED011A091D401010D000BFD1ED010A72
:10072000401E80EE801A81ED011A91ED021AC1EE91
:10073000000AC1ED020A01F10801EFD1280026D01C
:10074000B0F1004F7ED2002821DDAAF1040110F0A3
:10075000010F06D0D1ED010A80EE801A81ED011A59
:10076000091D401013D000BFD1ED010A401E80EEDC
:10077000801A81ED011AD1ED020A80EE801A81ED16
:10078000021A01E0CBE0D6E001F10801ECD1DDE98D
:1007900000124FF000095FEA0E0773D0C14504BF95
:1007A00001EB860102EB850274D091ED000ADC4674
:1007B0005046330035D01C46B6F1004F7ED2002C97
:1007C0002FDD0B1FABF1040C16F0010F0FD0F0EE74
:1007D000400ADCED011AB0EE601A00EEE11A83ED7A
:1007E000011A01E08DE0B1E01B1D0CF1040C741046
:1007F00015D000BFD3ED010A9CED011A40EE410A6D
:10080000C3ED010AD3ED020A9CED021A0CF1080CAB
:1008100040EE410AC3ED020A0833641EEAD101EB3F
:1008200086012B0036D0B3F1004F72D2002B31DDA0
:10083000A2F1040CAAF1040013F0010F0CD0DCEDBE
:10084000010A00E08BE090ED011A001D40EE410A24
:10085000CCED010A0CF1040C5C1019D0DCED010A9E
:1008600090ED011A40EE410ACCED010ADCED020ADE
:1008700090ED021A083040EE410ACCED020A03E086
:10088000000000000DE005E0641E0CF1080CE5D14D
:1008900002EB830201EB88017F1E09F101097FF45D
:1008A0007DAF009808F10108001D00900398401EDC
:1008B00003907FF44BAE0299012900E058E004BF99
:1008C00006B0BDE8F08F00BFB5EEC00AF1EE10FA39
:1008D0007FF4E9AD04990EFB05F3002B4A684FF055
:1008E00000010BD902EB810C9CED000AB5EEC00AA9
:1008F000F1EE10FA02D1491C8B42F3D88B427FF4FF
:10090000D2AD6FF00400CEE5E0EC010A491EFBD148
:10091000EFE538E0E0EC010A521EFBD108E692ED6B
:10092000000AD1ED000ABCF1010CE2EC010AA1ECD5
:10093000010AF4D1B7E694ED000AD0ED000A491E91
:10094000E4EC010AA0EC010AF5D1BDE6D1ED000A04
:10095000401E80EE801AA1EC011AF7D1EEE6D3ED2D
:10096000000A401E80EE801AA3EC011AF7D10EE7B0
:10097000BCEC011AD1ED000A5B1E40EE410AE1EC2D
:10098000010AF5D14DE7B0EC011AD2ED000A5B1E69
:1009900040EE410AE2EC010AF5D17BE72DE9F04F88
:1009A00082B0466853680193058847884B880020C9
:1009B00000900888874201BFB2F800C065455288A0
:1009C00093421EBF6FF0020002B0BDE8F08F9FEDB2
:1009D000412A4FEA970EC7F3400B00BFDDE9000242
:1009E00002EB800A4A6898464FF00009B0EE420ACE
:1009F000B4465FEA0E0025D092ED001ADCED001A35
:100A000002EB8302DCED010A01EE810A92ED001A8D
:100A100002EB8302401ED2ED001A02EB830200EECD
:100A2000810A9CED021ADCED030A00040CF1100CA3
:100A3000000C01EE210A92ED001A02EB830200EE97
:100A4000810AD9D117F0030026D0ACF10404A2EB3F
:100A5000830210F0010F08D002EB8302D4ED010AEB
:100A600092ED001A241D00EE810A5FEA0B0013D0FC
:100A700002EB830CD4ED010A9CED001A02EBC302D9
:100A8000401E00EE810AD4ED020A92ED001A04F134
:100A9000080400EE810AEBD109F10100AAEC010A79
:100AA0001FFA80F9486800EB8902A8F101001FFADB
:100AB00080F8B8F1000F99D1009806EB870618442A
:100AC00080B20090681E05042D0C87D102B0002072
:100AD000BDE8F08F0000000070B405880E884468FF
:100AE000D1F804C05368B54208D14088498888428B
:100AF00001BF11888D425188884203D070BC6FF0CD
:100B00000200704705FB00F1880827D094ED001A19
:100B1000DCED000A94ED010ADCED011A31EE601AF9
:100B2000D4ED020A70EE611A9CED020A83ED001A00
:100B3000C3ED011A94ED031ADCED031A30EEC00A7E
:100B4000401E71EE610A83ED020A04F11004C3ED48
:100B5000030A03F110030CF1100CD7D111F00300BC
:100B600030D0B0F1004F30D200282BDD211F1B1FE9
:100B7000ACF1040210F0010F0AD091ED010AD2EDA0
:100B8000010A091D121D30EE600A83ED010A1B1DCA
:100B9000400817D091ED010AD2ED010A401E30EE57
:100BA000600A83ED010A91ED020AD2ED020A01F119
:100BB000080102F1080230EE600A83ED020A03F137
:100BC0000803E7D170BC00207047B4EC010A401E56
:100BD000FCEC010A30EE600AA3EC010AF5D1F1E762
:100BE0002DE9F04F02884768B0F802804888D1F8B4
:100BF000049082B04FF0000A1646824207BF09886F
:100C000088456FF0020002B018BFBDE8F08F4FEAD0
:100C1000980B02EB42000190C8F34000CDF80000B1
:100C200009EB8A01BBF1000F33D0019801EB820C74
:100C300001EB80043B46E64601EBC2054FEA0B00A0
:100C400093ED000A401E81ED000A93ED010A01EBCD
:100C500002118CED000A93ED020A0CEB021C85EDEB
:100C6000000A93ED030A05EB021584ED000A04EB7C
:100C7000021403F11003E3D10EEB820000EB8200BB
:100C800000EB8201ABF10100504307EB0B1701EBC6
:100C9000001118F0030C21D03B1FA1EB82011CF0C6
:100CA000010F06D093ED010A01EB82011B1D81EDBE
:100CB000000A009880B100BF93ED010A01EB8204A5
:100CC00001EBC20184ED000A93ED020A401E81EDA2
:100CD000000A03F10803EFD107EB8C070AF10100CA
:100CE0001FFA80FA701E0604360C99D102B000205B
:100CF000BDE8F08F70B5064600F096F9056806F17C
:100D00000B0020F00704B4429CBF002070BD2B46AE
:100D10006A68BAB11068A04210D304F10801884291
:100D20003CBF5068586007D3516810194160116882
:100D3000091B016058601460101D70BD1346526895
:100D4000002AE7D12146284600F076F90028DED1B6
:100D500070BD70B50446051F00F066F90068002CF0
:100D600014BF446870BD002C18BFAC423CBF204685
:100D70006468F8D301680A18AA4218BF456003D115
:100D80002A6805461144016028684119A1421CBF28
:100D90006C6070BD6168696021680844286070BD3E
:100DA00053EA020C00F069802DE9F04B4FF0000689
:100DB000002B1FBFB3FA83F503FA05F424FA05F6F6
:100DC0005E4012BF1643B2FA82F502FA05F4C5F18D
:100DD00020051EBF22FA05FC44EA0C04203556EA21
:100DE000044C4FEA144418BF641C4FF000084FF045
:100DF0000009904271EB030C39D3002919BFB1FAF5
:100E000081F701FA07F6B0FA80F700FA07F6C7F1A2
:100E100020071EBF20FA07FC46EA0C062037B6FB67
:100E2000F4FCA7EB0507103F07F01F0BCBF12006E2
:100E30002CFA06F60CFA0BFB44BFB3460026202F13
:100E4000A4BF5E464FF0000B5BEA060C08BF4FF0F4
:100E5000010B19EB0B0948EB0608ABFB027C06FB08
:100E600002CC0BFB03CCC01B71EB0C01C1E70B46A2
:100E7000024641464846BDE8F08B13B5084318BF0B
:100E80004FF0FF300146AFF30080BDE81C407047D3
:100E9000032A40F2308010F0030C00F0158011F8A6
:100EA000013BBCF1020F624498BF11F801CB00F87E
:100EB000013B38BF11F8013BA2F1040298BF00F8D2
:100EC00001CB38BF00F8013B11F0030300F025808F
:100ED000083AC0F0088051F8043B083A51F804CBB6
:100EE000A0E80810F5E7121D5CBF51F8043B40F87C
:100EF000043BAFF30080D20724BF11F8013B11F887
:100F000001CB48BF11F8012B24BF00F8013B00F8CA
:100F100001CB48BF00F8012B704710B5203AC0F054
:100F20000B80B1E81850A0E81850B1E81850A0E8BC
:100F30001850203ABFF4F5AF5FEA027C24BFB1E855
:100F40001850A0E8185044BF18C918C0BDE8104098
:100F50005FEA827C24BF51F8043B40F8043B08BFA1
:100F60007047D20728BF31F8023B48BF11F8012B68
:100F700028BF20F8023B48BF00F8012B704702F061
:100F8000FF0343EA032242EA024200F024B84FF092
:100F900000020429C0F0128010F0030C00F01B8046
:100FA000CCF1040CBCF1020F18BF00F8012BA8BF54
:100FB00020F8022BA1EB0C0100F00DB85FEAC17C18
:100FC00024BF00F8012B00F8012B48BF00F8012BCB
:100FD00070474FF0000200B51346944696462039FC
:100FE00022BFA0E80C50A0E80C50B1F12001BFF4E2
:100FF000F7AF090728BFA0E80C5048BF0CC05DF848
:1010000004EB890028BF40F8042B08BF704748BF95
:1010100020F8022B11F0804F18BF00F8012B704709
:10102000704770477047000000487047E00000209C
:10103000704770477047704738B504460A4600202D
:101040006946AFF30080002808BF38BD024600990A
:10105000204600F04FF8012038BD012000F07CB898
:10106000F8B5AFF30080054600200C46102000BF05
:101070000646A819A0420DD9324669460020AFF3B2
:101080000080070008BF00F067F80098A04218BF72
:101090000546C419FFF7C8FF05600746F01D20F09C
:1010A00007004619284600F00AF8B44208BFF8BD08
:1010B000A21B31463868BDE8F84000F01BB800219B
:1010C0000160C0E9011070471020704710B500F0B2
:1010D0000DF8006810BD10B5044600F007F8046074
:1010E00010BD000000487047D8000020004870473D
:1010F000D8000020034640688C46002818BF88426C
:101100003CBF03464068F8D318681844884207D0AB
:101110000CF1030020F00700001D411A521A01468D
:10112000081D0A60FFF715BE1FB584B000200A9C99
:1011300006AB04AA02A90094AFF3008018B1DDE960
:10114000020108B010BD0348204000F040F8002024
:101150000146F6E70000207C10B500F03FF8BDE83E
:10116000104000F02FB870477546FFF7BBFFAE4642
:1011700005006946534620F00700854618B020B5A3
:10118000FFF764F8BDE820404FF000064FF000077D
:101190004FF000084FF0000BAC46ACE8C009ACE8DB
:1011A000C009ACE8C009ACE8C00921F007018D46D0
:1011B000704710B50446AFF300802046BDE81040EC
:1011C000FFF72FB8002801D000F030B8704710B5F5
:1011D00000F04CF8BDE81040FFF7F4BF10B501284F
:1011E00005D0002103A000F027F8012010BD09A1BF
:1011F000F8E7000053494752544D454D3A204F758A
:1012000074206F662068656170206D656D6F7279FE
:10121000000000003A2048656170206D656D6F72B6
:101220007920636F727275707465640001491820CB
:10123000ABBEFEE72600020070B505460C460A204C
:1012400000E06D1C00F068F835B128780028F8D16E
:1012500002E0641C00F060F814B120780028F8D196
:10126000BDE870400A2000F057B8000010B5022811
:1012700003D0410103D50DA112E0002010BD0101F2
:1012800001D50FA10CE0C10001D511A108E081003A
:1012900001D512A104E0400001D513A100E0002116
:1012A00015A0FFF7C9FF012010BD0000496E76614F
:1012B0006C6964204F7065726174696F6E00000024
:1012C000446976696465204279205A65726F00002E
:1012D0004F766572666C6F7700000000556E64652E
:1012E00072666C6F77000000496E657861637420E8
:1012F000526573756C7400005349474650453A2057
:1013000041726974686D657469632065786365709E
:1013100074696F6E3A20000008B569468DF80000C8
:101320000320ABBE08BD000090ED001AB4EE401AD9
:10133000F1EE10FAC8BF80ED000A90ED001AB1EE90
:10134000400AB4EE401AF1EE10FAB8BF80ED000A80
:101350007047000010B542F20432C4F20102116875
:1013600021F440311160D2F800C090E80A4043EA0D
:101370000C03C46813604A6822F480724A600269F0
:101380004B6843EA02224A604A6822F040724A608F
:101390004A6842EA0E024A608A6822F400628A6061
:1013A0008A6822438A60826A8B68012423F0706312
:1013B0008B608B68C0F60074A24202D123F04052C9
:1013C00008E01A438A608A6822F040528A60C26A42
:1013D0008B681A438A608A6822F002028A608A68EF
:1013E000037E90F8204042EA43028A604A6884B152
:1013F00042F400624A604A684EF2000322F46042FE
:101400004A60426ACFF6FF734C6803EB42322243D4
:1014100001E022F400624A60CA6A40F2000C22F441
:101420007002CA62C3694269CFF6F07CCC6A0CEBE9
:1014300003532343CB628B6823F400738B6090F8D3
:1014400030008B6843EA40208860886820F4806020
:101450008860886840EA8220886010BD80B50020DE
:10146000C4F202001021012201F08CFE80BD0000B8
:1014700080B50020C4F202001021002201F082FE9B
:1014800080BD000080B540F20040C4F2020001219E
:10149000012201F077FE80BD80B540F20040C4F229
:1014A00002000121002201F06DFE80BD70B50446EE
:1014B000FFF7DEFF922000F01DF940F26C15C2F23A
:1014C000000512202946062200F0F0F8FFF7C6FFBB
:1014D000B5F9000000EE100A40F20000C2F2000070
:1014E000B8EEC00A90ED001A94ED082A21EE000A29
:1014F00022EE000A84ED000AB5F9021000EE101A7F
:10150000B8EEC00A90ED001A21EE000A22EE000AA1
:1015100084ED010AB5F9040000EE100AB8EEC00A25
:1015200021EE000A22EE000A84ED020AFFF7B4FF62
:10153000002029460822002600F0B8F8FFF7A2FF95
:1015400028780F284AD1B5F9021040F2C40000EE05
:10155000101A40F20401C2F20000C2F20001007849
:10156000B8EEC01A91ED000A20EE011A00B394ED16
:10157000092AB5F9040031EE421A84ED031A01EE8E
:10158000100A94ED0A3A94ED0B4AB5F90610B8EE3C
:10159000C11A20EE011A31EE431A84ED041A01EE4D
:1015A000101AB8EEC11A20EE010A30EE440A13E018
:1015B000B5F9040084ED031A01EE100AB5F906101E
:1015C000B8EEC11A20EE011A84ED041A01EE101AC9
:1015D000B8EEC11A20EE010A84ED050AFFF748FFB4
:1015E000A22000F087F822202946022200F05EF8AF
:1015F000FFF734FF28786978C00040EA51104FF6B1
:101600000001CFF6FF71B6EB902F18BF084300EE34
:10161000100AB8EEC00AB4EE001A20EE010AB3EECA
:10162000071A30EE010A84ED070A70BDB0B50C460A
:1016300040F27411C2F2000140F2F8550860C2F2A3
:1016400000050020287008F055FB29780843287011
:1016500008F0F6FB297840EA010028701CB100F080
:1016600045F92878B0BD40F2381048F2943C48F66D
:10167000C431C2F20000CBF6581C4AF25642C3F6FF
:101680008171CBF623124EF2290341F23F64C0E987
:10169000081C00F12801C3F6A523C4F21B141CC1C9
:1016A0000021C4F2202181612878B0BDB0B540F09E
:1016B000800014460D4600F01DF8002C08BFB0BD98
:1016C000013D00BF552000F015F8013C210605F84A
:1016D000010FF7D1B0BD000080B540F0800000F0F0
:1016E00009F8552000F006F841F61A41C2F200014F
:1016F000087080BD80B582B040F27411C2F2000162
:101700000B688DF807004FF47A7C0DF107010DF19D
:10171000060218460123CDF800C002F0FFFF9DF835
:10172000060002B080BD000010B50C46FFF7E2FFD6
:101730002046FFF7DFFF10BD92ED022A92ED033A3B
:1017400022EE024AB6EE005A35EE444A23EE036A10
:1017500092ED000A92ED011A34EE464A90ED006ACD
:1017600090ED017A26EE044A22EE016A63EE001A39
:10177000D0ED020A36EE616A23EE011A22EE000A6B
:1017800027EE066A31EE000A34EE064A20EE200A01
:1017900030EE040A30EE000A81ED000A92ED000AF4
:1017A00092ED011A92ED022A92ED033A21EE024ADD
:1017B00020EE036A34EE064A90ED006A90ED017A5D
:1017C00026EE044A21EE016A35EE466A63EE031AFC
:1017D000D0ED020A36EE616A22EE032A21EE000AFB
:1017E00026EE076A32EE400A34EE064A20EE200A60
:1017F00034EE000A30EE000A81ED010A92ED000A93
:1018000092ED011A92ED032A92ED023A21EE024A7C
:1018100020EE036A34EE464A90ED006A90ED017ABC
:1018200022EE032A21EE000A21EE011AD0ED020A6F
:1018300030EE020A35EE411A23EE032A26EE044A60
:1018400020EE070A31EE421A34EE000A21EE201A89
:1018500030EE010A30EE000A81ED020A7047000006
:10186000FEE7000080B540F64C10C2F2000000F028
:1018700027FF80BD80B540F67410C2F2000000F072
:101880001FFF80BD10B582B041F6B04CC2F2000C13
:1018900040F2FF1ECCF800E04FF0000ECCE902EE63
:1018A00041F6974E0824C2F2000ECCF81040040A0C
:1018B0008EF80100080A8EF80200100A8EF8040063
:1018C000180A8EF8060040F64C108EF803108EF8B9
:1018D00005208EF80730C2F2000001AB6146724667
:1018E0008EF8004000F09AFD02B010BD2DE9F04FD7
:1018F00081B02DED108B88B00020CDE9060000F0FE
:1019000019FB40F29814C2F2000484ED000A00F0C2
:1019100011FB94ED001AB2EE04CA30EE410AB4EEA7
:101920004C0A40F23816F1EE10FAC2F2000625DD3C
:1019300048F29430CBF658104AF256414EF2290242
:1019400041F23F6306F1240CCBF62311C3F6A52226
:10195000C4F21B138CE80F000020C4F22020B061F9
:1019600096ED0C0A9FEDAB1A81EE000A86ED080A8F
:1019700008B0BDEC108B01B0BDE8F08F03AD6F4631
:101980009FEDEC8A40F6B0089FEDEDEADFEDED9AB1
:10199000DFEDE9AADFEDECBA9FEDE89AA5F1040AC4
:1019A000A7F1040B06ACC2F20008B6EE00DAB4EE02
:1019B00000FAF3EE078A0EE000F0BCFA40F298104D
:1019C000C2F2000090ED001A30EE410AB4EE4C0A6B
:1019D000F1EE10FAACDCB0EE480A00F069FA4FF014
:1019E0000009C6E90999C6E90B9900BFFFF740FD58
:1019F0009220FFF77FFE122021460622FFF756FEB7
:101A0000FFF72CFDBDF91800BDF91A1000EE100A01
:101A100040F20000C2F20000BDF91C20B8EEC00A7E
:101A200090ED001A02EE101A21EE000A86ED000A6F
:101A3000B8EEC22A21EE022A03EE102A86ED012A10
:101A4000B8EEC33A21EE031A20EE000A22EE022A73
:101A500086ED021A30EE020A21EE011A30EE01BACA
:101A6000B0EE4B0A0BF042FFB4EE400AB0EE40AAD3
:101A7000F1EE10FA80F1C78096ED0C0A3AEE000AFA
:101A800086ED0C0AFFF708FD002021460822FFF72B
:101A90000DFEFFF7F7FC9DF818000F2835D1BDF9B2
:101AA0001A00BDF91C1000EE100A40F20400C2F248
:101AB0000000BDF91E20B8EEC00A90ED001A96EDA8
:101AC000092A21EE000A86ED030A32EE000A86EDAD
:101AD000090A00EE101A96ED0A3A96ED0B4AB8EE96
:101AE000C00A21EE000A86ED040A33EE000A86EDF4
:101AF0000A0A00EE102AB8EEC00A21EE000A86EDAE
:101B0000050A34EE000A86ED0B0AB9F1000F2BD05E
:101B1000002000BF311891ED030A291891ED001A39
:101B2000B4EE410AF1EE10FAC8BF81ED000A39188F
:101B300091ED001A0430B4EE410AF1EE10FAB8BF8C
:101B400081ED000A0C28E5D1B4EE6DAAF1EE10FA91
:101B5000B4EE6CAAC8BFF0EE4ADAF1EE10FAB8BFE4
:101B6000F0EE4ACA0DE000BF7169D6E90302F0EE5B
:101B70004ADACDE90421CDE90002CDE90210F0EE08
:101B80004ACA40F66C003DEEEC0AC2F2000080ED5D
:101B9000000A6FF003005946524600BF92ED011A49
:101BA00091ED012A08EB000304300432043131EED8
:101BB000421A082883ED011AF0D1B4EE4D0AF1EE75
:101BC00010FA29DC98ED000AB4EE6A0AF1EE10FA78
:101BD00022DC98ED010AB4EE6A0AF1EE10FA1BDC81
:101BE00098ED020AB4EE6A0AF1EE10FA14DCB0EED7
:101BF000490A00F05DF941F26F70814509F1010970
:101C0000FFF4F4AE08E0B0EE4B0A0BF06FFEB0EE5E
:101C100040AA31E7C3F51C4196ED0C0A202080EE66
:101C20000E0A86ED0C0A00BF311891ED010A04304E
:101C300080EE0E0A2C2881ED010AF5D1FFF718FC81
:101C4000A220FFF757FD222021460222FFF72EFD9A
:101C5000FFF704FC9DF818009DF81910C00040EA39
:101C600051100021B1EB902F4FF60001CFF6FF711C
:101C700018BF084300EE100AB8EEC00A20EE0F0AA3
:101C800040F66C0130EE280A40F2E252C2F2000146
:101C900086ED060AC2F2000291ED000A1088B4EE49
:101CA0004D0A0130F1EE10FA10803FF785AE98ED45
:101CB000020AB4EE6A0AF1EE10FA3FF77DAE98ED33
:101CC000010AB4EE6A0AF1EE10FA3FF775AE98ED2C
:101CD000000AB4EE6A0AF1EE10FA3FF76DAE96ED27
:101CE0000C0A30EE290AB0EEC00AB4EE4D0AF1EE4D
:101CF00010FA3FF761AE96ED090AB0EEC00AB4EEF5
:101D00006B0AF1EE10FA3FF757AE96ED0A0AB0EE05
:101D1000C00AB4EE6B0AF1EE10FA3FF74DAE96ED45
:101D20000B0AB0EEC00AB4EE6B0AF1EE10FA3FF700
:101D300043AE15E60AD7A33B9A99193E6F12033AB0
:101D40000080BB45CDCC1CC10AD7233C46F2040120
:101D5000C4F202010868000158BF704740F6F84C11
:101D6000C2F2000CDCF8343046F20842C4F202023F
:101D70001B6802F15000834203D94FF000605060AD
:101D80000FE001F1B400834203D94FF0006010600E
:101D900007E001F1540083424FF0006094BF4860B7
:101DA0008860DCF80000016841F400710160704750
:101DB00080B540F6E430C2F2000000F0C7FF80BDFD
:101DC00080B540F6C420C2F2000000F0BFFF80BD25
:101DD00080B540F64440C2F2000000F0B7FF80BD7D
:101DE00080B540F62430C2F2000000F0AFFF80BDA5
:101DF000D0F800C06FF00F024AF6AB2352FA8CF213
:101E0000CAF6AA230146A2FB0330000905A31B5C06
:101E100040F2FF302CEA00005F2A88BF0430C1E99D
:101E20001603704700061016000610168269816AB4
:101E3000B2F5005F06D06AB9022912D0012914D088
:101E4000D1B90EE0032917D8DFE801F0020B020F29
:101E50000120704703293CBF012070471CBF0020B0
:101E60007047C06AC0F300607047C06AA0F1C070DC
:101E7000B0FA80F0400970470020704781B041F20D
:101E80000400CEF200000068009040F29010C2F210
:101E9000000000990268914206D240F29411C2F209
:101EA00000010A6801320A600099016001B07047C0
:101EB00041F2040040F27812CEF20000C2F20002B9
:101EC000016892ED001AB8EE411A21EE000A00BF37
:101ED0000268521A01EE102AB8EE411AB4EE410A15
:101EE000F1EE10FAF4DC704780B52DED028B82B074
:101EF00041F20401CEF200010968019101990268E2
:101F0000891A00EE101A40F27811C2F20001B8EE00
:101F1000400A91ED001AB8EE411A019980EE018A4B
:101F20000160FFF7ABFFB0EE480A02B0BDEC028BD8
:101F300080BD000080B500F063F840F22850C2F286
:101F4000000090ED000A9FED0C2AB8EE400A81884F
:101F500001EE101AB8EE411AC08821EE021A31EED5
:101F6000000A01EE100A9FED052AB8EE411A21EE93
:101F7000021A30EE010A80BD6F12833ABD378635F2
:101F800010B54EF6FC51CEF200010A6841F2000E87
:101F900042F080720A6044F24022C0F20F025043C5
:101FA00044F6D352C1F26202CEF2000E4FF0000CA2
:101FB000A0FB0221CEF804C04DF68362DEF80030AB
:101FC000C4F21B32A0FB022443F00102CEF8002031
:101FD00040F27812C2F200021060880940F27C11CF
:101FE000C2F20001086040F28011A00CC2F20001B0
:101FF000086040F29410C2F20000C0F800C010BDAA
:10200000F0B581B041F20400CEF20000006800900B
:10201000FFF734FF40F29410C2F200000068009C09
:1020200000254FF0FF31E0FB014540F27811C2F28C
:10203000000140F288100E68C2F20000C0E90045BD
:102040002046294632460023FEF7AAFEA0FB0623BF
:1020500001FB0631A41A8D4140F27C11C2F200014D
:1020600040F228570E68C2F2000738602046294621
:1020700032460023FEF794FEB88080B240F2801111
:102080007043C2F20001201A0A6865F100010023C2
:10209000FEF786FEF88001B0F0BD0000704700003A
:1020A00080B5012000F096FF80BD000080B50820BB
:1020B00000F090FF80BD000080B5102000F08AFF86
:1020C00080BD000080B5202000F084FF80BD0000AE
:1020D00092ED022A92ED033A22EE024AB6EE005A3F
:1020E00035EE444A23EE036A92ED000A92ED011A9E
:1020F00034EE464A90ED006A90ED017A26EE044AED
:1021000022EE016A63EE001AD0ED020A36EE216A71
:1021100023EE011A22EE000A27EE066A31EE400A8B
:1021200034EE064A20EE200A30EE040A30EE000AB1
:1021300081ED000A92ED000A92ED011A92ED022A59
:1021400092ED033A21EE024A20EE036A34EE464A4B
:1021500090ED006A90ED017A26EE044A21EE016AC4
:1021600035EE466A63EE031AD0ED020A36EE616A76
:1021700022EE032A21EE000A26EE076A30EE020A5A
:1021800034EE064A20EE200A34EE000A30EE000A51
:1021900081ED010A92ED000A92ED011A92ED032AF7
:1021A00092ED023A21EE024A20EE036A34EE064A2C
:1021B00090ED006A90ED017A22EE032A21EE000AEA
:1021C00021EE011AD0ED020A32EE400A35EE411A34
:1021D00023EE032A26EE044A20EE070A31EE421AC5
:1021E00034EE000A21EE201A30EE010A30EE000A29
:1021F00081ED020A704700007047000070B581B0A1
:102200000022009290F83C20012A01D1022156E0E0
:102210000E6801221FFA86FC80F83C204FEA4C022F
:1022200012FA86F302680A2E32BF10321E3B0C32BD
:102230004FF0070E15680EFA03F4A54315608D687C
:10224000146805FA03F3234313604968062906D886
:10225000026801EB8101053902F134030AE00C291F
:1022600001EB8101026887BF413902F12C03233958
:1022700002F130031F221C688A4024EA02021A601D
:102280001A680CFA01F1114342F2043E1960C4F2DB
:10229000010E0168122EAEF5417208BF914205D1C0
:1022A000DEF8003043F48003CEF8003026F001035E
:1022B000102B08BF914205D0002180F83C10084641
:1022C00001B070BDDEF80010102E41F40001CEF810
:1022D0000010F1D140F2C001C2F2000109684DF6D0
:1022E0008362C4F21B32A1FB0212910C01EB81014B
:1022F000490000BF009100990029DDD00099013903
:10230000F8E70000B0B510B30446006C30B92046C1
:1023100000F020F80020606484F83C00206C012567
:10232000C0060FD4206C41F20211884302302064B1
:102330002046FFF70FF800206064206C65F3010071
:1023400000252064002084F83C002846B0BD012010
:10235000B0BD000080B586B00021CDE90411CDE903
:102360000211006842F20022C4F20102904201917F
:1023700016D042F20001C4F20101884238D1002097
:10238000009043F64400C4F20200016841F48071F9
:102390000160006800F480700090009806B080BD75
:1023A00043F644000091C4F20200026842F48062E5
:1023B0000260026802F480620092009A009150F874
:1023C000142C42F0200240F8142C50F8140C00F0A9
:1023D0002000009000984FF4806001900320CDE928
:1023E000020141F20040C4F2020001A900F000FE27
:1023F00006B080BD90F82020013A012A04D8006878
:1024000000F11402002004E000F1240201204FF446
:1024100080211368194311607047000010B590F8CF
:1024200020E0D0F800C0AEF1010EBEF1010FDCF8E3
:1024300008E00DD81EF0E05F10D0CEF3016EBEF1C3
:10244000030F11D100F1240101204FF4000233E009
:1024500000F1240101204FF480222DE000F124013D
:1024600001204FF4001227E0012000FA0EF018605E
:10247000886818B14B6840EAC30001E0086840056D
:10248000D1E9033403430CEB0E10C0F88031C0F8DF
:102490008441097D012905D100F5C2710B6843F41F
:1024A00080730B605168C0F88C11126800F5C07120
:1024B000C0F88821002001220B681A430A6010BD71
:1024C000B0B590F82020013A012A2FD846F20060DA
:1024D000C4F20000026842F001020260026822F4C5
:1024E0007C520260D1F814E0CC694A6A0368012C7E
:1024F00043EA022202600EF01F024FF0010303FACA
:1025000002F2C3696FEA020C23EA0203C36113D02B
:102510002CBBC36803EA0C03C360CB688C8844EA15
:10252000034300EBCE0423640B4611E0416A41F4FF
:10253000802141620120B0BDC3681343C3600B68B2
:102540008C8844EA034300EBCE04236401F10C03BE
:102550008C681B8843EA044300EBCE046364436841
:102560008D6943EA0204D1F810E0096A002D08BF22
:1025700003EA0C0444604369BEF1000F43EA02041D
:1025800008BF03EA0C040129446102D1C169114367
:10259000C161016821F0010101600020B0BD0000AF
:1025A0007047000010B590F82040013C012C0CD879
:1025B000D0F800C079B1DCF81040A4070FD100F1C9
:1025C000240101204FF400126FE000F124010120EA
:1025D0004FF4802269E0DCF80C40A40769D00CEBD2
:1025E000011CDCF8B0410CF5D87E14F004049460B2
:1025F000DCF8B04119BFE4085460640D1460DEF8E3
:1026000000400029C4F34004D460DCF8B44104F075
:102610000F041461DCF8B441C4F307249461DCF8BE
:10262000B4414FEA14445461DCF8B8211A700268CE
:1026300002EB0112D2F8B8214FEA12225A70026856
:1026400002EB0112D2F8B8214FEA12429A700268E6
:1026500002EB0112D2F8B8214FEA1262DA70026876
:1026600002EB0112D2F8BC211A71026802EB0112CE
:10267000D2F8BC214FEA12225A71026802EB011211
:10268000D2F8BC214FEA12429A71026802EB0112A1
:10269000D2F8BC214FEA1262DA71006814BF00F16F
:1026A000100100F10C01002020220B681A430A607F
:1026B00010BD00F1240101204FF40012F5E70000E5
:1026C0002DE9F04F81B0044600684669D0F80490C7
:1026D0008768D0F80CB0D0F810A0D0F81880F107B7
:1026E00003D1002530071CD423E0F90710D00121C5
:1026F000BA07816009D4780700F1AA80380700F191
:10270000B080204600F0E6FA02E0204600F0E4FA4D
:102710000025F80500F18480F80300F1AA80300755
:1027200007D51BF0100004D0206845F40075102177
:10273000C160700708D51BF0080005D0206808218B
:10274000C160204600F0EAF9B00706D52068C068ED
:10275000800702D0204600F0E3F9700607D51AF092
:10276000100004D0206845F4806510210161B00696
:1027700008D51AF0080005D020680821016120461C
:1027800000F074FAF00606D520680069800702D0D0
:10279000204600F06DFAB00308D519F0100005D0FE
:1027A000206810214160204600F064FAF00308D54B
:1027B00019F0080005D0206808214160204600F08B
:1027C00095FA300440F18F805FEA497040F18880CB
:1027D00006F4807008EA102028435FEA88710146F9
:1027E00048BF41F00201B20558BF01465FEA487098
:1027F0000D4648BF45F00405700558BF0D4630052D
:102800006ED518F070006BD010380009052862D81A
:10281000DFE800F0035356595C5F45F008055AE0C5
:1028200020684FF48071BA0581600AD4780512D40B
:10283000380519D4204600F051FAF8037FF56FAF40
:1028400017E0204600F04CFAF8037FF568AF10E07F
:102850004FF400655DE705F50055F8037FF55FAFC0
:1028600007E04FF4805554E705F58045F8037FF500
:1028700056AF20684FF48031BA0381600AD47803E0
:102880000FD4380313D4204600F02CFA30073FF55C
:1028900048AF4EE7204600F027FA30073FF541AF3A
:1028A00047E705F5004530073FF53BAF41E705F544
:1028B000803530073FF535AF3BE745F010050AE0BE
:1028C00045F0200507E045F0400504E045F08005AF
:1028D00001E045F480752068816921F07001816113
:1028E0002068042141602DB1606A2843606220465F
:1028F000FFF756FE01B0BDE8F08F0000B0B5C8B1DB
:10290000044690F8200010B9204600F077F82068BF
:10291000016821F00201016000F03AFC054600BFA9
:1029200020684168890707D500F032FC401B0B285E
:10293000F6D312E00120B0BD016841F00101016051
:1029400000F026FC054600BF20684168C9070DD18C
:1029500000F01EFC401B0B28F6D3606A052140F4F2
:1029600000306062012084F82010B0BD217E026832
:10297000012922F0800308BF42F080030360617EDA
:102980000268012922F0400308BF42F040030360BF
:10299000A17E0268012922F0200308BF42F0200333
:1029A0000360E17E0268012942F0100308BF22F0B3
:1029B00010030360217F0268012922F0080308BF89
:1029C00042F008030360617F0268012922F00403DA
:1029D00008BF42F004030360D4E901C2D4E903351F
:1029E00061691A432A431143ACF101021143C161E9
:1029F00000200121606284F82010B0BD10B586B0BF
:102A00000021CDE90411CDE90211006846F600026B
:102A1000C4F200029042019134D046F20041C4F267
:102A20000001884277D140F29C11C2F200010A688D
:102A300043F64000C4F20200531C0B6052B900215F
:102A40000091016841F000710160016801F00071BE
:102A5000009100990021009150F8101C142441F0BD
:102A6000080140F8101C50F8100C00F0080000900D
:102A700000980320019040F20040C4F2020000F5EB
:102A8000006035E043F64000C4F2020000910168A6
:102A900041F080610160016801F08061009100995E
:102AA00040F29C11C2F200010A68531C0B6052B93B
:102AB00000210091016841F000710160016801F09E
:102AC0000071009100990021009150F8101C4024E1
:102AD00041F0020140F8101C50F8100C00F0020008
:102AE000009000986020019040F20040C4F2020083
:102AF00002210291002103910321049109210591F2
:102B000001A900F075FA20460621002200F06CFDB4
:102B1000204600F065FD06B010BD000070470000C3
:102B200010B58AB003AA01AB00210446FFF73AFDB5
:102B300040F64C10C2F20000844201D00AB010BD31
:102B40000398A0F201210629F8D8DFE801F0040477
:102B5000040466274C00411ECAB2BDF8043092003E
:102B600052FA81F141F24C521BBAC2F200021B0C24
:102B700032F8114022F8113002EB4101BDF8062075
:102B8000BDF8083012BA120C4A801ABA9DF80A3001
:102B9000120C0C818A808B71C0B262E041F29251BA
:102BA000BDF8042000EB8000C2F2000101EB400000
:102BB0004EF6CE3112BACFF6FF71120C435A425282
:102BC00041F23241401ABDF80610BDF8082009BA9A
:102BD000090C418011BA9DF80A20090C03818180FB
:102BE000827109203DE041F2A650C2F20000018846
:102BF000BDF80420018111BABDF80620090C01803E
:102C000011BABDF80820090C418011BA9DF80A20BC
:102C1000090C81808271072023E041F29251BDF8B6
:102C2000042000EB8000C2F2000101EB40004EF6F0
:102C3000CE3112BACFF6FF71120C435A425241F212
:102C40003241401ABDF80610BDF8082009BA090C37
:102C5000418011BA9DF80A20090C0381818082719C
:102C6000082007F0EBF90AB010BD00007047000023
:102C70007047000070470000B0B5044690F820008F
:102C800001281DD1022084F820002068016821F06D
:102C90000101016000F07CFA054600BF2068406831
:102CA000C00713D000F074FA401B0B28F6D3606AFB
:102CB00040F400306062052084F820000120B0BD9F
:102CC000606A40F4002060620120B0BD00206062B4
:102CD000B0BD000070470000704700007047000062
:102CE0007047000070470000704700007047000008
:102CF000002804BF0120704710B50446407920B970
:102D000000202071204600F007F8022060710120A9
:102D10006071002010BD000081B043F63001C4F2A4
:102D200002010068A1F50362904201D001B0704732
:102D300000200090086840F480500860086800F4A3
:102D400080500090009801B070470000F0B581B04D
:102D500004460020009040F2C000C2F20000026869
:102D6000D4E9166048F2B51337680821C1F64E332E
:102D700081403942A2FB03250CD0226813685B070F
:102D800008D5136823F004031360B160616D41F04E
:102D90000101616501218140394208D022685269F0
:102DA000120604D5B160616D41F002016165042134
:102DB0008140394208D022681268920704D5B16078
:102DC000616D41F00401616510218140394215D0E7
:102DD00020680268120711D5B160026801685203C9
:102DE00006D4C90506D4016821F00801016001E09C
:102DF000080342D4216C09B120468847E16D2020A8
:102E000000FA01F23A4244D020680368DB0640D55C
:102E1000B26094F835300268052B1ED122F01602FC
:102E20000260426922F080024261226C0AB9A26CFF
:102E30001AB1026822F0080202603F208840B060A8
:102E4000002084F83400012084F83500216D002929
:102E500040D02046884701B0F0BD0168520310D42D
:102E6000C90512D4016821F010010160002084F826
:102E70003400012084F8350007E0A16C0029BBD1A3
:102E8000BCE7080301D4616C00E0E16B09B12046A6
:102E90008847606DF0B1606DC00717D0052084F8D9
:102EA00035002068A90A026822F00102026000BF12
:102EB000009A01328A42009202D80268D207F7D102
:102EC000002084F83400012084F83500E16C09B159
:102ED0002046884701B0F0BD2DE9F041044600F0DE
:102EE00057F9C4B10546002084F83400022084F864
:102EF00035002068016821F0010101602668306812
:102F0000C0070BD000F044F9401B0528F6D9032177
:102F10002022032042E00120BDE8F081306848F221
:102F20003F01CFF21001251D00EA010C2ECDD4E99E
:102F3000050E41EA0C01114319432943D4E90778EE
:102F4000084340EA0E01606A3943042841EA080157
:102F500003D1D4E90B23114319433160716904286B
:102F600021F0070141EA00050CD1D4E90A1045EA35
:102F7000010538B12046FEF759FF18B10121402262
:102F800001200BE020467561FEF732FFE16D3F2224
:102F900002FA01F18160002201210020626584F8BB
:102FA0003510BDE8F0810000B0B5044600F0F0F83F
:102FB000054640F2C800C2F200000078611C18BF4C
:102FC000044400BF00F0E4F8401BA042FAD3B0BDB7
:102FD0007047000080B543F61441C4F201010A684D
:102FE000024208BF80BD0860FFF7F2FF80BD00000D
:102FF0002DE9F04F83B000F13E4202F1FF7241F63D
:10300000004743F6004E4FEAB222C4F20207C4F270
:10301000010E01920822B8424FF001044FF0000760
:103020004FF000084FF0000908BF0722009209E0A6
:1030300009F1010908F10408B9F1100F07F10207BD
:1030400000F09D800D6804FA09FA15EA0A0CEFD029
:103050004D6845F01005122D11D16FF0030202EA00
:103060005905054408F01C020F232C6A03FA02F6E6
:103070000B69B44303FA02F2224301242A62026874
:103080000323D1F804B0BB40DD439A430BF00303A4
:10309000BB401A43BBF1120F026013D804FA0BF2C3
:1030A00012F0061F0ED08268CB682A40BB401A433C
:1030B00082604268CBF3001322EA0A0203FA09F3A2
:1030C0001A434260C2688B682A40BB401A435FEAD9
:1030D000CB03C260ACD5002243F644030292C4F293
:1030E00002031A684FF6084A42F480421A601A68CE
:1030F000CFF6FF7A02F480420292029A29F003028C
:10310000724452F80A3008F00C040F25A540019EC5
:10311000AB43009D072E38BF354605FA04F4234320
:1031200042F80A30DEF800204B6842EA0C04DD0366
:1031300058BF22EA0C04CEF80040DEF804209D03BC
:1031400042EA0C0458BF22EA0C04CEF80440DEF830
:103150000820DD0242EA0C0458BF22EA0C04CEF833
:10316000084043F60C44C4F2010422689B0242EA80
:103170000C0358BF22EA0C032360012458E703B074
:10318000BDE8F08F002A08BF090481617047000084
:1031900048F2D840C2F200000068704770B570B3C2
:1031A000044690F83D0028B9002084F83C002046F1
:1031B00000F0B4F8242084F83D002068016821F074
:1031C0000101016000F01EFF48F28041C0F21E01C3
:1031D00040F60012666888424FF00001C0F23D02DE
:1031E00048F2A16C4FF0000338BF01219042C0F2B9
:1031F000010C38BF0123664538BF0B460BB10120D7
:1032000070BD4DF68361C4F21B31A0FB0112216831
:10321000930C4D68664525F03F0545EA92424A60A9
:103220000A6A22F03F0C09D34FF496725A4344F6CF
:10323000D353C1F26203A2FB03239B095A1C42EA47
:103240000C020A6248F2A063CA69C0F201039E42FE
:103250004CF6FF7322EA030C0AD801387200B0FB67
:10326000F2F001306FF31F30042898BF04202BE0E8
:10327000A368A0F1010E9BB119207043BEFBF0F0D2
:103280000422013062F31F30000512D09BB11920D7
:103290007043BEFBF0F00422013062F31F3011E0F6
:1032A00006EB4600BEFBF0F001306FF31F30000567
:1032B000ECD1012008E006EB4600BEFBF0F0013047
:1032C0006FF31F3040F4004040EA0C00C86108680A
:1032D000D4E9072320F0C000104318430860886831
:1032E00048F2FF3204F10C0690434CCE18431043D1
:1032F000A5698860C86820F0FF0030432843C86093
:10330000086840F00100086000202021206484F853
:103310003D10206384F83E0070BD00002DE9F04FA1
:1033200087B00026CDE90566CDE90366044600684E
:1033300045F60041C4F20001884202963AD045F6B3
:103340000001C4F2000188427ED045F20041C4F27F
:103350000001884275D1002543F630040195C4F27E
:103360000204206802A940F002002060206800F0FA
:103370000200019001984FF44070029012200390D7
:103380000120049003200590042006900020C4F240
:10339000020000F58060FFF72BFE0195206940F4E4
:1033A00000102061206900F400100190019807B01E
:1033B000BDE8F08F43F630070196C4F20207386883
:1033C000002440F0040038603868C4F2020400F0C1
:1033D0000400019001980196386802AD40F00100A8
:1033E000386038684FF0120800F001000190019831
:1033F0004FF4007002904FF001094FF0030A4FF0B4
:10340000040B04F500602946CDF80C80CDF810902F
:10341000CDF814A0CDF818B0FFF7EAFD4FF4807096
:1034200002A981E8010F20462946FFF7E1FD019638
:10343000386940F400003861386900F400000190F8
:10344000019807B0BDE8F08F002643F630050196DD
:10345000C4F202052868122140F020002860286884
:1034600000F02000019001980320039101210290B7
:10347000CDE90410042006900020C4F2020000F5FB
:10348000A05002A9FFF7B4FD019628694FF06061D2
:1034900040F480002861286940F6A41500F48000FB
:1034A0000190019846F2B800C2F20005C4F2020091
:1034B00040224FF4806385E847004FF40030C5E9AF
:1034C0000436C5E90666C5E908062846FFF704FD87
:1034D000002818BFFEF790FE40F6F840C2F2000048
:1034E00000686563AC63416841F40061416007B006
:1034F000BDE8F08F40F2C80048F2D841C2F20000A7
:10350000C2F2000100780A681044086070470000A9
:1035100080B543F60040C4F20200016841F4007136
:103520000160016841F480610160016841F48071CB
:103530000160032000F068F80F2000F005F800F0AB
:103540002BF8002080BD0000B0B540F2C802C2F2E6
:10355000000240F2C0011278C2F200014FF47A7307
:103560000968B3FBF2F20446B1FBF2F1084601F040
:10357000C7F90F2C4FF001050CD858B94FF0FF30A8
:1035800021460022002500F02FF840F2CC00C2F2C4
:10359000000004602846B0BD80B582B0002043F62C
:1035A00040010190C4F202014A6842F480424A603C
:1035B0004A6802F480420192019A00900868002251
:1035C00040F08050086008680F2100F080500090A3
:1035D00000986FF0010000F007F802B080BD000015
:1035E00080B506F037FB80BD70B514460D46064623
:1035F00006F040FB2946224604F046FA01463046D2
:1036000006F040FB70BD000080B506F04DFB80BDAC
:103610007047000080B5D0F8040405F061FD80BD5E
:1036200080B5C1EBC102D0F8043400EB8200826C9B
:10363000184605F0AFFC80BD80B5C1EBC102D0F8E3
:10364000043400EB8200D0F80822184605F004FD8F
:1036500080BD000080B5D0F8040405F043FD80BDB6
:10366000B0B54268044601F00F00904284BF0120CB
:10367000B0BD090609D4C0EBC00104EB810202F51C
:10368000FE71002382F8FD3108E0C0EBC00104EBBD
:103690008102012302F13C0182F83D3094F8BC2301
:1036A0000025012A8D70087004BF0220B0BD20687B
:1036B000012284F8BC2306F08FF8284684F8BC5316
:1036C000B0BD0000B0B50546080601F00F00C0EB24
:1036D000C00105EB810C05D40CF5FE7100248CF8BB
:1036E000FD4104E001240CF13C018CF83D404C7894
:1036F0000870002C8A60CB7018BFC880022B04BFF2
:103700000020087195F8BC03012804BF0220B0BD59
:103710002868012285F8BC2305F052FF002085F8B7
:10372000BC03B0BD10B501F00F0CCCEBCC0100EB2D
:1037300081044FF0000EC4F814E284F8FDE1D0F8E3
:1037400010E0C4F80822C4F81032BEF1010F84F86A
:10375000FCC108BFC4F80C22006804F5FE715FFAD2
:103760008EF2BCF1000F03D006F086F8002010BDE9
:1037700005F08AFF002010BDB0B50446406801F096
:103780000F05854284BF0120B0BD080609D4C1EBF6
:10379000C10004EB800000F5FE71002280F8FD21DD
:1037A00008E0C5EBC50004EB8000012200F13C01FC
:1037B00080F83D2094F8BC03012201288A700D7026
:1037C00004BF0220B0BD206884F8BC2306F02CF8AA
:1037D0002DB92068217C04F5717205F0CFFF00201F
:1037E00084F8BC03B0BD0000B0B501F00F0CCCEB09
:1037F000CC0100EB8105294601F83CCF0024D0F82C
:1038000010E08C6101244C70CA60BEF1010F4B6165
:1038100008BFEA6400685FFA8EF2BCF1000F03D0C3
:1038200006F02AF80020B0BD05F02EFF0020B0BD44
:103830002DE9F04F83B004688246204606F00EF969
:1038400010B103B0BDE8F08FDAF8000006F034F9EB
:103850000028F6D0DAF80000029406F02DF980076F
:1038600005D5DAF80000416901F002014161DAF89A
:10387000000006F021F900034AD5DAF8000006F04E
:10388000F9F8002844D0064602980AF5717800F548
:1038900030644FF000094FF0080B00270FE000BF25
:1038A0002020A060A80444BF4FF40050A06001375E
:1038B000B9EB560F4FEA560604F1200428D0F00762
:1038C000F5D0DAF80000F9B206F0EEF80546C007C8
:1038D00005D00120A0605046394604F051FA28076F
:1038E00005D55046394604F01BFAC4F808B0E8067E
:1038F00044BF1020A060A806D4D5DAF81000012833
:10390000CED1DAF800000121424605F037FFC7E7C3
:10391000DAF8000006F0D0F840036AD5DAF80000C3
:1039200006F0A0F8002864D006460AF571700190F0
:1039300002980AF1480800F510644FF000090027CA
:103940000AE000BF0137B9EB560F4FEA560604F103
:10395000200408F11C084CD0F007F3D0DAF800007E
:103960005FFA87FB594606F08DF80546C00729D057
:10397000029A07F00F00D2F83418012303FA00F07E
:1039800021EA0000C2F83408A360DAF81000012828
:1039900006D158F8040CD8F800100844C8F8000004
:1039A00050465946FFF73CFE67B9DAF81000012887
:1039B00008D1DAF8500028B9DAF80000019A01219C
:1039C00005F0DCFE280744BF0820A060E80644BFDD
:1039D0001020A060680644BF4020A060A80744BF34
:1039E0000220A0602806ADD55046394604F03AFAC8
:1039F000A8E7DAF8000006F05FF8029EB0F1FF3F9A
:103A00001ADCD6F8040820F00100C6F804089AF879
:103A1000F403012807D100208AF8F403504600215E
:103A2000FFF7F6FD02E0504600F054F9DAF8000026
:103A3000416901F000414161DAF8000006F03CF80C
:103A400000050CD5D6F80808C00702D0504600F093
:103A50006BF9DAF80000416901F400614161DAF8BC
:103A6000000006F029F8C00455D5D6F80408102146
:103A700020F00100C6F80408DAF8000006F500643A
:103A800005F0CCFFDAF80400C0B1DAF8041006F54E
:103A9000106000224FF67F3383600768013227F4FD
:103AA00000170760C0F80832D0F800728A4227F485
:103AB0000017C0F8007200F12000EDD3E06940F07B
:103AC0000110E061DAF8300040B1D4F8840040F031
:103AD0000B00C4F8840004F1440006E0606942F27F
:103AE0002B010843606104F1100001680AF571724E
:103AF00041F00B010160206820F4FE602060DAF8DC
:103B000000009AF8101005F039FEDAF8000041695B
:103B100001F480514161DAF8000005F0CDFF800426
:103B20001CD5DAF8000005F093FDDAF8000005F086
:103B300087FFDAF80040CAF80C0000F05DFA9AF846
:103B40000C200146204605F0DDFF504600F0AEF89F
:103B5000DAF80000416901F400514161DAF800002F
:103B600005F0AAFFC00640D5DAF80000816921F00F
:103B700010018161356AC5F34340062805F00F0442
:103B80001CD002282BD147F6F070054027D0C4EB9B
:103B9000C4000AEB8004D4F808122A09304605F064
:103BA0008FFFD4F80802D4F8141200EB1510C4F8F3
:103BB000080201EB1510C4F8140210E00AF5717147
:103BC0003046082205F07CFFC4EBC4010AEB8101FA
:103BD000C5F30A10D1F814221044C1F81402DAF81F
:103BE0000000816941F010018161DAF8000005F000
:103BF00063FF000708D5504600F072F8DAF80000BD
:103C0000416901F008014161DAF8000005F054FF54
:103C1000C00209D55046002100F03CF8DAF8000057
:103C2000416901F480114161DAF8000005F044FFB8
:103C3000800209D55046002100F032F8DAF8000081
:103C4000416901F400114161DAF8000005F034FF28
:103C5000400008D55046FFF7DDFCDAF80000416966
:103C600001F080414161DAF8000005F025FF4007CE
:103C70007FF5E7ADDAF800004468600702D55046EA
:103C8000FFF7E8FCDAF8000041682143416003B027
:103C9000BDE8F08F80B5D0F8040405F03FFA80BD90
:103CA00080B5D0F8040405F03BFA80BD10B5044699
:103CB000C06828B1022818BFFEF79EFA012100E073
:103CC0000021D4F8040405F081FAD4F8040405F0C6
:103CD0003DFA10BD80B5D0F8040405F061FA80BD4E
:103CE00080B5D0F8040405F063FA80BD10B5044631
:103CF00090F8BC03012804BF022010BD012084F805
:103D0000BC0384F83810206805F0EAFE002084F82F
:103D1000BC0310BD80B5D0F8042400F571711046C5
:103D200005F060FA80BD000010B50446D0F8040428
:103D300005F090FA2068D0F8001E41F00101C0F8AB
:103D4000001E206A002808BF10BD4EF61050CEF2AB
:103D50000000016841F00601016010BDF0B581B0BE
:103D60000446007810F0050F2CD06827C4F24727CE
:103D700043F670060020C4F202063860FFF708FA26
:103D8000054600BF56F8700C000105D5FFF700FA94
:103D9000401B0228F6D93FE0D4E90110000740EAB1
:103DA0008110706101203860FFF7F2F9054600BF0D
:103DB00056F8700C000105D4FFF7EAF9401B022801
:103DC000F6D929E0207880074FF0000057D543F658
:103DD0007006C4F20206009056F8300C47F2000755
:103DE00040F0805046F8300C56F8300CC4F2000712
:103DF00000F0805000900098386840F4807038607F
:103E0000FFF7C6F9054600BF3868C00507D4FFF7BD
:103E1000BFF9401B0228F7D9032001B0F0BD30687C
:103E200010F4407013D0E16801F4407188420ED064
:103E3000306840F64061C4F24721012220F440700E
:103E40000A6000220A6030603068C00719D1E0685B
:103E500056F8681C4FF6FF4300F4407221F4F81145
:103E6000C0F6FF730340B2F5407F08BF194346F820
:103E7000681C31686FF31F3008433060002001B0C8
:103E8000F0BDFFF785F9054641F2883730688007B5
:103E9000DDD4FFF77DF9401BB8424FF00300F5D9A0
:103EA000EDE700002DE9F041002800F0868043F6A0
:103EB0000808C4F202080446D8F8F8030D4600F0DA
:103EC0000F00884207D288F8F853D8F8F80300F0BA
:103ED0000F00A84271D12068810717D5410705D589
:103EE000D8F8001041F4E051C8F80010010705D5DA
:103EF000D8F8001041F46041C8F80010D8F800105C
:103F0000A26821F0F0011143C8F80010C0073AD1AF
:103F1000D8F8F80300F00F00A84207D988F8F85342
:103F2000D8F8F80300F00F00A84246D120684107F6
:103F300007D5D8F80010E26821F4E0511143C8F821
:103F40000010000708D5D8F80000216920F460406F
:103F500040EAC100C8F8000000F078F8D8F8001076
:103F60004EF64452C1F30311C0F60002515CC84042
:103F700040F2C001C2F2000108600F20FFF7E4FA2E
:103F80000020BDE8F0816068811E022907D258F840
:103F9000081C89015CBF0120BDE8F08110E0012808
:103FA00007D158F8081C89035CBF0120BDE8F081E7
:103FB00006E058F8081C890702D40120BDE8F0810A
:103FC000D8F8001021F003010843C8F80000FFF7FB
:103FD000DFF8064641F28837D8F80000616800F043
:103FE0000C00B0EB810F93D0FFF7D2F8801BB842E2
:103FF000F2D90320BDE8F08140F2C000C2F2000017
:104000000068704780B5FFF7F7FF43F60801C4F278
:10401000020109684EF65452C1F38221C0F6000233
:10402000515CC84080BD000080B5FFF7E5FF43F656
:104030000801C4F2020109684EF65452C1F342313C
:10404000C0F60002515CC84080BD000010B543F6C8
:104050000404C4F20204606800F00C0008280AD0CE
:10406000042819BF42F20040C0F2F40041F60030CB
:10407000C0F2B70010BD206821682368490241F6EC
:104080000031C0F2B70100F03F02C3F388105CBFFB
:1040900042F20041C0F2F401A1FB00010023FCF751
:1040A0007FFE21680222C1F3014102EB4101B0FB16
:1040B000F1F010BD2DE9F04182B0002876D0044621
:1040C000007843F60006C007C4F2020643D0B06889
:1040D00000F00C00042816D0B06800F00C0008288E
:1040E00002D1706840020ED46568B5F5803F06D0F5
:1040F0003068B5F5A02F0CD140F4802030603068D6
:1041000040F480300BE03068800324D5606810BB39
:104110004CE020F480303060306820F48020306043
:10412000FFF736F8002D054612D000BF3068800337
:1041300011D4FFF72DF8401B6428F7D9F8E000BF31
:10414000FFF726F8401B64284FF0030000F2268199
:1041500030688003F4D42078800718D5B06810F058
:104160000C0F07D0B06800F00C00082863D170680D
:10417000400260D43068800702D5E068012815D17C
:104180003068216920F0F80040EAC10030602078F2
:1041900000070FD42078400723D4A569002D00F034
:1041A0000081B06800F00C00082875D1012002B031
:1041B000BDE8F0816069002840F20000C4F24720A9
:1041C0005AD00121C0F8801EFEF7E2FF054600BF6D
:1041D000706F8007DED4FEF7DBFF401B0228F7D9A3
:1041E000A6E0306C4FF00008C0000CD4CDF804807D
:1041F000306C4FF0010840F080503064306C00F0BB
:1042000080500190019847F20007C4F20007386817
:10421000C00524D4386840F480703860FEF7B8FFD9
:10422000054600BF3868C00519D4FEF7B1FF401B32
:104230000228F7D97CE0E06800284ED00020C4F2C4
:10424000472001210160FEF7A3FF05463068800783
:1042500096D4FEF79DFF401B0228F7D968E0A568B9
:10426000012D05D0306F052D4CD140F00400306792
:10427000306F40F001004BE00021C0F8801EFEF7D7
:1042800087FF0546706F80077FF584AFFEF780FFDC
:10429000401B0228F6D94BE00027C4F24727002034
:1042A0003866FEF775FF022D05460BD13068800198
:1042B00055D5FEF76DFF401B02284FF00300F5D9DE
:1042C0006CE000BF306880016BD5FEF761FF401BDA
:1042D00003284FF00300F5D360E00020C4F247202C
:1042E00000210160FEF754FF054600BF30688007DB
:1042F0007FF54DAFFEF74CFF401B02284FF0030047
:10430000F4D94BE020F001003067306F20F004005A
:104310003067FEF73DFF002D054641F2883712D089
:10432000306F800712D4FEF733FF401BB842F7D935
:10433000032002B0BDE8F081FEF72AFF401BB8421F
:104340004FF003002AD8306F8007F5D4B8F1000F82
:104350003FF423AF306C20F0805030641DE704F14F
:104360001C052FCD084340EA8210D9034FF6FF7297
:104370009143A1F5803140EA056008437060012057
:104380003866FEF705FF04463068800109D4FEF761
:10439000FFFE001B02284FF00300F5D902B0BDE874
:1043A000F081002002B0BDE8F0810000002804BFC9
:1043B0000120704710B50446407920B900202071D3
:1043C000204600F00DF8022060712068016841F07D
:1043D00004010160012060710020A06010BD000098
:1043E00081B0006840F60001C5F20601884201D0A4
:1043F00001B070470020009043F63400C4F2020080
:10440000016841F040010160006800F04000009048
:10441000009801B070470000002804BF01207047D9
:1044200010B50446407F20B900202077204600F0D8
:1044300043F8022060772068CA214162532141621B
:10444000204603F037FF216810B1012004222FE03D
:1044500088684FF6BF72CFF68F721040886004F103
:10446000040E9EE80150D4E9042310438A681843DF
:1044700010438860C1F810E0086940EA0C40086108
:10448000C86820F08000C8608868800605D420468F
:1044900000F022F808B12168D7E72168A0690A6C0A
:1044A00022F480220A640A6C10430864002001226E
:1044B000FF234B62627710BD006842F60001C4F230
:1044C0000001884218BF704740F63C60C4F24720A4
:1044D0000121016070470000B0B504460068C16862
:1044E00021F0A001C160FEF753FE05462068C068B8
:1044F000800607D4FEF74CFE401BB0F57A7FF5D955
:104500000320B0BD0020B0BD70B5A8B30026866200
:10451000054690F8510020B9284685F8506000F013
:104520002DF8022085F8510095E807101143036823
:1045300041EA0C0123F0400303602A69EC6911434E
:10454000D5E90523114303F4007211432A6A21437C
:10455000AC6A11432143016004216A6A01EA1341F4
:1045600011434160C16921F40061C16101206E65A0
:1045700085F85100304670BD012070BD2DE9F04F27
:1045800087B004460020CDE90500CDE9030021688D
:1045900043F60002C4F200029142029000F09180C2
:1045A00043F20000C4F20100814240F0B4800027D1
:1045B00043F630000197C4F20200416940F2004521
:1045C00041F4805141614169C4F2020501F4805116
:1045D000019101990197016802AE41F00201016069
:1045E00001684FF0020901F0020101910199019760
:1045F00001684FF0010A41F00101016000684FF0CD
:10460000030B00F0010001900198182002904FF078
:10461000050828463146CDF80C90CDF810A0CDF80D
:1046200014B0CDF81880FEF7E3FC802002A981E8E1
:10463000010ECDF8188046F24048A5F5806031465D
:10464000C4F20208FEF7D4FC40F60425C2F20005CD
:104650004FF0C0664FF480694FF44030C5E90086E2
:10466000C5E90277C5E90497C5E90677C5E90807F2
:104670002846FEF731FC002818BFFDF7BDFDE564B4
:10468000AC6340F6642508F11800C2F20005402131
:10469000C5E9000605F1080080E882024FF4003009
:1046A000C5E90577EF61C5E908072846FEF714FC60
:1046B000002818BFFDF7A0FDA564AC6307B0BDE8F6
:1046C000F08F43F630010190C4F202010A6942F40E
:1046D00080420A610A6902F480420192019A0190C3
:1046E000086840F002000860086802A900F00200B3
:1046F000019001984FF46040029002200390012045
:104700000490032005900520069040F20040C4F27A
:104710000200FEF76DFC07B0BDE8F08F2DE9F04315
:1047200081B0044690F85000012803D1022001B066
:10473000BDE8F08301201E4615460F4684F8500060
:10474000FEF726FD94F85110814601290CD06068CF
:10475000B0F5827F76D104294FF0020040F0C68088
:10476000A168002940F0C280002F4FF0010018BF5F
:10477000002D00F0BB80002E00F0B88094F85100AE
:10478000002104281CBF052084F851006165A56341
:10479000E687A6872763E6862068A686216461648B
:1047A0000168490603D4016841F040010160616875
:1047B000731EE268B1FA81F1B3FA83F3DDF8208069
:1047C00049095B09B2F5006F41EA03013CD139B1F7
:1047D000216B0988C160B81C2063E08E0138E08637
:1047E000012608F1010500BFE08E10B9E08F002816
:1047F00066D02068816889070CD5E18E012E09D129
:1048000041B1216B002631F8022BC2602163E18E99
:104810000139E1868168C9070AD0E18F41B1C068DA
:10482000A16B012621F8020BA163E08F0138E0871C
:10483000FEF7AEFC002DD7D0A0EB09004045D3D346
:10484000032053E0022051E039B139780173206B25
:1048500001302063E08E0138E086012608F1010571
:10486000E08E08B9E08F58B32068816889070DD5BC
:10487000E18E012E0AD149B1216B0026097801731E
:10488000206B01302063E08E0138E086206881686B
:10489000C9070BD0E18F49B1C068A16B0126087030
:1048A000A06B0130A063E08F0138E087FEF770FC59
:1048B000002DD5D0A0EB09004045D1D3032015E051
:1048C000204641464A4603F047FD18B12020606566
:1048D00001200BE0A06800284FF0000006D10090F6
:1048E0002168CA680092896800910099012184F8C2
:1048F0005110002184F8501001B0BDE8F083000091
:1049000080B503F0E5FD80BDB0B590F83C20012AEC
:1049100004BF0220B0BD01F108053CCDD1E900CEB5
:1049200023F47C5322F470521A432EF4F0431A43BA
:104930002CF4E0431A4324F4C0431A432A43C969C0
:1049400022F48042036811435964002180F83C102E
:104950000846B0BD10B590F83C20012A4FF0020285
:1049600016D080F83D2002685368D2F808C023F0C2
:10497000700ED1E900342CF0800143EA0E0321438C
:10498000536091600121002280F83D1080F83C20A6
:10499000104610BD002804BF0120704710B5044622
:1049A00090F83D0028B9002084F83C00204600F033
:1049B0000DF8022084F83D002068211D03F030FE30
:1049C000012084F83D00002010BD000081B0006887
:1049D0004FF6FF71C4F2000188421FDC40F2004133
:1049E000C4F20001884238D040F60001C4F2000150
:1049F00088423ED040F60041C4F20001884255D1C1
:104A00000020009043F64000C4F20200016841F02B
:104A100008010160006800F0080056E044F200411F
:104A2000C4F20101884232D040F20041C4F20101D7
:104A300088423DD00021C4F20101884236D10020D5
:104A4000009043F64000C4F20200416841F00101C9
:104A50004160406800F0010037E00020009043F61C
:104A60004000C4F20200016841F0020101600068E8
:104A700029E00020009043F64000C4F202000168E3
:104A800041F004010160006800F004001DE0002016
:104A9000009043F64000C4F20200416841F4003146
:104AA0004160406800F400300090009801B0704709
:104AB0000020009043F64000C4F20200416841F03B
:104AC00002014160406800F002000090009801B0CF
:104AD000704700000146022081F83D0008688268A6
:104AE00002F00702062A03D0026842F001020260C7
:104AF0000122002081F83D207047000010B50446D7
:104B000090F83C0001284FF0020008BF10BD0122C0
:104B100084F83C2084F83D0020684FF67773826863
:104B20009A4382600A683F2A14DD5F2A18DD602AF2
:104B300028D0B2F5005F2DD0702A40D1D1E9012CE8
:104B4000CB68614603F010FE2068816841F0770170
:104B5000816034E01F2A0FDC92B1102A10D02EE0C1
:104B6000402A23D0502A2AD14B68CA68194603F03C
:104B7000EFFE2068502120E0202A01D0302A1ED1EB
:104B800011461AE04B68CA68194603F0F3FE206824
:104B9000602112E0D1E9012CCB68614603F0E4FD0D
:104BA0002068816841F48041816008E04B68CA68F0
:104BB000194603F0CDFE2068402103F0E1FD0120FD
:104BC00084F83D00002084F83C0010BD2DE9F0433E
:104BD00087B000684FF6FF71C4F2000188424FF0C1
:104BE00000010691CDE90411CDE9021145DC40F246
:104BF0000041C4F20001884200F08A8040F60001C2
:104C0000C4F20001884200F0AC8040F60041C4F2DA
:104C10000001884240F0F6800020019043F6300009
:104C2000C4F20200016841F08001016000680121C6
:104C300000F08000019001984FF4E05002900220B3
:104C40000390CDE90410069040F60000C4F2020083
:104C500000F5A05002A9FEF7CBF941F28834C2F268
:104C600000042046FFF736FF2046002100F086F9B9
:104C70002046042100F082F970E044F20041C4F2C1
:104C80000101884200F0928040F20041C4F201012B
:104C9000884200F0BA800021C4F20101884240F04D
:104CA000B1800020019043F63000C4F20200016898
:104CB00041F0100101600068012100F01000019036
:104CC00001984FF4D440029002200390CDE90410E3
:104CD00040F60000C4F20200069100F5006002A94F
:104CE000FEF786F941F28824C2F200042046FFF75D
:104CF000F1FE2046002100F041F92046042100F099
:104D00003DF92046082100F039F920460C21C1E088
:104D10000020019043F63000C4F20200016841F027
:104D2000040101600068012100F004000190019875
:104D30004FF48070029002200390CDE90410069099
:104D400040F60000C4F2020002A9FEF751F941F258
:104D50000834C2F200042046FFF7BCFE20460821BA
:104D600098E00020019043F63000C4F20200016890
:104D700041F0080101600068012100F00800019085
:104D800001984FF480400290022004910321039087
:104D9000CDE9051040F60000C4F2020000F5806085
:104DA00002A9FEF725F907B0BDE8F08300200190C5
:104DB00043F63000C4F20200016841F020010160B6
:104DC0000068012100F0200001900198402002902D
:104DD00002200390CDE904100320069040F6000065
:104DE000C4F2020000F5406002A9FEF701F941F2A9
:104DF000C824C2F200042046FFF76CFE20460021C2
:104E000000F0BCF807B0BDE8F083002043F63001A5
:104E10000190C4F202010A6840F6000442F4807274
:104E20000A600A68C4F2020402F480720192019AD4
:104E30000190086802AD40F00400086008684FF077
:104E4000400800F004000190019802274FF001098A
:104E5000032604F5C0502946CDF808800397CDE914
:104E600004970696FEF7C4F820462946CDE9028746
:104E7000CDE904970696FEF7BBF841F2C834C2F2BA
:104E800000042046FFF726FE2046002100F076F8B9
:104E90002046042100F072F807B0BDE8F08300005E
:104EA00070B5044690F83C0001284FF0020008BF9E
:104EB00070BD0D464FEAB2010126032984F83C601B
:104EC00084F83D0036D8DFE801F0020A122220689B
:104ED000294603F05DFC206850F8181F0EE020689A
:104EE000294603F087FC206850F8181F16E0206858
:104EF000294603F0B5FC206850F81C1F41F008015A
:104F00000160016821F00401016029690FE0206857
:104F1000294603F0DBFC206850F81C1F41F40061B7
:104F20000160016821F48061016029690902026859
:104F300011430160002084F83D6084F83C0070BD9E
:104F4000002804BF0120704710B5044690F83D00CA
:104F500028B9002084F83C00204600F00DF802201B
:104F600084F83D002068211D03F05AFB012084F8DD
:104F70003D00002010BD00007047000010B5044641
:104F80000068012203F0DEFB206840F2004240F49A
:104F90008061C4F20102914203D1416C41F40041AD
:104FA0004164816801F00701062903D0016841F0DE
:104FB00001010160002010BD002804BF01207047DE
:104FC00010B5044690F8390028B9002084F838005C
:104FD000204600F021F8242084F839002068C168B8
:104FE00021F40051C160204603F0D6FC206801691D
:104FF00021F490410161416921F02A014161C168B8
:1050000041F40051C16000202021E06384F8391090
:1050100084F83A1010BD00002DE9F04F87B000264B
:10502000CDE90566CDE903660446006844F6000153
:10503000C4F200018842029600F09B8041F20041D8
:10504000C4F20101884200F0E48041F20001C4F2A0
:105050000101884240F05281002743F63000019759
:10506000C4F202004169002541F01001416141692B
:10507000C4F2020501F01001019101990197016844
:1050800002AE41F00201016001684FF0020901F037
:10509000020101910199019701684FF0010A41F065
:1050A0000101016000684FF0030B00F00100019066
:1050B0000198802002904FF0070805F58060314686
:1050C000CDF80C90CDF810A0CDF814B0CDF8188024
:1050D000FDF78EFF4FF4007002A981E8010ECDF8B4
:1050E000188046F2280828463146C4F20208FDF727
:1050F0007FFF40F6243508F59260C2F200054FF0BC
:1051000000664021C5E9000605F108004FF48069FA
:1051100080E882024FF48030C5E90577EF61C5E988
:1051200008072846FDF7D8FE002818BFFDF764F8E9
:105130002563AC6340F6C42508F58C60C2F2000517
:1051400085E8C1004FF40030C5E90379C5E905776A
:10515000EF61C5E908072846FDF7BEFE002818BF25
:10516000FDF74AF86563AC6325200521002225245C
:10517000BFE043F630000196C4F20200016941F439
:1051800080210161016901F4802101910199019659
:10519000016841F004010160006802A900F0040008
:1051A000019001984FF4406002900220039001208A
:1051B000049003200590072006900020C4F202000E
:1051C00000F50060FDF714FF40F6843546F2280034
:1051D000C2F20005C4F202004FF000614FF4806299
:1051E00085E843004FF40030C5E90362C5E9056670
:1051F000EE61C5E908062846FDF76EFE002818BFD7
:10520000FCF7FAFF6563AC63272004210022272402
:105210006FE0002643F630000196C4F202004169B7
:1052200046F2280841F0200141614169C4F20208B8
:1052300001F02001019101990196016841F04001BE
:105240000160006802A900F04000019001984FF44D
:1052500084400290022003900120049003200590D6
:10526000082006900020C4F2020000F5C050FDF7AF
:10527000BFFE40F6E43508F58060C2F200054FF04D
:1052800020674FF48069C5E900074FF40030C5E995
:105290000266C5E90496C5E90666C5E9080628461A
:1052A000FDF71AFE002818BFFCF7A6FF6563AC6384
:1052B00040F6444508F58F60C2F200054021C5E97B
:1052C000000705F1080080E842024FF48030C5E98C
:1052D0000566EE61C5E908062846FDF7FDFD0028D4
:1052E00018BFFCF789FF2563AC6347200521002226
:1052F0004724FEF779F92046FEF772F907B0BDE8BA
:10530000F08F0000B0B541F6CA450446C2F2000570
:1053100000202A88A37B2074D4F8F40061685A43E3
:10532000FBF7FBFD2988A27B60685143FBF751FE28
:105330002988A27BD4F8180151435143FBF749FE59
:105340002988227BA37BD4F80C0151435943FBF7F6
:1053500040FEA07B60B30020002105E0A27B01316C
:10536000914200F1040023D2D4F8F420131893EDF5
:10537000000AB5EE400AF1EE10FAEFD0237C656A20
:1053800002EB830282ED000AE954D4E9053294F875
:105390000CE052F800C0227C5B5CD4F80C5112FB8C
:1053A0000E3305EB8303013243F804CC2274D5E7B6
:1053B000207CA0B1D4F81CC0D4F824E0D4F8185153
:1053C000237C00211EF8012001FB00105CF8222044
:1053D000013145F8202099421846F3D31846217B25
:1053E000A4F87800A4F87A10A4F88010A4F8820039
:1053F000A4F89000A4F89200A4F89810A4F89A00D9
:10540000A4F84800B0BD0000FEE700002DE9F04F11
:1054100081B02DED0A8B86B040F2A01940F2E8175A
:10542000C2F20009C2F2000799ED040A97ED001AD2
:1054300040F2E01630EE412A9FEDBA1AB0EEC22AD1
:10544000B4EE412A40F2E41C40F2CC1840F2D01BEA
:1054500040F2D41A40F2D81E40F2DC14F1EE10FAF9
:10546000C2F20006C2F2000CC2F20008C2F2000B47
:10547000C2F2000AC2F2000EC2F200040DDC99ED85
:10548000052A96ED003A32EE432AB0EEC22AB4EE77
:10549000412AF1EE10FA40F330819FEDA3CA654630
:1054A00080EE0C0A4746D846D346F246FAF7E0FEAD
:1054B00099ED051AB0EE408A81EE0C1AB0EE410A61
:1054C000FAF7D6FE99ED061AB0EE409A81EE0C1A64
:1054D000B0EE410AFAF7CCFE99ED041AB0EE40AAFC
:1054E00081EE0C1AB0EE410AFAF7FEFE99ED051AAC
:1054F000B0EE40BA81EE0C1AB0EE410AFAF7F4FEB3
:1055000099ED061A81EE0C1AB0EE40CAB0EE410ACF
:10551000FAF7EAFE2BEE0C2A28EE0A1A22EE002AEF
:1055200040F2BC1031EE022AC2F2000080ED002AE7
:1055300040F2C01029EE0B2AC2F200002AEE0B3A0C
:1055400080ED002A28EE002A23EE0C4A40F2C41017
:1055500032EE442AC2F2000080ED002A28EE0C2A26
:1055600022EE002A40F2C81032EE432AC2F20000B6
:10557000D646DA46C346B84680ED002A28EE092A08
:1055800040F2E81788ED002A2BEE402A21EE0C1A93
:1055900029EE400AAC46C2F2000732EE411A8AED0B
:1055A000000A29EE0A0A00208BED001A8EED00CACF
:1055B00084ED000A89F8000003A8031F40F2A82028
:1055C000C2F20000A9F1040100F10C05032200BFA2
:1055D00095ED010A91ED021A043520EE010A83EDE2
:1055E000010A04330431013AF2D140F2BC11C2F293
:1055F000000191ED000A40F2C011C2F2000191EDEC
:10560000004A40F2C4119DED031A9DED042AC2F236
:1056100000019DED053A91ED007A20EE015A24EE4D
:10562000026A35EE065A27EE036A40F2C81135EEDB
:10563000065AC2F2000180ED045A91ED005A98ED2D
:10564000006ADBED002A61EE050A62EE061A70EED2
:10565000A10A63EE221A70EEA10AC0ED050ADAED86
:10566000000ADEED001AD4ED003A21EE201A22EEF7
:10567000212A31EE021A23EE232A31EE021A80ED9E
:10568000061A00F11C030ECB8DE80E009DED012AD9
:105690009DED001A24EE023A9DED024A20EE010A29
:1056A00030EE030A27EE043A30EE030A80ED070AD3
:1056B00025EE010A26EE023A30EE030A22EE843A83
:1056C00030EE030A80ED080A20EE810A21EE821AEC
:1056D00030EE010A23EE841A30EE010A09F11002BD
:1056E00080ED090A07CA31603860CCF8002006B0A6
:1056F000BDEC0A8B01B0BDE8F08F99F800000028DE
:105700007FF4CBAE99ED062A9CED003A32EE432AA7
:10571000B0EEC22AB4EE412AF1EE10FA7FF74CAF98
:10572000BBE600BF6F12833AE12E6542B0B52DEDA6
:10573000088B84B004460020D4F8EC50039095E820
:10574000070001AB07C39DED019A9DED028A9DED17
:1057500003AA95ED03BA29EE090A28EE081A30EEDD
:10576000010A2AEE0A1A30EE010A2BEE0B1A31EE6C
:10577000000A05F07FF86FF0030000BF291891EDD3
:10578000011A043020EE011A0C2881ED011AF5D11E
:1057900040F24830C2F2000090ED6F0AB6EE001AF7
:1057A00028EE000AD4F8002120EE010A82ED040A56
:1057B00090ED6F0AD4F8F8102AEE000A20EE010AE4
:1057C00082ED050A90ED6F0A29EE400A20EE010AEB
:1057D00082ED0A0A90ED6F0A2BEE000A20EE010A14
:1057E00082ED0B0A90ED6F0A2BEE400A20EE010AC3
:1057F00082ED100A90ED6F0A29EE400A20EE010AB0
:1058000082ED110A90ED6F0A2AEE000A20EE010ADD
:1058100082ED160A90ED6F0A28EE400A20EE010A8A
:1058200082ED170A90ED740A91ED1C1A81EE001AB0
:1058300091ED230A81ED1C1A90ED742A44F20000C8
:1058400080EE022A9FED0C0AC4F21C60B4EE401AEE
:10585000F1EE10FA81ED232AC8BF086791ED231AF3
:10586000B4EE401AF1EE10FAC8BFC1F88C0004B0D3
:10587000BDEC088BB0BD00BF00401C46B0B540F287
:105880004834C2F200040120207004F5D87080EC86
:10589000030A4CF67740C3F22B20B7EE000AC4F897
:1058A000CC010025F4EE401A201D0621002203231E
:1058B00084F83851F1EE10FAC8BFF0EE401AC4E98E
:1058C0005055C4E95255C4ED741A84ED642A00F0B1
:1058D00023FE04F5E07004F5E47301210122FAF7D8
:1058E000C1FDD4F8EC104FF07E52D4F80401C1E9A8
:1058F0000025C1E9025545F64911C0F6000145F2FF
:105900002D7245F6851345F6616504F1D00CC0F69D
:105910000002C0F60003C0F600058CE82E0040F23D
:105920000111E1854EF65C61C0F600019022FBF7A3
:10593000F4FAD4F8FC0040F20C01C2F2000190220B
:10594000FBF7EBFAB0BD000010B50446D0F8F81034
:1059500040F20C00C2F200009022FBF7DEFAD4F80D
:105960001C1140F23420C2F200004822FBF7D5FAA5
:10597000D4F80C1140F2EC10C2F200004822FBF700
:10598000CCFA10BD2DE9F0412DED068B41F6CA4150
:105990000446D0F8EC00C2F200010988A27B90ED29
:1059A000000A90ED011A90ED022A90ED033A237B54
:1059B00040F27C2840F2802640F2842740F288257D
:1059C000D4F80C01514330EE008AC2F2000831EEE7
:1059D000019AC2F2000632EE02AAC2F2000733EECA
:1059E000030AC2F20005594388ED008A86ED009A49
:1059F00087ED00AA85ED000AFBF7EBFAD4F80C015D
:105A0000B1EE4A0A80ED000A2968B1EE481A326800
:105A1000D8F800303F6880ED021AB1EE491A4160B3
:105A2000C260C0E90623C0E90817036380ED0D1AC0
:105A300080ED0E0AC163BDEC068BBDE8F08100006D
:105A4000F0B581B02DED108B40F24834C2F2000465
:105A50002078B0EE43BAB0EE628AB0EE429AB0EE71
:105A600061AAB0EE41CAB0EE60DAB0EE40EA58B9D1
:105A7000DFEDF10A9FEDF11A9FEDF12AB2EE040A73
:105A8000F7EE001AFFF7FAFE94ED580A94ED591A52
:105A900094ED5A2A3EEE400AB6EE003A3DEE411A27
:105AA0003CEE422A20EE03CA40F28C2684ED5B0ACB
:105AB0002CEE0B0AC2F2000621EE03DA40F290252A
:105AC00022EE03FA40F29427D4F804014EF65C610A
:105AD00086ED000A2DEE0BEAC2F200052FEE0B0A4E
